:020000040800F2
:100000000828002001010008850300087D0300087E
:100010008103000859020008B91B00080000000015
:100020000000000000000000000000004919000866
:100030005D020008000000006F010008351A00088A
:100040001B0100081B0100081B0100081B01000820
:100050001B0100081B0100081B0100081B01000810
:100060001B0100081B0100081B0100081B01000800
:100070001B0100081B0100081B0100081B010008F0
:100080001B0100081B0100081B0100081B010008E0
:100090001B0100081B0100081B0100081B010008D0
:1000A0001B0100081B0100081B0100081B010008C0
:1000B0001B0100081B0100081B0100081B010008B0
:1000C0001B0100081B0100081B0100081B010008A0
:1000D0001B0100081B0100081B0100081B01000890
:1000E0001B0100081B0100081B010008DFF80CD0F1
:1000F00000F098F800480047A91E000808280020D2
:100100000648804706480047FEE7FEE7FEE7FEE7B1
:10011000FEE7FEE7FEE7FEE7FEE7FEE7451A00081A
:10012000ED000008EFF3108072B6704780F310887E
:1001300070471F484FF0FF010170002080F30988CD
:100140001C48016881F308881B48012101701B4885
:100150004FF08051016062B6FEE718484FF08051C1
:100160000160704715484FF080510160704772B6CA
:10017000EFF3098028B1203880E8F00F10490968B2
:10018000086000B50F4880475DF804EB0E480F4942
:100190000A7802700A480E490A680260106890E8FE
:1001A000F00F203080F309884EF0040E62B67047DD
:1001B00022ED00E0140000204200002004ED00E0E9
:1001C000480000208D0C0008370000203800002077
:1001D0005000002040EA01039B0703D009E008C952
:1001E000121F08C0042AFAD203E011F8013B00F8FC
:1001F000013B521EF9D2704730B50B460146002034
:100200002022012409E021FA02F59D4205D303FAD8
:1002100002F5491B04FA02F52844151EA2F1010259
:10022000F1DC30BD064C074D06E0E06840F001030C
:1002300094E8070098471034AC42F6D3FFF75AFF12
:1002400050230008702300087047704770477047BC
:10025000704770477047704700BFFEE770472DE951
:10026000F04102460025002600200023002400273C
:1002700091F803C00CF00F0591F803C00CF0100CBE
:10028000BCF1000F03D091F802C04CEA050591F8CB
:1002900000C0BCF1000F31D0146800202BE04FF0FB
:1002A000010C0CFA00F3B1F800C00CEA03069E4200
:1002B00020D183004FF00F0C0CFA03F7BC4305FA72
:1002C00003FC4CEA040491F803C0BCF1280F06D1EA
:1002D0004FF0010C0CFA00FCC2F814C00AE091F8CF
:1002E00003C0BCF1480F05D14FF0010C0CFA00FC23
:1002F000C2F810C0401C0828D1D31460B1F800C067
:10030000BCF1FF0F34DD546800202EE000F1080C32
:100310004FF0010808FA0CF3B1F800C00CEA03062C
:100320009E4221D183004FF00F0C0CFA03F7BC431F
:1003300005FA03FC4CEA040491F803C0BCF1280F51
:1003400005D100F1080C08FA0CF8C2F8148091F8F5
:1003500003C0BCF1480F07D100F1080C4FF00108B1
:1003600008FA0CF8C2F81080401C0828CED354605C
:10037000BDE8F081416170470161704700BFFEE751
:1003800000BFFEE7704700001D481E481E481F487A
:100390001F48204820482148214822482248234815
:1003A00023482448244825482548264826482748E5
:1003B000274828482848294829482A482A482B48B5
:1003C0002B482C482C482D482D482E482E482F4885
:1003D0002F48304830483148314832483248334855
:1003E0003348344834483548354836483648374825
:1003F0003748384838483948394800BF7047000006
:10040000DC210008E0210008E6210008E8210008BE
:10041000E4210008EA210008EC210008EE21000890
:10042000F0210008F2210008F4210008F62100085C
:10043000F8210008FA210008FC210008FE2100082C
:1004400000220008022200080422000806220008F8
:10045000082200080A2200080C2200080E220008C8
:100460001022000812220008142200081622000898
:10047000182200081A2200081C2200081E22000868
:100480002022000822220008242200082622000838
:10049000282200082A2200082C2200082E22000808
:1004A00030220008322200083422000836220008D8
:1004B000441F0020C42300203A2200083C220008E8
:1004C0003E22000840220008422200084422000880
:1004D00046220008482200084A2200083822000864
:1004E0004C2200082DE9F04105460E46144600272F
:1004F0001148007818B112202070BDE8F0812878EA
:10050000012808D0022807D0032802D0042804D1EB
:1005100000E000BF00BF00BF02E001202070ECE758
:1005200000BFFFF7FFFD07466E613846FFF7FEFD8F
:100530000020207000BFE0E73500002010B500F07B
:1005400019F800F0D9FE00F005FF00F025FF00F0DB
:10055000A3FE00F063FE00F097FF00F0C1FF00F083
:1005600055FF00F06DFF00F065FC00F01BF8FFF791
:100570000BFF10BD0748802102E0491E002204C085
:100580000029FAD1044A054B1A600022044B1A8054
:10059000704700008400002080020020140000202A
:1005A000180000207047000006480078012808D194
:1005B00005480078FF2804D203480078401C02490F
:1005C00008707047420000203500002010B500245C
:1005D0001A480078012830D1FFF7A4FD04461848D6
:1005E000007820B116480078401E1549087014485C
:1005F0000078F8B913480078E0B900F0D3FF12484A
:100600001249097850F82100114908600F48007814
:100610001049097888420DD00D480068C06A401C16
:100620000B490968C8620C480068401C0A49086008
:10063000FFF798FD2046FFF779FD10BD420000202E
:1006400035000020360000203C1700203800002034
:1006500050000020370000201C00002010B50024AE
:100660000B480078012811D1FFF75CFD04460948CA
:10067000007840B908480078FF2804D2064800787E
:10068000401C054908702046FFF750FD10BD0000D2
:1006900042000020350000203600002010B5002464
:1006A00013480078012821D1FFF73CFD044611488A
:1006B0000078C0B91048007888B10F480078401E13
:1006C0000D4908700846007828B92046FFF72EFD2E
:1006D00000F02EFF0AE02046FFF728FD06E0204646
:1006E000FFF724FD02E02046FFF720FD10BD0000CB
:1006F00042000020350000203600002070B505467D
:1007000000261048007808B1002070BDFFF70AFDF0
:1007100006460D480468006820B10B480068406830
:10072000094908603046FFF701FD4CB103202070F5
:1007300025810020606005A06061204600F060FD1A
:100740002046E2E735000020200000203F000000A6
:100750002DE9F04105460E46144600272878032867
:1007600003D001202070BDE8F0813248007810B13C
:1007700002202070F7E73048007810B10D2020707B
:10078000F1E7FFF7CFFC0746288940B12889401ED2
:1007900028813846FFF7CAFC00202070E3E727488D
:1007A000006890F8240040F001002449096881F8AD
:1007B000240000202149096881F825001F480068AD
:1007C0000662284600F0DEFC3846FFF7AFFC00F07A
:1007D000AFFEFFF7A7FC07461848006890F8250011
:1007E00020B1012809D0022806D102E000202070A3
:1007F0000BE00E20207008E000BF29460F4800687B
:1008000000F08EFC0A20207000BF00BF00200B49C2
:10081000096881F824000949096881F82500074919
:100820000968C8600549096808613846FFF77EFC19
:1008300000BF98E735000020360000204800002067
:1008400070B5044600252078032801D0012070BD32
:10085000FFF768FC0546A07A60B100230122194623
:10086000204600F015FC2846FFF760FC00F060FE13
:100870000020ECE720894FF6FF71884207D22089DB
:10088000401C20812846FFF751FC0020DFE7284666
:10089000FFF74CFC3320DAE710B504462046FFF79B
:1008A000D3FC10BD2DE9FE4F06460F4690461C4670
:1008B0004FF00009FFF736FC81461F48007828B149
:1008C0004846FFF733FC3C20BDE8FE8F1B4850F83C
:1008D000240060BB0120194941F824004846FFF775
:1008E00025FC002342463946304600F02DF9824669
:1008F0000020009001900346024651460290204697
:1009000000F066FE054635B90D48007801280CD187
:1009100000F00EFE09E0FFF705FC814600200749C4
:1009200041F824004846FFF701FC2846CCE748463A
:10093000FFF7FCFB2820C7E7350000203C1700200C
:100940004200002010B504462046FFF77EFC10BD93
:100950002DE9F041054600274A48007810B14020B3
:10096000BDE8F0813F2D01D13E20F9E7FFF7DAFB2A
:100970000746FF2D03D14448006890F826504348AD
:1009800050F8254024B93846FFF7D0FB4320E7E76D
:10099000012C04D13846FFF7C9FB3D20E0E714F8ED
:1009A000280F3B49085C617888432178384A5054C5
:1009B00014F828091146085C30B994F82A10354813
:1009C0000078884333490870E06818B12046E16830
:1009D00000F0A6FB206918B12046216900F0B5FBA4
:1009E000A66916B1304600F045FC0020206284F86C
:1009F000240084F8250028480078FF2804D22648DF
:100A00000078401C244908703846FFF78FFB00F03F
:100A10003DFBFFF787FB07461F48007820B11E48C3
:100A20000078401E1C490870204600F041F81B4821
:100A30000078401E194908700020144941F825002B
:100A4000A06830B900206168886015496068086056
:100A500005E0D4E901014860D4E90110886011483B
:100A6000006860600F4804600FA020643846FFF7FC
:100A70005DFB0E480078012801D100F059FD0020EF
:100A80006EE7000035000020480000203C170020E1
:100A90003A000020390000203600002043000020EA
:100AA000540000204C0000203F00000042000020C5
:100AB00010B504462046FFF7C9FB10BD10B5FFF77F
:100AC000C6FB10BD2DE9F04106460F4614464FF017
:100AD00000081548007818B112202070BDE8F08198
:100AE000FFF720FB8046FF2E03D11048006890F8E6
:100AF00026600F4850F826502DB94046FFF716FBE8
:100B000043202070EAE7012D05D14046FFF70EFB98
:100B100043202070E2E72F644046FFF707FB0020E8
:100B2000207000BFDAE700003500002048000020F8
:100B30003C17002010B504462046FFF789FB10BD86
:100B400010B5FFF786FB10BD70B5044610464FF098
:100B500080750560051F28462C60214E051F28461C
:100B60002E604FF01236051F28462E604FF00336D8
:100B7000051F28462E604FF00236051F28462E60BE
:100B80007610051F28462E60051F284629604FF065
:100B90001136051F28462E604FF01036051F2846D7
:100BA0002E604FF00936051F28462E604FF008369C
:100BB000051F28462E604FF00736051F28462E6079
:100BC0004FF00636051F28462E604FF00536051FEC
:100BD00028462E604FF00436051F28462E6070BD53
:100BE000311700082DE9F04105464FF00008FFF7E6
:100BF00099FA8046FF2D05D12048006890F82650CC
:100C0000012608E01D48006890F82600A84201D19E
:100C1000012600E000261A4850F825402CB940462D
:100C2000FFF784FA4820BDE8F081012C04D140464A
:100C3000FFF77CFA4320F6E794F828701148C05D6E
:100C400094F8291088430F49C8550846C05D30B94B
:100C500094F82A100C48007888430B49087094F8DF
:100C6000240040F0080084F824004046FFF75EFAB4
:100C7000012E01D100F05CFC0020D4E748000020E8
:100C80003C1700203A0000203900002010B5FFF783
:100C9000E1FA10BD70B5054600261748007800B18E
:100CA00070BD1648007800B1FAE71DB3FFF73AFAB5
:100CB00006461348006890F828401248005D104925
:100CC000096891F8291088430E4908550846005DC7
:100CD00040B90B48006890F82A100B480078884308
:100CE000094908700648006805623046FFF71EFA99
:100CF00000F01EFC00BFD3E73500002036000020C6
:100D0000480000203A0000203900002070B500267D
:100D100000F072F8FFF706FA064631480068401CFA
:100D20002F4908603046FFF701FA2E480078012865
:100D300053D12D48007820B1012804D0022809D1D0
:100D400003E001250BE0002509E0012501202649EB
:100D5000087004E0012500202349087000BF00BF8F
:100D600005B970BD2148046833E0FFF7DBF906469A
:100D7000206A50B3206A401E2062206A28BB94F883
:100D8000240000F0370040B114F8240F00F0C80030
:100D9000207001206070243C02E0002084F82500CF
:100DA00094F8240000F0080078B92834A07810499D
:100DB000097808430E49087020780E49085C61786C
:100DC000084314F828190B4A505464683046FFF75A
:100DD000ADF994F826003F28C7D100BFC1E7000055
:100DE000680000204200002058000020540000202D
:100DF000390000203A00002010B5FFF72CFA074810
:100E00000088401C0549088008460088642803DBE8
:100E10000020088000F004F810BD00001800002039
:100E200010B503480068FFF70BFD0446204610BDCF
:100E300078000020F8B54FF42071284800F01AFB24
:100E40004021274800F016FB002514E0681C86B2FC
:100E500005EB8500214901EBC00406EB860001EBA0
:100E6000C00764202070002084F82500E7601DA0E2
:100E70002062681C85B20F2DE8D305EB8500174969
:100E800001EBC00464202070002084F82500E0609D
:100E900014A0206200201449086014490880102022
:100EA000134908800D48134908600120FFF726FC0C
:100EB000114908600020FFF721FC104908606A46CC
:100EC0000FA10D480068FFF70DFB6A4611A10B4802
:100ED0000068FFF707FB00F027F8F8BD441F00206B
:100EE000C42300203F000000700000206E0000209E
:100EF0006C0000207C00002074000020780000209E
:100F000075432F4F532D494920546D724C6F636BBD
:100F10000000000075432F4F532D494920546D7236
:100F20005369676E616C000008B53D23054A0021D6
:100F30000548FFF7B7FC6A4604A13D20FFF7C2FD54
:100F400008BD0000C0230020C90F000875432F4FC3
:100F5000532D494920546D720000000070B50B46B6
:100F6000032580F82550012B05D1154EC56936683B
:100F7000354445610CE085692DB9114EC569366867
:100F80003544456104E00E4E856936683544456157
:100F9000057D05F007040B4D05EBC4010D682DB967
:100FA00008600025C56001258D8006E00A6808609C
:100FB000C26010618D886D1C8D800025056170BD3B
:100FC00070000020C423002008B500BF00BF6A469F
:100FD00000211A480068FFF7BBFBFFF73FFB1848EA
:100FE0000068401C164908600846007800F00708B1
:100FF000144800EBC8073C681AE0E66810496069CD
:101000000968884213D1204600F01EF894F82400A5
:10101000022804D101212046FFF7A0FF02E00220B0
:1010200084F82500656815B12046A168A8473446B4
:10103000002CE2D1FFF732FBC9E700007800002066
:1010400070000020C423002030B5057D05F00704A2
:101050000D4D05EBC4031D68854205D1C1681960BB
:1010600039B100250D6104E00169C268CA6002B1AE
:101070001161012580F825500025C56005619D8816
:101080006D1E9D8030BD0000C4230020704700000D
:101090002DE9F04F05460F4690469946A87A1C491F
:1010A0000E5C05F10B00805D11F800B00BEBC60083
:1010B00000F0FF0A174850F82A4000201434E0607E
:1010C0002760207C20EA0800207484F81190207C9E
:1010D000143C00F0080068B994F82A000E49097819
:1010E00008430D4908700D48805D94F829100843A5
:1010F0000A4988552946204600F012F8206920B197
:101100002046216900F021F8E5605046BDE8F08FE7
:101110004E2200083C170020390000203A00002031
:1011200010B590F8282001F10B039B5C90F8294042
:10113000A34301F10B04A35423469B5C23B98B7A90
:1011400090F82A40A3438B7210BDF0B5024612F806
:10115000284F95785678283A0B4618680FE000F12A
:101160000B073F5DB74300F10B0C0CF804706746AA
:101170003F5D17B9877AAF4387721B1D1868002837
:10118000EDD1F0BD10B51B4A1268D060194A126843
:1011900092F8283000F10B02D25C164B1B6893F8D2
:1011A00029301A43134B1B6893F8284000F10B03B6
:1011B0001A55827A0F4B1B6893F82A301A438272B1
:1011C0000C4A126892F828100B4A525C094B1B68B3
:1011D00093F829309A43084B5A541A46525C42B944
:1011E000044A126892F82A30044A12789A43034B50
:1011F0001A7010BD480000203A000020390000207D
:10120000014600228A72002005E0002301F10B0252
:101210001354421CD0B20828F7D370472DE9F0418F
:101220005021114800F026F900250DE0681C86B217
:101230000D4800EB051400EB0617002020706760D6
:101240000AA0E060681C85B2042DEFD3064800EBCD
:10125000051400202070606004A0E060024804498A
:101260000860BDE8F0810000EC1200203F000000A3
:101270002400002030B501464A6808682AB9CC68C5
:10128000606028B10025456002E0106000B1426056
:101290008B6800259D6130BD70B541F2680113482F
:1012A00000F0E8F8002411E0601C85B204EB440073
:1012B0000E4901EBC00305EB450001EBC006002021
:1012C00018705E600AA05861601C84B2AE2CEBD32B
:1012D00004EB4400054901EBC0030020187058607E
:1012E00003A0586108460349086070BD84020020CD
:1012F0003F0000002000002000200B4908600B493F
:1013000008700B4908700B4908700B4908700B49AD
:1013100008600B4908600B4908600B4908600B49DD
:1013200008700B49087070476800002035000020E5
:101330003600002043000020420000201C00002056
:1013400044000020300000202C0000203400002049
:101350006400002000210A4A1170002004E00021EE
:10136000084A1154411CC8B20828F8D30021064A83
:101370001170064A1170064A1160064A11607047E2
:10138000390000203A0000203700002038000020FB
:10139000500000204800002070B54FF4C661164888
:1013A00000F068F84FF48071144800F063F80023EF
:1013B0000FE0581CC5B203EBC3000F4901EBC0049A
:1013C00005EBC50001EBC00666600DA02064581C4B
:1013D000C3B2152BEDD303EBC300074901EBC004E7
:1013E0000020606006A020640020064908600248D2
:1013F0000549086070BD00003C1800203C17002023
:101400003F000000540000204C00002008B53F239E
:10141000054A00210548FFF745FA6A4604A13F2026
:10142000FFF750FB08BD000038170020091700081F
:1014300075432F4F532D49492049646C65000000C6
:1014400008B53E23054A00210548FFF72BFA6A46F6
:1014500004A13E20FFF736FB08BD00003815002030
:101460004917000875432F4F532D49492053746184
:101470007400000004E0002200F8012B4A1E91B223
:101480000029F8D17047000070B578211148FFF7A6
:10149000F1FF00240EE004EB44000E4901EBC0050F
:1014A000601C00EB400001EBC00068600AA06861AE
:1014B000601C84B2042CEED304EB4400054901EB1C
:1014C000C0050020686004A0686108460349086000
:1014D00070BD00006C1E00203F0000005C0000207A
:1014E0002DE9F04160211048FFF7C4FF00240DE012
:1014F000601C86B204EB44000B4901EBC00506EB0F
:10150000460001EBC0072F60601C84B2032CEFD3B0
:1015100004EB4400044901EBC005002028600846A4
:1015200002490860BDE8F081E41E00206000002050
:1015300010B50024FEF7F6FD044613480078F8B90C
:1015400012480078E0B900F02DF8114811490978E7
:1015500050F82100104908600E4800780F490978BA
:1015600088420DD00C480068C06A401C0A490968CE
:10157000C8620B480068401C09490860FEF7EDFD91
:101580002046FEF7D3FD10BD3500002036000020B8
:101590003C170020380000205000002037000020B9
:1015A0001C0000200649074A1278885C0649095C3D
:1015B000034A515C01EBC001044A117070470000FE
:1015C0004E220008390000203A0000203800002098
:1015D0002DE9F84F05460F4690469946DDE90AABDE
:1015E00000200090FEF79EFD009040480468002C0B
:1015F00076D00C3454F8080C3C4908600098FEF78B
:1016000095FD44F80C7CA57600202076607660611C
:1016100000BF00BF00BF0C980C9000BF0020E07717
:10162000E810207705F00700E076217F0120884050
:10163000A077E17E01208840607700202060606014
:10164000E060A0602062A0626062E062206328A087
:1016500060630C3C002606E0002104F1440040F8E1
:101660002610701CC6B2012EF6DB2046FFF714F9D7
:10167000FEF758FD00901F4840F825400098FEF7FF
:1016800055FD2046FFF75EF9FEF74CFD00901A4825
:10169000006860600020A0601748006810B116481C
:1016A00000688460144804602834A07813490978DD
:1016B00008431249087020781149085C6178084392
:1016C00014F828190E4A50540E480078401C0D4951
:1016D00008700098FEF72AFD0020BDE8F88FFFE7AC
:1016E0000098FEF723FD4220F7E700004C000020A1
:1016F0003F0000003C17002054000020390000206B
:101700003A00002043000020002400BF00BFFEF785
:1017100009FD044605480068401C0449086020464D
:10172000FEF704FDFFF7CAF9F1E7000044000020CE
:1017300010B504480068FFF7FDF9FF20FFF708F92E
:1017400010BD00004800002000BF00BF02E0C8201C
:10175000FFF7A0FA1E4800780028F8D01D4800685E
:101760006421B0FBF1F01B4908600846006828B905
:10177000002019490870FF20FFF734FAFEF7D2FC69
:101780000446144800686421484314490860204610
:10179000FEF7CCFC00BFFEF7C5FC04460F4800680E
:1017A0000F49086000200D4908602046FEF7BEFC86
:1017B0000B48006807490968B0FBF1F0C0F164000C
:1017C00005490870FFF7BCF96420FFF763FAE2E708
:1017D000340000202C0000202800002044000020BD
:1017E0003000002029B1064A92690243044B9A61F5
:1017F00004E0034A92698243014B9A6170470000FA
:101800000010024030B500210022002400232D4D9D
:101810006D6805F00C0121B1042905D0082923D1F8
:1018200005E0294D056022E0274D05601FE0254DAC
:101830006D6805F47012234D6D6805F4803402253F
:1018400005EB92421CB9214D554305600BE01D4D3F
:101850006D6805F400351DB11C4D5543056002E06F
:10186000194D5543056002E0174D056000BF00BFEC
:10187000144D6D6805F0F0010909154D6B5C0568A4
:10188000DD4045600F4D6D6805F4E061090A104DBB
:101890006B5C4568DD4085600A4D6D6805F46051FC
:1018A000C90A0B4D6B5C4568DD40C560054D6D6830
:1018B00005F44041890B074D6B5CC568B5FBF3F53A
:1018C000056130BD0010024000127A0000093D00A1
:1018D000000000201000002021B1028842F04002E8
:1018E000028004E002884FF6BF731A4002807047FE
:1018F0000246002013890B400BB1012000E00020BC
:1019000070470146888970478181704710B5002271
:10191000028802F441520B884C8823438C8823436D
:10192000CC8823430C8923434C8923438C8923434C
:10193000CC8923431A430280838B4FF2FF742340E8
:1019400083830B8A038210BD704710B500F002F844
:1019500010BD00000CB500200190009033480068D5
:1019600040F480303149086000BF3048006800F41E
:10197000003000900198401C0190009818B901981F
:10198000B0F5A06FF1D12948006800F4003010B123
:101990000120009001E0002000900098012843D130
:1019A0002348006840F0100021490860084600689C
:1019B00020F0030008600846006840F0020008605C
:1019C0001A48406819494860084640684860084617
:1019D000406840F4806048600846406820F47C100D
:1019E00048600846406840F4E810486008460068CF
:1019F00040F08070086000BF0C48006800F0007084
:101A00000028F9D00948406820F0030007494860E1
:101A10000846406840F00200486000BF0348406844
:101A200000F00C000828F9D10CBD000000100240A5
:101A30000020024010B5FEF7B7FDFFF767F9FEF78B
:101A4000C5FD10BD10B51348006840F001001149F4
:101A5000086008464068104908400E49486008463A
:101A600000680E4908400B4908600846006820F4E9
:101A7000802008600846406820F4FE0048604FF46B
:101A80001F008860FFF761FF4FF0006004490860A5
:101A900010BD0000001002400000FFF8FFFFF6FE3E
:101AA00008ED00E021B1828942F40052828104E015
:101AB00082894DF6FF731A408281704702460020EA
:101AC000B1F5007F00D100BF13880B400BB101209E
:101AD00000E00020704700002DE9F04786B0054681
:101AE0000E460024A24600BFA1460027B08900B1DF
:101AF00000BF2F462C8A4CF6FF700440F088044348
:101B00002C82AC894EF6F3100440B088318908432A
:101B1000718908430443AC81AC8A4FF6FF4004400E
:101B2000B0890443AC8201A8FFF76CFE1F488742CE
:101B300002D1DDF810A001E0DDF80CA0A88900F4C6
:101B4000004040B10AEBCA0000EB0A1031684900BE
:101B5000B0FBF1F807E00AEBCA0000EB0A103168AD
:101B60008900B0FBF1F86420B8FBF0F00401200913
:101B7000642101FB1089A88900F4004040B13220A3
:101B800000EBC900B0FBF1F000F00700044308E0EF
:101B9000322000EB09106421B0FBF1F000F00F00DF
:101BA00004432C8106B0BDE8F087000000380140F6
:101BB000C1F308028280704700BFFEE70FB4054BF7
:101BC00010B503A9044A029800F018F810BC5DF89B
:101BD00014FB0000791E00088000002002E008C805
:101BE000121F08C1002AFAD170477047002001E097
:101BF00001C1121F002AFBD1704700002DE9FF4FE1
:101C00008BB09A460F460546002606E025280BD0E5
:101C100052460D9990476D1C761C28780028F5D106
:101C20000FB03046BDE8F08F0024A0460122604985
:101C300000E0044315F8013F203B02FA03F008429C
:101C4000F7D128782E2817D115F8010F44F0040495
:101C50002A280ED06FF02F022878A0F13001092930
:101C60000AD808EB880102EB410100EB01086D1C6A
:101C7000F2E757F8048B6D1C287869283ED006DC03
:101C80000028CDD063280BD0642804D136E0732817
:101C900010D075284BD052460D999047761C85E0A0
:101CA00017F8040B8DF8000000208DF80100E946BC
:101CB000012003E057F8049B4FF0FF3061074FF01D
:101CC000000401D40AE0641C44450DDA8442FADBC6
:101CD00019F804100029F6D106E0641C8442FCDBEC
:101CE00019F804100029F8D1264404E019F8010B72
:101CF00052460D999047641EF8D257E001CF4FF03D
:101D00000A0B002802DA40422D2102E0210504D509
:101D10002B218DF82410012103E0E10705D02021BB
:101D2000F7E70DF1200908910CE00021F9E701CF58
:101D30004FF00A0BF9E75946FEF75EFA01F130025F
:101D400009F8012D0028F6D1ADEB090000F1200BB8
:101D5000600701D44FF00108D84502DDA8EB0B0065
:101D600000E000208046002406E009A85246005DFD
:101D70000D999047641C761C08988442F5DB04E0BA
:101D8000302052460D999047761CB8F10001A8F119
:101D90000108F5DC05E019F8010B52460D99904752
:101DA000761CBBF10001ABF1010BF4DC6D1C34E7D8
:101DB0000928010000B587B01C2205A16846FEF77E
:101DC00009FA694609A0FFF7F9FE07B000BD000057
:101DD0000D0A2064656275672D7573617274312018
:101DE000697320776F726B696E670A002573000054
:101DF0001FB501218803FFF7F5FC4FF4E130009097
:101E00000020ADF80C000C20ADF80A000020ADF861
:101E10000800ADF80600ADF8040069460348FFF776
:101E20005BFE01210148FFF73DFE1FBD0038014068
:101E300008B503208DF8020018208DF803004FF438
:101E40000070ADF8000069460748FEF708FA4FF445
:101E50008060ADF8000004208DF803006946024858
:101E6000FEF7FDF908BD00000008014010B500F0C4
:101E7000AFF9FFF79FFF10BD70B504460D46E1B204
:101E80000548FFF795FE00BF80210348FFF716FEC7
:101E90000028F9D0204670BD0038014010B501215E
:101EA0003D20FFF79FFC10BDFEF748FBFFF7F6FF54
:101EB000FFF7DCFF00F014F800F078F900F0EAF822
:101EC00004E04FF480710248FEF756FAF9E700008B
:101ED000000C014010B500F061F800F037F810BDBB
:101EE00030B585B06846FFF78DFC4FF47A720198E3
:101EF000B0FBF2F1B1F1807F01D301201DE021F0B0
:101F00007F40401E4FF0E022506150170F22002802
:101F100007DA13071D0E0B4B00F00F04241F1D558D
:101F200003E013071C0E084B1C5400BF00204FF0A9
:101F3000E022906107201061002008B100BFFEE799
:101F400005B030BD18ED00E000E400E000B585B05C
:101F500001210803FFF746FC1020ADF80C0000201B
:101F6000ADF80800ADF806000720ADF8100000201D
:101F7000ADF80400ADF80000ADF80E004FF482702B
:101F8000ADF8020069460448FFF7C0FC0121024891
:101F9000FFF7A2FC05B000BD0030014008B51820D5
:101FA0008DF8030003208DF802002020ADF800001A
:101FB00069461448FEF753F94020ADF80000694621
:101FC0001048FEF74CF98020ADF8000069460D4836
:101FD000FEF745F910208DF80300ADF800006946C2
:101FE0000848FEF73CF90120ADF8000069460648B4
:101FF000FEF735F90220ADF8000069460248FEF709
:102000002EF908BD00080140000C01401FB514A0C6
:1020100003C8CDE9020114A103C9CDE900011021D3
:10202000134800F093F8052202A9202000F06AF876
:1020300010210F4800F08AF805226946002000F0C0
:102040003DF8002401E0601CC4B2052CFBDB05D187
:1020500008A0FFF7B3FD012004B010BD0020FBE78E
:1020600014141414140000000707070707000000E9
:1020700000300140524320696E697469616C697A6D
:102080006564207375636365737366756C6C792121
:102090000A00000010B5FFF701FFFFF71BFF022148
:1020A0000448FEF767F910210348FEF765F9FFF7CA
:1020B000ADFF10BD000C0140000801402DE9F041CA
:1020C00005460E46174610210C48FEF753F92946DF
:1020D0000B4800F03BF88046002406E00021084849
:1020E00000F034F83055601CC4B2BC42F6DB10215D
:1020F0000248FEF741F94046BDE8F0810008014082
:10210000003001402DE9F04105460E4617461021EA
:102110000C48FEF72FF929460B4800F017F88046C7
:10212000002405E0315D084800F010F8601CC4B2DE
:10213000BC42F7DB10210348FEF71EF94046BDE81C
:10214000F0810000000801400030014070B50546F4
:102150000E46642407E0601EC4B224B9002000F0DB
:1021600021F8C0B270BD02212846FFF7C1FB00284C
:10217000F1D031462846FFF7C7FB642407E0601E14
:10218000C4B224B9012000F00DF8C0B2EAE7012181
:102190002846FFF7ADFB0028F1D02846FFF7B1FB3A
:1021A000C0B2DFE7014600207047000008B50320F9
:1021B0008DF8020010208DF803000001ADF800003A
:1021C00069460248FEF74BF808BD0000000C0140CC
:1021D00010B5FFF72DFEFFF70BFE10BD010000004C
:1021E000785634120100AF00010018006810010099
:1021F0000100100014000200050001003F00010072
:102200000100050001001800780001000400010031
:102210000400180008000100040001000000010093
:102220008000010016000100010080000100010093
:1022300040004800E803010017720100100001008F
:1022400008000A002800800208004000DA1F000091
:10225000010002000100030001000200010004006F
:10226000010002000100030001000200010005005E
:10227000010002000100030001000200010004004F
:10228000010002000100030001000200010006003D
:10229000010002000100030001000200010004002F
:1022A000010002000100030001000200010005001E
:1022B000010002000100030001000200010004000F
:1022C00001000200010003000100020001000700FC
:1022D00001000200010003000100020001000400EF
:1022E00001000200010003000100020001000500DE
:1022F00001000200010003000100020001000400CF
:1023000001000200010003000100020001000600BC
:1023100001000200010003000100020001000400AE
:10232000010002000100030001000200010005009D
:10233000010002000100030001000200010004008E
:102340000100020001000300010002000100000082
:10235000702300080000002084000000DC1B00083F
:10236000F42300088400002084270000EC1B0008F0
:10237000000000000102030401020304060708092B
:102380000204060800000000000000000000000039
:10239000000000000000000000000000000000003D
:1023A000000000000000000000000000000000002D
:1023B000000000000000000000000000000000001D
:1023C000000000000000000000000000000000000D
:1023D00000000000000000000000000000000000FD
:1023E00000000000000000000000000000000000ED
:0423F00000000000E9
:04000005080000ED02
:00000001FF
