:020000040800F2
:10000000E00700200101000851190008371000081E
:100010004D190008ED0A0008F53200080000000044
:10002000000000000000000000000000752900082A
:10003000050F00080000000051260008612A000892
:100040001B0100081B0100081B0100081B01000820
:100050001B0100081B0100081B0100081B01000810
:100060001B0100081B0100081B0100081B01000800
:100070001B0100081B0100081B0100081B010008F0
:100080001B0100081B0100081B0100081B010008E0
:100090001B0100081B0100081B0100081B010008D0
:1000A0001B0100081B0100081B0100081B010008C0
:1000B0001B0100081B010008712B00081B01000830
:1000C0001B0100081B0100081B0100081B010008A0
:1000D0001B0100081B0100081B0100081B01000890
:1000E0001B0100081B0100081B010008DFF80CD0F1
:1000F00000F080FC00480047B1470008E0070020FE
:100100000648804706480047FEE7FEE7FEE7FEE7B1
:10011000FEE7FEE7FEE7FEE7FEE7FEE7112B00083D
:10012000ED00000840EA01039B0703D009E008C97D
:10013000121F08C0042AFAD203E011F8013B00F8AC
:10014000013B521EF9D27047F0B480EA0102D40F8D
:100150004200B2EB410F02D20246084611464A0065
:1001600042D0C30DDDB2C1F3C752AD1A202D35DA2E
:10017000C1F3160141F4000204B15242C5F1200658
:1001800002FA06F12A411044B3EBD05F23D0C4B188
:10019000012DA0EBC35009DCF0BC4FF0004202EA95
:1001A000C352DBB200F5000000F006BB400000F1D6
:1001B000807000EBC350A0F1807040EAD17049001C
:1001C00009E0490841EAC071A0EBC35000F5000006
:1001D000400800EBC350F0BC00F0E5BA61420122D8
:1001E00002EB4101001BF6E7F0BC704781F00041D3
:1001F000AAE780F00040A7E780EA010210B502F00C
:100200000043400022D04A001FD0010E01EB1261D2
:10021000C0F35600C2F3560240F4000042F400025C
:10022000A0FB022000047F39140400D0401C50EAD7
:10023000124001D44000491EC2B20C0604EBD0109B
:10024000401C4008802A02D003E0002010BD20F0AE
:100250000100002900DA0020184310BD30B480EA04
:10026000010202F0004530F0004221F0004013D0BE
:1002700090B1C30DD40DC2F31601C0F31600E41AF9
:1002800041F4000140F400027D34914201D3641C2A
:1002900000E04900002C02DA30BC002070474FF427
:1002A00000000023914201D3891A034340084FEA1A
:1002B0004101F7D151B1914202D14FF0004105E027
:1002C00002D24FF0010101E06FF0010103EBC450D5
:1002D000284430BC00F067BA2DE9FE4F804681EA21
:1002E0000300C00F0C46009021F0004123F00045B0
:1002F000B8EB0200A94105D24046214690461C4673
:100300000B46024623F00040104347D0270DC7F3A9
:100310000A00C3F30A510290401A019040286BDA98
:10032000C3F3130040F4801B0098924620B10023D1
:10033000D2EB030A63EB0B0B01985946C0F1400264
:10034000504600F00FFA06460D4650465946019AAF
:1003500000F017FA10EB08006141002487EA1152FF
:1003600084EAE7731A4340D0009A62B3019A012AE3
:100370004FEA075215DC001B61EB02014FF000420F
:1003800002EA0752CDE90042001C41F580113246D5
:100390002B4600F078FA03B0BDE8F08F40462146C6
:1003A000F9E7001B61EB0201001C41F58013001806
:1003B0005B412018A2F5001747EB030140EAD57016
:1003C000B6196D4111E06D084FEA360645EAC07571
:1003D0004FEA0752001B61EB0201001C41F580113E
:1003E00049084FEA30000019514132462B4603B00C
:1003F000BDE8F04F00F038BA009801224000002319
:10040000D0EB020263EBE073009821464FEAE07400
:10041000B8EB000061EB0401E9E783F000435BE720
:1004200081F0004158E72DE9FE4F81EA030404F012
:10043000004421F0004100944FF0000B23F00043F2
:1004400050EA01045ED052EA03045BD0C3F30A54BD
:10045000C1F30A552C44A4F2F3340194A0FB0254D6
:10046000C1F3130141F48011C3F3130343F4801368
:1004700001FB024400FB034E840A970A44EA8154BC
:1004800047EA8357A4FB076802958D0A05FB078599
:100490004FEA932C04FB0C542705029D4FEA0658A3
:1004A00047EA1637B5EB08056EEB070C870E920E80
:1004B00047EA811742EA8312A7FB0201B6EB0B0160
:1004C00064EB00042B0D43EA0C335E1844EB1C5024
:1004D000DA465146E7FB0201C5F313044FEA0B333A
:1004E00043EA14534FEA0432019C43EA0603A4F1A1
:1004F0000C040294009CCDE900B400F0C4F903B0F0
:10050000BDE8F08F00200146F9E72DE9F04D81EAC2
:10051000030404F0004B21F0004514464FF0000A9C
:1005200023F0004150EA050220D054EA01021DD018
:10053000C5F30A570246C5F31303C1F31300C1F311
:100540000A5640F4801543F48013A7EB0608101BED
:10055000D64608F2FD3873EB050002D308F1010816
:1005600001E092185B41B8F1000F03DA0020014668
:10057000BDE8F08D00204FF48011064684460EE061
:10058000171B73EB050705D3121B63EB050306432B
:100590004CEA010C49084FEA300092185B4150EADE
:1005A0000107EDD152EA030012D082EA040083EA87
:1005B0000501084305D0101BAB4106D201220023E0
:1005C00006E000224FF0004302E06FF001025310FA
:1005D0001AEB06004CEB085110EB0A0041EB0B0143
:1005E000BDE8F04D00F040B9C10F80EAE07008446A
:1005F000CA079623002100F0DFB896230022114697
:1006000000F0DAB80EB5C10F80EAE0700844CA07FE
:10061000002140F233438DE80E000A460B4600F0FD
:1006200032F903B000BD00F0004220F00040C10DDF
:10063000C0F3160040F400007F2901DA0020704763
:10064000962903DCC1F19601C84001E09639884043
:10065000002AF4D04042704720F00040C10DC0F3A2
:10066000160040F400007F2901DA00207047962927
:1006700003DCC1F19601C840704796398840704745
:1006800000F0004230F000400AD0C10D01F5607169
:10069000C0F3160042EA0151C208400711437047F7
:1006A000002001467047000030B5041E71F10004BF
:1006B00004DB4FF00044404264EB0101141E73F16F
:1006C000000405DB1C464FF00043524263EB040379
:1006D0008B4208BF824230BD01F0004330B421F0AC
:1006E000004150EA010206D00A0DA2F56072C1F382
:1006F0001301002A02DC30BC00207047440F44EA9A
:10070000C104C100E01830BC00EBC25000F04BB88F
:10071000002801DBC0F10040002901DBC1F10041EC
:1007200081427047002801DBC0F10040002901DB55
:10073000C1F100418842704730B50B4601460020A8
:100740002022012409E021FA02F59D4205D303FA93
:1007500002F5491B04FA02F52844151EA2F1010214
:10076000F1DC30BD202A04DB203A00FA02F100203F
:1007700070479140C2F1200320FA03F319439040DF
:100780007047202A06DBCB17203A41FA02F043EAF1
:10079000E07306E041FA02F3D040C2F1200291403A
:1007A0000843194670470029A8BF7047401C4900FC
:1007B00008BF20F00100704710B4B0FA80FC00FAC6
:1007C0000CF050EA010404BF10BC704749B1CCF1F1
:1007D000200421FA04F411FA0CF118BF012121437D
:1007E0000843A3EB0C01CB1D4FEA00614FEA102038
:1007F00042BF002010BC704700EBC35010440029DA
:10080000A4BF10BC7047401C490008BF20F0010085
:1008100010BC7047420005D0C0F3C752524291420B
:1008200001DC0020704700EBC150704710B541005B
:100830000CD0C0F3C751962908DC7E2909DC06DB01
:10084000410204D000F0004040F07E5010BD002076
:1008500010BDC1F19604C4F1200100FA01F1E0409D
:10086000FFF7A1FFA04010BD10B5141E73F10004E6
:1008700008DA401C41F1000192185B411A4301D192
:1008800020F0010010BD2DE9F04D92469B4611B1BC
:10089000B1FA81F202E0B0FA80F220329046FFF71E
:1008A00061FF04460F4640EA0A0041EA0B01534645
:1008B0005A46084313D0114653EA010019D0C8F133
:1008C0004002504600F0A8F805460E4650465946EC
:1008D0004246FFF747FF084305D0012004E02046C9
:1008E0003946BDE8F08D0020054346EAE0762C430A
:1008F00037430A986305E40AA0EB08000022FD0ACA
:1009000044EA47540A3002D500200146E9E70105D0
:1009100010196941DDE9084500196941BDE8F04D4C
:10092000A2E770B521F0004303430CD0C1F30A5590
:100930000024D5EB040564EB0403D617AD1AB341CC
:1009400002DB0020014670BD201841EB025170BD52
:100950002DE9F04D00231A461B1A8A4103DB0020C3
:100960000146BDE8F08DC1F30A52C1F3130141F411
:1009700080154FF0000BD10702D100186D41521EB7
:100980000027044640F2FF11384601EB620A3E465A
:100990008046024600204FF4801100F03DF8C21955
:1009A0007141BB1846EB0100B4EB030C75EB000C76
:1009B00004D3E41A65EB000517460E46241908F126
:1009C00001006D4180463428E3DDF91946EB06004D
:1009D000091BA84103D24FF0FF32134601E0002269
:1009E00013461BEB070046EB0A51BDE8F04DFFF73D
:1009F0003BBF0000064C074D06E0E06840F00103F5
:100A000094E8070098471034AC42F6D3FFF772FB26
:100A10007856000898560008202A04DB203A21FA6C
:100A200002F00021704721FA02F3D040C2F1200207
:100A30009140084319467047F0B4002802DCF0BC2E
:100A400000207047C0F3C751C0F3160040F4000007
:100A5000CA0701D14000491E3F2202EB6105002276
:100A600011464FF4000626FA01F31344D4188442C9
:100A700001D8001B1A464000491C1729F3DD51001C
:100A8000814202D24FF0FF3100E0002102EBC5505D
:100A9000F0BCFFF788BE70B58C1810F8015B15F03C
:100AA000070301D110F8013B2A1106D110F8012BE0
:100AB00003E010F8016B01F8016B5B1EF9D12B0705
:100AC00005D40023521E0DD401F8013BFAE710F8BB
:100AD000013BCB1A921C03E013F8015B01F8015BA8
:100AE000521EF9D5A142D8D3002070BD00BFFEE749
:100AF00070B50025002403F0D9FE0646FFF77DFD02
:100B000004461748006840B115480068FFF775FDB6
:100B100006462146FFF76DFB00E000200546204613
:100B2000FFF79AFD0E4908602846FFF77CFD064650
:100B30000C48D0F8AC200C48334641680B4801F013
:100B4000B3FC2846FFF76FFD06460648D0F8A820FC
:100B5000054833460168064801F0A6FC70BD000058
:100B60008C000020EC020020BC010020CC01002001
:100B70002C0200202DE9F05F4FF00009002403F063
:100B800095FE0546FFF739FD04463448006840B13C
:100B900032480068FFF731FD05462146FFF729FB83
:100BA00000E0002081462046FFF756FD2B490860F3
:100BB0004846FFF738FD83462949C86EFFF760FDB8
:100BC0000746284A284BFFF72EFC0546FFF784FD11
:100BD000824626485B465246C16A254801F064FCBD
:100BE0004846FFF720FD83461D49886EFFF748FD04
:100BF00007461C4A1C4BFFF716FC0546FFF76CFD29
:100C000082461C485B465246C16A1B4801F04CFCB8
:100C10004846FFF708FD83461149086FFFF730FD8E
:100C20000746104A104BFFF7FEFB0546FFF754FD41
:100C3000824612485B4652468168114801F034FCF6
:100C40000B48C06A0F4908600B48C06A0E4908602B
:100C50000B48C06A0D490860BDE8F09F9000002075
:100C6000EC02002012143FC6DCA54C40CC01002051
:100C7000FC0100202C0200205C020020BC010020AE
:100C8000BC0200208400002080000020880000209A
:100C90002DE9F0417A49886D7A49FFF7DFFA064677
:100CA0007948C068794908607948016877480068E0
:100CB000FFF79CFA0746774801683846FFF744FA81
:100CC0000546754801682846FFF73EFA0446FFF7D7
:100CD000AAFC00B2714988806D4801686B480068C1
:100CE000FFF732FA07466B4801683846FFF77EFA8D
:100CF0000546694801682846FFF726FA0446FFF7CB
:100D000092FC00B265490880614801685F4800684C
:100D1000FFF76CFA07465F4801683846FFF766FA46
:100D200005465D4801682846FFF760FA0446FFF76C
:100D30007AFC00B25949C880554801685348006898
:100D4000FFF702FA0746534801683846FFF7FCF9F7
:100D50000546514801682846FFF748FA0446FFF760
:100D600062FC00B24D4948800846B0F9000040F2EC
:100D7000E731884202DB0846484908804748B0F915
:100D8000020040F2E731884202DB084643494880CE
:100D90004248B0F9040040F2E731884202DB0846DD
:100DA0003E4988803D48B0F9060040F2E73188426C
:100DB00002DB08463949C8803848B0F900000028ED
:100DC00002DC0020354908803448B0F902000028D0
:100DD00002DC0020314948803048B0F90400002886
:100DE00002DC00202D4988802C48B0F9060000283C
:100DF00002DC00202949C88029A002F07DFA27489A
:100E0000B0F900102BA002F077FA2448B0F90210D4
:100E10002CA002F071FA2148B0F904102DA002F0C4
:100E20006BFA1E48B0F906102EA002F065FA3148A0
:100E30000078C0B1304915480068FFF773FC12D242
:100E400001202E490870154800884FF0804188869F
:100E50001248408808871148808888870F48C088D2
:100E60002749088009E00020244908704FF080419C
:100E700088860887888722490880BDE8F0810000BD
:100E8000EC0200200AE81C41BC0100207C0000208C
:100E90008400002080000020880000206A000020DC
:100EA000E794B5E69CBAE8BE93E587BA3A20200AF3
:100EB000000000004D6F746F722D313A2025640AD6
:100EC000000000004D6F746F722D323A2025640AC5
:100ED000000000004D6F746F722D333A2025640AB4
:100EE000000000004D6F746F722D343A2025640AA3
:100EF00000000000480000200000A042690000201F
:100F00004000004070472DE9F041024600250026D0
:100F1000002000230024002791F803C00CF00F05E7
:100F200091F803C00CF0100CBCF1000F03D091F845
:100F300002C04CEA050591F800C0BCF1000F31D0A9
:100F4000146800202BE04FF0010C0CFA00F3B1F80C
:100F500000C00CEA03069E4220D183004FF00F0C24
:100F60000CFA03F7BC4305FA03FC4CEA040491F8BD
:100F700003C0BCF1280F06D14FF0010C0CFA00FCA5
:100F8000C2F814C00AE091F803C0BCF1480F05D1C3
:100F90004FF0010C0CFA00FCC2F810C0401C0828ED
:100FA000D1D31460B1F800C0BCF1FF0F34DD546838
:100FB00000202EE000F1080C4FF0010808FA0CF3B5
:100FC000B1F800C00CEA03069E4221D183004FF025
:100FD0000F0C0CFA03F7BC4305FA03FC4CEA0404BB
:100FE00091F803C0BCF1280F05D100F1080C08FAF4
:100FF0000CF8C2F8148091F803C0BCF1480F07D177
:1010000000F1080C4FF0010808FA0CF8C2F8108043
:10101000401C0828CED35460BDE8F0810246002071
:1010200093680B400BB1012000E000207047416144
:1010300070470161704700BFFEE700002DE9F047EF
:101040009EB0DFF8D4A200201B901C901D9024229B
:10105000B24912A8FFF766F800200F901090119087
:101060000C900D900E9009900A900B9003F01EFCCE
:101070008146AB48006850B1A9490968A9EB010055
:10108000FFF7BBFA0546A749FFF7E8F800E00020A4
:101090008246A348C0F8009001F086FBA248806E0B
:1010A0000C90A148C06E0D909F48006F0E909E4816
:1010B000006D0F909C48406D10909B48806D119082
:1010C0009A494FF07E520B98CDE9061ACDE90402F9
:1010D000DDE91023DDE90910CDE90023CDE9021097
:1010E0000CA80FC800F0A2FD914801689148006863
:1010F000FFF72AF80646904801683046FFF776F871
:1011000005468E4801682846FFF770F812908C4813
:1011100001688C480068FFF76FF806468A48016846
:101120008A480068FFF768F807463146FFF70CF871
:1011300005464FF08041FFF75FF813908248016841
:1011400080480068FFF758F806467D4801687F48E8
:101150000068FFF751F807463146FFF747F80546A4
:101160004FF08041FFF748F81490754801687548C2
:101170000068FFF741F80646734801687348006845
:10118000FFF73AF807463146FFF730F805464FF0CB
:101190008041FFF731F8159065480168654800689F
:1011A000FFF724F80646644801683046FEF7CCFF96
:1011B0000546624801682846FFF718F8169063480C
:1011C000016860480068FFF717F806465C48016848
:1011D0005D480068FFF710F807463146FEF7B4FF98
:1011E00005464FF08041FFF707F817905648016811
:1011F00054480068FFF700F8064651480168534814
:101200000068FEF7F9FF07463146FEF79DFF0546E9
:101210004FF08041FEF7F0FF18904C4801684948B4
:101220000068FEF7E9FF0646454801684648006841
:10123000FEF7E2FF07463146FEF7D8FF05464FF0BE
:101240008041FEF7D9FF1990394801683948006894
:10125000FEF7CCFF0646384801683046FEF7C6FF69
:101260000546364801682846FEF76EFF1A901A991F
:10127000179802F03FFE1B90149802F0D9FB80F003
:1012800000401C90DDE9121002F034FE1D90002495
:1012900008E012A850F824102348743040F82410B5
:1012A000601CC4B2092CF4DB1F491B98C1F8B400C0
:1012B0001C98C1F8B8001D98C1F8BC001B98FFF736
:1012C000DFF90746224A234BFFF7ADF80546FFF743
:1012D00003FA1549C1F8A8001C98FFF7D1F9054693
:1012E0001B4A1C4BFFF79FF80746FFF7F5F90E491D
:1012F000C1F8AC001D98FFF7C3F90546144A154B19
:10130000FFF791F80746FFF7E7F90749C1F8B00082
:101310001EB0BDE8F08700000AD7233C4455000802
:10132000A801002000247449EC020020CDCC4C3DE3
:101330008C0100207C01002098010020A0010020E9
:10134000680100205C010020640100206001002091
:10135000D9CEF753E3A54C4070B50025002400BF5B
:101360000CE00020364941F82400364941F82400B9
:101370003549088035494870601CC4B2032CF0DB45
:1013800024E001F011FA002419E0304A143252F836
:1013900024102B4A52F82400FEF7D6FE284941F8C3
:1013A00024002A4A203252F82410264A52F82400F7
:1013B000FEF7CAFE234941F82400601CC4B2032C86
:1013C000E3DB21480088401C1F4908801E48008834
:1013D000B0F5967FD5DB00241FE01B480088FFF79F
:1013E0000CF90646164951F824003146FEF736FF3F
:1013F0001649383141F8240013480088FFF7FDF8FA
:101400000646104951F824003146FEF727FF0F49E0
:10141000443141F82400601CC4B2032CDDDB0B49CD
:10142000086C0B49FEF7E2FE0849086400200949F0
:1014300008700120054948700125284670BD00004C
:10144000AC030020B803002056010020EC0200206D
:101450000AE81C415A0100202DE9F0470446002506
:101460000026002125480068FFF752F902D82046DF
:10147000BDE8F0872248016822480068FEF7BCFEFC
:1014800080462148016821480068FEF7B5FE814684
:101490002146FEF7AEFE07464146FEF7A7FE05468B
:1014A000284601F06AFF18B9284601F05CFF00B138
:1014B00025461748016813480068FEF79DFE8046E0
:1014C0001448016811480068FEF796FE81461248EC
:1014D00001682846FEF790FE82464946FEF734FE34
:1014E00007464146FEF730FE0646084800680549B3
:1014F0000860064805603046BAE700009400002006
:101500009C000020B000002098000020AC000020CB
:10151000A8000020A4000020A00000202DE9F04732
:10152000044600250026002125480068FFF7F0F852
:1015300002D82046BDE8F0872248016822480068AA
:10154000FEF75AFE80462148016821480068FEF7F0
:1015500053FE81462146FEF74CFE07464146FEF704
:1015600045FE0546284601F008FF18B9284601F057
:10157000FAFE00B125461748016813480068FEF7D7
:101580003BFE80461448016811480068FEF734FEAF
:101590008146124801682846FEF72EFE82464946DB
:1015A000FEF7D2FD07464146FEF7CEFD0646084847
:1015B000006805490860064805603046BAE7000043
:1015C000B4000020BC000020D0000020B8000020A3
:1015D000CC000020C8000020C4000020C000002073
:1015E0002DE9F04704460025002600212548006823
:1015F000FFF78EF802D82046BDE8F0872248016840
:1016000022480068FEF7F8FD80462148016821481D
:101610000068FEF7F1FD81462146FEF7EAFD074628
:101620004146FEF7E3FD0546284601F0A6FE18B93F
:10163000284601F098FE00B1254617480168134876
:101640000068FEF7D9FD804614480168114800681B
:10165000FEF7D2FD8146124801682846FEF7CCFD10
:1016600082464946FEF770FD07464146FEF76CFD8F
:101670000646084800680549086006480560304687
:10168000BAE70000D4000020DC000020F0000020B9
:10169000D8000020EC000020E8000020E40000203A
:1016A000E00000202DE9F047044600250026002137
:1016B00025480068FFF72CF802D82046BDE8F087DF
:1016C0002248016822480068FEF796FD80462148BE
:1016D000016821480068FEF78FFD81462146FEF72C
:1016E00088FD07464146FEF781FD0546284601F084
:1016F00044FE18B9284601F036FE00B125461748C9
:10170000016813480068FEF777FD804614480168B9
:1017100011480068FEF770FD8146124801682846AE
:10172000FEF76AFD82464946FEF70EFD0746414632
:10173000FEF70AFD064608480068054908600648A5
:1017400005603046BAE70000F4000020FC000020ED
:1017500010010020F80000200C01002008010020EA
:1017600004010020000100202DE9F0470446002577
:101770000026002125480068FEF7CAFF02D820464F
:10178000BDE8F0872248016822480068FEF734FD72
:1017900080462148016821480068FEF72DFD8146FA
:1017A0002146FEF726FD07464146FEF71FFD05468A
:1017B000284601F0E2FD18B9284601F0D4FD00B139
:1017C00025461748016813480068FEF715FD804656
:1017D0001448016811480068FEF70EFD8146124862
:1017E00001682846FEF708FD82464946FEF7ACFC34
:1017F00007464146FEF7A8FC06460848006805492A
:101800000860064805603046BAE700001401002071
:101810001C01002030010020180100202C010020B4
:101820002801002024010020200100202DE9F0479C
:10183000044600250026002125480068FEF768FFC1
:1018400002D82046BDE8F087224801682248006897
:10185000FEF7D2FC80462148016821480068FEF767
:10186000CBFC81462146FEF7C4FC07464146FEF705
:10187000BDFC0546284601F080FD18B9284601F058
:1018800072FD00B125461748016813480068FEF74D
:10189000B3FC80461448016811480068FEF7ACFCB0
:1018A0008146124801682846FEF7A6FC8246494652
:1018B000FEF74AFC07464146FEF746FC0646084846
:1018C000006805490860064805603046BAE7000030
:1018D000340100203C01002050010020380100208C
:1018E0004C0100204801002044010020400100205C
:1018F000002013490861C8601420486100208861F5
:10190000C8610846006840F0010008600846406869
:101910000C4908400A494860084600680A490840DE
:10192000074908600846006820F4802008600846DF
:10193000406820F4FE004860002088607047000086
:10194000001002400000FFF8FFFFF6FE00BFFEE7B8
:101950007047000070B5002100230F22C47804B343
:10196000154C246804F4E064C4F5E064210AC1F174
:101970000403CA40447804FA03F1847814402143F4
:1019800009010E4C0678A155047804F01F050124C6
:10199000AC4005786D11AD0005F1E025C5F80041BA
:1019A00009E0047804F01F050124AC40044D0678DA
:1019B000761145F8264070BD0CED00E000E400E033
:1019C00080E100E02DE9F04F8BB004468946924655
:1019D0005046FEF755FE05460E464846FEF750FEB9
:1019E0002A463346CDE9000102F0C4F90746FEF766
:1019F00073FE0A9084F0004B5846FEF741FE0746FE
:101A000001F0DEFE0546FEF767FE09900A9802F037
:101A10009FFB08900A9803F0C3FA0790099802F018
:101A200097FB0690099803F0BBFA059000200490FC
:101A30004FF07C510A98FEF7DFFB054602F088FB69
:101A400008904FF07C510A98FEF7D6FB054603F04C
:101A5000A7FA07904FF07C510998FEF7CDFB054699
:101A600002F076FB06904FF07C510998FEF7C4FB1C
:101A7000054603F095FA05904FF07C510498FEF767
:101A8000BBFB054602F064FB03904FF07C510498C9
:101A9000FEF7B2FB054603F083FA0290059907981A
:101AA000FEF7AAFB07460299FEF7A6FB0546069934
:101AB0000898FEF7A1FB07460399FEF79DFB064633
:101AC0002946FEF741FB4B49086005990898FEF747
:101AD00093FB07460299FEF78FFB0546DDE90610EA
:101AE000FEF78AFB07460399FEF786FB0646294662
:101AF000FEF77CFB40490860DDE90610FEF77CFB41
:101B000007460299FEF778FB054605990898FEF707
:101B100073FB07460399FEF76FFB06462946FEF75F
:101B200013FB3649086005990798FEF765FB0746E1
:101B30000399FEF761FB054606990898FEF75CFBE2
:101B400007460299FEF758FB06462946FEF74EFB6C
:101B50002B490860274801680068FEF74DFB2949BA
:101B600008602548016823480068FEF745FB2649C0
:101B70000860224801681F480068FEF73DFB2349C2
:101B800008601F4801681B480068FEF735FB2049C4
:101B90000860194801680068FEF72EFB1D490860BF
:101BA0001648016814480068FEF726FB1A490860C9
:101BB0001348016810480068FEF71EFB17490860CB
:101BC0000E4801680068FEF717FB154908600C48CD
:101BD00001680A480068FEF70FFB124908600848D0
:101BE00001680068FEF708FB0F4908600BB0BDE80C
:101BF000F08F00005C0100206001002064010020E3
:101C0000680100207C010020800100208401002068
:101C1000880100208C010020900100209401002008
:101C2000980100209C010020A00100200FB595B074
:101C30000020129011901090FE48007858B9DDE90C
:101C40001D01CDE900011AA90EC91898FFF7BAFEC7
:101C50000120F849087000211C98FEF759FD09D1B0
:101C600000211D98FEF754FD04D100211E98FEF7B7
:101C70004FFD7DD01E990846FEF7BEFA06901D99CD
:101C80000846FEF7B9FA04901C990846FEF7B4FA24
:101C900003900499FEF758FA05900699FEF754FA56
:101CA000079002F057FD139013991C98FEF7A4FAC1
:101CB0001C9013991D98FEF79FFA1D9013991E987A
:101CC000FEF79AFA1E90DC480168DC480068FEF7CF
:101CD0003BFA04901E99FEF78FFA0690D8480168E7
:101CE000D8480068FEF782FA02901D99FEF784FA40
:101CF0000490D54801684FF07C50FEF777FA0190C8
:101D0000D24801680198FEF771FA02901C99FEF71B
:101D100073FA03900499FEF717FA05900699FEF7F7
:101D200013FA4FF080410790FEF766FA0F90C8480B
:101D30000168C8480068FEF759FA04901E99FEF73A
:101D40005BFA0690C44801684FF07C50FEF74EFAEB
:101D50000190BE4801680198FEF748FA02901D996B
:101D6000FEF74AFA0490B6480168B648006800E0F9
:101D700000E1FEF7E9F902901C99FEF73DFA0390A5
:101D80000499FEF7E1F905900699FEF7DDF94FF0A9
:101D900080410790FEF730FA0E90AF4801684FF08F
:101DA0007C50FEF723FA0390A74801680398FEF7DA
:101DB0001DFA05904FF080401E99FEF71DFA049021
:101DC0000599FEF719FA0790A1480168A148006833
:101DD000FEF7BAF903904FF080401D99FEF70CFA18
:101DE00002900399FEF708FA05909348016893481A
:101DF0000068FEF7FBF903904FF080401C99FEF756
:101E0000FBF902900399FEF7F7F904900599FEF7A4
:101E10009BF906900799FEF797F90D900E990846E1
:101E2000FEF7EAF902900F990846FEF7E5F90190EE
:101E30000299FEF789F90390FEF722FCCDE904012F
:101E400003F0E4FACDE90601FEF746FC0C900D988C
:101E50000B907948016879480068FEF7C7F905904A
:101E60000B99FEF7C9F90790774801684FF07C504D
:101E7000FEF7BCF90490754801680498FEF7B6F9BE
:101E800005900C99FEF7B8F906900799FEF75CF9F2
:101E90000A90704801686E480068FEF755F9059091
:101EA0000B99FEF7A9F90790654801686548006835
:101EB000FEF79CF905900C99FEF79EF9069007999C
:101EC000FEF742F90990644801684FF07C50FEF734
:101ED0008DF904905C4801680498FEF787F9059035
:101EE0000B99FEF789F90790544801685248006839
:101EF000FEF72AF905900C99FEF77EF906900799EE
:101F0000FEF722F9089008991D98FEF775F90690DA
:101F100009991E98FEF770F905900699FEF766F983
:101F200007901299FEF710F912900A991E98FEF781
:101F300063F9069008991C98FEF75EF905900699DA
:101F4000FEF754F907901199FEF7FEF811900999E0
:101F50001C98FEF751F906900A991D98FEF74CF966
:101F600005900699FEF742F907901099FEF7ECF8F4
:101F7000109000BF00211898FEF7CAFB09D100217C
:101F80001A98FEF7C5FB04D100211B98FEF7C0FB91
:101F90004FD01B990846FEF72FF90B901A99084667
:101FA000FEF72AF9099018990846FEF725F90890D6
:101FB0000999FEF7C9F80A900B99FEF7C5F80C903D
:101FC00002F0C8FB139013991898FEF715F91890B2
:101FD00013991A98FEF710F91A9013991B98FEF7A7
:101FE0000BF91B901448016814480068FEF7FEF8CE
:101FF0000F901848016816480068FEF7A5F80E9083
:102000004FF07C5115480068FEF7F0F80C900F482F
:1020100001680C98FEF798F80D900D991A98FEF744
:10202000EBF80B900E991B98FEF7E6F80A900B99C7
:1020300016E047E0A4010020840100209401002064
:10204000880100209001002098010020A0010020BC
:10205000800100209C0100208C0100207C010020D8
:10206000FEF7C4F880F000400C901299FEF76CF86F
:1020700012900F991B98FEF7BFF80B900D991898C6
:10208000FEF7BAF80A900B99FEF7B0F880F000401E
:102090000C901199FEF758F811900E991898FEF7C8
:1020A000ABF80B900F991A98FEF7A6F80A900B99C7
:1020B000FEF79CF880F000400C901099FEF744F871
:1020C000109000BF00211298FEF722FB7DD0002166
:1020D0001198FEF71DFB78D000211098FEF718FB31
:1020E00073D000212098FEF71DFB4ED21299209844
:1020F000FEF782F80E902199FEF77EF80F90D748F0
:10210000006801460E900F98FEF71EF8D34908604C
:1021100011992098FEF770F80E902199FEF76CF84F
:102120000F90CE48406801460E900F98FEF70CF8CD
:10213000CA49486010992098FEF75EF80E902199E0
:10214000FEF75AF80F90C548806801460E900F9828
:10215000FDF7FAFFC14988600846006801460F9004
:102160001598FDF7F1FF1590BC48406801460F90A7
:102170001698FDF7E9FF1690B848806801460F9061
:102180001798FDF7E1FF179004E00020B3490860BD
:102190004860886012991F98FEF72EF80F901599E5
:1021A000FDF7D2FF159011991F98FEF725F80F90B3
:1021B0001699FDF7C9FF169010991F98FEF71CF8A5
:1021C0000F901799FDF7C0FF1790A5481799006861
:1021D000FEF712F80E90A34816990068FEF70CF867
:1021E0000C90A148006880F000400A901599FEF715
:1021F00003F80B900C99FDF7F9FF0D900E99FDF780
:10220000F5FF4FF07C510F90FDF7F6FF97490860FE
:10221000934816990068FDF7EFFF0E9091481799C3
:102220000068FDF7E9FF0C90914801681598FDF7EB
:10223000E3FF0B900C99FDF787FF0D900E99FDF7CA
:10224000D5FF4FF07C510F90FDF7D6FF894908600C
:10225000834801681598FDF7CFFF0E9082481799C3
:102260000068FDF7C9FF0C90814816990068FDF7DA
:10227000C3FF0B900C99FDF7B9FF0D900E99FDF778
:1022800063FF4FF07C510F90FDF7B6FF7A4908606D
:10229000744801681598FDF7AFFF0E9072481699C3
:1022A0000068FDF7A9FF0C90714817990068FDF7C9
:1022B000A3FF0B900C99FDF747FF0D900E99FDF7CA
:1022C00095FF4FF07C510F90FDF796FF6B4908602A
:1022D000664801682198FDF78FFF0F9064480168F8
:1022E0000F98FDF731FF6249086062480168219844
:1022F000FDF782FF0F905C4801680F98FDF724FFFF
:10230000594908605C4801682198FDF775FF0F90F6
:10231000544801680F98FDF717FF52490860574865
:1023200001682198FDF768FF0F904D4801680F98EC
:10233000FDF70AFF4A490860084601680068FDF792
:102340005BFF0E90474801680068FDF755FF0C9051
:10235000454801680068FDF74FFF0A90444801684E
:102360000068FDF749FF09900A99FDF7EDFE0B9013
:102370000C99FDF7E9FE0D900E99FDF7E5FE0F9023
:1023800002F0E8F913903A4813990068FDF734FF1A
:1023900037490860344813990068FDF72DFF32492A
:1023A0000860304813990068FDF726FF2D49086042
:1023B0002B4813990068FDF71FFF294908602C4836
:1023C00001680068FDF718FF2D490860264801687C
:1023D00027480068FDF710FF2A4908602148016876
:1023E00023480068FDF708FF274908601C4801687A
:1023F0001F480068FDF700FF244908601A4801687B
:102400000068FDF7F9FE2249086016480168164881
:102410000068FDF7F1FE1F49086011480168124885
:102420000068FDF7E9FE1C4908600E480168006875
:10243000FDF7E2FE1949086009480168094800688B
:10244000FDF7DAFE16490860054801680068FDF7E7
:10245000D3FE1449086019B000BD0000C403002079
:102460006801002064010020600100206C01002050
:102470005C01002070010020740100207801002020
:102480007C010020800100208401002088010020C0
:102490008C01002090010020940100209801002070
:1024A0009C010020A00100202DE9FC5F04460E469F
:1024B00091469A4600255046FEF7A4F80022394B73
:1024C000CDE90001FEF721F80746FEF705F983463E
:1024D00049463046FDF78AFE2061D4E90401FDF744
:1024E00085FE07465946FDF7B9FEA062A16AA068BD
:1024F000FDF782FE0190216A6068FDF77DFE80464F
:1025000021692068FDF778FE41460090FDF71CFE2A
:1025100007460199FDF718FEE062206960612248D4
:10252000007800283AD021480078B0B320480068ED
:10253000FEF7A6F807468846E06AFEF7A1F821F004
:1025400000413A464346CDE90001FEF7ADF827D2F7
:1025500059462069FDF750FE0746216AFDF7F4FD54
:102560000546606A80F0004729463846FEF7D0F8F5
:1025700016D22846616AFEF7CBF811D2606A80F065
:1025800000473846E16AFEF7C3F809D2616AE06A9B
:10259000FEF7BEF804D2256202E0FFE700202062C9
:1025A000BDE8FC9F80842E41480000206900002087
:1025B0007C0000201A481B490860002048608860A1
:1025C0001948486219481A4908604FF07C50486021
:1025D000184888601448486211481749086000206C
:1025E00048608860104848621048144908604FF0FD
:1025F0007C5048600F4888600B4848624FF07E501E
:102600000F4908600F484860002088600E480F4955
:1026100008604FF07C5048600020886070470000E0
:1026200000006040CC010020000096433333333F6C
:10263000FC0100208FC2F53C2C0200205C0200202F
:102640008C020020CDCC4C3E0000A040BC020020FB
:102650007047000029B1064AD2690243044BDA618F
:1026600004E0034AD2698243014BDA6170470000FB
:102670000010024029B1064A12690243044B1A6154
:1026800004E0034A12698243014B1A61704700005B
:102690000010024029B1064A92690243044B9A6134
:1026A00004E0034A92698243014B9A61704700003B
:1026B0000010024029B1064AD2680243044BDA6096
:1026C00004E0034AD2688243014BDA60704700009D
:1026D0000010024030B500210022002400232D4DBF
:1026E0006D6805F00C0121B1042905D0082923D11A
:1026F00005E0294D056022E0274D05601FE0254DCE
:102700006D6805F47012234D6D6805F48034022560
:1027100005EB92421CB9214D554305600BE01D4D60
:102720006D6805F400351DB11C4D5543056002E090
:10273000194D5543056002E0174D056000BF00BF0D
:10274000144D6D6805F0F0010909154D6B5C0568C5
:10275000DD4045600F4D6D6805F4E061090A104DDC
:102760006B5C4568DD4085600A4D6D6805F460511D
:10277000C90A0B4D6B5C4568DD40C560054D6D6851
:1027800005F44041890B074D6B5CC568B5FBF3F55B
:10279000056130BD0010024000127A0000093D00C2
:1027A00000000020100000202DE9FC5F4FF0000920
:1027B0004E4801F0E0FE4D48801D01F0FCFE002473
:1027C00031E04A4931F91400FDF70EFF06464FF09B
:1027D0006251FDF711FD05464549FDF70DFD4349E1
:1027E000123141F824000C3931F91400FDF7FCFED8
:1027F00083464049FDF700FD8246FDF741FF3E4A12
:102800003E4BCDE90001FDF70EFE074600223C4B92
:10281000FDF77BFE0546FDF75FFF34491E3141F8A9
:102820002400601CC4B2032CCBDB304A921E916B97
:102830005069FDF7DBFC0546FEF70EFE2B49891EAD
:1028400008650A46D16B9069FDF7D0FC0546FEF796
:1028500065FE2649891E48650A46116CD069FDF758
:10286000C5FC0546FEF7BCFE2049891E88650A4660
:10287000516C106AFDF7BAFC0546FEF713FF1B49C1
:10288000891E88660A46916C506AFDF7AFFC0546C2
:10289000FEF76AFF1549891EC8660A46D16C906A20
:1028A000FDF7A4FC0546FEF7C1FF1049891E086725
:1028B0000846D0F85090406D80F00040086589F0DF
:1028C00000410A48801E4165D0F86890C06E0749F3
:1028D000891E88660846C0F86C90006F80F0004141
:1028E0000248801E0167BDE8FC9F0000EE02002048
:1028F0000AE81C4100007A3D97D17E5AFB2109402D
:102900000080664021B1028842F04002028004E06B
:1029100002884FF6BF731A400280704702460020BB
:1029200013890B400BB1012000E0002070470146E5
:10293000888970478181704710B50022028802F4AF
:1029400041520B884C8823438C882343CC882343F3
:102950000C8923434C8923438C892343CC8923430B
:102960001A430280838B4FF2FF74234083830B8AC8
:10297000038210BD704710B500F002F810BD0000D2
:102980000CB50020019000903348006840F480307E
:102990003149086000BF3048006800F40030009002
:1029A0000198401C0190009818B90198B0F5A06FEB
:1029B000F1D12948006800F4003010B101200090E6
:1029C00001E0002000900098012843D123480068CE
:1029D00040F01000214908600846006820F003001C
:1029E00008600846006840F0020008601A48406825
:1029F000194948600846406848600846406840F405
:102A0000806048600846406820F47C1048600846B2
:102A1000406840F4E81048600846006840F0807064
:102A2000086000BF0C48006800F000700028F9D072
:102A30000948406820F0030007494860084640689C
:102A400040F00200486000BF0348406800F00C00FE
:102A50000828F9D10CBD00000010024000200240FF
:102A600002480068401C014908607047300000209F
:102A700000B502460023FEF73BFF2248006840F401
:102A800080302049086000BF1E480068400C0028C4
:102A9000FAD04FF480601B494860901EC2B20846CD
:102AA000406840EA824048600846406840F4803010
:102AB00048601548006840F032001349086011482A
:102AC000006840F080700F49086000BF0D48006842
:102AD000400E0028FAD00B48406840F00200094937
:102AE000486005E007484068C0F3870303F003032C
:102AF000022BF7D1901CC006000E0449087008464E
:102B0000007800BD00100240002002403400002088
:102B100010B51348006840F00100114908600846EC
:102B20004068104908400E494860084600680E4950
:102B300008400B4908600846006820F480200860BF
:102B40000846406820F4FE0048604FF41F0088608B
:102B5000FFF711FF4FF000600449086010BD00004E
:102B6000001002400000FFF8FFFFF6FE08ED00E055
:102B700010B50121294800F06BF900284DD02848F4
:102B80000088401C2649088026480088401C2549AA
:102B9000088025480088401C234908802348008875
:102BA000401C80B22149088000EBC00101EB0010FD
:102BB0004FF47A71B1EB400F05DC00201B4908800F
:102BC00001201B4908701B480088401C80B219492D
:102BD000088000EB80004FF47A71B1EB800F05DCC8
:102BE0000020144908800120134908701348008808
:102BF000401C80B21149088000EB80004FF47A71CC
:102C0000B1EB400F05DC00200C49088001200C4985
:102C100008700121014800F018F810BD00080040BC
:102C20004C0000205A000020600000205C000020C2
:102C300052000020620000205500002064000020A7
:102C400056000020CA4302827047CA43028270477E
:102C500021B1028842F00102028004E002884FF6AE
:102C6000FE731A400280704710B5044668488442DB
:102C700008D10121C014FFF71DFD0021E014FFF76A
:102C800019FDC4E0B4F1804F08D101210846FFF7D7
:102C9000F1FC00210120FFF7EDFCB8E05D48844223
:102CA00008D101210220FFF7E5FC00210220FFF7F7
:102CB000E1FCACE05848844208D101210420FFF730
:102CC000D9FC00210420FFF7D5FCA0E05348844242
:102CD00008D101210820FFF7CDFC00210820FFF7D3
:102CE000C9FC94E04E48844208D101211020FFF72E
:102CF000C1FC00211020FFF7BDFC88E04948844258
:102D000008D101212020FFF7B5FC00212020FFF78A
:102D1000B1FC7CE04448844208D101214014FFF713
:102D2000C9FC00216014FFF7C5FC70E03F488442F5
:102D300009D10121C804FFF7BDFC00214FF4002098
:102D4000FFF7B8FC63E03A48844209D10121080545
:102D5000FFF7B0FC00214FF48010FFF7ABFC56E00A
:102D60003448844209D101214805FFF7A3FC002122
:102D70004FF40010FFF79EFC49E02F48844208D131
:102D800001214020FFF776FC00214020FFF772FC74
:102D90003DE02A48844208D101218020FFF76AFCE7
:102DA00000218020FFF766FC31E02548844208D1ED
:102DB00001218015FFF75EFC0021A015FFF75AFCEA
:102DC00025E02048844209D101210804FFF772FC64
:102DD00000214FF48030FFF76DFC18E01A48844260
:102DE00009D101214804FFF765FC00214FF40030B0
:102DF000FFF760FC0BE01548844208D101218804EC
:102E0000FFF758FC00214FF48020FFF753FC10BD62
:102E1000002C01400004004000080040000C00406D
:102E2000001000400014004000340140004C0140FC
:102E3000005001400054014000180040001C0040B8
:102E40000020004000400140004401400048014093
:102E500030B50246002000230024158A05EA01034C
:102E6000958905EA010413B10CB1012000E00020AE
:102E700030BD1AB183890B43838102E083898B4380
:102E80008381704770B5002400220023058C4FF623
:102E9000FE7635400584028C8388048B4FF68F754F
:102EA0002C40B51E2C400D882C43751E2A400D89E0
:102EB0002A434D882A43144DA8420BD0134DA842F3
:102EC00008D0134DA84205D0124DA84202D0124D91
:102ED000A84213D14FF6F7752A404D892A434FF681
:102EE000FB752A408D882A434FF6FF652B404FF62D
:102EF000FF552B408D892B43CD892B438380048341
:102F0000CD888586028470BD002C014000340140CC
:102F10000040014000440140004801400A460021B1
:102F2000018B4FF6F773194011430183704700007E
:102F300070B5002400220023058C4FF6EF76354053
:102F40000584028C8388048B48F6FF752C404FF66D
:102F5000FF452C400D884FF6FF7606EA05252C43E9
:102F60004FF6DF752A400D8906EA05152A434D887C
:102F700006EA05152A43154DA84202D0144DA84271
:102F80001DD14FF67F752A404D894FF6FF7606EA30
:102F900005152A434FF6BF752A408D8806EA0515A8
:102FA0002A434FF6FF352B404FF2FF752B408D899A
:102FB00006EA85052B43CD8906EA85052B438380E8
:102FC0000483CD880587028470BD0000002C014079
:102FD000003401400A460021018B4FF2FF73194073
:102FE0004FF6FF7303EA0223194301837047000081
:102FF00070B5002400220023058C4FF6FF66354093
:103000000584028C8388848B4FF68F752C404FF695
:10301000FC752C400D882C434FF6FF552A400D8936
:103020004FF6FF7606EA05252A434D8806EA052570
:103030002A43154DA84202D0144DA8421DD14FF28B
:10304000FF752A404D894FF6FF7606EA05252A438B
:103050004FF6FF352A408D8806EA05252A434EF6AD
:10306000FF752B404DF6FF752B408D8906EA05153F
:103070002B43CD8906EA05152B4383808483CD88B5
:103080008587028470BD0000002C0140003401409F
:103090000A460021818B4FF6F77319401143818353
:1030A0007047000070B5002200230024058C4EF606
:1030B000FF7635400584038C8488828B48F6FF7543
:1030C0002A404FF6FF452A400D884FF6FF7606EA64
:1030D00005252A434DF6FF752B400D8906EA053577
:1030E0002B434D8806EA05352B430B4DA84202D0F1
:1030F0000A4DA84208D14BF6FF752C408D894FF63A
:10310000FF7606EA85152C4384808283CD88A0F85B
:103110004050038470BD0000002C01400034014089
:103120000A460021818B4FF2FF7319404FF6FF735F
:1031300003EA0223194381837047000000220288BA
:103140001D4B98420ED01D4B98420BD0B0F1804FD2
:1031500008D01B4B984205D01A4B984202D01A4B0C
:10316000984204D14FF68F731A404B881A43174B7D
:10317000984207D0164B984204D04FF6FF431A40AE
:10318000CB881A4302808B8883850B8803850A4B82
:1031900098420BD0094B984208D00E4B984205D06C
:1031A0000D4B984202D00D4B984201D10B7A038609
:1031B0000123838270470000002C0140003401404D
:1031C0000004004000080040000C004000100040D7
:1031D000001400400040014000440140004801400C
:1031E00021B1828942F40052828104E082894DF645
:1031F000FF731A408281704702460020B1F5007FBC
:1032000000D100BF13880B400BB1012000E000206B
:10321000704700002DE9F04786B005460E460024B1
:10322000A24600BFA1460027B08900B100BF2F46CB
:103230002C8A4CF6FF700440F08804432C82AC8941
:103240004EF6F3100440B088318908437189084371
:103250000443AC81AC8A4FF6FF400440B08904437C
:10326000AC8201A8FFF736FA1F48874202D1DDF889
:1032700010A001E0DDF80CA0A88900F4004040B1E6
:103280000AEBCA0000EB0A1031684900B0FBF1F804
:1032900007E00AEBCA0000EB0A1031688900B0FBB6
:1032A000F1F86420B8FBF0F004012009642101FB6F
:1032B0001089A88900F4004040B1322000EBC90019
:1032C000B0FBF1F000F00700044308E0322000EB0F
:1032D00009106421B0FBF1F000F00F0004432C81D1
:1032E00006B0BDE8F087000000380140C1F30802D5
:1032F0008280704700BFFEE70FB4054B10B503A9ED
:10330000044A029800F080F910BC5DF814FB00003C
:10331000FD430008B4010020490050EAC12018BF55
:1033200004204A0D18BF40F0010040F2FF72B2EBDA
:10333000515F08BF40F00200012808BF0520704718
:103340004100080218BF04200A0E18BF40F0010017
:103350004FF07F4232EA010108BF40F0020001282D
:1033600008BF0520704701464FF07F40B0EB410F8A
:1033700001D1012070470020FCE7014621F0004008
:10338000C0F1FF40C00F70472DE9F0414F1E00EB28
:10339000C7010446D1E9000115461E4637F0060272
:1033A0000DD02A463346FDF73EF87F1E04EBC703D7
:1033B000D3E90023FCF790FF37F00602F1D1022F8A
:1033C00025D0042F13D0062F18BFBDE8F0812A4660
:1033D0003346FDF728F8D4E90A23FCF77DFF2A4697
:1033E0003346FDF720F8D4E90823FCF775FF2A4699
:1033F0003346FDF718F8D4E90623FCF76DFF2A469B
:103400003346FDF710F8D4E90423FCF765FF2A469C
:103410003346FDF708F8D4E90223FCF75DFF2A469E
:103420003346FDF700F8D4E90023BDE8F041FCF78E
:1034300053BF0122FDF775BAFCF74EBF00221346B9
:1034400010461146FDF761B8024A00201107FDF74A
:1034500068BA000001FDFFFF0121FDF7DBB9FCF7B1
:1034600073BE00210846FCF7F9BE6FF05E01080745
:10347000FDF7D0B92DE9F04D0D4614464FF07F41D0
:10348000B1EB440F9EBF4FF0FF312960BDE8F08DD6
:103490004FF0004040EA0421C4F3C750783810F0E0
:1034A0001F024A4B4FEA601CC2F120067B44C4F362
:1034B000C750A0F178004FEA601003EB800053F88A
:1034C0002C3008BFD0E901C612D0D0F804C0934018
:1034D0002CFA06F73B4387680CFA02FC27FA06F839
:1034E000C06807FA02F2F0404CEA080C42EA000613
:1034F000A3FB0132ACFB01C0A6FB016101EB0C0692
:103500008E4234BF4FF0010C4FF0000CC1186144E3
:10351000BCF1000F02D0814202D903E0814201D206
:10352000012000E00020104400F120024FEA921830
:103530008006CA0C40EA42304F03C5F80080FDF710
:1035400053F882463846FDF758F86FF01201FDF740
:1035500061F907463046FDF750F86FF02501FDF799
:1035600059F9834639465046FCF7EEFD5946FCF7BB
:10357000EBFD00F500666FF30B0651463046FCF795
:1035800035FE3946FCF732FE5946FCF732FE10494B
:10359000FCF732FE07460F493046FCF72DFE394650
:1035A000FCF7D2FD07460C493046FCF725FE3946AC
:1035B000FCF7CAFD14F0004F08BFBDE8F08DC8F15C
:1035C000805180F000402960BDE8F08DA821000006
:1035D000DB0FC92F22AAFD290000C92F02E008C86D
:1035E000121F08C1002AFAD170477047002001E07D
:1035F00001C1121F002AFBD1704700000149086079
:1036000070470000B80100202DE9FF4F8BB09A46AB
:103610000F460546002606E025280BD052460D9998
:1036200090476D1C761C28780028F5D10FB03046E5
:10363000BDE8F08F0024A0460122604900E0044369
:1036400015F8013F203B02FA03F00842F7D1287831
:103650002E2817D115F8010F44F004042A280ED0A3
:103660006FF02F022878A0F1300109290AD808EB61
:10367000880102EB410100EB01086D1CF2E757F8ED
:10368000048B6D1C287869283ED006DC0028CDD03C
:1036900063280BD0642804D136E0732810D0752835
:1036A0004BD052460D999047761C85E017F8040BD5
:1036B0008DF8000000208DF80100E946012003E0AC
:1036C00057F8049B4FF0FF3061074FF0000401D41E
:1036D0000AE0641C44450DDA8442FADB19F8041050
:1036E0000029F6D106E0641C8442FCDB19F80410C2
:1036F0000029F8D1264404E019F8010B52460D992F
:103700009047641EF8D257E001CF4FF00A0B002813
:1037100002DA40422D2102E0210504D52B218DF84B
:103720002410012103E0E10705D02021F7E70DF186
:10373000200908910CE00021F9E701CF4FF00A0BB6
:10374000F9E75946FCF7F8FF01F1300209F8012DBD
:103750000028F6D1ADEB090000F1200B600701D481
:103760004FF00108D84502DDA8EB0B0000E0002077
:103770008046002406E009A85246005D0D99904756
:10378000641C761C08988442F5DB04E03020524625
:103790000D999047761CB8F10001A8F10108F5DCFD
:1037A00005E019F8010B52460D999047761CBBF1C4
:1037B0000001ABF1010BF4DC6D1C34E709280100BA
:1037C0002DE9F04D8D4F21F0004A86B005460C469C
:1037D000BA452ADBAAEB070028430AD0884882456D
:1037E00001DC1AD1CDB106B02846BDE8F04DFFF797
:1037F00020BE844A844B2846FCF715FE07460E4639
:10380000824A834B28462146FCF70DFE06B03A4615
:103810003346BDE8F04DFCF75FBD0120FFF7EEFE3B
:1038200006B0BDE8F04DFFF709BE7A48824542DA9E
:10383000BAF1795F0BDA2846FFF76EFD042808BF5E
:10384000FFF702FE284606B02146BDE8F08D2A4665
:103850000B461046FCF7E7FD834602466E480E46CF
:103860000B4606217844FFF78FFD5A463346FCF796
:10387000DAFD804669488A465A4633460421784430
:10388000FFF782FD5A463346FCF7CDFD00223B464A
:10389000FCF722FD02460B4640465146FCF735FE3A
:1038A0002A462346FCF7BFFD06B02A462346BDE85C
:1038B000F04DFCF711BD284624F0004100223D46A2
:1038C0003B46FCF7ADFD4FF0FF32FDF72AF8064608
:1038D000024653480F460B4606217844FFF754FD35
:1038E00032463B46FCF79FFDCDE900014D4832468C
:1038F0003B4604217844FFF747FD32463B46FCF740
:1039000092FD00222B46FCF7E7FC834602913046ED
:10391000394601F07BFD804643480D46504517DC93
:10392000DDE900015A46029BFCF7EFFD42462B46BB
:10393000FCF779FD42462B46FCF7CEFC0122FCF752
:10394000F0FF304A304BFCF768FD304A304B4CE01A
:103950004FF0000A52460B464046FCF7BDFCCDE94D
:10396000031052462B4610461946FCF75CFD3246C2
:103970003B46FCF755FDDDE90332FCF7C6FD064684
:103980000F46DDE900015A46029BFCF7BEFD834667
:103990000091012230463946FCF7C3FF194A1A4B01
:1039A000FCF73EFD06460F46012240462946FCF73D
:1039B000B8FF5A46009BFCF736FD32463B46FCF703
:1039C0002CFD06460F46012250462946FCF7A9FF6A
:1039D0000E4DDFF858802A464346FCF721FD32465B
:1039E0003B46FCF71DFD2A464346FCF719FD002C1B
:1039F000D8BF81F0004106B0BDE8F08D0000F03F77
:103A00000000F07F075C143326A6913C182D445427
:103A1000FB21F93F0000E03F001D0000161D0000E3
:103A20008A1C0000A01C00003333EF3FFB21E93F5C
:103A30002DE9F04104464FF00E4000EB4400B0F198
:103A4000506F204655D84FF0FC41B1EB440F1CD2CB
:103A500024F000404FF07E51FCF7CBFB4FF0FF31DC
:103A6000FCF7D8FE054601F0F7FC14F0004F1DBF2F
:103A70002F4F304E80F000402F4F08BF2F4E4FF099
:103A80004041FCF7B9FB044605E000273E460146ED
:103A9000FCF7B2FB05462A492846FCF7ADFB29494D
:103AA000FCF752FB2946FCF7A7FB2749FCF74CFB28
:103AB0002946FCF7A1FB2549FCF746FB2946FCF704
:103AC0009BFB2349FCF740FB804629462046FCF738
:103AD00093FB4146FCF790FB054631462046FCF738
:103AE00033FB2946FCF730FB3946BDE8F041FCF7D3
:103AF0002BBB4FF0E441B1EB440F08D9FFF720FC9A
:103B0000042808BFFFF7B1FC2046BDE8F0814FF064
:103B10007F41B1EB440F03D2BDE8F041FFF79CBCFD
:103B20000120FFF76BFDBDE8F041FFF79ABC0000F4
:103B30000000C9BF22AAFDB90000C93F22AAFD3971
:103B400024FE1C3DC78AD83C1E67383D1B93993D17
:103B5000AFAA2A3E2DE9F84F04460D4621F0004059
:103B600000917349814211DC7249884201DC06D11F
:103B70002CB120462946BDE8F84FFFF75ABC6E48E5
:103B8000002DCCBF6D496E49BDE8F88F6D4981426B
:103B900011DD6D498142D8BF4FF0FF366DDD204603
:103BA0002946FFF7B9FB042808BFFFF74DFC204664
:103BB0002946BDE8F88F6549654F25F000458142EB
:103BC00033DD6449814219DD002632464FF08043DF
:103BD00020462946FCF780FB80468A460122204683
:103BE0002946FCF79EFE00223B46FCF716FC4246A7
:103BF0005346FCF78AFC04460D463EE001260022AF
:103C0000BA463B4620462946FCF766FB80460F46EF
:103C10000022534620462946FCF7FFFB42463B461E
:103C2000FCF773FC04460D4627E04B4981421BDD3F
:103C3000DFF828A102260022534620462946FCF739
:103C4000F2FB00223B46FCF747FB80460F46002272
:103C5000534620462946FCF7E0FB42463B46FCF72C
:103C600054FC04460D4608E0032622462B4600205D
:103C70003B49FCF74AFC04460D4622462B461046BB
:103C80001946FCF7D0FB8B46824602460B46FCF7F2
:103C9000CAFB07460246334888460B46062178444D
:103CA000FFF772FB52465B46FCF7BDFB82462E488F
:103CB0008B463A46434605217844FFF765FB3A4672
:103CC0004346FCF7B0FB02460B46002E50465946D1
:103CD0000CDAFCF701FB22462B46FCF7A4FB01B0F3
:103CE00022462B46BDE8F04FFCF79ABBFCF7F4FAEE
:103CF00022462B46FCF797FB1C4A7A4402EBC6038C
:103D0000D3E90023FCF789FB22462B46FCF785FB11
:103D1000174A7A4402EBC603D3E90023FCF780FB81
:103D2000009A002AB8BF81F00041BDE8F88F00007A
:103D3000000010440000F07F182D4454FB21F93F8F
:103D4000FB21F9BF0000DC3F0000203E0000F33FF4
:103D50000000F03F0000E63F008003400000F83F15
:103D60000000F0BF7E1900003C190000DA180000C6
:103D7000A21800002DE9F04D9446CCF1000423F088
:103D800000464CEA0404524F46EAD4749A468846E8
:103D900021F00042BC4206D8454240EA050442EA0E
:103DA000D474BC4204D9BDE8F04D6246FFF744BB71
:103DB000AAF14055A5F17F6555EA0C040BD0022409
:103DC00004EAAA74434DDFF810E144EAD87452EAD9
:103DD000000B04D00CE0BDE8F04DFFF7BBBE002C9B
:103DE00014BF012CBDE8F08D022C30D0032C32D052
:103DF00056EA0C0B0AD0BE4220D1BA4209D126F0B5
:103E0000804622F080423346114617E000291ADB33
:103E100025E0DFF8C8B0FB44002C04BFDBE900015B
:103E2000BDE8F08D012C02BFDBE9000181F000410B
:103E3000BDE8F08D022C0AD0032C0CD0BA4212D16E
:103E4000B8F1000F0BDA23482549BDE8F08D28466C
:103E50002449BDE8F08D28467146BDE8F08D1D4827
:103E60002149BDE8F08D921B12153C2AC4BF1948A8
:103E70001D490EDCBAF1000FBEBF12F13C0F00204D
:103E8000014606DB6246FCF740FB21F00041FFF7EC
:103E900061FE002C08BFBDE8F08D012C04BF81F04D
:103EA0000041BDE8F08D114A114B022C07D0FCF700
:103EB000B4FA2A46BDE8F04D0A4BFCF7AEBAFCF75F
:103EC000ACFA2A46BDE8F04D064BFCF7A9BA000053
:103ED0000000F07F182D4454FB2109C03618000063
:103EE000FB21F9BFFB210940FB21F93F075C14339B
:103EF00026A6A13C2DE9F0474FF0684202EB4003B3
:103F00000C460546B3F1654F3CBF02EB4102B2F1EE
:103F1000654F7CD2C0F3C753C1F3C7529A1A1B2A0C
:103F200006DD10F0004F14BF76487748BDE8F087F3
:103F300012F11A0F17DA11F0004F06D010F0004FEF
:103F40000CBF72487248BDE8F08721462846FCF74E
:103F500085F90446FFF7F4F9042808BFFFF785FA4E
:103F60002046BDE8F0874200B2EB410F25D910F0A2
:103F7000004F19BF674F684E684F694E224685F063
:103F8000004415460A4680F0004110460A1A5200C5
:103F9000B2F1807F40D248406249DFF88CA110F036
:103FA000004F18D04FF03F483846FCF71FF907463E
:103FB00051463046FCF71AF917E011F0004F04BFE4
:103FC00000263746E2D010F0004F19BF574F584E29
:103FD000584F594EDAE74FF07C583846FCF7B4F8A2
:103FE000074651463046FCF7AFF80646414628469C
:103FF000FCF702F92146FCF7A7F882462146404625
:10400000FCF7FAF82946FCF7F4F8514600E037E0EF
:10401000FCF724F9044604E021462846FCF71EF983
:1040200004460146FCF7E8F880464449FCF7E4F80A
:104030004349FCF789F84146FCF7DEF84149FCF7B3
:1040400083F84146FCF7D8F83F49FCF77DF8414634
:10405000FCF7D2F83D49FCF777F805464146204683
:10406000FCF7CAF82946FCF7C7F83146FCF76CF8AC
:104070002146FCF769F83946BDE8F047FCF764B81B
:104080004FF07F42B2EB400F28BFB2EB410F03D29B
:10409000BDE8F047FFF7E3B940EA01035B0008BF62
:1040A00044F0FF410AD0B2EB400F08BFB2EB410F22
:1040B00006D125F0804024F0804105460C4629E7D2
:1040C000B2EB400F12BF5FEA410245F0FF4004F03F
:1040D00000413FF41FAF4A0092EA40033FF51AAF98
:1040E000002AACBF4FF09F464FF03E563146FCF7DA
:1040F00083F8054631462046FCF77EF804462846FC
:10410000214607E7DB0FC9BFDB0FC93FDB0F494083
:10411000DB0F49C00000C9BF22AAFDB90000C93F9A
:1041200022AAFD390060ED3EC30ACE37000049C027
:1041300022AA7DBA0000494022AA7D3A2DAD65BD74
:104140008FB8D53D0FB511BE61C84C3EA8AAAABE16
:104150002DE9F843044602464F486946B0EB420F4A
:1041600009D94FF0E640B0EB420F94BF00204FF06A
:10417000FF30009030E0494B22F00040834271D97B
:1041800047492046FCF738F8FCF750FB8046FCF71F
:104190004AFA00F00300009042494046FCF72CF830
:1041A000054641494046FCF727F806463F49404648
:1041B000FCF722F807463E494046FCF71DF8214629
:1041C000FCF717F83946FCF711F83146FCF70EF802
:1041D0002946FCF70BF804462546009C002C45DBDD
:1041E000294614F0010F08461CD0FCF705F80646D6
:1041F0003049FCF701F83049FBF7FBFF3146FBF78C
:10420000FBFF2E49FBF7A0FF3146FBF7F5FF2946E0
:10421000FBF7F2FF2946FBF797FF14F0020F1CD0C3
:10422000BDE8F883FBF7E8FF05462549FBF7E4FF07
:104230002449FBF789FF2946FBF7DEFF2249FBF7FC
:1042400083FF2946FBF7D8FF4FF07E51FBF77CFF39
:1042500014F0020F08BFBDE8F88380F00040BDE80D
:10426000F883FFE71046FFF705F9B4E76800B0F1FF
:104270007F4F3CBF4FF07E50BDE8F88307D14FF031
:104280000100FFF7BBF9BDE8F843FFF7EAB828469D
:10429000BDE8F843FFF7E0B8B61F927E490E4946E5
:1042A00083F9223F1A61342C0020A23300A0FD398B
:1042B0000000C93F336D4C39DA82083CA0AA2ABEFF
:1042C000B93AB2BACA9F2A3DDDFFFFBE2DE9F041DF
:1042D00005460E46144621462846FCF723FA0ED220
:1042E00021463046FBF782FF074621462846FBF76A
:1042F0007DFF80463946FBF7B1FFBDE8F08184F0D1
:10430000004729463846FCF70DFA0DD221463046C3
:10431000FBF76CFF074621462846FBF715FF804652
:104320003946FBF79BFFE8E70020E6E710B502A05F
:10433000FEF7E2FF10BD000044656275672D7573DE
:104340006172743120697320776F726B696E670ACE
:10435000000000001FB501218803FEF79BF94FF410
:10436000E13000900020ADF80C000C20ADF80A0000
:104370000020ADF80800ADF80600ADF8040069466D
:104380000348FEF747FF01210148FEF729FF1FBD43
:104390000038014008B501210420FEF77BF9032015
:1043A0008DF8020018208DF803004FF40070ADF86E
:1043B000000069460748FCF7A6FD4FF48060ADF8A1
:1043C000000004208DF8030069460248FCF79BFDBD
:1043D00008BD00000008014010B501F0ACF8FFF77F
:1043E000A5FF10BD30B5044600F060FA054600BFD9
:1043F00000F05CFA401BA042FAD330BD70B5044611
:104400000D46E1B20548FEF771FF00BF8021034869
:10441000FEF7F2FE0028F9D0204670BD00380140BA
:1044200010B52A48B0F904000F2803DD0020284900
:10443000088010BD2548C08884B240F2CA3084424A
:104440001EDD2348B0F90000B0F5967F06DA20485B
:104450000088401C00B21E49088035E01C48B0F9B5
:104460000000B0F5967F2FD10020194908804FF445
:1044700080711848FCF7DDFD01201749087023E022
:104480000F2C1EDA1248B0F90000B0F5967F06DA5C
:104490000F480088401C00B20D49088014E00C4809
:1044A000B0F90000B0F5967F0ED1002008490880D1
:1044B0004FF480710748FCF7BAFD002006490870E8
:1044C00002E000200249088000BFB2E7400000205F
:1044D0004A000020000C01404800002008B50020E0
:1044E000009001226946752000F086F89DF80000D2
:1044F000682804D103A0FEF7FFFE012008BD0020BC
:10450000FCE700004D505536303530206973207778
:104510006F726B696E672E2E2E0A0000002000213C
:1045200000BF08E0002101E04A1C91B2B1F57A7F9A
:10453000FADB421C90B2B0F57A7FF3DB704710B51E
:1045400000F0F4F9FFF7EAFF00216B2000F0AAF871
:104550000721192000F0A6F806211A2000F0A2F881
:1045600000211C2000F09EF818211B2000F09AF872
:10457000FFF7B4FF10BD1CB50446062269463B2078
:1045800000F03AF89DF801009DF8001040EA012083
:1045900000B220809DF803009DF8021040EA01203F
:1045A00000B260809DF805009DF8041040EA0120EB
:1045B00000B2A0801CBD1CB50446062269464320FB
:1045C00000F01AF89DF801009DF8001040EA012063
:1045D00000B220809DF803009DF8021040EA0120FF
:1045E00000B260809DF805009DF8041040EA0120AB
:1045F00000B2A0801CBD00002DE9F04107460D4629
:1046000016464FF4005400F035FAD02000F002FABC
:1046100007E02CB9012121A000F082F8BDE8F0816B
:10462000641E00F05BFA0028F3D14FF400543846C2
:1046300000F0F0F906E024B9022118A000F070F8AB
:10464000ECE7641E00F04AFA0028F4D14FF400545D
:1046500000F010FAD12000F0DDF906E024B90321C2
:104660000EA000F05DF8D9E7641E00F037FA0028CC
:10467000F4D10FE0012E06D1002000F0A1F928703E
:1046800000F012FA04E0012000F09AF928706D1C85
:10469000701EC6B2002EEDD10120BFE74D50553639
:1046A0003035300070B506460D464FF4005400F02A
:1046B000E1F9D02000F0AEF906E024B9012116A0FE
:1046C00000F02EF870BD641E00F008FA0028F4D146
:1046D0004FF40054304600F09DF906E024B9022161
:1046E0000DA000F01DF8EDE7641E00F0F7F90028BA
:1046F000F4D1284600F08EF906E024B9032106A083
:1047000000F00EF8DEE7641E00F0E8F90028F4D1AE
:1047100000F0CAF90120D5E74D505536303530004C
:1047200070B504460D462A46214602A0FEF7E4FD78
:10473000002070BD257320493243B5C8B4FDB3AC29
:10474000CAB1A3A16572726F725F636F6465203D29
:1047500025640A002DE9FF4104464FF07F50009088
:104760004FF07C512046FBF747FD029001940198E1
:1047700003900E490398A1EB600003900398019009
:10478000DDE90110FBF738FD07460199FBF734FD21
:1047900006460099FBF72DFD05460199FBF72CFD18
:1047A0000190019804B0BDE8F0810000865A375F9F
:1047B0000920FEF75DF93649B1F1807F00D31DE095
:1047C00021F07F40401E4FF0E022506150170F2231
:1047D000002807DA13071D0E2E4B00F00F04241FCC
:1047E0001D5503E013071C0E2B4B1C5400BF00206B
:1047F0004FF0E02290610720106100BF00F086FEBC
:1048000000F08AFEFFF7E8FD00F03CFEFFF797FEA0
:104810004FF47A71482000F04FFE00F0B5FC00F034
:1048200027FDFDF7C7FEFCF797FD30E01B48008829
:104830000A2813DB00201949088000F037F81849CE
:104840000968401A1749086000F030F814490860F8
:10485000FCF7F4FBFCF78EF9FCF71AFA00F066F9A6
:10486000FFF7DEFD1048007888B100200E4908707F
:1048700000F01CF80A494968401A0A49486000F0EB
:1048800015F80749486000F0DBFAFCF731F9CDE78D
:104890004019010018ED00E000E400E06000002095
:1048A00014000020240000205200002000BF0E4809
:1048B00001684FF0E02082690B4800688142F6D120
:1048C0000A48006800EB4003C3EBC010C2EBC00015
:1048D000064B1B68B0FBF3F001EB4103C3EBC113C4
:1048E00000EBC30070470000300000202C000020C7
:1048F00010B580210C48FCF79AFB40210A48FCF7D0
:1049000098FB0120FFF76EFD40210748FCF78FFB65
:104910000120FFF767FD80210348FCF78AFB012097
:10492000FFF760FD10BD0000000C014008B501213B
:104930000820FDF7AFFE2020ADF8000001208DF823
:10494000020048208DF8030069460D48FCF7DBFAA9
:1049500014208DF803004020ADF800006946084897
:10496000FCF7D1FA8020ADF8000014208DF8030088
:1049700069460348FCF7C7FA00F096F808BD000046
:10498000000C014010B540210C48FCF750FB802181
:104990000A48FCF74EFB0120FFF724FD40210748A1
:1049A000FCF747FB0120FFF71DFD40210348FCF702
:1049B0003EFB0120FFF716FD10BD0000000C01407A
:1049C00070B505460024002618E06006040E40215C
:1049D0000F48FCF72EFB0120FFF704FD80210C4857
:1049E000FCF71CFB08B1601CC4B240210848FCF76E
:1049F0001EFB0120FFF7F6FC701CC6B2082EE4DB9C
:104A000015B9FFF7BFFF01E0FFF772FF204670BD49
:104A1000000C014070B50446002526E004F080003B
:104A200020B180211248FCF704FB03E080211048EC
:104A3000FCF7FDFA0120FFF7D5FC40210C48FCF7FC
:104A4000F8FA0120FFF7CEFC40210948FCF7EFFA05
:104A5000072D03D180210648FCF7EBFA6006040E0F
:104A60000120FFF7BFFC681CC5B2082DD6DB70BD66
:104A7000000C014010B580210A48FCF7DAFA402109
:104A80000848FCF7D6FA0420FFF7ACFC8021054863
:104A9000FCF7CDFA0420FFF7A5FC40210148FCF704
:104AA000C6FA10BD000C014010B540210A48FCF7C1
:104AB000BEFA80210848FCF7BAFA0420FFF792FCFE
:104AC00040210548FCF7B5FA80210348FCF7B1FA0C
:104AD0000420FFF787FC10BD000C014010B58021B9
:104AE0000E48FCF7A6FA0120FFF77CFC40210B489A
:104AF000FCF79FFA0120FFF775FC80210748FCF7BF
:104B00008DFA08B1012400E0002440210348FCF79D
:104B10008EFA0120FFF766FC204610BD000C014014
:104B200010B500F057F900F029F910BD2DE9FC414E
:104B3000032405E00CB9BDE8FC813220FFF752FCEC
:104B4000684600F0C1FB20B9201EA4F10101CCB2DF
:104B5000F0DC9DF800109DF8012041EA0220FBF7EF
:104B600043FD07464FF08B41FBF778FB064628498B
:104B7000FBF742FB0546FBF756FD00B225490880CE
:104B80009DF802109DF8032041EA0220FBF72CFD5E
:104B900007464FF08B41FBF761FB06461C49FBF7CC
:104BA0002BFB0546FBF73FFD00B21A4948809DF8F4
:104BB00004109DF8052041EA0220FBF715FD074689
:104BC0004FF08B41FBF74AFB06461149FBF714FBFC
:104BD0000546FBF728FD00B20E4988809DF80610B7
:104BE0009DF8072041EA0220FBF7FEFC07464FF044
:104BF0008B41FBF733FB06460549FBF7FDFA0546FB
:104C0000FBF711FD00B20349C88000BF93E7000025
:104C100000007A444000002010B50446214602A05E
:104C2000FEF76AFB002010BD6E726620B5C8B4FDA9
:104C3000B3ACCAB1A3A16572726F72436F64652091
:104C40003D25640A00000000F0B587B0002700246D
:104C50000025002601210846FDF7FCFC4FF08040AE
:104C6000FEF702F80020ADF81600ADF8120040F291
:104C7000E730ADF814004720ADF8100000208DF8A3
:104C8000180004A94FF08040FEF758FA6020ADF8F4
:104C900000000120ADF802000020ADF80600ADF8DC
:104CA0000800ADF8067069464FF08040FEF7EAF85C
:104CB000ADF8064069464FF08040FEF739F9ADF88F
:104CC000065069464FF08040FEF792F9ADF8066055
:104CD00069464FF08040FEF7E5F90821C806FEF767
:104CE0001DF90821C806FEF775F90821C806FEF768
:104CF000CFF90821C806FEF713FA01218807FDF74E
:104D0000A7FF07B0F0BD000008B501210420FDF7A2
:104D1000C1FC18208DF8030002208DF8020001204C
:104D2000ADF8000069461448FCF7EDF80220ADF834
:104D3000000069461048FCF7E6F80420ADF80000D2
:104D400069460D48FCF7DFF80820ADF80000694619
:104D50000948FCF7D8F801210748FCF768F9022157
:104D60000548FCF764F904210348FCF760F90821C1
:104D70000148FCF75CF908BD0008014000B585B0AA
:104D800001210803FDF786FC1020ADF80C0000207F
:104D9000ADF80800ADF806000720ADF810000020BF
:104DA000ADF80400ADF80000ADF80E004FF48270CD
:104DB000ADF802004FF40070ADF80A0069460448EF
:104DC000FDF7BAFD01210248FDF79CFD05B000BDCD
:104DD0000030014008B501210420FDF75BFC0121F2
:104DE0000846FDF757FC18208DF8030001208DF8C8
:104DF0000200E020ADF8000069460F48FCF783F898
:104E000010208DF80300ADF8000069460A48FCF751
:104E10007AF80220ADF8000069460848FCF773F8FC
:104E200048208DF803000120ADF8000069460348D2
:104E3000FCF769F808BD000000080140000C0140C3
:104E40002DE9F0474D48B0F90400002802DA0020AF
:104E50004A4988804948B0F90400B0F57A7F03DDFB
:104E60004FF47A70454988804448B0F9060000281C
:104E700002DA00204149C8804048B0F90600B0F588
:104E80007A7F03DD4FF47A703C49C8803B48B0F923
:104E90000200002802DA0020384948803748B0F97B
:104EA0000200B0F57A7F03DD4FF47A703349488011
:104EB0003248B0F90000002802DA00202F490880AB
:104EC0002E48B0F90000B0F57A7F03DD4FF47A7018
:104ED0002A4908802949B1F90010A1F5FA70FBF7B9
:104EE00083FB8146264A2749FFF7F0F90446FBF782
:104EF000C7FB07460022244BFBF795FA0546FBF754
:104F0000EBFB224908601D49B1F90210A1F5FA70C6
:104F1000FBF76AFB81461A4A1A49FFF7D7F904469C
:104F2000FBF7AEFB07460022194BFBF77CFA054660
:104F3000FBF7D2FB154948601049B1F90610A1F5FD
:104F4000FA70FBF751FB8146124A0E49FFF7BEF992
:104F50000446FBF795FB07460F4A104BFBF763FA35
:104F60000546FBF7B9FB094988600449B1F904001B
:104F7000FBF73AFB0549C860BDE8F0874000002018
:104F8000000048420000FA4300004440BC010020F9
:104F9000000044C000008C42D9CEF753E3A54C403A
:104FA0002DE9F8430446024652486946B0EB420FE9
:104FB00009D94FF0E640B0EB420F94BF00204FF00C
:104FC000FF30009030E04C4B22F00040834271D91A
:104FD0004A492046FBF710F9FBF728FC8046FBF70F
:104FE00022FB00F00300009045494046FBF704F91E
:104FF000054644494046FBF7FFF80646424940460D
:10500000FBF7FAF8074641494046FBF7F5F8214619
:10501000FBF7EFF83946FBF7E9F83146FBF7E6F81E
:105020002946FBF7E3F804462546009C002C45DBA7
:10503000294614F0010F08461ED0FBF7DDF805469F
:105040003349FBF7D9F83349FBF77EF82946FBF7DC
:10505000D3F83149FBF778F82946FBF7CDF84FF044
:105060007E51FBF771F814F0020F08BFBDE8F8831A
:1050700080F00040BDE8F883FBF7BEF806462749FC
:10508000FBF7BAF82649FBF7B4F83146FBF7B4F85A
:105090002449FBF759F83146FBF7AEF82946FBF7F0
:1050A000ABF82946FBF750F814F0020FE0D1BDE849
:1050B000F883FFE71046FEF7DDF9B4E76800B0F1CA
:1050C0007F4F09D22846FEF73BF9042808BFFEF7B8
:1050D000CCF92846BDE8F88306D10120FEF78EFA08
:1050E000BDE8F843FEF7BDB92846BDE8F843FEF732
:1050F000B3B90000B61F927E490E494683F9223F9C
:105100001A61342C0020A23300A0FD390000C93FF1
:10511000B93AB2BACA9F2A3DDDFFFFBE336D4C39A2
:10512000DA82083CA0AA2ABE1FB514A103C9CDE9A2
:10513000020102211348FBF77AFF052202A9302061
:1051400000F0FCF805226946102000F039F8022131
:105150000C48FBF76EFF002406E01DF80400A528AC
:1051600000D003E0601CC4B2052CF6DB00BF052CA8
:1051700002D1012004B010BD0020FBE7A5A5A5A524
:10518000A5000000000C014010B5FFF7C9FC10217C
:105190000548FBF74EFFFFF7C7FF0446214603A073
:1051A000FEF7AAF810BD00000008014043686563DF
:1051B0006B696E67206E72662E2E2E2025640A00A3
:1051C0002DE9F04105460E46174610210C48FBF725
:1051D0002EFF29460B4800F0D5F88046002406E053
:1051E0000021084800F0CEF83055601CC4B2BC4223
:1051F000F6DB10210248FBF71CFF4046BDE8F081BA
:10520000000801400030014070B5044610210948F3
:10521000FBF70DFF2146084800F0B4F800210648CE
:1052200000F0B0F8054610210248FBF702FF2846BF
:1052300070BD0000000801400030014070B5044618
:105240000D4610210848FBF7F2FE2146074800F002
:1052500099F806462946054800F094F810210248BE
:10526000FBF7E7FE304670BD00080140003001400A
:1052700010B502211248FBF7DAFE052211492A2057
:1052800000F05CF801212120FFF7D8FF0121222046
:10529000FFF7D4FF28212520FFF7D0FF0821312078
:1052A000FFF7CCFF0F212620FFF7C8FF0F2120209A
:1052B000FFF7C4FF02210248FBF7BBFE10BD000050
:1052C000000C01403500002070B50546642602211F
:1052D0001948FBF7AEFE08E03000A6F10101CEB29E
:1052E00003D1FFF799FCC0B270BD01211248FBF752
:1052F00095FE0028F0D102210F48FBF798FE072009
:10530000FFF782FF044621462720FFF797FF04F0AE
:10531000400070B1082229466120FFF751FFFF21AC
:10532000E220FFF78BFF02210348FBF782FE0120FA
:10533000DAE70020D8E70000000C01402DE9F04139
:1053400005460E46174610210C48FBF770FE29460D
:105350000B4800F017F88046002405E0315D08484E
:1053600000F010F8601CC4B2BC42F7DB1021034807
:10537000FBF75FFE4046BDE8F081000000080140F9
:105380000030014070B505460E46642407E0601EFB
:10539000C4B224B9002000F021F8C0B270BD0221CF
:1053A0002846FDF7BBFA0028F1D031462846FDF724
:1053B000C1FA642407E0601EC4B224B9012000F0E1
:1053C0000DF8C0B2EAE701212846FDF7A7FA002848
:1053D000F1D02846FDF7ABFAC0B2DFE710B50446BE
:1053E000214602A0FDF788FF002010BD5350492040
:1053F000B5C8B4FDB3ACCAB121206572726F7243F7
:105400006F6465203D2025640A0000002DE9F0410D
:1054100006460F46FBF79CFA04000D4618BF012014
:10542000284320F00040C0F17F6000F1E040C00F51
:105430000ED0301C18BF0120384320F00040C0F1CE
:105440007F6000F1E040C00F04BF0120FEF7D6F8F6
:1054500020462946BDE8F08170B50546FBF7ECFA19
:10546000044620F00040C0F1FF40C00F08D025F0F6
:105470000040C0F1FF40C00F04BF0120FEF7BEF89E
:10548000204670BD08B501210820FDF703F903206F
:105490008DF8020010208DF803000001ADF8000027
:1054A00069460448FBF72FFD4FF480710148FBF774
:1054B000BEFD08BD000C01403EB505460C4601216D
:1054C0000420FDF7C7F81048FDF7CEFBA0B2ADF8F9
:1054D0000400681E80B2ADF800000020ADF80600A0
:1054E000ADF8020069460848FDF728FE012106488C
:1054F000FDF7A8FB012211460348FDF7BAFC012184
:105500000148FDF7A5FB3EBD0008004010B5FFF7C0
:10551000FBFBFFF799FB10BD08B51E208DF80000BE
:1055200001208DF801008DF802008DF80300684617
:10553000FCF710FA08BD10B5FEF72CFFFEF70AFFC6
:1055400010BD00000000803F0000000000000000CF
:10555000000000000000803F00000000000000008C
:10556000000000000000803F555555555555C53F7A
:105570007D6FEB0312D6D4BF5544880E55C1C93F89
:105580003B8F68B52882A4BF88B20175E0EF493F20
:1055900009F7FD0DE13D023F4B2D8A1C273A03C060
:1055A000C88A599CE52A004059018D1B6C06E6BF4C
:1055B00082922EB1C5B8B33F4FBB610567ACDD3FEA
:1055C000182D4454FB21E93F9BF681D20B73EF3F2A
:1055D000182D4454FB21F93FE2652F227F2B7A3CA2
:1055E000075C143326A6813CBDCBF07A8807703C5B
:1055F000075C143326A6913CC4EB98999999C9BFCE
:10560000711623FEC671BCBF6D9A74AFF2B0B3BF02
:105610009AFDDE522DDEADBF2F6C6A2C44B4A2BFC2
:105620000D5555555555D53FFF8300922449C23F2E
:105630006E204CC5CD45B73F513DD0A0660DB13F62
:10564000EB0D76244B7BA93F11DA22E33AAD903F74
:105650000000000000000000000000006E83F9A2BE
:105660002915444ED15727FCC0DD34F5999562DBEE
:105670004190433CAB6351FE985600080000002067
:10568000BC010000960A0008C0560008BC010020BA
:1056900024060000EC350008412D0102030404003B
:1056A0000918060708090204060882483E34431018
:1056B000100105114BF4010201FF0117035C803F4B
:04000005080000ED02
:00000001FF
