:020000040800F2
:100000001804002001010008C5020008BD02000814
:10001000C1020008990100089106000800000000D4
:100020000000000000000000000000002D04000897
:100030009D01000800000000C70200081905000823
:100040001B0100081B0100081B0100081B01000820
:100050001B0100081B0100081B0100081B01000810
:100060001B0100081B0100081B0100081B01000800
:100070001B0100081B0100081B0100081B010008F0
:100080001B0100081B0100081B0100081B010008E0
:100090001B0100081B0100081B0100081B010008D0
:1000A0001B0100081B0100081B0100081B010008C0
:1000B0001B0100081B0100081B0100081B010008B0
:1000C0001B0100081B0100081B0100081B010008A0
:1000D0001B0100081B0100081B0100081B01000890
:1000E0001B0100081B0100081B010008DFF80CD0F1
:1000F00000F040F8004800470D0B000818040020ED
:100100000648804706480047FEE7FEE7FEE7FEE7B1
:10011000FEE7FEE7FEE7FEE7FEE7FEE71D05000857
:10012000ED00000840EA01039B0703D009E008C97D
:10013000121F08C0042AFAD203E011F8013B00F8AC
:10014000013B521EF9D2704730B50B4601460020E4
:100150002022012409E021FA02F59D4205D303FA89
:1001600002F5491B04FA02F52844151EA2F101020A
:10017000F1DC30BD064C074D06E0E06840F00103BD
:1001800094E8070098471034AC42F6D3FFF7B2FF6B
:10019000040E0008240E000800BFFEE770472DE99A
:1001A000F0410246002500260020002300240027FD
:1001B00091F803C00CF00F0591F803C00CF0100C7F
:1001C000BCF1000F03D091F802C04CEA050591F88C
:1001D00000C0BCF1000F31D0146800202BE04FF0BC
:1001E000010C0CFA00F3B1F800C00CEA03069E42C1
:1001F00020D183004FF00F0C0CFA03F7BC4305FA33
:1002000003FC4CEA040491F803C0BCF1280F06D1AA
:100210004FF0010C0CFA00FCC2F814C00AE091F88F
:1002200003C0BCF1480F05D14FF0010C0CFA00FCE3
:10023000C2F810C0401C0828D1D31460B1F800C027
:10024000BCF1FF0F34DD546800202EE000F1080CF3
:100250004FF0010808FA0CF3B1F800C00CEA0306ED
:100260009E4221D183004FF00F0C0CFA03F7BC43E0
:1002700005FA03FC4CEA040491F803C0BCF1280F12
:1002800005D100F1080C08FA0CF8C2F8148091F8B6
:1002900003C0BCF1480F07D100F1080C4FF0010872
:1002A00008FA0CF8C2F81080401C0828CED354601D
:1002B000BDE8F081416170470161704700BFFEE712
:1002C00000BFFEE77047704729B1064A92690243B2
:1002D000044B9A6104E0034A92698243014B9A619C
:1002E000704700000010024030B5002100220024B9
:1002F00000232D4D6D6805F00C0121B1042905D0B6
:10030000082923D105E0294D056022E0274D05602D
:100310001FE0254D6D6805F47012234D6D6805F4DE
:100320008034022505EB92421CB9214D55430560EE
:100330000BE01D4D6D6805F400351DB11C4D554396
:10034000056002E0194D5543056002E0174D056058
:1003500000BF00BF144D6D6805F0F0010909154D8F
:100360006B5C0568DD4045600F4D6D6805F4E0612C
:10037000090A104D6B5C4568DD4085600A4D6D686B
:1003800005F46051C90A0B4D6B5C4568DD40C560E2
:10039000054D6D6805F44041890B074D6B5CC568E0
:1003A000B5FBF3F5056130BD0010024000127A0084
:1003B00000093D00000000201000002021B102884B
:1003C00042F04002028004E002884FF6BF731A40F8
:1003D000028070470246002013890B400BB10120B8
:1003E00000E000207047014688897047818170478E
:1003F00010B50022028802F441520B884C88234336
:100400008C882343CC8823430C8923434C89234382
:100410008C892343CC8923431A430280838B4FF278
:10042000FF74234083830B8A038210BD704710B58D
:1004300000F002F810BD00000CB500200190009003
:100440003348006840F480303149086000BF3048CC
:10045000006800F4003000900198401C0190009862
:1004600018B90198B0F5A06FF1D12948006800F4DF
:10047000003010B10120009001E0002000900098B1
:10048000012843D12348006840F01000214908604A
:100490000846006820F0030008600846006840F045
:1004A000020008601A4840681949486008464068D8
:1004B00048600846406840F48060486008464068EC
:1004C00020F47C1048600846406840F4E81048601A
:1004D0000846006840F08070086000BF0C48006863
:1004E00000F000700028F9D00948406820F00300AF
:1004F000074948600846406840F00200486000BF75
:100500000348406800F00C000828F9D10CBD000039
:1005100000100240002002407047000010B5134850
:10052000006840F001001149086008464068104921
:1005300008400E494860084600680E4908400B49CB
:1005400008600846006820F480200860084640687B
:1005500020F4FE0048604FF41F008860FFF767FF3B
:100560004FF000600449086010BD00000010024018
:100570000000FFF8FFFFF6FE08ED00E021B18289E0
:1005800042F40052828104E082894DF6FF731A40E2
:100590008281704702460020B1F5007F00D100BF84
:1005A00013880B400BB1012000E0002070470000D1
:1005B0002DE9F04786B005460E460024A24600BF4E
:1005C000A1460027B08900B100BF2F462C8A4CF607
:1005D000FF700440F08804432C82AC894EF6F3107F
:1005E0000440B08831890843718908430443AC81D1
:1005F000AC8A4FF6FF400440B0890443AC8201A8A6
:10060000FFF772FE1F48874202D1DDF810A001E01B
:10061000DDF80CA0A88900F4004040B10AEBCA0044
:1006200000EB0A1031684900B0FBF1F807E00AEB73
:10063000CA0000EB0A1031688900B0FBF1F86420B1
:10064000B8FBF0F004012009642101FB1089A8899E
:1006500000F4004040B1322000EBC900B0FBF1F0E3
:1006600000F00700044308E0322000EB0910642189
:10067000B0FBF1F000F00F0004432C8106B0BDE8A0
:10068000F087000000380140C1F308028280704703
:1006900000BFFEE70FB4054B10B503A9044A02984A
:1006A00000F018F810BC5DF814FB0000DD0A00082B
:1006B0001400002002E008C8121F08C1002AFAD165
:1006C00070477047002001E001C1121F002AFBD1D2
:1006D000704700002DE9FF4F8BB088460546002685
:1006E00006E025280BD0DDE90D1290476D1C761C25
:1006F00028780028F5D10FB03046BDE8F08F0024EF
:10070000A146A2460122AE4900E0044315F8013F8C
:10071000203B02FA03F00842F7D128782A2810D0AB
:100720006FF02F022878A0F13001092915D809EBC4
:10073000890102EB410144F0020400EB01096D1C48
:10074000F0E758F8041B5FEA010903D544F40054AC
:10075000C9F1000944F002046D1C28782E2817D135
:1007600015F8010F44F004042A280ED06FF02F0270
:100770002878A0F1300109290AD80AEB8A0102EB96
:10078000410100EB010A6D1CF2E758F804AB6D1C47
:1007900028786C280FD006DC4C2817D068280DD09C
:1007A0006A2814D104E0742810D07A280FD10DE003
:1007B00044F400140AE044F4801401E044F44014CA
:1007C0006978814202D104F580146D1C6D1C287873
:1007D000692865D006DC00288DD0632827D06428DE
:1007E00006D15DE06E2808D073282AD0752877D00E
:1007F000DDE90D129047761CE0E0C4F302500228B8
:1008000009D003280DD0D8F8001004280DD00E60B0
:1008100008F10408D2E0D8F80010F217C1E900622C
:10082000F6E7D8F800100E80F2E70E70F0E718F83F
:10083000041B8DF8001000208DF80100EB4601200C
:1008400003E058F804BB4FF0FF3061074FF000079A
:1008500001D40AE07F1C57450DDA8742FADB1BF80A
:1008600007100029F6D106E07F1C8742FCDB1BF84D
:1008700007100029F8D1DDE90D23A9EB0700814617
:10088000214600F0B1F83044C61904E0DDE90D124C
:100890001BF8010B90477F1EF8D22146484688E09E
:1008A00058F8040BC4F302514FF00A0B032900D18E
:1008B00000B2042900D140B2002802DA40422D21C2
:1008C00002E0210505D52B218DF82410012104E03B
:1008D00006E0E10710D02021F6E708AF089113E009
:1008E00058F8040BC4F302514FF00A0B032900D14E
:1008F00080B2042900D1C0B20021EEE75946FFF7CB
:1009000023FC303107F8011D0028F7D1ADEB0700BB
:1009100000F1200B600702D524F4803401E04FF091
:10092000010ADA4502DDAAEB0B0000E00020824656
:1009300000EB0B0108980144A9EB01000A90E003C9
:1009400006D4DDE90D2321460A9800F04DF806444F
:100950004FF0000908E009A911F80900DDE90D12BE
:10096000904709F10109761C08998945F3DBE003FA
:100970000CD5DDE90D2321460A9800F035F8064430
:1009800004E0DDE90D1230209047761CBAF1000139
:10099000AAF1010AF5DC05E0DDE90D1217F8010BFB
:1009A0009047761CBBF10001ABF1010BF4DC0A9817
:1009B0002146DDE90D2300F005F806446D1C97E69D
:1009C000092801002DE9F041044600251E4617467E
:1009D000880404D405E039462020B0476D1C641E0D
:1009E000F9D52846BDE8F0812DE9F04104460025FF
:1009F0001E469046C80301D5302700E02027880412
:100A000004D505E041463846B0476D1C641EF9D553
:100A10002846BDE8F081000000B587B01C2205A182
:100A20006846FFF77FFB694609A0FFF733FE07B072
:100A300000BD00000D0A2064656275672D75736145
:100A400072743120697320776F726B696E670A0068
:100A5000257300001FB501218803FFF735FC4FF413
:100A6000E13000900020ADF80C000C20ADF80A0039
:100A70000020ADF80800ADF80600ADF804006946A6
:100A80000348FFF795FD01210148FFF777FD1FBDE2
:100A90000038014008B503208DF8020018208DF8B9
:100AA00003004FF40070ADF8000069460748FFF7F7
:100AB00076FB4FF48060ADF8000004208DF8030051
:100AC00069460248FFF76BFB08BD000000080140C3
:100AD00010B500F015F800F08BF910BD70B50446A4
:100AE0000D46E1B20548FFF7CFFD00BF8021034866
:100AF000FFF750FD0028F9D0204670BD00380140B6
:100B000010B501213D20FFF7DFFB10BD1CB50D49DD
:100B100003C9CDE90001FFF7F3FF00F057F9FFF734
:100B2000D7FFFFF779FF00F0C7F800F081F8BDF9B3
:100B30000430BDF90220BDF9001003A0FFF7AAFDA3
:100B400000BFFEE7FC0D00080D0ABCD3CBD9B6C828
:100B5000A3BA202538642538642538642020202055
:100B60000000000010B500F02BF800F001F810BDF7
:100B700000B585B001210803FFF7A6FB1020ADF8F2
:100B80000C000020ADF80800ADF806000720ADF815
:100B900010000020ADF80400ADF80000ADF80E0024
:100BA0004FF48270ADF8020069460448FFF720FC5C
:100BB00001210248FFF702FC05B000BD00300140F2
:100BC00008B518208DF8030003208DF802002020BE
:100BD000ADF8000069461448FFF7E1FA4020ADF88F
:100BE000000069461048FFF7DAFA8020ADF80000EF
:100BF00069460D48FFF7D3FA10208DF80300ADF8D1
:100C0000000069460848FFF7CAFA0120ADF8000065
:100C100069460648FFF7C3FA0220ADF800006946AE
:100C20000248FFF7BCFA08BD00080140000C014073
:100C30001FB515A103C9CDE9020115A103C9CDE96D
:100C400000011021144800F091F8052202A920208B
:100C500000F068F81021104800F088F80522694675
:100C6000002000F03BF8002406E01DF804100BA063
:100C7000FFF710FD601CC4B2052CF6DB02D1012089
:100C800004B010BD0020FBE714141414140000007D
:100C90000707070707000000003001400D0AB6C132
:100CA000B3F65458BCC4B4E6C6F7CAFDBEDDCEAA3E
:100CB000A3BA0A253864000010B5FFF721FFFFF73B
:100CC00051FF02210348FFF7F5FA10210248FFF710
:100CD000F3FA10BD000C0140000801402DE9F0417D
:100CE00005460E46174610210C48FFF7E3FA294641
:100CF0000B4800F03BF88046002406E0002108483D
:100D000000F034F83055601CC4B2BC42F6DB102150
:100D10000248FFF7D1FA4046BDE8F08100080140E3
:100D2000003001402DE9F04105460E4617461021DE
:100D30000C48FFF7BFFA29460B4800F017F8804629
:100D4000002405E0315D084800F010F8601CC4B2D2
:100D5000BC42F7DB10210348FFF7AEFA4046BDE87E
:100D6000F0810000000801400030014070B50546E8
:100D70000E46642407E0601EC4B224B9002000F0CF
:100D800021F8C0B270BD02212846FFF723FB0028DE
:100D9000F1D031462846FFF729FB642407E0601EA6
:100DA000C4B224B9012000F00DF8C0B2EAE7012175
:100DB0002846FFF70FFB0028F1D02846FFF713FB6A
:100DC000C0B2DFE7014600207047000008B50320ED
:100DD0008DF8020010208DF803000001ADF800002E
:100DE00069460248FFF7DBF908BD0000000C01402E
:100DF00010B5FFF74FFEFFF72DFE10BD01000200FA
:100E000003000400240E0008000000201800000069
:100E1000B40600083C0E0008180000200004000082
:100E2000C4060008000000000102030401020304DC
:0C0E300006070809020406080000000084
:04000005080000ED02
:00000001FF
