:020000040800F2
:100000002826002001010008570C00084F0C0008AA
:10001000530C0008190B0008A1170008000000008D
:10002000000000000000000000000000AD1100080A
:100030001D0B0008000000006F0100089912000865
:100040001B0100081B0100081B0100081B01000820
:100050001B0100081B0100081B0100081B01000810
:100060001B0100081B0100081B0100081B01000800
:100070001B0100081B0100081B0100081B010008F0
:100080001B0100081B0100081B0100081B010008E0
:100090001B0100081B0100081B0100081B010008D0
:1000A0001B0100081B0100081B0100081B010008C0
:1000B0001B0100081B0100081B0100081B010008B0
:1000C0001B0100081B0100081B0100081B010008A0
:1000D0001B0100081B0100081B0100081B01000890
:1000E0001B0100081B0100081B010008DFF80CD0F1
:1000F00000F07EFC00480047253D0008282600202F
:100100000648804706480047FEE7FEE7FEE7FEE7B1
:10011000FEE7FEE7FEE7FEE7FEE7FEE7A9120008BE
:10012000ED000008EFF3108072B6704780F310887E
:1001300070471F484FF0FF010170002080F30988CD
:100140001C48016881F308881B48012101701B4885
:100150004FF08051016062B6FEE718484FF08051C1
:100160000160704715484FF080510160704772B6CA
:10017000EFF3098028B1203880E8F00F10490968B2
:10018000086000B50F4880475DF804EB0E480F4942
:100190000A7802700A480E490A680260106890E8FE
:1001A000F00F203080F309884EF0040E62B67047DD
:1001B00022ED00E0280000205600002004ED00E0C1
:1001C0005C000020650D00084B0000204C00002062
:1001D00064000020F0B480EA0102D40F4200B2EBC8
:1001E000410F02D20246084611464A0042D0C30DD2
:1001F000DDB2C1F3C752AD1A202D35DAC1F31601B5
:1002000041F4000204B15242C5F1200602FA06F19F
:100210002A411044B3EBD05F23D0C4B1012DA0EB31
:10022000C35009DCF0BC4FF0004202EAC352DBB21B
:1002300000F5000000F009BB400000F1807000EB09
:10024000C350A0F1807040EAD170490009E049082C
:1002500041EAC071A0EBC35000F50000400800EB7C
:10026000C350F0BC00F0E8BA6142012202EB410148
:10027000001BF6E7F0BC704781F00041AAE780F070
:100280000040A7E780EA010210B502F000434000F9
:1002900022D04A001FD0010E01EB1261C0F35600BC
:1002A000C2F3560240F4000042F40002A0FB022018
:1002B00000047F39140400D0401C50EA124001D4DD
:1002C0004000491EC2B20C0604EBD010401C40088E
:1002D000802A02D003E0002010BD20F00100002998
:1002E00000DA0020184310BD30B480EA010202F0A9
:1002F000004530F0004221F0004013D090B1C30D12
:10030000D40DC2F31601C0F31600E41A41F4000143
:1003100040F400027D34914201D3641C00E04900A6
:10032000002C02DA30BC002070474FF4000000239C
:10033000914201D3891A034340084FEA4101F7D1A2
:1003400051B1914202D14FF0004105E002D24FF08D
:10035000010101E06FF0010103EBC450284430BCFF
:1003600000F06ABA2DE9FE4F804681EA0300C00F13
:100370000C46009021F0004123F00045B8EB02004C
:10038000A94105D24046214690461C460B460246EE
:1003900023F00040104347D0270DC7F30A00C3F3F2
:1003A0000A510290401A019040286BDAC3F31300FF
:1003B00040F4801B0098924620B10023D2EB030A40
:1003C00063EB0B0B01985946C0F14002504600F018
:1003D00012FA06460D4650465946019A00F01AFA9E
:1003E00010EB08006141002487EA115284EAE773A8
:1003F0001A4340D0009A62B3019A012A4FEA075289
:1004000015DC001B61EB02014FF0004202EA0752CB
:10041000CDE90042001C41F5801132462B4600F028
:1004200051FA03B0BDE8F08F40462146F9E7001BC2
:1004300061EB0201001C41F5801300185B4120189C
:10044000A2F5001747EB030140EAD570B6196D41DC
:1004500011E06D084FEA360645EAC0754FEA0752CB
:10046000001B61EB0201001C41F5801149084FEAB5
:1004700030000019514132462B4603B0BDE8F04F21
:1004800000F011BA0098012240000023D0EB0202D4
:1004900063EBE073009821464FEAE074B8EB00008C
:1004A00061EB0401E9E783F000435BE781F0004181
:1004B00058E72DE9FE4F81EA030404F0004421F0DF
:1004C000004100944FF0000B23F0004350EA010478
:1004D0005ED052EA03045BD0C3F30A54C1F30A5559
:1004E0002C44A4F2F3340194A0FB0254C1F3130191
:1004F00041F48011C3F3130343F4801301FB02445E
:1005000000FB034E840A970A44EA815447EA835762
:10051000A4FB076802958D0A05FB07854FEA932C1B
:1005200004FB0C542705029D4FEA065847EA16378C
:10053000B5EB08056EEB070C870E920E47EA8117A4
:1005400042EA8312A7FB0201B6EB0B0164EB000445
:100550002B0D43EA0C335E1844EB1C50DA4651462F
:10056000E7FB0201C5F313044FEA0B3343EA1453CC
:100570004FEA0432019C43EA0603A4F10C040294FE
:10058000009CCDE900B400F09DF903B0BDE8F08F08
:1005900000200146F9E72DE9F04D81EA030404F05B
:1005A000004B21F0004514464FF0000A23F00041B3
:1005B00050EA050220D054EA01021DD0C5F30A57C3
:1005C0000246C5F31303C1F31300C1F30A5640F406
:1005D000801543F48013A7EB0608101BD64608F2DB
:1005E000FD3873EB050002D308F1010801E0921811
:1005F0005B41B8F1000F03DA00200146BDE8F08D41
:1006000000204FF48011064684460EE0171B73EB62
:10061000050705D3121B63EB050306434CEA010CE7
:1006200049084FEA300092185B4150EA0107EDD1CA
:1006300052EA030012D082EA040083EA050108436B
:1006400005D0101BAB4106D20122002306E0002298
:100650004FF0004302E06FF0010253101AEB060066
:100660004CEB085110EB0A0041EB0B01BDE8F04DDB
:1006700000F019B9C10F80EAE0700844CA07962358
:10068000002100F0E2B896230022114600F0DDB808
:100690000EB5C10F80EAE0700844CA07002140F29D
:1006A00033438DE80E000A460B4600F00BF903B009
:1006B00000BD0EB540F2334102910021CDE9001199
:1006C0000A460B4600F0FEF803B000BD20F00040E3
:1006D000C10DC0F3160040F400007F2901DA0020AC
:1006E0007047962903DCC1F19601C84070479639DE
:1006F0008840704700F0004230F000400AD0C10D41
:1007000001F56071C0F3160042EA0151C2084007CA
:100710001143704700200146704701F0004330B498
:1007200021F0004150EA010206D00A0DA2F56072E4
:10073000C1F31301002A02DC30BC00207047440FD3
:1007400044EAC104C100E01830BC00EBC25000F024
:1007500073B80000002801DBC0F10040002901DB74
:10076000C1F100418142704730B50B46014600207F
:100770002022012409E021FA02F59D4205D303FA63
:1007800002F5491B04FA02F52844151EA2F10102E4
:10079000F1DC30BD2DE9F05F0546002092469B4616
:1007A00088460646814640241BE028464146474687
:1007B000224600F02FF953465A46C01A914110D3F1
:1007C00011461846224600F016F82D1A67EB01086C
:1007D0004F4622460120002100F00DF817EB0009DA
:1007E0004E41201EA4F10104DFDC484631462A4672
:1007F0004346BDE8F09F202A04DB203A00FA02F1CC
:10080000002070479140C2F1200320FA03F31943FE
:1008100090407047202A06DBCB17203A41FA02F0BD
:1008200043EAE07306E041FA02F3D040C2F120024D
:1008300091400843194670470029A8BF7047401CE3
:10084000490008BF20F00100704710B4B0FA80FCE6
:1008500000FA0CF050EA010404BF10BC704749B123
:10086000CCF1200421FA04F411FA0CF118BF012193
:1008700021430843A3EB0C01CB1D4FEA00614FEA73
:10088000102042BF002010BC704700EBC350104442
:100890000029A4BF10BC7047401C490008BF20F0CD
:1008A000010010BC704710B5141E73F1000408DA83
:1008B000401C41F1000192185B411A4301D120F024
:1008C000010010BD2DE9F04D92469B4611B1B1FAE1
:1008D00081F202E0B0FA80F220329046FFF78BFFFF
:1008E00004460F4640EA0A0041EA0B0153465A46C5
:1008F000084313D0114653EA010019D0C8F1400251
:10090000504600F087F805460E4650465946424686
:10091000FFF771FF084305D0012004E02046394667
:10092000BDE8F08D0020054346EAE0762C433743CE
:100930000A986305E40AA0EB08000022FD0A44EAD5
:1009400047540A3002D500200146E9E70105101995
:100950006941DDE9084500196941BDE8F04DA2E7AC
:1009600070B521F0004303430CD0C1F30A550024B5
:10097000D5EB040564EB0403D617AD1AB34102DBD3
:100980000020014670BD201841EB025170BDC1F33B
:100990000A52C1F3130140F2FF3341F480119A422D
:1009A00002DA00200146704740F233439A42A2F235
:1009B000334202DC524200F02DB8FFF71CBF0000AA
:1009C00030B5041E71F1000404DB4FF000444042D6
:1009D00064EB0101141E73F1000405DB1C464FF0AB
:1009E0000043524263EB0403994208BF904230BD7A
:1009F000064C074D06E0E06840F0010394E807006C
:100A000098471034AC42F6D3FFF774FB704F0008E0
:100A1000904F0008202A04DB203A21FA02F000213E
:100A2000704721FA02F3D040C2F1200291400843FE
:100A3000194670472DE9F04D00231A461B1A8A41CA
:100A400003DB00200146BDE8F08DC1F30A52C1F37B
:100A5000130141F480154FF0000BD10702D10018AB
:100A60006D41521E0027044640F2FF11384601EB4B
:100A7000620A3E468046024600204FF48011FFF78E
:100A8000C9FFC2197141BB1846EB0100B4EB030C5E
:100A900075EB000C04D3E41A65EB000517460E460F
:100AA000241908F101006D4180463428E3DDF9196D
:100AB00046EB0600091BA84103D24FF0FF32134654
:100AC00001E0002213461BEB070046EB0A51BDE88C
:100AD000F04DFFF7E8BE70B5C1F30A5201F00045D2
:100AE0000024C1F3130140F2FF3341F480119A4214
:100AF00001DA002070BD40F233439A42A2F2334241
:100B000003DC5242FFF786FF00E090402C43F1D017
:100B1000404270BD7047704700BFFEE770472DE947
:100B2000F041024600250026002000230024002773
:100B300091F803C00CF00F0591F803C00CF0100CF5
:100B4000BCF1000F03D091F802C04CEA050591F802
:100B500000C0BCF1000F31D0146800202BE04FF032
:100B6000010C0CFA00F3B1F800C00CEA03069E4237
:100B700020D183004FF00F0C0CFA03F7BC4305FAA9
:100B800003FC4CEA040491F803C0BCF1280F06D121
:100B90004FF0010C0CFA00FCC2F814C00AE091F806
:100BA00003C0BCF1480F05D14FF0010C0CFA00FC5A
:100BB000C2F810C0401C0828D1D31460B1F800C09E
:100BC000BCF1FF0F34DD546800202EE000F1080C6A
:100BD0004FF0010808FA0CF3B1F800C00CEA030664
:100BE0009E4221D183004FF00F0C0CFA03F7BC4357
:100BF00005FA03FC4CEA040491F803C0BCF1280F89
:100C000005D100F1080C08FA0CF8C2F8148091F82C
:100C100003C0BCF1480F07D100F1080C4FF00108E8
:100C200008FA0CF8C2F81080401C0828CED3546093
:100C3000BDE8F0810246002093680B400BB1012013
:100C400000E000207047416170470161704700BFBC
:100C5000FEE700BFFEE7704706480078012808D18C
:100C600005480078FF2804D203480078401C024958
:100C700008707047560000204900002010B500247D
:100C80001A480078012830D1FFF74CFA044618487A
:100C9000007820B116480078401E154908701448A5
:100CA0000078F8B913480078E0B900F0A7F91248C5
:100CB0001249097850F82100114908600F4800785E
:100CC0001049097888420DD00D480068C06A401C60
:100CD0000B490968C8620C480068401C0A49086052
:100CE000FFF740FA2046FFF721FA10BD560000201A
:100CF000490000204A000020601500204C00002020
:100D0000640000204B0000203000002070B5044635
:100D100000252078032801D0012070BDFFF702FADA
:100D20000546A07A60B1002301221946204600F052
:100D3000B1F82846FFF7FAF900F026F90020ECE7B1
:100D400020894FF6FF71884207D22089401C2081FC
:100D50002846FFF7EBF90020DFE72846FFF7E6F922
:100D60003320DAE710B5FFF7D5FE10BD70B50026C9
:100D700000F072F8FFF7D6F9064631480068401CCB
:100D80002F4908603046FFF7D1F92E480078012836
:100D900053D12D48007820B1012804D0022809D170
:100DA00003E001250BE0002509E00125012026498B
:100DB000087004E0012500202349087000BF00BF2F
:100DC00005B970BD2148046833E0FFF7ABF906466A
:100DD000206A50B3206A401E2062206A28BB94F823
:100DE000240000F0370040B114F8240F00F0C800D0
:100DF000207001206070243C02E0002084F825006F
:100E000094F8240000F0080078B92834A07810493C
:100E1000097808430E49087020780E49085C61780B
:100E2000084314F828190B4A505464683046FFF7F9
:100E30007DF994F826003F28C7D100BFC1E7000024
:100E40007C000020560000206C000020680000207C
:100E50004D0000204E00002010B5FFF75CFE074853
:100E60000088401C0549088008460088642803DB88
:100E70000020088000F004F810BD00002C000020C5
:100E800010B503480068FFF741FF0446204610BD37
:100E90008C0000202DE9F04F05460F4690469946FC
:100EA000A87A1C490E5C05F10B00805D11F800B0BA
:100EB0000BEBC60000F0FF0A174850F82A4000204C
:100EC0001434E0602760207C20EA0800207484F855
:100ED0001190207C143C00F0080068B994F82A00B6
:100EE0000E49097808430D4908700D48805D94F853
:100EF000291008430A4988552946204600F012F86F
:100F0000206920B12046216900F021F8E5605046B3
:100F1000BDE8F08FF44C0008601500204D00002063
:100F20004E00002010B590F8282001F10B039B5CC7
:100F300090F82940A34301F10B04A35423469B5C82
:100F400023B98B7A90F82A40A3438B7210BDF0B579
:100F5000024612F8284F95785678283A0B461868BA
:100F60000FE000F10B073F5DB74300F10B0C0CF8ED
:100F7000047067463F5D17B9877AAF4387721B1DC0
:100F800018680028EDD1F0BD10B50024FFF7CAF8AD
:100F9000044613480078F8B912480078E0B900F028
:100FA0002DF811481149097850F8210010490860BE
:100FB0000E4800780F49097888420DD00C48006827
:100FC000C06A401C0A490968C8620B480068401C96
:100FD00009490860FFF7C1F82046FFF7A7F810BDE0
:100FE000490000204A000020601500204C0000202D
:100FF000640000204B000020300000200649074A12
:101000001278885C0649095C034A515C01EBC00117
:10101000044A117070470000F44C00084D00002095
:101020004E0000204C00002029B1064AD26902433C
:10103000044BDA6104E0034AD2698243014BDA616E
:10104000704700000010024029B1064A926902432D
:10105000044B9A6104E0034A92698243014B9A610E
:10106000704700000010024030B50021002200242B
:1010700000232D4D6D6805F00C0121B1042905D028
:10108000082923D105E0294D056022E0274D0560A0
:101090001FE0254D6D6805F47012234D6D6805F451
:1010A0008034022505EB92421CB9214D5543056061
:1010B0000BE01D4D6D6805F400351DB11C4D554309
:1010C000056002E0194D5543056002E0174D0560CB
:1010D00000BF00BF144D6D6805F0F0010909154D02
:1010E0006B5C0568DD4045600F4D6D6805F4E0619F
:1010F000090A104D6B5C4568DD4085600A4D6D68DE
:1011000005F46051C90A0B4D6B5C4568DD40C56054
:10111000054D6D6805F44041890B074D6B5CC56852
:10112000B5FBF3F5056130BD0010024000127A00F6
:1011300000093D00000000201000002021B10288BD
:1011400042F04002028004E002884FF6BF731A406A
:10115000028070470246002013890B400BB101202A
:1011600000E0002070470146888970478181704700
:1011700010B50022028802F441520B884C882343A8
:101180008C882343CC8823430C8923434C892343F5
:101190008C892343CC8923431A430280838B4FF2EB
:1011A000FF74234083830B8A038210BD704710B500
:1011B00000F002F810BD00000CB500200190009076
:1011C0003348006840F480303149086000BF30483F
:1011D000006800F4003000900198401C01900098D5
:1011E00018B90198B0F5A06FF1D12948006800F452
:1011F000003010B10120009001E000200090009824
:10120000012843D12348006840F0100021490860BC
:101210000846006820F0030008600846006840F0B7
:10122000020008601A48406819494860084640684A
:1012300048600846406840F480604860084640685E
:1012400020F47C1048600846406840F4E81048608C
:101250000846006840F08070086000BF0C480068D5
:1012600000F000700028F9D00948406820F0030021
:10127000074948600846406840F00200486000BFE7
:101280000348406800F00C000828F9D10CBD0000AC
:10129000001002400020024010B5FFF7DDFCFFF710
:1012A00065FDFFF7EBFC10BD10B51348006840F07A
:1012B00001001149086008464068104908400E497D
:1012C0004860084600680E4908400B490860084617
:1012D000006820F4802008600846406820F4FE0082
:1012E00048604FF41F008860FFF761FF4FF0006017
:1012F0000449086010BD0000001002400000FFF823
:10130000FFFFF6FE08ED00E021B1028842F0010285
:10131000028004E002884FF6FE731A400280704794
:1013200070B5002400220023058C4FF6FE76354070
:101330000584028C8388048B4FF68F752C40B51E74
:101340002C400D882C43751E2A400D892A434D8858
:101350002A43144DA8420BD0134DA84208D0134D78
:10136000A84205D0124DA84202D0124DA84213D176
:101370004FF6F7752A404D892A434FF6FB752A40F0
:101380008D882A434FF6FF652B404FF6FF552B40C3
:101390008D892B43CD892B4383800483CD8885861B
:1013A000028470BD002C0140003401400040014027
:1013B00000440140004801400A460021018B4FF6DD
:1013C000F7731940114301837047000070B5002482
:1013D00000220023058C4FF6EF7635400584028C01
:1013E0008388048B48F6FF752C404FF6FF452C4050
:1013F0000D884FF6FF7606EA05252C434FF6DF757C
:101400002A400D8906EA05152A434D8806EA051586
:101410002A43154DA84202D0144DA8421DD14FF6C3
:101420007F752A404D894FF6FF7606EA05152A4357
:101430004FF6BF752A408D8806EA05152A434FF6F8
:10144000FF352B404FF2FF752B408D8906EA85054D
:101450002B43CD8906EA85052B4383800483CD8801
:101460000587028470BD0000002C0140003401405B
:101470000A460021018B4FF2FF7319404FF6FF73AC
:1014800003EA0223194301837047000070B500246A
:1014900000220023058C4FF6FF6635400584028C40
:1014A0008388848B4FF68F752C404FF6FC752C404B
:1014B0000D882C434FF6FF552A400D894FF6FF76D5
:1014C00006EA05252A434D8806EA05252A43154DD7
:1014D000A84202D0144DA8421DD14FF2FF752A40F8
:1014E0004D894FF6FF7606EA05252A434FF6FF356C
:1014F0002A408D8806EA05252A434EF6FF752B40C3
:101500004DF6FF752B408D8906EA05152B43CD89D5
:1015100006EA05152B4383808483CD888587028462
:1015200070BD0000002C0140003401400A4600213B
:10153000818B4FF6F7731940114381837047000088
:1015400070B5002200230024058C4EF6FF7635404E
:101550000584038C8488828B48F6FF752A404FF6F9
:10156000FF452A400D884FF6FF7606EA05252A43F7
:101570004DF6FF752B400D8906EA05352B434D8846
:1015800006EA05352B430B4DA84202D00A4DA8426E
:1015900008D14BF6FF752C408D894FF6FF7606EA91
:1015A00085152C4384808283CD88A0F84050038425
:1015B00070BD0000002C0140003401400A460021AB
:1015C000818B4FF2FF7319404FF6FF7303EA02233A
:1015D00019438183704781867047018770478187EF
:1015E0007047A0F840107047002202881D4B9842B7
:1015F0000ED01D4B98420BD0B0F1804F08D01B4B42
:10160000984205D01A4B984202D01A4B984204D106
:101610004FF68F731A404B881A43174B984207D0E6
:10162000164B984204D04FF6FF431A40CB881A431A
:1016300002808B8883850B8803850A4B98420BD0E8
:10164000094B984208D00E4B984205D00D4B98425A
:1016500002D00D4B984201D10B7A0386012383827D
:1016600070470000002C014000340140000400409D
:1016700000080040000C0040001000400014004032
:1016800000400140004401400048014021B18289EE
:1016900042F40052828104E082894DF6FF731A40C1
:1016A0008281704702460020B1F5007F00D100BF63
:1016B00013880B400BB1012000E0002070470000B0
:1016C0002DE9F04786B005460E460024A24600BF2D
:1016D000A1460027B08900B100BF2F462C8A4CF6E6
:1016E000FF700440F08804432C82AC894EF6F3105E
:1016F0000440B08831890843718908430443AC81B0
:10170000AC8A4FF6FF400440B0890443AC8201A884
:10171000FFF7AAFC1F48874202D1DDF810A001E0C4
:10172000DDF80CA0A88900F4004040B10AEBCA0023
:1017300000EB0A1031684900B0FBF1F807E00AEB52
:10174000CA0000EB0A1031688900B0FBF1F8642090
:10175000B8FBF0F004012009642101FB1089A8897D
:1017600000F4004040B1322000EBC900B0FBF1F0C2
:1017700000F00700044308E0322000EB0910642168
:10178000B0FBF1F000F00F0004432C8106B0BDE87F
:10179000F087000000380140C1F3080282807047E2
:1017A00000BFFEE70FB4054B10B503A9044A029829
:1017B00000F004FC10BC5DF814FB0000753200085A
:1017C000A0000020490050EAC12018BF04204A0DA3
:1017D00018BF40F0010040F2FF72B2EB515F08BF4A
:1017E00040F00200012808BF052070472DE9F74F9F
:1017F000144694B00021C4E902111599079121F013
:101800000045C9498D4206DC1599C4E9000117B0AD
:101810000020BDE8F08FC549DFF814A3A9423CDDE4
:101820000799C44E0029C44FC44A1599534619DD7F
:10183000FEF739FE554506D0C14AC24BFEF733FECE
:10184000C4E900010AE04FF0D352BE4BFEF72BFE75
:1018500032463B46FEF727FEC4E9000117B00120DF
:10186000BDE8F08FFEF77EFD554506D0B44AB54B76
:10187000FEF778FDC4E900010AE04FF0D352B14B06
:10188000FEF770FD32463B46FEF76CFDC4E90001F1
:1018900017B04FF0FF30BDE8F08FAB49A942159962
:1018A00078DB21F0004183468846A84AA84BFEF722
:1018B00000FE0022A74BFEF755FDFFF70CF909903B
:1018C000FEF7E6FE06460F469C4A5346FEF7F1FD3C
:1018D00043465A46FEF7EAFD80468A46984A994BA7
:1018E00030463946FEF7E5FD2A0D01250B924246AA
:1018F0005346FEF7DBFD032DC4E9000139D00B98F8
:10190000C1F30A51401A05EB45111139814230DA11
:101910009148C346784400EB0510CDF80CA00C901C
:10192000D0E9002330463946FEF7C3FD02460B4698
:101930000491069058460399FEF7B5FD80468A4605
:1019400002460B4658460399FEF7ADFD049B069AE6
:10195000FEF7A9FD83460C9803913946D0E902238E
:101960003046FEF7A6FD5A46039BFEF79CFD6D1C14
:10197000BDE707980028A2BF099817B0BDE8F08F0F
:10198000616881F000416160099817B04042BDE88C
:10199000F08FFFE784461598C1F31301C0F30A5096
:1019A000A0F2F5304FEA601800F01F06C6F12000E3
:1019B000139000200690079041F4801E05206D468C
:1019C00076B1664A08EB00017A4452F8213002EB06
:1019D0008101B3404A68139922FA01F1194305E0E5
:1019E0005F4908EB0002794451F82210A1FB0E2751
:1019F000A1FB0C131A449A4234BF0123002303EBCA
:101A0000070A05EB8003D3E901B70F448F4234BFC7
:101A10000121002193448B4411B1934502D903E085
:101A2000934501D2012100E00021C3E901B75144EF
:101A300045F82010011EA0F10100C1DC0298059FAD
:101A400000F10050800F12900298DDE903568000EB
:101A5000FEF71EFE834628460D91FEF72AFE6FF024
:101A60001D02FEF77DFFCDE90E013046FEF721FE97
:101A70006FF03D02FEF774FF80468A463846FEF757
:101A800018FE6FF05D02FEF76BFF074642465346B5
:101A90001191FEF767FCDDE90E23FEF763FC5A4661
:101AA0000D9BFEF75FFC00250E465A4628460D9B0F
:101AB000FEF7F9FCDDE90E23FEF7F5FC424653463E
:101AC000FEF7F1FC3A46119BFEF7F0FCDFF898A018
:101AD000244A5346FEF7EDFC07468846234A244B2A
:101AE00031462846FEF7E5FC3A464346FEF73AFC07
:101AF000074688464FF0A842534631462846FEF72F
:101B0000D8FC3A464346FEF72DFC159A12F0004FDA
:101B100004D0129A81F0004152421292C4E90001AD
:101B2000129817B0BDE8F08FFB21E93F7CD9024045
:101B3000FB21F93F7370032E8A19A33B0000405428
:101B40003163621A61B4D03DFB21394183C8C96D4C
:101B5000305FE43F0000E03F68350000E4340000FF
:101B6000C6340000182D4454FB21F93D3326A6113C
:101B7000460B113C2DE9FF4D21F0004807460C466D
:101B8000B8F1795F08DAFEF7A6FF002801BF002050
:101B9000324904B0BDE8F08D3A4623461046194656
:101BA000FEF787FC054602462D480E460B460621E9
:101BB000784400F05DF82A463346FEF77AFCDDE90A
:101BC000022382468B4638462146FEF772FC0446C5
:101BD0000F4652465B4628463146FEF76AFC2246CF
:101BE0003B46FEF760FC07468A464FF0FF32284628
:101BF0003146FEF7B5FE1B4A90450ADA3A4653468F
:101C0000FEF751FC04B00022BDE8F04D134BFEF787
:101C10004DBC154A4245A8BFA8F500154FF0000479
:101C2000B8BF124D22462B46FEF73DFC06468846BD
:101C300022462B4600200949FEF735FC04460D4696
:101C40003A46534630464146FEF72DFC04B0224644
:101C50002B46BDE8F04DFEF729BC00000000F03F28
:101C60009C3200003333D33F0000E93F0000D23FF5
:101C70002DE9F0414F1E00EBC7010446D1E90001F8
:101C800015461E4637F006020DD02A463346FEF7AB
:101C900010FC7F1E04EBC703D3E90023FEF762FBB1
:101CA00037F00602F1D1022F25D0042F13D0062FD2
:101CB00018BFBDE8F0812A463346FEF7FAFBD4E9A7
:101CC0000A23FEF74FFB2A463346FEF7F2FBD4E920
:101CD0000823FEF747FB2A463346FEF7EAFBD4E922
:101CE0000623FEF73FFB2A463346FEF7E2FBD4E924
:101CF0000423FEF737FB2A463346FEF7DAFBD4E926
:101D00000223FEF72FFB2A463346FEF7D2FBD4E927
:101D10000023BDE8F041FEF725BB00002DE9FF4D93
:101D2000054621F0004084B00C46B0F1795F0BDA33
:101D30002846FFF747FD042808BF00F06FF8284643
:101D400008B02146BDE8F08D2A460B461046FEF746
:101D5000B0FB06460F462A462346FEF7AAFB8046FE
:101D600026488A4632463B4605217844FFF780FFE5
:101D700083461098029160B3214A224B4046514657
:101D8000FEF797FBCDE900015A4640465146029BBB
:101D9000FEF78FFB82468846DDE906014FF0FF32F1
:101DA000FEF7DEFD52464346FEF77DFB32463B46DC
:101DB000FEF77FFBDDE90623FEF775FBDDE9002377
:101DC000FEF771FB08B02A462346BDE8F04DFEF74A
:101DD0006DBB0B465A4630463946FEF76AFB084A49
:101DE000084BFEF7BFFA42465346FEF762FB08B0C7
:101DF0002A462346BDE8F04DFEF7B4BADA310000BA
:101E0000495555555555C5BF0122FEF7A9BD0022BC
:101E1000134610461146FEF7BEBB0000024A0020E2
:101E20001107FEF79DBD000001FDFFFF02E008C89D
:101E3000121F08C1002AFAD170477047002001E044
:101E400001C1121F002AFBD1704700000149086040
:101E500070470000A40000202DE9FF5FDDE90220AB
:101E6000010DDDF838B0024318D044F61050A1F24D
:101E7000FF3141430D140F98012820D0A5EB0B0032
:101E8000401C5FEA000A4FF00004474EDFF81C9147
:101E9000A046504616D5CAF1000728E00F98012445
:101EA00043A2012808D0002100980F9BC0E900211F
:101EB000C0E90243BDE8FF9F6FEA0B01F4E7CBF1F5
:101EC0000000DEE7074612E0F80707D02246334657
:101ED00040464946FEF7EDFA80468946224633469B
:101EE00010461946FEF7E5FA04460E467F10002F0D
:101EF000EAD1DDE90201BAF1000F42464B4602DAAF
:101F0000FEF7D7FA01E0FEF746FB04460E46002234
:101F1000284BFEF755FD03D84FF0FF30014607E090
:101F20000022254B20463146FEF71CFAFEF72FFD16
:101F3000102409E0002C0ADB0A220023FEF72AFC09
:101F4000019B30321A55641E50EA0102F2D1641C22
:101F5000019AC4F1110314440F9A012A03D00122FB
:101F600008430DD10AE0084304D000204FF0110BC4
:101F70000F9080E7A3EB0B056D1E0DE05B4504DDC4
:101F80004FF0000205F1010504E003DA4FF0000212
:101F9000A5F10105002AECD000980F99C0E90231A3
:101FA000C0E9004586E70000000024400000F03F43
:101FB000300000000000F0430000E03F2DE9FF4F3B
:101FC00095B09B468946064600250FE2252877D125
:101FD00000242746F84A0121059400E0044316F83E
:101FE000013F203B01FA03F01042F7D130782A2854
:101FF00011D06FF02F033078A0F13002092A16D8E3
:10200000059A44F0020402EB820203EB4202104400
:10201000761C0590EFE759F8042B0592002A03DAA5
:10202000504244F40054059044F00204761C307889
:102030002E2816D116F8010F44F004042A280DD0DA
:102040006FF02F023078A0F13003092B09D807EB8D
:10205000870302EB4303C718761CF3E759F8047BA8
:10206000761C30786C280FD006DC4C2817D06828F6
:102070000DD06A2814D104E0742810D07A280FD12A
:102080000DE044F400140AE044F4801401E044F448
:1020900040147278824202D104F58014761C761CBA
:1020A000307866280BD013DC582877D009DC00285C
:1020B00075D04528F6D04628F4D047281AD19DE19E
:1020C00018E0632835D0642879D0652812D195E1CD
:1020D000702873D008DC6728F1D069286FD06E288B
:1020E0000DD06F2806D1B5E073282CD0752875D097
:1020F000782874D05A46179990476D1C75E1C4F33F
:102100000250022809D003280DD0D9F80010042865
:102110000DD00D6009F1040967E1D9F80010EA1744
:10212000C1E90052F6E7D9F800100D80F2E70D7012
:10213000F0E719F8041B8DF8001000208DF801005D
:10214000EA46012003E059F804AB4FF0FF30610785
:102150004FF0000102D40DE008F101018846B942B8
:102160000FDA8045F8DB1AF808100029F4D108E0EE
:1021700008F1010188468142FADB1AF808100029AB
:10218000F6D105985B46A0EB080721463846179A1A
:1021900000F094FA284400EB080507E04DE029E13F
:1021A0000DE01AF8010B5A4617999047B8F101084B
:1021B000F7D25B4621463846179A13E142E00A22DD
:1021C0000092C4F302524FF0000A022A08D059F8D4
:1021D00004CB032A4FEAEC710AD00DE029E02AE093
:1021E00009F1070121F00702F2E802C1914609E076
:1021F0000FFA8CFC4FEAEC71042A03D14FFA8CFCE5
:102200004FEAEC71002907DA0A460021DCF1000CE4
:1022100061EB02012D2202E0220504D52B228DF86C
:102220000420012203E0E20701D02022F7E79046D4
:1022300059E00A2102E010220DE010214FF0000ABF
:1022400000910BE010224FF0000A44F0040408272C
:10225000009203E008224FF0000A0092C4F30252F9
:10226000022A05D059F804CB0021032A08D009E03E
:1022700009F1070121F00702F2E802C1914605E0E9
:102280001FFA8CFC042A01D10CF0FF0C4FF000085F
:10229000220728D5702806D0009B83F0100353EA4C
:1022A0000A0305D00EE040228DF80420012208E048
:1022B0005CEA010206D030228DF804208DF805007A
:1022C00002229046009B83F0080353EA0A030AD1D6
:1022D0005CEA010201D1620705D530228DF80420A5
:1022E0004FF001087F1E582804D034A003900EA898
:1022F00002900DE036A0F9E753466046009AFEF7DB
:1023000049FA84460398825C0298401E029002704B
:102310005CEA0100F0D1029806A9081A00F1200A2F
:10232000600702D524F4803400E00127574502DD20
:10233000A7EB0A0000E0002000EB0A0100900598DE
:102340004144401A0590E00306D45B462146179AA3
:10235000059800F0B3F90544002706E001A85A46A5
:10236000C05D179990476D1C7F1C4745F6DBE00365
:102370000CD55B462146179A059800F09FF9054455
:1023800004E030205A46179990476D1C0099481E6A
:1023900000900029F5DC08E0029802995A4600787E
:1023A000491C0291179990476D1CBAF10001AAF1DE
:1023B000010AF1DC65E10000092801003031323307
:1023C0003435363738396162636465660000000071
:1023D000303132333435363738394142434445465B
:1023E0000000000000F058F90544761C3078002801
:1023F0007FF4ECAD19B02846BDE8F08F620700D439
:10240000062709F1070222F0070CFCE80223E14647
:1024100003F000485FEA080C02D00FF2702C0DE0C8
:102420005FEA045C02D50FF2682C07E05FEAC47C27
:1024300002D00FF2602C01E0AFF2700C4FF0FF38C9
:1024400023F00043CDF850C065280CD006DC4528A9
:1024500009D046281DD047283DD13DE0662818D038
:1024600067287ED138E00021112F01DB112000E028
:10247000781CCDE9000106A90EA8FFF7EDFCDDE907
:102480000F010E9A03910021009207F1010A0491B5
:102490004DE04FF000400097CDE9011006A90EA8CD
:1024A000FFF7DAFCDDE90F0203920E9B119900227F
:1024B000DDF80CA00093049211B9791C00EB010A1D
:1024C000B7EB0A0004D4C0F1FF3007F1010A049011
:1024D000AAEB0700019044E0012F00DA0127002158
:1024E000112F01DD112000E03846CDE9000106A9D9
:1024F0000EA8FFF7B1FCDDE90F010E9A0391002150
:1025000004910092BA4621070CD40399514500DA90
:102510008A46BAF1010F05DD009AAAF10101515C6A
:10252000302908D0B84202DA10F1040F06DA01218E
:10253000CDE9011015E0AAF10101E9E7002805DC69
:10254000049901440491AAEB000102E0411C5145A9
:1025500000DD8A460499401A401C01904FF000406B
:102560000290200704D40198504501DBCDF8048087
:1025700000208DF84F0002980DF14F07B0F1004F89
:1025800025D02B200E9002984FF0020800280CDA7C
:10259000404202902D200E9007E00A210298FEF79B
:1025A000E3F83031029007F8011DB8F10001A8F1FD
:1025B0000108F2DC02980028EFD1791E0E9808700D
:1025C000307800F0200040F0450007F8020D12A816
:1025D000C01B00F107081498007800B1012000EB3F
:1025E0000A01019801EBE07105984144401A401E30
:1025F0000590E00306D45B462146179A059800F043
:102600005DF805441498007818B15A461799904718
:102610006D1CE00324D55B462146179A059800F00F
:102620004DF805441CE00498002807DBDDE90301B0
:10263000884203DD0098405C179901E0179930202B
:102640005A469047049805F10105401C04900198F2
:10265000401E019004D12E205A46179990476D1CB8
:10266000BAF10001AAF1010ADDDC05E017F8010B5F
:102670005A46179990476D1CB8F10001A8F101085E
:10268000F4DC5B462146179A0598ABE62D00000066
:102690002B000000200000002DE9F0410446002539
:1026A0001E461746880404D405E039462020B0476A
:1026B0006D1C641EF9D52846BDE8F0812DE9F04176
:1026C000044600251E469046C80301D5302700E089
:1026D0002027880404D505E041463846B0476D1CE4
:1026E000641EF9D52846BDE8F08110B504460021E6
:1026F0002046FEF72FF802D284F0004010BD20469D
:10270000FCE700002DE9F04D0546DFF8388221F0A6
:1027100000408D4F82B00C46404520DBA0EB080105
:1027200029430BD08949884201DC10D17DB102B028
:1027300028462146BDE8F04DFFF766BB002CC7BF19
:10274000002001468248394602B0BDE8F08D0120E4
:10275000FFF77CFB02B0BDE8F04DFFF758BB7D49A9
:10276000884244DA7C498142A1BF79487B4902B062
:10277000BDE8F08D2A46234610461946FDF799FE1E
:102780008346024676480E460B4606217844FFF7FC
:102790006FFA5A463346FDF78CFE074671488A4663
:1027A0005A46334604217844FFF762FA5A463346C4
:1027B000FDF77FFE00224346FDF7D4FD02460B469F
:1027C00038465146FDF7E7FE2A462346FDF771FEDF
:1027D000654A664BFDF76AFE2A462346FDF766FE0C
:1027E00002B05B4ABDE8F04D5C4BFDF75FBE002CCC
:1027F0004FF000024BDA4646434628462146FDF795
:10280000B1FD4FF0FF32FEF7ABF8044602465848E0
:102810000D460B4606217844FFF72AFA22462B463E
:10282000FDF747FE804653488A4622462B46042140
:102830007844FFF71DFA22462B46FDF73AFE0022A8
:102840003346FDF78FFD06468B462046294602F0AB
:10285000E9F904460D4632465B4640465146FDF7CF
:102860009AFE22462B46FDF724FE3F4A3F4BFDF7DA
:102870001AFE22462B46FDF775FD0122FEF770F881
:1028800002B03B46BDE8F04D314AFDF70FBE2D4B7F
:1028900028462146FDF70AFE4FF0FF32FEF760F8AA
:1028A00005460E4602F0BEF900270C4680463A4621
:1028B0000B46FDF757FD82468B463A4623461046A7
:1028C0001946FDF7F6FD2A463346FDF7EFFD524661
:1028D0005B46FDF760FE824627488B462A46334614
:1028E00006217844FFF7C4F92A463346FDF7E1FD97
:1028F000CDE9000121482A46334604217844FFF7F8
:10290000B7F92A463346FDF7D4FD00220D4BFDF7FB
:1029100029FD02460B46DDE90001FDF73CFE42467B
:102920002346FDF7C6FD52465B46FDF71BFD3A46C2
:102930002346FDF717FD02B00122BDE8F04DFEF77A
:102940000FB800000000F03FFB2109400000F07FBD
:10295000182D44540000E03F0000603CFB21F93F8B
:102960007026000086260000075C143326A6913CE2
:10297000E6250000FC2500001A2500003025000097
:102980002DE9F34F85B0894649460598FDF7ACFC23
:1029900004904846FFF7A9FE05460598FFF7A5FEF7
:1029A00006462946FDF7D6FE3AD237480499FDF788
:1029B00069FC01900499FDF765FC80464FF07E515B
:1029C000FDF708FC0746FDF795FE05460E46049800
:1029D000FDF790FE07464FF066322C4BFDF769FD80
:1029E0002A463346CDE90201FDF7D5FD8246FDF7C3
:1029F00094FE044600214846FDF7ACFE3FD200217C
:102A00000598FDF7A7FE05D221492046FDF734FCC5
:102A1000044634E01E492046FDF7DCFB04462EE068
:102A200004990846FDF72EFC83461749FDF7D2FBB3
:102A30008246FDF75FFECDE900010498FDF75AFEDE
:102A400082464FF06632114BFDF733FD0746DDE954
:102A50000023FDF7A0FD054600220E4BFDF726FDE5
:102A6000CDE90201FDF759FE044600210598FDF766
:102A700071FE04D206492046FDF7FEFB04462046BF
:102A800007B0BDE8F08F0000295C8F3E66A64C4081
:102A900000003443008056400FB42DE9F04F8DB054
:102AA000DDE91C563F4FDFF8008140480C9040485C
:102AB0000B9000200790089009900A9003900490D2
:102AC00005900690002400BF43E016AA52F8241097
:102AD00055F82400FDF7D0FB07A941F8240088F041
:102AE000004A16A850F824105046FDF7CBFB81464B
:102AF00040460C99FDF7F8FB009007A850F8241009
:102B00000098FDF7BFFB83460B99FDF7BBFB8246A0
:102B10000199FDF75FFB019048460199FDF75AFBCB
:102B2000029019A850F824100298FDF7A5FB03A9FC
:102B300041F8240087F0004B03A850F824105846B1
:102B4000FDF7A0FB8246FDF7C1FD26F81400601CCE
:102B5000C4B2022CB9DB17D119AA52F8241055F8C7
:102B60002400FDF789FB03A941F8240087F0004BFE
:102B700003A850F824105846FDF784FB8246FDF761
:102B8000A5FD26F8140007E0032C05D155F8240014
:102B9000FDF79CFD26F814000DB0BDE8F00F5DF8C0
:102BA00014FB000000002042713D624129CB103E21
:102BB000CDCC4C3E2DE9F04F9FB00D462A4A07CAB6
:102BC00010AB07C30A260024284F284601F05AFEFE
:102BD0000BE005F11C0151F824003946FDF752FBCA
:102BE0001CA941F82400601CC4B2032CF1DB13A91A
:102BF0001CA800F075F90DAA1D4913A801F0BBF837
:102C000005F1100001F06AFB00241EE0701CFDF7C6
:102C100031FD82463046FDF736FD83460DA850F85B
:102C200024105846FDF72EFB814605F1100050F8A0
:102C300024104846FDF7CEFA80465146FDF754FB76
:102C40000B4941F82400601CC4B2032CDEDB04AA4B
:102C5000074910A800F00EF801A904A801F0DFFD53
:102C60001FB0BDE8F08F0000F44D00080AD7A33C68
:102C7000940000202DE9FF5F81460C4692462146D4
:102C8000484600F014F90090FDF734FD0746FFF7C1
:102C900039FD0546FDF741FD8346484601F01EFB20
:102CA000204601F01BFB01AA2146484600F056F8D9
:102CB0005246594601A801F0C3FCBDE8FF9F000041
:102CC00000B5244B21F0004287B09A42DCBF0022BD
:102CD000134629DD204B9A4208D140B94FF001003C
:102CE000FFF7B4F8FFF793F807B000BD03DBFFF779
:102CF0008BF807B000BD02AAFEF778FD10F00301C3
:102D000004BF0DF1080C9CE80F000DD00120012933
:102D10000ED0022914D00DF1080C00909CE80F0091
:102D2000FEF7FCFF07B000BDFEF724FF07B000BDB3
:102D30000DF1080C00909CE80F00FEF7EFFF05E096
:102D40000DF1080C9CE80F00FEF714FF07B081F0AE
:102D5000004100BDFB21E93F0000F07F2DE9F0417B
:102D600004460D4616466968A068FDF78BFA0746CB
:102D7000A9686068FDF786FA80463946FDF77CFA57
:102D80003060A9682068FDF77DFA07462968A068C9
:102D9000FDF778FA80463946FDF76EFA70602968CB
:102DA0006068FDF76FFA074669682068FDF76AFA00
:102DB00080463946FDF760FAB060BDE8F08100005A
:102DC00010B502A0FEF7EEFC10BD00004465627570
:102DD000672D75736172743120697320776F726B20
:102DE000696E670A000000001FB501218803FEF725
:102DF0002BF94FF4E13000900020ADF80C000C20CE
:102E0000ADF80A000020ADF80800ADF80600ADF8F6
:102E1000040069460348FEF753FC01210148FEF710
:102E200035FC1FBD0038014008B501210420FEF724
:102E30000BF903208DF8020018208DF803004FF4E1
:102E40000070ADF8000069460748FDF768FE4FF4D2
:102E50008060ADF8000004208DF803006946024848
:102E6000FDF75DFE08BD00000008014010B501F04F
:102E70001FFFFFF7A5FF10BD014601EBC1024FF098
:102E8000E0235A6101221A6100229A6100BF4FF0CB
:102E9000E022106900F001021AB100F48032002A29
:102EA000F5D000224FF0E0231A619A6170472DE9B6
:102EB000F04105460E46002700240CE056F8241089
:102EC00055F82400FDF7DEF980463946FDF782F912
:102ED0000746601CC4B2032CF0DB3846BDE8F08125
:102EE0002DE9F04F8DB081460C46D9F80000FDF772
:102EF00001FC0746C94ACA4BFDF7DBFA0546FDF758
:102F00000CFC0C90D9F80400FDF7F4FB0746C34A0B
:102F1000C34BFDF7CEFA0546FDF7FFFB0B90D9F842
:102F20000800FDF7E7FB0746BC4ABD4BFDF7C1FAB9
:102F30000546FDF7F2FB0A900A98FDF7DBFB054614
:102F4000FFF7BEFE074688460B98FDF7D3FB054604
:102F5000FFF7B6FE3A464346CDE90801FDF7A9FA68
:102F60008246FDF7DAFB20600A98FDF7C3FB0546B1
:102F700001F0DCFC074688460B98FDF7BBFB0546D5
:102F8000FFF79EFE82463A464346FDF792FACDE9A8
:102F90000801FDF7C2FB60600B98FDF7ABFB07462D
:102FA00001F0C4FC81F000410546FDF7B6FBA060CE
:102FB0000A98FDF79FFB054601F0B8FC07468846D6
:102FC0000C98FDF797FB0546FFF77AFE82463A46D6
:102FD0004346FDF76EFACDE906010A98FDF78AFB34
:102FE0000546FFF76DFECDE902010B98FDF782FB68
:102FF000054601F09BFC074688460C98FDF77AFBD6
:10300000054601F093FC82463A464346FDF751FAE5
:10301000CDE90001DDE90223FDF74BFACDE904011A
:10302000DDE90623FDF73FFACDE90801FDF775FB61
:10303000E0600A98FDF75EFB0546FFF741FE074694
:1030400088460C98FDF756FB0546FFF739FE824689
:103050003A464346FDF72DFACDE906010A98FDF7F9
:1030600049FB054601F062FCCDE902010B98FDF732
:1030700041FB054601F05AFC074688460C98FDF7CF
:1030800039FB054601F052FC82463A464346FDF7BD
:1030900010FACDE90001DDE90223FDF70AFACDE9D6
:1030A0000401DDE90623FDF75DF9CDE90801FDF72F
:1030B00034FB20610B98FDF71DFB0546FFF700FE72
:1030C000CDE908010C98FDF715FB054601F02EFC33
:1030D0008246DDE90823FDF7ECF90746FDF71DFB05
:1030E00060610A98FDF706FB054601F01FFC0746E4
:1030F00088460C98FDF7FEFA054601F017FC82465B
:103100003A464346FDF7D5F9CDE906010A98FDF7A1
:10311000F1FA0546FFF7D4FDCDE902010B98FDF762
:10312000E9FA054601F002FC074688460C98FDF7CF
:10313000E1FA0546FFF7C4FD82463A464346FDF7ED
:10314000B8F9CDE90001DDE90223FDF7B2F9CDE9D7
:103150000401DDE90623FDF705F9CDE90801FDF7D6
:10316000DCFAA0610A98FDF7C5FA0546FFF7A8FD4D
:10317000074688460C98FDF7BDFA054601F0D6FBD8
:1031800082463A464346FDF794F9CDE906010A988E
:10319000FDF7B0FA054601F0C9FBCDE902010B9835
:1031A000FDF7A8FA054601F0C1FB074688460C98D2
:1031B000FDF7A0FA0546FFF783FD82463A464346EF
:1031C000FDF777F9CDE90001DDE90223FDF771F99B
:1031D000CDE90401DDE90623FDF765F9CDE9080134
:1031E000FDF79BFAE0610B98FDF784FA0546FFF7BF
:1031F00067FDCDE908010C98FDF77CFA0546FFF75D
:103200005FFD0746DDE90823FDF753F98246FDF728
:1032100084FA20620DB0BDE8F08F0000EC51B81EBA
:1032200085EB913F2DE9F05F04464FF07F594FF059
:103230007C512046FDF726F8824625462E460C484E
:10324000A0EB6606354629465046FDF71BF8834637
:103250002946FDF717F880464946FDF710F807465E
:103260002946FDF70FF805462846BDE8F09F000007
:10327000DF59375F70B504460D46E1B20548FEF7E9
:103280008BFA00BF80210348FEF70CFA0028F9D022
:10329000204670BD0038014070B5044604F11000AE
:1032A00000F0FCF804F11C0000F08CF904F1280097
:1032B00000F0CEFA04F12C0000F01AFA00F0F2FA55
:1032C0000546FDF7D7F9A063204601F035F870BD3B
:1032D00070B50446A0881E2803DD0020214908801F
:1032E00070BDE58840F2B27085421BDD1D48B0F923
:1032F00000000A2806DA1B480088401C00B2194961
:1033000008802CE0174800880A2828D10020154999
:1033100008804FF480711448FDF797FC0120134991
:1033200008601CE01E2D1ADA0E48B0F900000A28C9
:1033300006DA0C480088401C00B20A4908800EE0FA
:10334000084800880A280AD10020064908804FF45E
:1033500080710548FDF777FC00200449086000BF34
:10336000BEE7000024000020000C014020000020E7
:1033700008B50020009001226946752000F032FC5B
:103380009DF80000682801D1012008BD0020FCE75D
:1033900010B520216A2000F074FC0821242000F0E0
:1033A00070FC1321342000F06CFC0121672000F038
:1033B00068FC1E21252000F064FC0021262000F07E
:1033C00060FC0421632000F05CFC8121272000F0D8
:1033D00058FC1E21252000F054FC0121262000F07D
:1033E00050FCE021632000F04CFC8121272000F0FC
:1033F00048FC1E21252000F044FC0221262000F07C
:1034000040FC0021632000F03CFC8121272000F0DB
:1034100038FC10BD0020002100BF08E0002101E0C1
:103420004A1C91B2B1F57A7FFADB421C90B2B0F53A
:103430007A7FF3DB704710B520216A2000F021FC71
:103440000821242000F01DFC9E21252000F019FCFD
:103450000321262000F015FC8621272000F011FC16
:1034600010BD10B500F018FDFFF7D4FF00216B2050
:1034700000F007FC0721192000F003FC06211A20A8
:1034800000F0FFFB00211C2000F0FBFB18211B209B
:1034900000F0F7FBFFF76CFF10BD00002DE9F047CF
:1034A0008EB0824606220AA93B2000F09BFB9DF8C5
:1034B00029009DF8281040EA012000B2ADF8300044
:1034C0009DF82B009DF82A1040EA012000B2ADF8CB
:1034D00032009DF82D009DF82C1040EA012000B22A
:1034E000ADF83400BDF93000FDF7C4F805464FF0E3
:1034F0008041FCF7C7FE04464FF08E41FCF7F4FE16
:10350000CAF80000BDF93200FDF7B4F805464FF0E7
:103510008041FCF7B7FE04464FF08E41FCF7E4FE15
:10352000CAF80400BDF93400FDF7A4F805464FF0D1
:103530008041FCF7A7FE04464FF08E41FCF7D4FE15
:10354000CAF80800DAF80800FDF7D4F804460D467A
:10355000DAF80400FDF7CEF806460F46DAF8000068
:10356000FDF7C8F8804609A0CDE90645089009A0F6
:10357000CDE90267049007A042460B46009006A0E2
:10358000FEF710F90EB0BDE8F08700002020200AF9
:1035900000000000202020004D50553630353020EE
:1035A000416363656C202820672020293A20252E5E
:1035B00032662573252E32662573252E32662573D5
:1035C000000000002DE9F0478EB0824606220AA9CD
:1035D000432000F007FB9DF829009DF8281040EAE1
:1035E000012000B2ADF830009DF82B009DF82A10A4
:1035F00040EA012000B2ADF832009DF82D009DF8A0
:103600002C1040EA012000B2ADF83400BDF93000C2
:10361000FDF730F805462549FCF734FE04464FF027
:103620008E41FCF761FECAF80000BDF93200FDF7DB
:1036300021F805461D49FCF725FE04464FF08E4152
:10364000FCF752FECAF80400BDF93400FDF712F889
:1036500005461649FCF716FE04464FF08E41FCF76E
:1036600043FECAF80800DAF80800FDF743F80446FC
:103670000D46DAF80400FDF73DF806460F46DAF885
:103680000000FDF737F8804609A0CDE9064508900F
:1036900009A0CDE90267049009A042460B460090BC
:1036A00008A0FEF77FF80EB0BDE8F0870000FA44EE
:1036B0002020202020200A002020202000000000C0
:1036C000202020004D505536303530204779726F1C
:1036D00020202864707320293A20252E3266257315
:1036E000252E32662573252E3266257300000000D4
:1036F0002DE9F0478EB0824606220AA9492000F043
:1037000071FA9DF829009DF8281040EA012000B2C6
:10371000ADF830009DF82B009DF82A1040EA0120FA
:1037200000B2ADF832009DF82D009DF82C1040EA53
:10373000012000B2ADF83400BDF9301032A0FEF720
:1037400031F8BDF9321030A0FEF72CF8BDF9341075
:103750002DA0FEF727F8BDF93000FCF78BFF80465F
:10376000FCF7C8FF06464FF06632284BFCF7A1FE77
:103770000446FCF7D2FFCAF80000BDF93200FCF79E
:1037800079FF8046FCF7B6FF06464FF066321F4BC6
:10379000FCF78FFE0446FCF7C0FFCAF80400BDF931
:1037A0003400FCF767FF8046FCF7A4FF06464FF0A5
:1037B0006632164BFCF77DFE0446FCF7AEFFCAF8F6
:1037C0000800DAF80800FCF795FF04460D46DAF821
:1037D0000400FCF78FFF06460F46DAF80000FCF7FE
:1037E00089FF80460AA0CDE9064508900AA0CDE9E8
:1037F000026704900AA042460B46009009A0FDF71C
:10380000D1FF0EB0BDE8F08725640A00666611405E
:103810002020202020200A0020202020000000005E
:10382000202020004D505536303530204D61672026
:1038300020202864707320293A20252E32662573B3
:10384000252E32662573252E326625730000000072
:103850002DE9F84F824602226946412000F0C2F964
:103860009DF801009DF8001040EA01200FFA80FB4E
:103870005846FCF70DFF80460022074BFCF78BFEF5
:103880000646064A064BFCF76DFD0446FCF745FF6D
:10389000CAF80000BDE8F88F00407540A4703D0AEA
:1038A000D74342402DE9F04F89B000F0E8F800F02E
:1038B000D5F800287ED006A9A22000F00DF90DF160
:1038C0001A01A42000F008F907A9A62000F004F9C5
:1038D0000DF11E01A82000F0FFF808A9AA2000F0B1
:1038E000FBF80DF12201AC2000F0F6F805A9482004
:1038F00000F0D4F804A9582000F0D0F8BDF820005A
:103900000499A1EB0024BDF822000022E117A0FBDE
:10391000043C02FB04C200FB0120410241EAD350F7
:103920004FF4FA6110EB01094846FCF7A3FE394950
:103930000190FCF7D9FC8346FCF7DCFE02460B46FF
:10394000CDE9020134A0FDF72DFFBDF81A100020CB
:10395000000440EA11400A04BDF81E1000234FEA9B
:10396000E47CA1FB04BE03FB04E301FB0C334FEA40
:10397000DB1141EA4361551840EBE316BDF818101E
:103980004FF000004FEAC03040EA51404FEAC132E8
:10399000BDF81C104FF000034FEAE47CA1FB04BE0D
:1039A00003FB04E301FB0C334FEA1B2141EA0361F3
:1039B000571800E02CE040EB23284FF00001059859
:1039C000A0FB072301FB073100FB08114FEA52500F
:1039D00040EAC1204FEA61520146491B62EB0600F2
:1039E000420442EAD13A5046FCF744FE12490190A3
:1039F000FCF77AFC8346FCF77DFE02460B46CDE9D8
:103A000002010EA0FDF7CEFE504609B0BDE8F08FD2
:103A10000020FAE70000C8424D53353631312020EE
:103A200054656D7020202843657320293A20252E87
:103A300032662020200A0000000020414D53353618
:103A400031312020507265737320286D62617229B4
:103A50003A20252E326620200A00000001207047FF
:103A60000021002200BF07E0002201E0531C9AB2AF
:103A70008242FBDB4B1C99B28142F5DB704710B5EB
:103A800000F022FB4FF47A70FFF7EAFF1E2000F0EF
:103A900068F84FF47A70FFF7E3FF10BD38B50546BC
:103AA0000C46284600F05DF84FF49670FFF7D8FFFB
:103AB000002000F056F80321684600F025F89DF834
:103AC000000000049DF8011040EA01209DF802105A
:103AD0000843206038BD000038B505460C4609A0F3
:103AE00000680090284600F03CF80221684600F08B
:103AF0000BF89DF801009DF8001040EA012020809D
:103B000038BD00000101000070B504460D464FF4B9
:103B1000005600BF00BF00BF00F07EFBEF2000F0AA
:103B200045FB05E01EB9042000F044F870BD761E88
:103B300000F0AEFB0028F5D10FE0012D06D10020EA
:103B400000F006FB207000F085FB04E0012000F08F
:103B5000FFFA2070641C681EC5B2002DEDD1012053
:103B6000E4E770B505464FF4005400F055FBEE2035
:103B700000F01CFB05E01CB9012000F01BF870BD33
:103B8000641E00F085FB0028F5D14FF40054284650
:103B900000F00CFB05E01CB9022000F00BF8EEE78A
:103BA000641E00F075FB0028F5D100F053FB0120E6
:103BB000E5E7000010B50446214602A0FDF7F2FD3E
:103BC000002010BD4D533536313120B5C8B4FDB39A
:103BD000ACCAB1A3A16572726F72436F6465203D78
:103BE00025640A002DE9F04107460D4616464FF4BC
:103BF000805400F0F5F9D02000F0C2F906E024B9B5
:103C0000022000F075F8BDE8F081641E00F01CFA97
:103C10000028F4D14FF48054384600F0B1F905E0A3
:103C20001CB9032000F064F8EDE7641E00F00CFA04
:103C30000028F5D14FF4805400F0D2F9D12000F0E3
:103C40009FF905E01CB9052000F052F8DBE7641E7F
:103C500000F0FAF90028F5D10FE0012E06D100207E
:103C600000F064F9287000F0D5F904E0012000F0BC
:103C70005DF928706D1C701EC6B2002EEDD10120BA
:103C8000C1E770B506460D464FF4805400F0A8F920
:103C9000D02000F075F905E01CB9012000F028F8EB
:103CA00070BD641E00F0D0F90028F5D14FF48054A7
:103CB000304600F065F905E01CB9022000F018F864
:103CC000EEE7641E00F0C0F90028F5D1284600F0A8
:103CD00057F905E01CB9032000F00AF8E0E7641E7C
:103CE00000F0B2F90028F5D100F094F90120D7E7EF
:103CF00010B50446214602A0FDF754FD002010BD7A
:103D00004D50553630353020B5C8B4FDB3ACCAB1CE
:103D1000A3A16572726F72436F6465203D25640ACA
:103D200000000000A0B000200F90109000F0B7FD40
:103D300020E011A8FFF7B0FA11A909A8FEF73AFF91
:103D400005A911A800F0BFFD0FA805A9CDE9021033
:103D5000DDE90D01CDE9000109A80FC8FEF79CFEC1
:103D600011A90FA800F053F811A8FFF7B1FA13A892
:103D700000F0A4FFDDE72DE9F04704460D461646A6
:103D8000A968A068FCF77EFA804669686068FCF75D
:103D900079FA814629682068FCF774FA8246494618
:103DA000FCF718FA07464146FCF714FA3060A96898
:103DB0006069FCF767FA804669682069FCF762FA77
:103DC00081462968E068FCF75DFA82464946FCF7BF
:103DD00001FA07464146FCF7FDF97060A968206AC0
:103DE000FCF750FA80466968E069FCF74BFA8146B7
:103DF0002968A069FCF746FA82464946FCF7EAF9C9
:103E000007464146FCF7E6F9B060BDE8F087C28896
:103E100003885B421A4443885B42134482881A44F5
:103E20000A81C38802881A4443885B421A44838803
:103E30005B421A444A81C38802881344428813446F
:103E400082881A448A81C28803885B42134442886C
:103E5000134482881A44CA817047000010B540217B
:103E60000C48FCF7F0FE80210A48FCF7EEFE01202A
:103E7000FFF702F880210748FCF7E5FE0120FEF776
:103E8000FBFF40210348FCF7E0FE0120FEF7F4FFB2
:103E900010BD0000000C014008B501210820FDF70D
:103EA000D3F82020ADF8000001208DF80200482052
:103EB0008DF8030069460D48FCF731FE14208DF89B
:103EC00003008020ADF8000069460848FCF727FE93
:103ED0004020ADF8000014208DF803006946034827
:103EE000FCF71DFE00F096F808BD0000000C014034
:103EF00010B580210C48FCF7A6FE40210A48FCF7CB
:103F0000A4FE0120FEF7B8FF80210748FCF79DFEC4
:103F10000120FEF7B1FF80210348FCF794FE012049
:103F2000FEF7AAFF10BD0000000C014070B5054669
:103F30000024002618E06006040E80210F48FCF7DC
:103F400084FE0120FEF798FF40210C48FCF772FE2A
:103F500008B1601CC4B280210848FCF774FE01203F
:103F6000FEF78AFF701CC6B2082EE4DB15B9FFF716
:103F7000BFFF01E0FFF772FF204670BD000C01405B
:103F800070B50446002526E004F0800020B14021F1
:103F90001248FCF75AFE03E040211048FCF753FE9C
:103FA0000120FEF769FF80210C48FCF74EFE01203E
:103FB000FEF762FF80210948FCF745FE072D03D17B
:103FC00040210648FCF741FE6006040E0120FEF782
:103FD00053FF681CC5B2082DD6DB70BD000C014034
:103FE00010B540210A48FCF730FE80210848FCF754
:103FF0002CFE0420FEF740FF40210548FCF723FE7D
:104000000420FEF739FF80210148FCF71CFE10BD9B
:10401000000C014010B580210A48FCF714FE402135
:104020000848FCF710FE0420FEF726FF8021054813
:10403000FCF70BFE40210348FCF707FE0420FEF7C7
:104040001BFF10BD000C014010B540210E48FCF7CD
:10405000FCFD0120FEF710FF80210B48FCF7F5FD69
:104060000120FEF709FF40210748FCF7E3FD08B1F6
:10407000012400E0002480210348FCF7E4FD012036
:10408000FEF7FAFE204610BD000C014010B54FF4BB
:1040900080610C48FCF7D7FD4FF400610948FCF73C
:1040A000D2FD0220FEF7E8FE4FF480610548FCF7E0
:1040B000CCFD0220FEF7E0FE4FF480610148FCF7E2
:1040C000C2FD10BD000C014008B501210820FCF71D
:1040D000BBFF48208DF8030001208DF8020040024C
:1040E000ADF8000069460848FCF719FD14208DF86A
:1040F00003004FF44060ADF8000069460248FCF749
:104100000EFD00F0A7F808BD000C014010B54FF4FB
:1041100080610E48FCF797FD4FF400610B48FCF7F7
:1041200094FD0120FEF7A8FE4FF480610748FCF7DC
:104130008CFD0120FEF7A0FE4FF480610348FCF7E0
:1041400082FD0120FEF798FE10BD0000000C01402A
:1041500070B50546002400261BE06006040E4FF4EF
:1041600080611148FCF771FD0220FEF785FE4FF4D7
:1041700000610D48FCF75EFD08B1601CC4B24FF44D
:1041800080610948FCF75FFD0120FEF775FE701C99
:10419000C6B2082EE1DB15B9FFF7B8FF01E0FFF763
:1041A00075FF204670BD0000000C014070B504464C
:1041B00000252BE004F0800028B14FF40061154881
:1041C000FCF743FD04E04FF400611248FCF73BFDAF
:1041D0000120FEF751FE4FF480610E48FCF735FDDB
:1041E0000120FEF749FE4FF480610A48FCF72BFDE1
:1041F000072D04D14FF400610648FCF726FD600648
:10420000040E0120FEF738FE681CC5B2082DD1DB74
:1042100070BD0000000C014010B54FF400610C4867
:10422000FCF713FD4FF480610948FCF70EFD0420F4
:10423000FEF722FE4FF400610548FCF704FD042060
:10424000FEF71AFE4FF480610148FCF7FCFC10BD3C
:10425000000C014010B54FF480610C48FCF7F3FCF2
:104260004FF400610948FCF7EEFC0420FEF704FE61
:104270004FF480610548FCF7E8FC4FF40061034807
:10428000FCF7E3FC0420FEF7F7FD10BD000C014035
:1042900010B54FF400611048FCF7D7FC0120FEF781
:1042A000EBFD4FF480610C48FCF7CFFC0120FEF7DA
:1042B000E3FD4FF400610848FCF7BCFC08B10124A1
:1042C00000E000244FF480610348FCF7BCFC0120AF
:1042D000FEF7D2FD204610BD000C01402DE9F04153
:1042E0000546002600240CE055F8241055F824005B
:1042F000FBF7C8FF80463146FBF76CFF0646601CA3
:10430000C4B2032CF0DB3046FEF78CFF07460024D6
:1043100008E055F824003946FBF7B4FF45F82400BF
:10432000601CC4B2032CF4DBBDE8F08110B500F0D2
:1043300051F900F023F910BD2DE9FC41044668460F
:1043400000F0D2FB00287FD09DF800109DF80120DE
:1043500041EA0220FCF78EF980464FF08B41FBF7D3
:10436000C3FF07463949FBF78DFF06463749FBF780
:1043700031FF0546FCF7AAF920809DF802109DF850
:10438000032041EA0220FCF775F980464FF08B418B
:10439000FBF7AAFF07462D49FBF774FF06462B499A
:1043A000FBF718FF0546FCF791F960809DF80410B3
:1043B0009DF8052041EA0220FCF75CF980464FF0A9
:1043C0008B41FBF791FF07462049FBF75BFF064651
:1043D0001E49FBF7FFFE0546FCF778F9A0809DF823
:1043E00006109DF8072041EA0220FCF743F98046B9
:1043F0004FF08B41FBF778FF07461449FBF742FF6C
:1044000006461249FBF7E6FE0546FCF75FF9E08039
:104410002088A0F57A704FF6FF7101EA40002080F5
:104420006088A0F57A7001EA40006080A088A0F55D
:104430007A7001EA4000A080E088A0F57A7001EA75
:10444000400000E000E0E080BDE8FC8100007A442C
:10445000014600207047F0B587B0002400250026F3
:10446000002701210846FCF7DFFD0020ADF816000B
:10447000ADF8120040F65F10ADF814004720ADF81B
:10448000100000208DF8180004A94FF08040FDF7BF
:10449000ABF86020ADF800000120ADF8020000206C
:1044A000ADF80800ADF8064069464FF08040FCF7D3
:1044B00037FFADF8065069464FF08040FCF786FFA5
:1044C000ADF8066069464FF08040FCF7DFFFADF8BD
:1044D000067069464FF08040FDF732F80821C806A3
:1044E000FCF76AFF0821C806FCF7C2FF0821C806CE
:1044F000FDF71CF80821C806FDF760F801218807C0
:10450000FCF702FF07B0F0BD08B501210420FCF75D
:104510009BFD18208DF8030003208DF80200012078
:10452000ADF8000069461448FCF7F9FA0220ADF82E
:10453000000069461048FCF7F2FA0420ADF80000CC
:1045400069460D48FCF7EBFA0820ADF80000694613
:104550000948FCF7E4FA01210748FCF774FB022143
:104560000548FCF770FB04210348FCF76CFB0821AD
:104570000148FCF768FB08BD0008014000B585B0A4
:1045800001210803FCF760FD1020ADF80C000020AD
:10459000ADF80800ADF806000720ADF810000020C7
:1045A000ADF80400ADF80000ADF80E004FF48270D5
:1045B000ADF802004FF40070ADF80A0069460448F7
:1045C000FCF7D6FD01210248FCF7B8FD05B000BD9F
:1045D0000030014008B501210420FCF735FD012120
:1045E0000846FCF731FD18208DF8030001208DF8F6
:1045F0000200E020ADF8000069460F48FCF78FFA92
:1046000010208DF80300ADF8000069460A48FCF759
:1046100086FA0220ADF8000069460848FCF77FFAE8
:1046200048208DF803000120ADF8000069460348DA
:10463000FCF775FA08BD000000080140000C0140BD
:104640002DE9FF5F05460E461446D5F80090D5F8D3
:1046500004A0D5F808B03046FCF74CF8CDE90001CD
:10466000FEF72EFB0746FCF758F803903046FCF7A0
:1046700041F8074600F05AF9CDE90001FCF74DF882
:1046800002902846FFF72AFE4FF07E500399FBF771
:10469000F3FD804649464846FBF7F4FD414601904C
:1046A000FBF7F0FD07460399FBF794FD20605846A1
:1046B0000299FBF7E7FD01904FF07E500399FBF75D
:1046C000DBFD514600904846FBF7DCFD8046009933
:1046D000FBF7D8FD07460199FBF7CEFD6060504619
:1046E0000299FBF7CFFD80464FF07E500399FBF710
:1046F000C3FD594601904846FBF7C4FD009001995F
:10470000FBF7C0FD07464146FBF764FDA060584635
:104710000299FBF7B7FD01904FF07E500399FBF72C
:10472000ABFD804649465046FBF7ACFD4146009044
:10473000FBF7A8FD07460199FBF74CFDE0604FF041
:104740007E500399FBF798FD514601905046FBF7C8
:1047500099FD80460199FBF795FD07460399FBF704
:1047600039FD206148460299FBF78CFD01904FF01E
:104770007E500399FBF780FD804659465046FBF773
:1047800081FD41460090FBF77DFD07460199FBF74F
:1047900073FD606150460299FBF774FD01904FF084
:1047A0007E500399FBF768FD594600904846FBF799
:1047B00069FD80460099FBF765FD07460199FBF707
:1047C0005BFDA06148460299FBF75CFD01904FF04C
:1047D0007E500399FBF750FD804659465046FBF743
:1047E00051FD41460090FBF74DFD07460199FBF74F
:1047F000F1FCE0614FF07E500399FBF73DFD8046F0
:1048000059465846FBF73EFD41460190FBF73AFDFD
:1048100007460399FBF7DEFC2062BDE8FF9F2DE908
:10482000FE4F04460D4661680846FBF72BFD0190DC
:1048300021680846FBF726FD00900199FBF7CAFCAA
:104840008346FEF7EFFC014602904FF07E50FBF7E7
:104850004BFD8146A06880F0004A49465046FEF76D
:104860008FF80646D4E90010FEF78AF80746216A59
:104870006069FEF785F88046C5F800806E60AF601D
:10488000BDE8FE8F016A436A03624162426982F0B9
:104890000041826982F0004343618161704710B535
:1048A000FEF7E4FA00F0E4F9FEF7DBFDFEF770FD39
:1048B000FEF7C1FDFFF7E3F800F088F800F0E8F834
:1048C00000F0F0F910BD2DE9F04104460D46142624
:1048D00070004FF4FA6190FBF1F84046FBF7CAFE16
:1048E00007462188A1F57A70FBF7C4FE8046394659
:1048F000FBF7C8FC28606188A1F57A70FBF7BAFE67
:1049000080463946FBF7BEFC6860E188A1F57A7005
:10491000FBF7B0FE80463946FBF7B4FCA860A088E0
:10492000FBF7B1FEE860BDE8F081000000B5254B63
:1049300021F0004287B09A4203DC00221346009225
:104940002BE0214B9A4208D140B94FF00100FDF70E
:104950007DFAFDF75CFA07B000BD03DBFDF754FA02
:1049600007B000BD02AAFCF741FF10F003014FF0B1
:1049700001000DD0012914D002291AD00DF1080C24
:104980009CE80F00FDF7F6F807B081F0004100BD8C
:104990000DF1080C00909CE80F00FDF7BFF907B07F
:1049A00000BD0DF1080C9CE80F00FDF7E3F807B01F
:1049B00000BD0DF1080C00909CE80F00FDF7AEF96A
:1049C000E2E70000FB21E93F0000F07F10B5FFF7B0
:1049D000ADFC10210148FCF738F910BD000801407A
:1049E0002DE9F04105460E46174610210C48FCF70C
:1049F0002AF929460B4800F0D1F88046002406E049
:104A00000021084800F0CAF83055601CC4B2BC420E
:104A1000F6DB10210248FCF718F94046BDE8F081AA
:104A2000000801400030014070B5044610210948DB
:104A3000FCF709F92146084800F0B0F800210648C3
:104A400000F0ACF8054610210248FCF7FEF82846B5
:104A500070BD0000000801400030014070B5044600
:104A60000D4610210848FCF7EEF82146074800F0F3
:104A700095F806462946054800F090F810210248AE
:104A8000FCF7E3F8304670BD0008014000300140FB
:104A900010B502211248FCF7D6F8052211492A2048
:104AA00000F058F801212120FFF7D8FF0121222032
:104AB000FFF7D4FF28212520FFF7D0FF0821312060
:104AC000FFF7CCFF0F212620FFF7C8FF0F21202082
:104AD000FFF7C4FF02210248FCF7B7F810BD000041
:104AE000000C01401400002070B505466426022128
:104AF0001748FCF7AAF808E03000A6F10101CEB291
:104B000003D1FFF7A5FCC0B270BD01211048FCF72E
:104B100091F80028F0D102210D48FCF794F8072005
:104B2000FFF782FF044621462720FFF797FF04F096
:104B3000400050B1082229466120FFF751FFFF21B4
:104B4000E220FFF78BFF0120DEE70020DCE700001A
:104B5000000C01402DE9F04105460E461746102194
:104B60000C48FCF770F829460B4800F017F880460F
:104B7000002405E0315D084800F010F8601CC4B264
:104B8000BC42F7DB10210348FCF75FF84046BDE864
:104B9000F0810000000801400030014070B505467A
:104BA0000E46642407E0601EC4B224B9002000F061
:104BB00021F8C0B270BD02212846FCF7CBFA0028CC
:104BC000F1D031462846FCF7D1FA642407E0601E94
:104BD000C4B224B9012000F00DF8C0B2EAE7012107
:104BE0002846FCF7B7FA0028F1D02846FCF7BBFAB4
:104BF000C0B2DFE710B50446214602A0FCF7D2FDA3
:104C0000002010BD53504920B5C8B4FDB3ACCAB1A3
:104C100021206572726F72436F6465203D202564A8
:104C20000A0000002DE9F04106460F46FBF702FF9F
:104C300004000D4618BF0120284320F00040C0F1B9
:104C40007F6000F1E040C00F0ED0301C18BF012083
:104C5000384320F00040C0F17F6000F1E040C00F19
:104C600004BF0120FDF7F2F820462946BDE8F08197
:104C700008B501210820FCF7E7F903208DF80200B0
:104C800010208DF803000001ADF8000069460448CB
:104C9000FBF745FF4FF480710148FBF7D4FF08BDD7
:104CA000000C014010B5FFF72FFCFFF7D4FB10BD3F
:104CB00010B5FEF7B9F8FEF797F810BD10B5044629
:104CC0000B48006898B121884FF08040FCF783FCC6
:104CD00061884FF08040FCF780FCA1884FF0804055
:104CE000FCF77DFCE1884FF08040FCF77AFC10BDBA
:104CF000200000200000010002000100030001006C
:104D00000200010004000100020001000300010094
:104D10000200010005000100020001000300010083
:104D20000200010004000100020001000300010074
:104D30000200010006000100020001000300010062
:104D40000200010004000100020001000300010054
:104D50000200010005000100020001000300010043
:104D60000200010004000100020001000300010034
:104D70000200010007000100020001000300010021
:104D80000200010004000100020001000300010014
:104D90000200010005000100020001000300010003
:104DA00002000100040001000200010003000100F4
:104DB00002000100060001000200010003000100E2
:104DC00002000100040001000200010003000100D4
:104DD00002000100050001000200010003000100C3
:104DE00002000100040001000200010003000100B4
:104DF0000200010000000000000000000000803FF1
:104E0000555555555555C53F7D6FEB0312D6D4BF4B
:104E10005544880E55C1C93F3B8F68B52882A4BF51
:104E200088B20175E0EF493F09F7FD0DE13D023F12
:104E30004B2D8A1C273A03C0C88A599CE52A00409A
:104E400059018D1B6C06E6BF82922EB1C5B8B33FE7
:104E50004C5555555555A53F7751C1166CC156BF98
:104E60009015CB19A001FA3EAD529C804F7E92BEA8
:104E7000C4B1B4BD9EEE213ED43888BEE9FAA8BDC7
:104E800000004054FB21F93F3163621A61B4D03D08
:104E90000000601A61B4D03D7370032E8A19A33BE1
:104EA0000000002E8A19A33BC14920259A837B3933
:104EB00000000000000000006E83F9A22915444E96
:104EC000D15727FCC0DD34F5999562DB4190433C16
:104ED000AB6351FE61C5BBDE3A6E24B7E0D24D42F2
:104EE000EA2E49061C92D1091CEB1DFE3EA729B1F2
:104EF000F53582E88444BB2E26709CE9417E5FB480
:104F000039D69139F43953838B5F849C3B28F9BDA2
:104F1000FF97F81F0F9805DE8B112FEF1F6D0A5AB0
:104F2000CF7E366DB709CB27663F464F2DEA5F9E91
:104F3000C7BA27757BF1E5EBF739073DEA92528A4C
:104F4000B15FFB6B085D8D1FA6F810111111813F39
:104F5000D561C119A0012ABF7DFEB157E31DC73E2F
:104F6000EB9C2B8AE6E55ABE7CD5CF5A3AD9E53D73
:104F7000904F000800000020A80000002C1E000830
:104F800038500008A8000020802500003C1E0008C2
:104F900000000000010203040102030406070809DF
:104FA00002040608344310100134431010010000BD
:104FB00000000000000000000000000000000000F1
:104FC00000000000000000000000000000000000E1
:104FD00000000000000000000000000000000000D1
:104FE00000000000000000000000000000000000C1
:104FF00000000000000000000000000000000000B1
:1050000000000000000000000000000000000000A0
:105010000000000000000000000000000000000090
:105020000000000000000000000000000000803FC1
:08503000000000000000000078
:04000005080000ED02
:00000001FF
