:020000040800F2
:100000008804002001010008E70B0008DF0B00084E
:10001000E30B0008A90A0008B11300080000000063
:10002000000000000000000000000000710D00084A
:10003000AD0A000800000000E90B0008B10E00083E
:100040001B0100081B0100081B0100081B01000820
:100050001B0100081B0100081B0100081B01000810
:100060001B0100081B0100081B0100081B01000800
:100070001B0100081B0100081B0100081B010008F0
:100080001B0100081B0100081B0100081B010008E0
:100090001B0100081B0100081B0100081B010008D0
:1000A0001B0100081B0100081B0100081B010008C0
:1000B0001B0100081B0100081B0100081B010008B0
:1000C0001B0100081B0100081B0100081B010008A0
:1000D0001B0100081B0100081B0100081B01000890
:1000E0001B0100081B0100081B010008DFF80CD0F1
:1000F00000F08CFC004800475132000888040020C2
:100100000648804706480047FEE7FEE7FEE7FEE7B1
:10011000FEE7FEE7FEE7FEE7FEE7FEE7B90E0008B2
:10012000ED000008F0B480EA0102D40F4200B2EB07
:10013000410F02D20246084611464A0042D0C30D82
:10014000DDB2C1F3C752AD1A202D35DAC1F3160165
:1001500041F4000204B15242C5F1200602FA06F150
:100160002A411044B3EBD05F23D0C4B1012DA0EBE2
:10017000C35009DCF0BC4FF0004202EAC352DBB2CC
:1001800000F5000000F01FBB400000F1807000EBA4
:10019000C350A0F1807040EAD170490009E04908DD
:1001A00041EAC071A0EBC35000F50000400800EB2D
:1001B000C350F0BC00F0FEBA6142012202EB4101E3
:1001C000001BF6E7F0BC704781F00041AAE780F021
:1001D0000040A7E780EA010210B502F000434000AA
:1001E00022D04A001FD0010E01EB1261C0F356006D
:1001F000C2F3560240F4000042F40002A0FB0220C9
:1002000000047F39140400D0401C50EA124001D48D
:100210004000491EC2B20C0604EBD010401C40083E
:10022000802A02D003E0002010BD20F00100002948
:1002300000DA0020184310BD30B480EA010202F059
:10024000004530F0004221F0004013D090B1C30DC2
:10025000D40DC2F31601C0F31600E41A41F40001F4
:1002600040F400027D34914201D3641C00E0490057
:10027000002C02DA30BC002070474FF4000000234D
:10028000914201D3891A034340084FEA4101F7D153
:1002900051B1914202D14FF0004105E002D24FF03E
:1002A000010101E06FF0010103EBC450284430BCB0
:1002B00000F080BA2DE9FE4F804681EA0300C00FAE
:1002C0000C46009021F0004123F00045B8EB0200FD
:1002D000A94105D24046214690461C460B4602469F
:1002E00023F00040104347D0270DC7F30A00C3F3A3
:1002F0000A510290401A019040286BDAC3F31300B0
:1003000040F4801B0098924620B10023D2EB030AF0
:1003100063EB0B0B01985946C0F14002504600F0C8
:1003200028FA06460D4650465946019A00F030FA22
:1003300010EB08006141002487EA115284EAE77358
:100340001A4340D0009A62B3019A012A4FEA075239
:1003500015DC001B61EB02014FF0004202EA07527C
:10036000CDE90042001C41F5801132462B4600F0D9
:1003700067FA03B0BDE8F08F40462146F9E7001B5D
:1003800061EB0201001C41F5801300185B4120184D
:10039000A2F5001747EB030140EAD570B6196D418D
:1003A00011E06D084FEA360645EAC0754FEA07527C
:1003B000001B61EB0201001C41F5801149084FEA66
:1003C00030000019514132462B4603B0BDE8F04FD2
:1003D00000F027BA0098012240000023D0EB02026F
:1003E00063EBE073009821464FEAE074B8EB00003D
:1003F00061EB0401E9E783F000435BE781F0004132
:1004000058E72DE9FE4F81EA030404F0004421F08F
:10041000004100944FF0000B23F0004350EA010428
:100420005ED052EA03045BD0C3F30A54C1F30A5509
:100430002C44A4F2F3340194A0FB0254C1F3130141
:1004400041F48011C3F3130343F4801301FB02440E
:1004500000FB034E840A970A44EA815447EA835713
:10046000A4FB076802958D0A05FB07854FEA932CCC
:1004700004FB0C542705029D4FEA065847EA16373D
:10048000B5EB08056EEB070C870E920E47EA811755
:1004900042EA8312A7FB0201B6EB0B0164EB0004F6
:1004A0002B0D43EA0C335E1844EB1C50DA465146E0
:1004B000E7FB0201C5F313044FEA0B3343EA14537D
:1004C0004FEA0432019C43EA0603A4F10C040294AF
:1004D000009CCDE900B400F0B3F903B0BDE8F08FA3
:1004E00000200146F9E72DE9F04D81EA030404F00C
:1004F000004B21F0004514464FF0000A23F0004164
:1005000050EA050220D054EA01021DD0C5F30A5773
:100510000246C5F31303C1F31300C1F30A5640F4B6
:10052000801543F48013A7EB0608101BD64608F28B
:10053000FD3873EB050002D308F1010801E09218C1
:100540005B41B8F1000F03DA00200146BDE8F08DF1
:1005500000204FF48011064684460EE0171B73EB13
:10056000050705D3121B63EB050306434CEA010C98
:1005700049084FEA300092185B4150EA0107EDD17B
:1005800052EA030012D082EA040083EA050108431C
:1005900005D0101BAB4106D20122002306E0002249
:1005A0004FF0004302E06FF0010253101AEB060017
:1005B0004CEB085110EB0A0041EB0B01BDE8F04D8C
:1005C00000F02FB9C10F80EAE0700844CA079623F3
:1005D000002100F0F8B896230022114600F0F3B88D
:1005E0000EB5C10F80EAE0700844CA07002140F24E
:1005F00033438DE80E000A460B4600F021F903B0A4
:1006000000BD00F0004220F00040C10DC0F3160014
:1006100040F400007F2901DA00207047962903DCAE
:10062000C1F19601C84001E096398840002AF4D013
:100630004042704720F00040C10DC0F3160040F466
:1006400000007F2901DA00207047962903DCC1F100
:100650009601C840704796398840704700F00042C4
:1006600030F000400AD0C10D01F56071C0F31600F2
:1006700042EA0151C2084007114370470020014679
:10068000704701F0004330B421F0004150EA01020C
:1006900006D00A0DA2F56072C1F31301002A02DC34
:1006A00030BC00207047440F44EAC104C100E01888
:1006B00030BC00EBC25000F07DB80000002801DB28
:1006C000C0F10040002901DBC1F1004181427047C7
:1006D000002801DBC0F10040002901DBC1F100412D
:1006E0008842704730B50B46014600202022012485
:1006F00009E021FA02F59D4205D303FA02F5491BF0
:1007000004FA02F52844151EA2F10102F1DC30BD05
:100710002DE9F05F0546002092469B468846064636
:10072000814640241BE0284641464746224600F0C9
:100730007FF953465A46C01A914110D311461846C4
:10074000224600F016F82D1A67EB01084F462246A4
:100750000120002100F00DF817EB00094E41201E8A
:10076000A4F10104DFDC484631462A464346BDE891
:10077000F09F202A04DB203A00FA02F100207047A3
:100780009140C2F1200320FA03F3194390407047CF
:10079000202A06DBCB17203A41FA02F043EAE07345
:1007A00006E041FA02F3D040C2F120029140084332
:1007B000194670470029A8BF7047401C490008BF70
:1007C00020F00100704710B4B0FA80FC00FA0CF081
:1007D00050EA010404BF10BC704749B1CCF12004B9
:1007E00021FA04F411FA0CF118BF01212143084346
:1007F000A3EB0C01CB1D4FEA00614FEA102042BF72
:10080000002010BC704700EBC35010440029A4BF67
:1008100010BC7047401C490008BF20F0010010BC0C
:10082000704710B5141E73F1000408DA401C41F142
:10083000000192185B411A4301D120F0010010BD64
:100840002DE9F04D92469B4611B1B1FA81F202E0DA
:10085000B0FA80F220329046FFF78BFF04460F4635
:1008600040EA0A0041EA0B0153465A46084313D0B6
:10087000114653EA010019D0C8F14002504600F079
:10088000D7F805460E46504659464246FFF771FFD7
:10089000084305D0012004E020463946BDE8F08D2C
:1008A0000020054346EAE0762C4337430A98630567
:1008B000E40AA0EB08000022FD0A44EA47540A308B
:1008C00002D500200146E9E7010510196941DDE97B
:1008D000084500196941BDE8F04DA2E770B521F067
:1008E000004303430CD0C1F30A550024D5EB0405A3
:1008F00064EB0403D617AD1AB34102DB00200146B6
:1009000070BD201841EB025170BD2DE9F04D002360
:100910001A461B1A8A4103DB00200146BDE8F08D10
:10092000C1F30A52C1F3130141F480154FF0000BDB
:10093000D10702D100186D41521E0027044640F233
:10094000FF11384601EB620A3E468046024600200F
:100950004FF4801100F06CF8C2197141BB1846EBDE
:100960000100B4EB030C75EB000C04D3E41A65EB47
:10097000000517460E46241908F101006D41804616
:100980003428E3DDF91946EB0600091BA84103D220
:100990004FF0FF32134601E0002213461BEB070025
:1009A00046EB0A51BDE8F04DFFF73BBFC1F30A52D9
:1009B000C1F3130140F2FF3341F480119A4202DA8D
:1009C00000200146704740F233439A42A2F233427C
:1009D00002DC524200F02CB8FFF7CBBE30B5041E4B
:1009E00071F1000404DB4FF00044404264EB01016C
:1009F000141E73F1000405DB1C464FF00043524205
:100A000063EB0403994208BF904230BD064C074D8A
:100A100006E0E06840F0010394E8070098471034CE
:100A2000AC42F6D3FFF766FB88440008A8440008F0
:100A3000202A04DB203A21FA02F00021704721FA33
:100A400002F3D040C2F1200291400843194670479A
:100A50000EB540F2334102910021CDE900110A4662
:100A60000B46FFF7EDFE03B000BD70B5C1F30A52AF
:100A700001F000450024C1F3130140F2FF3341F4BB
:100A800080119A4201DA002070BD40F233439A424D
:100A9000A2F2334203DC5242FFF7CAFF00E090406B
:100AA0002C43F1D0404270BD00BFFEE770472DE9F6
:100AB000F0410246002500260020002300240027E4
:100AC00091F803C00CF00F0591F803C00CF0100C66
:100AD000BCF1000F03D091F802C04CEA050591F873
:100AE00000C0BCF1000F31D0146800202BE04FF0A3
:100AF000010C0CFA00F3B1F800C00CEA03069E42A8
:100B000020D183004FF00F0C0CFA03F7BC4305FA19
:100B100003FC4CEA040491F803C0BCF1280F06D191
:100B20004FF0010C0CFA00FCC2F814C00AE091F876
:100B300003C0BCF1480F05D14FF0010C0CFA00FCCA
:100B4000C2F810C0401C0828D1D31460B1F800C00E
:100B5000BCF1FF0F34DD546800202EE000F1080CDA
:100B60004FF0010808FA0CF3B1F800C00CEA0306D4
:100B70009E4221D183004FF00F0C0CFA03F7BC43C7
:100B800005FA03FC4CEA040491F803C0BCF1280FF9
:100B900005D100F1080C08FA0CF8C2F8148091F89D
:100BA00003C0BCF1480F07D100F1080C4FF0010859
:100BB00008FA0CF8C2F81080401C0828CED3546004
:100BC000BDE8F0810246002093680B400BB1012084
:100BD00000E000207047416170470161704700BF2D
:100BE000FEE700BFFEE770477047000029B1064AE4
:100BF000D2690243044BDA6104E0034AD2698243BA
:100C0000014BDA61704700000010024029B1064A2A
:100C100092690243044B9A6104E0034A9269824359
:100C2000014B9A61704700000010024030B500216E
:100C30000022002400232D4D6D6805F00C0121B128
:100C4000042905D0082923D105E0294D056022E0BB
:100C5000274D05601FE0254D6D6805F47012234D8A
:100C60006D6805F48034022505EB92421CB9214DD4
:100C7000554305600BE01D4D6D6805F400351DB151
:100C80001C4D5543056002E0194D5543056002E0D7
:100C9000174D056000BF00BF144D6D6805F0F001F1
:100CA0000909154D6B5C0568DD4045600F4D6D68A9
:100CB00005F4E061090A104D6B5C4568DD40856014
:100CC0000A4D6D6805F46051C90A0B4D6B5C4568AF
:100CD000DD40C560054D6D6805F44041890B074D49
:100CE0006B5CC568B5FBF3F5056130BD00100240D3
:100CF00000127A0000093D000000002010000020D2
:100D000021B1028842F04002028004E002884FF6DE
:100D1000BF731A40028070470246002013890B40BF
:100D20000BB1012000E00020704701468889704720
:100D30008181704710B50022028802F441520B886D
:100D40004C8823438C882343CC8823430C8923433A
:100D50004C8923438C892343CC8923431A43028043
:100D6000838B4FF2FF74234083830B8A038210BD71
:100D7000704710B500F002F810BD00000CB500205F
:100D8000019000903348006840F480303149086099
:100D900000BF3048006800F4003000900198401C0B
:100DA0000190009818B90198B0F5A06FF1D12948C9
:100DB000006800F4003010B10120009001E0002034
:100DC00000900098012843D12348006840F01000AB
:100DD000214908600846006820F0030008600846C2
:100DE000006840F0020008601A48406819494860ED
:100DF0000846406848600846406840F480604860A3
:100E00000846406820F47C1048600846406840F47A
:100E1000E81048600846006840F08070086000BF35
:100E20000C48006800F000700028F9D009484068BC
:100E300020F00300074948600846406840F002007F
:100E4000486000BF0348406800F00C000828F9D152
:100E50000CBD0000001002400020024030B50146E9
:100E6000B1F1807F01D3012030BD21F07F40401ED1
:100E70004FF0E022506150170022002807DA1307D4
:100E80001D0E094B00F00F04241F1D5503E013072E
:100E90001C0E064B1C5400BF00204FF0E022906156
:100EA000072010610020DFE718ED00E000E400E01B
:100EB00010B501F097FC10BD10B51348006840F064
:100EC00001001149086008464068104908400E4971
:100ED0004860084600680E4908400B49086008460B
:100EE000006820F4802008600846406820F4FE0076
:100EF00048604FF41F008860FFF73BFF4FF0006031
:100F00000449086010BD0000001002400000FFF816
:100F1000FFFFF6FE08ED00E021B1028842F0010279
:100F2000028004E002884FF6FE731A400280704788
:100F300070B5002400220023058C4FF6FE76354064
:100F40000584028C8388048B4FF68F752C40B51E68
:100F50002C400D882C43751E2A400D892A434D884C
:100F60002A43144DA8420BD0134DA84208D0134D6C
:100F7000A84205D0124DA84202D0124DA84213D16A
:100F80004FF6F7752A404D892A434FF6FB752A40E4
:100F90008D882A434FF6FF652B404FF6FF552B40B7
:100FA0008D892B43CD892B4383800483CD8885860F
:100FB000028470BD002C014000340140004001401B
:100FC00000440140004801400A460021018B4FF6D1
:100FD000F7731940114301837047000070B5002476
:100FE00000220023058C4FF6EF7635400584028CF5
:100FF0008388048B48F6FF752C404FF6FF452C4044
:101000000D884FF6FF7606EA05252C434FF6DF756F
:101010002A400D8906EA05152A434D8806EA05157A
:101020002A43154DA84202D0144DA8421DD14FF6B7
:101030007F752A404D894FF6FF7606EA05152A434B
:101040004FF6BF752A408D8806EA05152A434FF6EC
:10105000FF352B404FF2FF752B408D8906EA850541
:101060002B43CD8906EA85052B4383800483CD88F5
:101070000587028470BD0000002C0140003401404F
:101080000A460021018B4FF2FF7319404FF6FF73A0
:1010900003EA0223194301837047000070B500245E
:1010A00000220023058C4FF6FF6635400584028C34
:1010B0008388848B4FF68F752C404FF6FC752C403F
:1010C0000D882C434FF6FF552A400D894FF6FF76C9
:1010D00006EA05252A434D8806EA05252A43154DCB
:1010E000A84202D0144DA8421DD14FF2FF752A40EC
:1010F0004D894FF6FF7606EA05252A434FF6FF3560
:101100002A408D8806EA05252A434EF6FF752B40B6
:101110004DF6FF752B408D8906EA05152B43CD89C9
:1011200006EA05152B4383808483CD888587028456
:1011300070BD0000002C0140003401400A4600212F
:10114000818B4FF6F773194011438183704700007C
:1011500070B5002200230024058C4EF6FF76354042
:101160000584038C8488828B48F6FF752A404FF6ED
:10117000FF452A400D884FF6FF7606EA05252A43EB
:101180004DF6FF752B400D8906EA05352B434D883A
:1011900006EA05352B430B4DA84202D00A4DA84262
:1011A00008D14BF6FF752C408D894FF6FF7606EA85
:1011B00085152C4384808283CD88A0F84050038419
:1011C00070BD0000002C0140003401400A4600219F
:1011D000818B4FF2FF7319404FF6FF7303EA02232E
:1011E00019438183704781867047018770478187E3
:1011F0007047A0F840107047002202881D4B9842AB
:101200000ED01D4B98420BD0B0F1804F08D01B4B35
:10121000984205D01A4B984202D01A4B984204D1FA
:101220004FF68F731A404B881A43174B984207D0DA
:10123000164B984204D04FF6FF431A40CB881A430E
:1012400002808B8883850B8803850A4B98420BD0DC
:10125000094B984208D00E4B984205D00D4B98424E
:1012600002D00D4B984201D10B7A03860123838271
:1012700070470000002C0140003401400004004091
:1012800000080040000C0040001000400014004026
:1012900000400140004401400048014021B18289E2
:1012A00042F40052828104E082894DF6FF731A40B5
:1012B0008281704702460020B1F5007F00D100BF57
:1012C00013880B400BB1012000E0002070470000A4
:1012D0002DE9F04786B005460E460024A24600BF21
:1012E000A1460027B08900B100BF2F462C8A4CF6DA
:1012F000FF700440F08804432C82AC894EF6F31052
:101300000440B08831890843718908430443AC81A3
:10131000AC8A4FF6FF400440B0890443AC8201A878
:10132000FFF784FC1F48874202D1DDF810A001E0DE
:10133000DDF80CA0A88900F4004040B10AEBCA0017
:1013400000EB0A1031684900B0FBF1F807E00AEB46
:10135000CA0000EB0A1031688900B0FBF1F8642084
:10136000B8FBF0F004012009642101FB1089A88971
:1013700000F4004040B1322000EBC900B0FBF1F0B6
:1013800000F00700044308E0322000EB091064215C
:10139000B0FBF1F000F00F0004432C8106B0BDE873
:1013A000F087000000380140C1F3080282807047D6
:1013B00000BFFEE70FB4054B10B503A9044A02981D
:1013C00000F004FC10BC5DF814FB0000852C000844
:1013D00080000020490050EAC12018BF04204A0DB7
:1013E00018BF40F0010040F2FF72B2EB515F08BF3E
:1013F00040F00200012808BF052070472DE9F74F93
:10140000144694B00021C4E902111599079121F006
:101410000045C9498D4206DC1599C4E9000117B0A1
:101420000020BDE8F08FC549DFF814A3A9423CDDD8
:101430000799C44E0029C44FC44A1599534619DD73
:10144000FEF7D9FF554506D0C14AC24BFEF7D3FF80
:10145000C4E900010AE04FF0D352BE4BFEF7CBFFC8
:1014600032463B46FEF7C7FFC4E9000117B0012032
:10147000BDE8F08FFEF71EFF554506D0B44AB54BC8
:10148000FEF718FFC4E900010AE04FF0D352B14B58
:10149000FEF710FF32463B46FEF70CFFC4E90001A1
:1014A00017B04FF0FF30BDE8F08FAB49A942159956
:1014B00078DB21F0004183468846A84AA84BFEF716
:1014C000A0FF0022A74BFEF7F5FEFFF7CEFA09902A
:1014D000FFF786F806460F469C4A5346FEF791FFF3
:1014E00043465A46FEF78AFF80468A46984A994BF9
:1014F00030463946FEF785FF2A0D01250B924246FC
:101500005346FEF77BFF032DC4E9000139D00B9849
:10151000C1F30A51401A05EB45111139814230DA05
:101520009148C346784400EB0510CDF80CA00C9010
:10153000D0E9002330463946FEF763FF02460B46EA
:101540000491069058460399FEF755FF80468A4657
:1015500002460B4658460399FEF74DFF049B069A38
:10156000FEF749FF83460C9803913946D0E90223E0
:101570003046FEF746FF5A46039BFEF73CFF6D1CC4
:10158000BDE707980028A2BF099817B0BDE8F08F03
:10159000616881F000416160099817B04042BDE880
:1015A000F08FFFE784461598C1F31301C0F30A508A
:1015B000A0F2F5304FEA601800F01F06C6F12000D7
:1015C000139000200690079041F4801E05206D4680
:1015D00076B1664A08EB00017A4452F8213002EBFA
:1015E0008101B3404A68139922FA01F1194305E0D9
:1015F0005F4908EB0002794451F82210A1FB0E2745
:10160000A1FB0C131A449A4234BF0123002303EBBD
:10161000070A05EB8003D3E901B70F448F4234BFBB
:101620000121002193448B4411B1934502D903E079
:10163000934501D2012100E00021C3E901B75144E3
:1016400045F82010011EA0F10100C1DC0298059FA1
:1016500000F10050800F12900298DDE903568000DF
:10166000FEF7BEFF834628460D91FFF7F1F96FF0B4
:101670001D02FFF733F9CDE90E013046FFF7E8F917
:101680006FF03D02FFF72AF980468A463846FFF799
:10169000DFF96FF05D02FFF721F907464246534636
:1016A0001191FEF707FEDDE90E23FEF703FE5A4611
:1016B0000D9BFEF7FFFD00250E465A4628460D9B62
:1016C000FEF799FEDDE90E23FEF795FE42465346EE
:1016D000FEF791FE3A46119BFEF790FEDFF898A0C8
:1016E000244A5346FEF78DFE07468846234A244B7C
:1016F00031462846FEF785FE3A464346FEF7DAFDB8
:10170000074688464FF0A842534631462846FEF722
:1017100078FE3A464346FEF7CDFD159A12F0004F8B
:1017200004D0129A81F0004152421292C4E90001A1
:10173000129817B0BDE8F08FFB21E93F7CD9024039
:10174000FB21F93F7370032E8A19A33B000040541C
:101750003163621A61B4D03DFB21394183C8C96D40
:10176000305FE43F0000E03F702E0000EC2D0000F1
:10177000CE2D0000182D4454FB21F93D3326A6112F
:10178000460B113C2DE9FF4D21F0004807460C4661
:10179000B8F1795F08DAFFF768F9002801BF002087
:1017A000324904B0BDE8F08D3A462346104619464A
:1017B000FEF727FE054602462D480E460B4606213B
:1017C000784400F05DF82A463346FEF71AFEDDE95C
:1017D000022382468B4638462146FEF712FE044617
:1017E0000F4652465B4628463146FEF70AFE224621
:1017F0003B46FEF700FE07468A464FF0FF3228467A
:101800003146FFF76BF81B4A90450ADA3A465346D1
:10181000FEF7F1FD04B00022BDE8F04D134BFEF7DA
:10182000EDBD154A4245A8BFA8F500154FF00004CC
:10183000B8BF124D22462B46FEF7DDFD0646884610
:1018400022462B4600200949FEF7D5FD04460D46E9
:101850003A46534630464146FEF7CDFD04B0224697
:101860002B46BDE8F04DFEF7C9BD00000000F03F7B
:10187000A42B00003333D33F0000E93F0000D23FE8
:101880002DE9F0414F1E00EBC7010446D1E90001EC
:1018900015461E4637F006020DD02A463346FEF79F
:1018A000B0FD7F1E04EBC703D3E90023FEF702FD62
:1018B00037F00602F1D1022F25D0042F13D0062FC6
:1018C00018BFBDE8F0812A463346FEF79AFDD4E9F9
:1018D0000A23FEF7EFFC2A463346FEF792FDD4E9D1
:1018E0000823FEF7E7FC2A463346FEF78AFDD4E9D3
:1018F0000623FEF7DFFC2A463346FEF782FDD4E9D5
:101900000423FEF7D7FC2A463346FEF77AFDD4E9D6
:101910000223FEF7CFFC2A463346FEF772FDD4E9D8
:101920000023BDE8F041FEF7C5BC00002DE9FF4DE6
:10193000054621F0004084B00C46B0F1795F0BDA27
:101940002846FFF747FD042808BF00F06FF8284637
:1019500008B02146BDE8F08D2A460B461046FEF73A
:1019600050FD06460F462A462346FEF74AFD8046AE
:1019700026488A4632463B4605217844FFF780FFD9
:1019800083461098029160B3214A224B404651464B
:10199000FEF737FDCDE900015A4640465146029B0D
:1019A000FEF72FFD82468846DDE906014FF0FF3243
:1019B000FEF794FF52464346FEF71DFD32463B4676
:1019C000FEF71FFDDDE90623FEF715FDDDE9002327
:1019D000FEF711FD08B02A462346BDE8F04DFEF79C
:1019E0000DBD0B465A4630463946FEF70AFD084AF9
:1019F000084BFEF75FFC42465346FEF702FD08B077
:101A00002A462346BDE8F04DFEF754BCE22A00000A
:101A1000495555555555C5BF0122FEF75FBF0022F8
:101A2000134610461146FEF75EBD0000024A002034
:101A30001107FEF753BF000001FDFFFF02E008C8D9
:101A4000121F08C1002AFAD170477047002001E038
:101A500001C1121F002AFBD1704700000149086034
:101A600070470000840000202DE9FF5FDDE90220BF
:101A7000010DDDF838B0024318D044F61050A1F241
:101A8000FF3141430D140F98012820D0A5EB0B0026
:101A9000401C5FEA000A4FF00004474EDFF81C913B
:101AA000A046504616D5CAF1000728E00F98012439
:101AB00043A2012808D0002100980F9BC0E9002113
:101AC000C0E90243BDE8FF9F6FEA0B01F4E7CBF1E9
:101AD0000000DEE7074612E0F80707D0224633464B
:101AE00040464946FEF78DFC8046894622463346ED
:101AF00010461946FEF785FC04460E467F10002F5F
:101B0000EAD1DDE90201BAF1000F42464B4602DAA2
:101B1000FEF777FC01E0FEF7E6FC04460E460022E5
:101B2000284BFEF75BFF03D84FF0FF30014607E07C
:101B30000022254B20463146FEF7BCFBFEF736FF60
:101B4000102409E0002C0ADB0A220023FEF7E0FD46
:101B5000019B30321A55641E50EA0102F2D1641C16
:101B6000019AC4F1110314440F9A012A03D00122EF
:101B700008430DD10AE0084304D000204FF0110BB8
:101B80000F9080E7A3EB0B056D1E0DE05B4504DDB8
:101B90004FF0000205F1010504E003DA4FF0000206
:101BA000A5F10105002AECD000980F99C0E9023197
:101BB000C0E9004586E70000000024400000F03F37
:101BC000300000000000F0430000E03F2DE9FF4F2F
:101BD00095B09B468946064600250FE2252877D119
:101BE00000242746F84A0121059400E0044316F832
:101BF000013F203B01FA03F01042F7D130782A2848
:101C000011D06FF02F033078A0F13002092A16D8D6
:101C1000059A44F0020402EB820203EB42021044F4
:101C2000761C0590EFE759F8042B0592002A03DA99
:101C3000504244F40054059044F00204761C30787D
:101C40002E2816D116F8010F44F004042A280DD0CE
:101C50006FF02F023078A0F13003092B09D807EB81
:101C6000870302EB4303C718761CF3E759F8047B9C
:101C7000761C30786C280FD006DC4C2817D06828EA
:101C80000DD06A2814D104E0742810D07A280FD11E
:101C90000DE044F400140AE044F4801401E044F43C
:101CA00040147278824202D104F58014761C761CAE
:101CB000307866280BD013DC582877D009DC002850
:101CC00075D04528F6D04628F4D047281AD19DE192
:101CD00018E0632835D0642879D0652812D195E1C1
:101CE000702873D008DC6728F1D069286FD06E287F
:101CF0000DD06F2806D1B5E073282CD0752875D08B
:101D0000782874D05A46179990476D1C75E1C4F332
:101D10000250022809D003280DD0D9F80010042859
:101D20000DD00D6009F1040967E1D9F80010EA1738
:101D3000C1E90052F6E7D9F800100D80F2E70D7006
:101D4000F0E719F8041B8DF8001000208DF8010051
:101D5000EA46012003E059F804AB4FF0FF30610779
:101D60004FF0000102D40DE008F101018846B942AC
:101D70000FDA8045F8DB1AF808100029F4D108E0E2
:101D800008F1010188468142FADB1AF8081000299F
:101D9000F6D105985B46A0EB080721463846179A0E
:101DA00000F094FA284400EB080507E04DE029E133
:101DB0000DE01AF8010B5A4617999047B8F101083F
:101DC000F7D25B4621463846179A13E142E00A22D1
:101DD0000092C4F302524FF0000A022A08D059F8C8
:101DE00004CB032A4FEAEC710AD00DE029E02AE087
:101DF00009F1070121F00702F2E802C1914609E06A
:101E00000FFA8CFC4FEAEC71042A03D14FFA8CFCD8
:101E10004FEAEC71002907DA0A460021DCF1000CD8
:101E200061EB02012D2202E0220504D52B228DF860
:101E30000420012203E0E20701D02022F7E79046C8
:101E400059E00A2102E010220DE010214FF0000AB3
:101E500000910BE010224FF0000A44F00404082720
:101E6000009203E008224FF0000A0092C4F30252ED
:101E7000022A05D059F804CB0021032A08D009E032
:101E800009F1070121F00702F2E802C1914605E0DD
:101E90001FFA8CFC042A01D10CF0FF0C4FF0000853
:101EA000220728D5702806D0009B83F0100353EA40
:101EB0000A0305D00EE040228DF80420012208E03C
:101EC0005CEA010206D030228DF804208DF805006E
:101ED00002229046009B83F0080353EA0A030AD1CA
:101EE0005CEA010201D1620705D530228DF8042099
:101EF0004FF001087F1E582804D034A003900EA88C
:101F000002900DE036A0F9E753466046009AFEF7CE
:101F1000FFFB84460398825C0298401E0290027088
:101F20005CEA0100F0D1029806A9081A00F1200A23
:101F3000600702D524F4803400E00127574502DD14
:101F4000A7EB0A0000E0002000EB0A0100900598D2
:101F50004144401A0590E00306D45B462146179A97
:101F6000059800F0B3F90544002706E001A85A4699
:101F7000C05D179990476D1C7F1C4745F6DBE00359
:101F80000CD55B462146179A059800F09FF9054449
:101F900004E030205A46179990476D1C0099481E5E
:101FA00000900029F5DC08E0029802995A46007872
:101FB000491C0291179990476D1CBAF10001AAF1D2
:101FC000010AF1DC65E100000928010030313233FB
:101FD0003435363738396162636465660000000065
:101FE000303132333435363738394142434445464F
:101FF0000000000000F058F90544761C30780028F5
:102000007FF4ECAD19B02846BDE8F08F620700D42C
:10201000062709F1070222F0070CFCE80223E1463B
:1020200003F000485FEA080C02D00FF2702C0DE0BC
:102030005FEA045C02D50FF2682C07E05FEAC47C1B
:1020400002D00FF2602C01E0AFF2700C4FF0FF38BD
:1020500023F00043CDF850C065280CD006DC45289D
:1020600009D046281DD047283DD13DE0662818D02C
:1020700067287ED138E00021112F01DB112000E01C
:10208000781CCDE9000106A90EA8FFF7EDFCDDE9FB
:102090000F010E9A03910021009207F1010A0491A9
:1020A0004DE04FF000400097CDE9011006A90EA8C1
:1020B000FFF7DAFCDDE90F0203920E9B1199002273
:1020C000DDF80CA00093049211B9791C00EB010A11
:1020D000B7EB0A0004D4C0F1FF3007F1010A049005
:1020E000AAEB0700019044E0012F00DA012700214C
:1020F000112F01DD112000E03846CDE9000106A9CD
:102100000EA8FFF7B1FCDDE90F010E9A0391002143
:1021100004910092BA4621070CD40399514500DA84
:102120008A46BAF1010F05DD009AAAF10101515C5E
:10213000302908D0B84202DA10F1040F06DA012182
:10214000CDE9011015E0AAF10101E9E7002805DC5D
:10215000049901440491AAEB000102E0411C51459D
:1021600000DD8A460499401A401C01904FF000405F
:102170000290200704D40198504501DBCDF804807B
:1021800000208DF84F0002980DF14F07B0F1004F7D
:1021900025D02B200E9002984FF0020800280CDA70
:1021A000404202902D200E9007E00A210298FEF78F
:1021B00099FA3031029007F8011DB8F10001A8F139
:1021C0000108F2DC02980028EFD1791E0E98087001
:1021D000307800F0200040F0450007F8020D12A80A
:1021E000C01B00F107081498007800B1012000EB33
:1021F0000A01019801EBE07105984144401A401E24
:102200000590E00306D45B462146179A059800F036
:102210005DF805441498007818B15A46179990470C
:102220006D1CE00324D55B462146179A059800F003
:102230004DF805441CE00498002807DBDDE90301A4
:10224000884203DD0098405C179901E0179930201F
:102250005A469047049805F10105401C04900198E6
:10226000401E019004D12E205A46179990476D1CAC
:10227000BAF10001AAF1010ADDDC05E017F8010B53
:102280005A46179990476D1CB8F10001A8F1010852
:10229000F4DC5B462146179A0598ABE62D0000005A
:1022A0002B000000200000002DE9F041044600252D
:1022B0001E461746880404D405E039462020B0475E
:1022C0006D1C641EF9D52846BDE8F0812DE9F0416A
:1022D000044600251E469046C80301D5302700E07D
:1022E0002027880404D505E041463846B0476D1CD8
:1022F000641EF9D52846BDE8F08110B504460021DA
:102300002046FEF7DBF902D284F0004010BD2046E3
:10231000FCE700002DE9F34F85B089464946059852
:10232000FDF78AFF04904846FFF7E7FF054605984A
:10233000FFF7E3FF06462946FEF7C0F93AD23748D1
:102340000499FDF747FF01900499FDF743FF80468C
:102350004FF07E51FDF7E6FE0746FEF77FF9054692
:102360000E460498FEF77AF907464FF066322C4B7A
:10237000FEF747F82A463346CDE90201FEF7B3F8E7
:102380008246FEF77EF9044600214846FEF796F99C
:102390003FD200210598FEF791F905D22149204648
:1023A000FDF712FF044634E01E492046FDF7BAFE51
:1023B00004462EE004990846FDF70CFF83461749B2
:1023C000FDF7B0FE8246FEF749F9CDE90001049819
:1023D000FEF744F982464FF06632114BFEF711F8D2
:1023E0000746DDE90023FEF77EF8054600220E4B86
:1023F000FEF704F8CDE90201FEF743F90446002197
:102400000598FEF75BF904D206492046FDF7DCFE8D
:102410000446204607B0BDE8F08F0000295C8F3EDF
:1024200066A64C4000003443008056400FB42DE9AE
:10243000F04F8BB0DDE91A65DFF824A1DFF824B195
:1024400049480A904FF0000942F210700590474841
:102450000490002469E014AA52F8241056F82400CD
:10246000FDF7B2FE07465946FDF7B4FE06A941F84E
:10247000240017AA52F8241006AA52F82400FDF7E7
:10248000A3FE814649465046FDF7A4FE0990484602
:102490000499FDF79FFE51460390FDF79BFE804691
:1024A0000A99FDF7C9FE0746314850F8241038460E
:1024B000FDF738FE2E4941F824002E4850F824102C
:1024C0004846FDF781FE0190FEF7C8F82A4A2B4BDB
:1024D000CDE90201FDF795FF0746FEF7D2F8089017
:1024E000244840F824904846FEF78BF800B225F8BF
:1024F000140035F9140042F21071884203DD0846D9
:1025000025F814000FE035F914001D49884204DA5B
:102510004DF6F00025F8140005E006A850F8240058
:10252000184941F82400601CC4B2022C93DB5046C9
:10253000B168FDF74FFE80464FF08041FDF77CFE0D
:102540000746FEF75EF800B2A880F068FEF759F87B
:1025500000B2E8800BB0BDE8F00F5DF814FB00009E
:102560000000A041713D624129CB103EB81E853D5F
:102570005C00002064000020C3F5285C8FC22E4060
:10258000F0D8FFFF6C0000202DE9F04F95B0824697
:102590008946DFF8ECB000243A480590484601F03F
:1025A0001BFC13E009F11C0151F824000599FDF70B
:1025B00011FE12A941F8240009F11C0050F8241062
:1025C0000AF10C0040F82410601CC4B2032CE9DBB3
:1025D00009A912A800F08CF906AA2B4909A800F055
:1025E0007DFE09F1100001F077F900241CE0594646
:1025F0004FF07E50FDF796FD064606A850F82410D1
:102600005846FDF7E7FD074609F1100050F8241081
:102610003846FDF787FD05463146FDF70DFE1A49A0
:1026200041F82400601CC4B2032CE0DB164A916818
:102630009068FDF7CFFD144A029011681068FDF70D
:10264000C9FD01900299FDF76DFD0390FEF706F8B4
:10265000074601F0DDFD0546FEF713F80A49049030
:1026600048680499FFF756FECAF80000064A9168C8
:102670001068FFF74FFECAF8040015B0BDE8F08FF0
:10268000CDCC4C3E0AD7A33E740000202DE9F04784
:1026900005460E460024A046284601F04BF900BF2F
:1026A00047E006F1180151F824002449FEF710F81C
:1026B00007D306F1180151F824002149FDF7FEFF68
:1026C00006D2022C04D04FF47A7025F8140026E0CC
:1026D00006F1180151F824001849FDF7F9FF07D356
:1026E00006F1180151F824001549FDF7E7FF05D25E
:1026F000022C03D1002025F8140010E035F8140056
:10270000FDF769FF814606F1180050F8241048468D
:10271000FDF75AFD0746FDF78DFF25F8140009481F
:1027200030F8140035F81410401A0FFA80F8601CC5
:10273000C4B2042CB5DBBDE8F087000000004842BD
:10274000000048C25000002000B5244B21F0004298
:1027500087B09A42DCBF0022134629DD204B9A4203
:1027600008D140B94FF00100FFF778F9FFF757F9AA
:1027700007B000BD03DBFFF74FF907B000BD02AAA9
:10278000FEF73CFE10F0030104BF0DF1080C9CE8BD
:102790000F000DD0012001290ED0022914D00DF117
:1027A000080C00909CE80F00FFF7C0F807B000BDD0
:1027B000FEF7E8FF07B000BD0DF1080C00909CE8A3
:1027C0000F00FFF7B3F805E00DF1080C9CE80F00CF
:1027D000FEF7D8FF07B081F0004100BDFB21E93FC3
:1027E0000000F07F02480068401C01490860704703
:1027F0005800002010B502A0FEF7DCFD10BD00005F
:1028000044656275672D7573617274312069732038
:10281000776F726B696E670A000000001FB50121B7
:102820008803FEF7F3F94FF4E13000900020ADF893
:102830000C000C20ADF80A000020ADF80800ADF83F
:102840000600ADF8040069460348FEF741FD01218A
:102850000148FEF723FD1FBD0038014008B50121E6
:102860000420FEF7D3F903208DF8020018208DF81C
:1028700003004FF40070ADF8000069460748FEF70A
:1028800016F94FF48060ADF8000004208DF80300C5
:1028900069460248FEF70BF908BD00000008014038
:1028A00010B501F015FDFFF7A5FF10BD01B502E061
:1028B0000098401E009000980028F9D108BD00B58E
:1028C0000620FFF7F3FF00BD00B50F20FFF7EEFF76
:1028D00000BD0021002200BF07E0002201E0531CE0
:1028E0009AB28242FBDB4B1C99B28142F5DB704706
:1028F0002DE9F04F8DB081460C46D9F80000FDF768
:10290000ADFE0746C94ACA4BFDF77BFD0546FDF7FC
:10291000B8FE0C90D9F80400FDF7A0FE0746C34AA4
:10292000C34BFDF76EFD0546FDF7ABFE0B90D9F8E6
:102930000800FDF793FE0746BC4ABD4BFDF761FD5D
:102940000546FDF79EFE0A900A98FDF787FE0546AC
:10295000FFF7FAFE074688460B98FDF77FFE05460F
:10296000FFF7F2FE3A464346CDE90801FDF749FD7F
:102970008246FDF786FE20600A98FDF76FFE054649
:1029800001F084FA074688460B98FDF767FE054676
:10299000FFF7DAFE82463A464346FDF732FDCDE9BF
:1029A0000801FDF76EFE60600B98FDF757FE0746C5
:1029B00001F06CFA81F000410546FDF762FEA0606F
:1029C0000A98FDF74BFE054601F060FA0746884677
:1029D0000C98FDF743FE0546FFF7B6FE82463A46E1
:1029E0004346FDF70EFDCDE906010A98FDF736FED8
:1029F0000546FFF7A9FECDE902010B98FDF72EFE73
:102A0000054601F043FA074688460C98FDF726FE76
:102A1000054601F03BFA82463A464346FDF7F1FC93
:102A2000CDE90001DDE90223FDF7EBFCCDE904016E
:102A3000DDE90623FDF7DFFCCDE90801FDF721FE06
:102A4000E0600A98FDF70AFE0546FFF77DFE07469F
:102A500088460C98FDF702FE0546FFF775FE824694
:102A60003A464346FDF7CDFCCDE906010A98FDF74D
:102A7000F5FD054601F00AFACDE902010B98FDF7D4
:102A8000EDFD054601F002FA074688460C98FDF771
:102A9000E5FD054601F0FAF982463A464346FDF760
:102AA000B0FCCDE90001DDE90223FDF7AAFCCDE988
:102AB0000401DDE90623FDF7FDFBCDE90801FDF783
:102AC000E0FD20610B98FDF7C9FD0546FFF73CFED0
:102AD000CDE908010C98FDF7C1FD054601F0D6F9D6
:102AE0008246DDE90823FDF78CFC0746FDF7C9FDAA
:102AF00060610A98FDF7B2FD054601F0C7F9074687
:102B000088460C98FDF7AAFD054601F0BFF98246FC
:102B10003A464346FDF775FCCDE906010A98FDF7F4
:102B20009DFD0546FFF710FECDE902010B98FDF76C
:102B300095FD054601F0AAF9074688460C98FDF771
:102B40008DFD0546FFF700FE82463A464346FDF7F7
:102B500058FCCDE90001DDE90223FDF752FCCDE987
:102B60000401DDE90623FDF7A5FBCDE90801FDF72A
:102B700088FDA0610A98FDF771FD0546FFF7E4FDA9
:102B8000074688460C98FDF769FD054601F07EF979
:102B900082463A464346FDF734FCCDE906010A98E1
:102BA000FDF75CFD054601F071F9CDE902010B98D6
:102BB000FDF754FD054601F069F9074688460C9873
:102BC000FDF74CFD0546FFF7BFFD82463A464346FA
:102BD000FDF717FCCDE90001DDE90223FDF711FC4B
:102BE000CDE90401DDE90623FDF705FCCDE9080187
:102BF000FDF747FDE0610B98FDF730FD0546FFF757
:102C0000A3FDCDE908010C98FDF728FD0546FFF767
:102C10009BFD0746DDE90823FDF7F3FB8246FDF740
:102C200030FD20620DB0BDE8F08F0000EC51B81E01
:102C300085EB913F2DE9F05F04464FF07F594FF04F
:102C40007C512046FDF7C6FA824625462E460C48A2
:102C5000A0EB6606354629465046FDF7BBFA83468B
:102C60002946FDF7B7FA80464946FDF7B0FA074610
:102C70002946FDF7AFFA05462846BDE8F09F00005B
:102C8000DF59375F70B504460D46E1B20548FEF7DF
:102C90008BFB00BF80210348FEF70CFB0028F9D016
:102CA000204670BD003801402DE9F04105460E4632
:102CB00000244FF07F5705F1100000F03CF905F1BA
:102CC0001C0000F089F900BF1BE056F8241005F144
:102CD000100252F82400FDF777FA05F1100141F8CF
:102CE000240006F10C0252F8241005F11C0252F8DF
:102CF0002400FDF769FA05F11C0141F82400601C6D
:102D0000C4B2032CE1DB002429E0174951F8240068
:102D10003946FDF791FA8046134850F82410404692
:102D2000FDF755FA104941F8240005F1100151F85A
:102D300024003946FDF780FA80460B4850F82410ED
:102D40004046FDF7EFF9084941F82400084650F8DD
:102D5000241005F1100040F82410601CC4B2032CAC
:102D6000D3DBBDE8F08100003C00002070B50446D4
:102D7000A0881E2803DD00202149088070BDE58859
:102D800040F2B27085421BDD1D48B0F900000A28F0
:102D900006DA1B480088401C00B2194908802CE064
:102DA000174800880A2828D10020154908804FF4C8
:102DB00080711448FDF711FF0120134908701CE0D1
:102DC0001E2D1ADA0E48B0F900000A2806DA0C485F
:102DD0000088401C00B20A4908800EE008480088BC
:102DE0000A280AD10020064908804FF4807105485E
:102DF000FDF7F1FE00200449087000BFBEE70000A7
:102E000038000020000C01403600002008B50020EA
:102E1000009001226946752000F06CF99DF80000D1
:102E2000682801D1012008BD0020FCE710B5202151
:102E30006A2000F0B5F90821242000F0B1F913212F
:102E4000342000F0ADF90121672000F0A9F91E211E
:102E5000252000F0A5F90021262000F0A1F9042189
:102E6000632000F09DF98121272000F099F91E21AF
:102E7000252000F095F90121262000F091F9E021AC
:102E8000632000F08DF98121272000F089F91E21AF
:102E9000252000F085F90221262000F081F900218B
:102EA000632000F07DF98121272000F079F910BD21
:102EB0000020002100BF08E0002101E04A1C91B27F
:102EC000B1F57A7FFADB421C90B2B0F57A7FF3DB82
:102ED000704710B520216A2000F062F908212420F3
:102EE00000F05EF99E21252000F05AF903212620EA
:102EF00000F056F98621272000F052F910BD10B5D8
:102F000000F04EFBFFF7D4FF00216B2000F048F9E2
:102F10000721192000F044F906211A2000F040F999
:102F200000211C2000F03CF918211B2000F038F98A
:102F3000FFF76CFF10BD7FB50446062269463B20B3
:102F400000F0D8F89DF801009DF8001040EA01203B
:102F500000B2ADF808009DF803009DF8021040EAA9
:102F6000012000B2ADF80A009DF805009DF804109C
:102F700040EA012000B2ADF80C00BDF90800FDF7F1
:102F800021FB06464FF08041FDF724F905464FF03E
:102F90008E41FDF751F92060BDF90A00FDF712FBE3
:102FA00006464FF08041FDF715F905464FF08E417A
:102FB000FDF742F96060BDF90C00FDF703FB064622
:102FC0004FF08041FDF706F905464FF08E41FDF7C1
:102FD00033F9A0607FBD00007FB504460622694634
:102FE000432000F087F89DF801009DF8001040EAAA
:102FF000012000B2ADF808009DF803009DF8021012
:1030000040EA012000B2ADF80A009DF805009DF8E5
:10301000041040EA012000B2ADF80C00BDF9080030
:10302000FDF7D0FA06461349FDF7D4F805464FF0F0
:103030008E41FDF701F92060BDF90A00FDF7C2FAE3
:1030400006460C49FDF7C6F805464FF08E41FDF7E0
:10305000F3F86060BDF90C00FDF7B4FA06460549C7
:10306000FDF7B8F805464FF08E41FDF7E5F8A06092
:103070007FBD00000000FA4410B500F07DFB4FF466
:103080007A70FFF726FC1E2000F006F84FF47A70E5
:10309000FFF71FFC10BD000070B505464FF400544B
:1030A00000F0BEFBEE2000F089FB06E024B9012110
:1030B0000EA000F0B3F870BD641E00F0E9FB00281C
:1030C000F4D14FF40054284600F078FB06E024B910
:1030D000022106A000F0A2F8EDE7641E00F0D8FB84
:1030E0000028F4D100F0B8FB0120E4E74D53353659
:1030F000313100002DE9F04107460D4616464FF4E8
:10310000005400F0E9FAD02000F0B8FA07E02CB93A
:10311000012121A000F082F8BDE8F081641E00F0DA
:103120000BFB0028F3D14FF40054384600F0A6FA08
:1031300006E024B9022118A000F070F8ECE7641E44
:1031400000F0FAFA0028F4D14FF4005400F0C4FA69
:10315000D12000F093FA06E024B903210EA000F07C
:103160005DF8D9E7641E00F0E7FA0028F4D10FE01B
:10317000012E06D1002000F059FA287000F0C4FAA0
:1031800004E0012000F052FA28706D1C701EC6B2D7
:10319000002EEDD10120BFE74D50553630353000BF
:1031A00070B506460D464FF4005400F095FAD02055
:1031B00000F064FA06E024B9012116A000F02EF810
:1031C00070BD641E00F0B8FA0028F4D14FF400542A
:1031D000304600F053FA06E024B902210DA000F0B9
:1031E0001DF8EDE7641E00F0A7FA0028F4D1284688
:1031F00000F044FA06E024B9032106A000F00EF81E
:10320000DEE7641E00F098FA0028F4D100F07CFAA2
:103210000120D5E74D5055363035300070B50446A5
:103220000D462A46214602A0FEF7C4F8002070BDD4
:10323000257320493243B5C8B4FDB3ACCAB1A3A1CC
:103240006572726F725F636F6465203D25640A006A
:10325000AAB000200F90109001F01AF800F0C9FDFC
:103260001BA911A800F0FCFC32E01A4800681A49BA
:10327000096888420DD91748006844F6206108445F
:103280001549086011A91BA8FFF700FA1BA8FFF752
:103290006DFD11A91BA8FFF707FD1BA909A8FFF7E2
:1032A00073F905A91BA800F0B9FD0FA805A9CDE980
:1032B0000210DDE90D01CDE9000109A80FC8FFF7F3
:1032C000B5F81BA90FA800F055F81DA801F006F8E5
:1032D000CBE7000058000020140000202DE9F04743
:1032E00004460D461646A968A068FCF773FF8046A1
:1032F00069686068FCF76EFF814629682068FCF702
:1033000069FF82464946FCF70DFF07464146FCF738
:1033100009FF3060A9686069FCF75CFF8046696856
:103320002069FCF757FF81462968E068FCF752FFE7
:1033300082464946FCF7F6FE07464146FCF7F2FE98
:103340007060A968206AFCF745FF80466968E069FB
:10335000FCF740FF81462968A069FCF73BFF8246E5
:103360004946FCF7DFFE07464146FCF7DBFEB0604E
:10337000BDE8F0872DE9F04F85B004460D460026E4
:10338000794FB4F9060078280EDA00BF07E0E0882C
:1033900081B205F1080020F81610701CC6B2042E88
:1033A000F5DB05B0BDE8F08FB4F90600FDF70AF9CA
:1033B00087F0004A0390B4F90400FDF703F983464F
:1033C0005146FCF707FF8046B4F90200FDF7FAF812
:1033D00039460190FCF7FEFE824687F000400190DE
:1033E000B4F90000FDF7EEF800900199FCF7F2FE49
:1033F00083465146FCF796FE81464146FCF792FE15
:1034000002900399FCF78EFE0490FDF713F92881D2
:10341000B4F90600FDF7D6F80490B4F90400FDF7FE
:10342000D1F839460390FCF7D5FE8246B4F9020084
:10343000FDF7C8F839460190FCF7CCFE0390B4F9CB
:103440000000FDF7BFF839460190FCF7C3FE02907B
:103450000399FCF767FE83465146FCF763FE8146FD
:103460000499FCF75FFE8046FDF7E4F86881B4F943
:103470000600FDF7A7F887F0004A0490B4F90400AD
:10348000FDF7A0F883465146FCF7A4FE039087F0B1
:1034900000400190B4F90200FDF794F80090019902
:1034A000FCF798FE8246B4F90000FDF78BF8394628
:1034B0000190FCF78FFE83465146FCF733FE0290E5
:1034C0000399FCF72FFE81460499FCF72BFE8046FA
:1034D000FDF7B0F8A881B4F90600FDF773F8049081
:1034E000B4F90400FDF76EF882463946FCF772FE27
:1034F00087F0004B0390B4F90200FDF763F85946DA
:103500000090FCF767FE824687F0004BB4F900009C
:10351000FDF758F859460090FCF75CFE51460190C3
:10352000FCF700FE02900399FCF7FCFD814604992C
:10353000FCF7F8FD8046FDF77DF8E88100260EE0F7
:1035400005F1080030F81600B0F5FA6F05DD4FF40C
:10355000FA6105F1080020F81610701CC6B2042E9E
:10356000EEDB00BF1DE700009A99993E10B580215F
:103570000A48FDF730FB40210848FDF72EFBFFF716
:103580009EF940210548FDF726FBFFF798F98021B9
:103590000248FDF722FBFFF792F910BD000C014035
:1035A00008B501210820FDF731FB2020ADF800000F
:1035B00001208DF8020048208DF8030069460D486F
:1035C000FDF775FA14208DF803004020ADF80000D7
:1035D00069460848FDF76BFA8020ADF8000014201A
:1035E0008DF8030069460348FDF761FA00F08CF896
:1035F00008BD0000000C014010B540210A48FDF74D
:10360000EAFA80210848FDF7E8FAFFF758F9402167
:103610000548FDF7E2FAFFF752F940210248FDF7AD
:10362000DAFAFFF74CF910BD000C014070B5054601
:103630000024002616E06006040E40210E48FDF727
:10364000CCFAFFF73CF980210B48FDF7BBFA08B133
:10365000601CC4B240210848FDF7BDFAFFF72FF9FE
:10366000701CC6B2082EE6DB15B9FFF7C5FF01E0F6
:10367000FFF77CFF204670BD000C014070B504468A
:10368000002523E004F0800020B180211148FDF7DF
:10369000A4FA03E080210F48FDF79DFAFFF70FF928
:1036A00040210C48FDF799FAFFF709F94021094834
:1036B000FDF791FA072D03D180210648FDF78DFA19
:1036C0006006040EFFF7FBF8681CC5B2082DD9DBB5
:1036D00070BD0000000C014010B580210948FDF7C5
:1036E0007CFA40210748FDF778FAFFF7EDF88021D2
:1036F0000448FDF770FAFFF7E7F840210148FDF7AD
:103700006AFA10BD000C014010B540210948FDF7D0
:1037100062FA80210748FDF75EFAFFF7D5F84021ED
:103720000448FDF75AFA80210248FDF756FAFFF7E0
:10373000CBF810BD000C014010B580210D48FDF7FD
:103740004CFAFFF7BCF840210A48FDF746FAFFF7AC
:10375000B6F880210748FDF735FA08B1012400E0EA
:10376000002440210348FDF736FAFFF7A8F8204669
:1037700010BD0000000C014008B501210820FDF734
:1037800045FA48208DF8030001208DF80200400220
:10379000ADF8000069460848FDF789F914208DF856
:1037A00003004FF44060ADF8000069460248FDF7A1
:1037B0007EF900F051F808BD000C014070B50446D8
:1037C000002528E004F0800028B14FF40061134880
:1037D000FDF703FA04E04FF400611048FDF7FBF930
:1037E000FFF76DF84FF480610C48FDF7F6F9FFF72D
:1037F00066F84FF480610948FDF7EDF9072D04D113
:103800004FF400610548FDF7E8F96006040EFFF784
:1038100056F8681CC5B2082DD4DB70BD000C014001
:1038200010B54FF400610B48FDF7D7F94FF48061F4
:103830000848FDF7D2F9FFF747F84FF40061054853
:10384000FDF7C9F9FFF740F84FF480610148FDF733
:10385000C2F910BD000C014010B54FF480610B4857
:10386000FDF7B9F94FF400610848FDF7B4F9FFF727
:103870002BF84FF480610548FDF7AFF94FF4006174
:103880000248FDF7AAF9FFF71FF810BD000C014030
:1038900010B54FF400610F48FDF79FF9FFF70FF8DF
:1038A0004FF480610B48FDF798F9FFF708F84FF4E3
:1038B00000610848FDF786F908B1012400E0002402
:1038C0004FF480610348FDF786F9FEF7F8FF2046C4
:1038D00010BD0000000C01402DE9F0410546002616
:1038E00000240CE055F8241055F82400FCF772FC75
:1038F00080463146FCF716FC0646601CC4B2032C19
:10390000F0DB3046FFF796F90746002408E055F84B
:1039100024003946FCF75EFC45F82400601CC4B264
:10392000032CF4DBBDE8F08110B500F063F900F082
:1039300035F910BD2DE9FC410446684600F0C6FB90
:103940009DF800109DF8012041EA0220FCF73AFEA4
:1039500080464FF08B41FCF76FFC07463849FCF777
:1039600039FC06463649FCF7DDFB0546FCF762FEEE
:1039700020809DF802109DF8032041EA0220FCF708
:1039800021FE80464FF08B41FCF756FC07462C4940
:10399000FCF720FC06462A49FCF7C4FB0546FCF769
:1039A00049FE60809DF804109DF8052041EA022040
:1039B000FCF708FE80464FF08B41FCF73DFC0746C4
:1039C0001F49FCF707FC06461D49FCF7ABFB054603
:1039D000FCF730FEA0809DF806109DF8072041EA14
:1039E0000220FCF7EFFD80464FF08B41FCF724FCF2
:1039F00007461349FCF7EEFB06461149FCF792FB1C
:103A00000546FCF717FEE0802088A0F57A704FF697
:103A1000FF7101EA400020806088A0F57A7001EA19
:103A200040006080A088A0F57A7001EA4000A08084
:103A3000E088A0F57A7001EA4000E080BDE8FC81F2
:103A400000007A4410B50446214602A0FDF7B2FCFE
:103A5000002010BD6E726620B5C8B4FDB3ACCAB10B
:103A6000A3A16572726F72436F6465203D25640A7D
:103A700000000000F0B587B00024002500260027D4
:103A800001210846FDF7B2F80020ADF81600ADF8A8
:103A9000120040F65F10ADF814004720ADF810009A
:103AA00000208DF8180004A94FF08040FDF7A4FB1A
:103AB0006020ADF800000120ADF802000020ADF854
:103AC0000800ADF8064069464FF08040FDF730FA37
:103AD000ADF8065069464FF08040FDF77FFAADF82B
:103AE000066069464FF08040FDF7D8FAADF80670E1
:103AF00069464FF08040FDF72BFB0821C806FDF713
:103B000063FA0821C806FDF7BBFA0821C806FDF7CD
:103B100015FB0821C806FDF759FB01218807FDF7B1
:103B2000FBF907B0F0BD000008B501210420FDF746
:103B30006DF818208DF8030003208DF80200012095
:103B4000ADF8000069461448FCF7B1FF0220ADF85B
:103B5000000069461048FCF7AAFF0420ADF80000F9
:103B600069460D48FCF7A3FF0820ADF80000694640
:103B70000948FCF79CFF01210748FDF72CF80221BA
:103B80000548FDF728F804210348FDF724F808212B
:103B90000148FDF720F808BD0008014000B585B0D8
:103BA00001210803FDF732F81020ADF80C000020C9
:103BB000ADF80800ADF806000720ADF810000020B1
:103BC000ADF80400ADF80000ADF80E004FF48270BF
:103BD000ADF802004FF40070ADF80A0069460448E1
:103BE000FDF7A8F801210248FDF78AF805B000BDED
:103BF0000030014008B501210420FDF707F801213C
:103C00000846FDF703F818208DF8030001208DF811
:103C10000200E020ADF8000069460F48FCF747FFBE
:103C200010208DF80300ADF8000069460A48FCF743
:103C30003EFF0220ADF8000069460848FCF737FF58
:103C400048208DF803000120ADF8000069460348C4
:103C5000FCF72DFF08BD000000080140000C0140EA
:103C60002DE9F0418AB006460D46002007900890E5
:103C700009900490059006900090019002900390A6
:103C800000245EE0002046F82400002106F10C002C
:103C900040F82410002736E005F11000FFF74BF93B
:103CA00005F11C00FFF798F9022C0CDA05F110025F
:103CB00052F8241007AA52F82400FCF733FA07A997
:103CC00041F8240011E005F1100151F824004FF0F3
:103CD0007E51FCF779FA804607A850F82410404638
:103CE000FCF720FA07A941F8240005F11C0252F85C
:103CF000241004AA52F82400FCF714FA04A941F88D
:103D00002400781CC7B2C82FC6DB3846FCF763FC1A
:103D1000804607A951F824004146FCF78DFA46F881
:103D200024003846FCF757FC804604A951F82400CB
:103D30004146FCF781FA06F10C0141F82400601CB1
:103D4000C4B2032C9EDB002106F1180040F82410B9
:103D5000002729E005F10800FFF7ECFD002421E031
:103D600005F1080030F8140040F24C41884217DA9F
:103D700005F1080030F81400B0F5617F10DD05F1A1
:103D8000080131F81410A1F57A70FCF71BFC80468D
:103D90005DF82410FCF7C6F94DF82400781CC7B272
:103DA000601CC4B2042CDBDB322FD3DB00240EE01A
:103DB0003846FCF710FC80465DF824004146FCF7CD
:103DC0003BFA06F1180141F82400601CC4B2042C2F
:103DD000EEDB0AB0BDE8F081C169026AC26101622E
:103DE000026982F00041426982F000420261416151
:103DF000704710B500F066FAFEF752FD00F02EFA9B
:103E0000FFF77DF8FFF712F8FFF763F8FFF734F9D3
:103E100000F0BCF800F02EF910BD00002DE9F047CD
:103E200004460D4664263046FCF7CCFB814631073C
:103E3000FCF7D0F980461449FCF7FEF907462188C3
:103E4000A1F57A70FCF7BEFB80463946FCF7C2F953
:103E500028606188C1F57A70FCF7B4FB804639466A
:103E6000FCF7B8F96860E188A1F57A70FCF7AAFB65
:103E700080463946FCF7AEF9A860A088FCF7ABFB9A
:103E8000E860BDE8F08700000000FA4400B5254B6B
:103E900021F0004287B09A4203DC002213460092D0
:103EA0002BE0214B9A4208D140B94FF00100FDF7B9
:103EB000D5FDFDF7B4FD07B000BD03DBFDF7ACFD9C
:103EC00007B000BD02AAFDF799FA10F003014FF008
:103ED00001000DD0012914D002291AD00DF1080CCF
:103EE0009CE80F00FDF74EFC07B081F0004100BDDB
:103EF0000DF1080C00909CE80F00FDF717FD07B0CE
:103F000000BD0DF1080C9CE80F00FDF73BFC07B06D
:103F100000BD0DF1080C00909CE80F00FDF706FDB8
:103F2000E2E70000FB21E93F0000F07F1FB514A18C
:103F300003C9CDE9020102211348FCF74CFE05221A
:103F400002A9302000F0FCF805226946102000F09C
:103F500039F802210C48FCF740FE002406E01DF869
:103F60000400A52800D003E0601CC4B2052CF6DBD9
:103F700000BF052C02D1012004B010BD0020FBE7DA
:103F8000A5A5A5A5A5000000000C014010B5FFF7F0
:103F9000CBFC10210548FCF720FEFFF7C7FF0446C5
:103FA000214603A0FDF706FA10BD000000080140FD
:103FB000436865636B696E67206E72662E2E2E20D5
:103FC00025640A002DE9F04105460E4617461021EA
:103FD0000C48FCF700FE29460B4800F0D5F8804657
:103FE000002406E00021084800F0CEF83055601C9F
:103FF000C4B2BC42F6DB10210248FCF7EEFD40469D
:10400000BDE8F081000801400030014070B5044671
:1040100010210948FCF7DFFD2146084800F0B4F8FC
:104020000021064800F0B0F8054610210248FCF7D0
:10403000D4FD284670BD000000080140003001405A
:1040400070B504460D4610210848FCF7C4FD214612
:10405000074800F099F806462946054800F094F80C
:1040600010210248FCF7B9FD304670BD0008014040
:104070000030014010B502211248FCF7ACFD0522CA
:1040800011492A2000F05CF801212120FFF7D8FF18
:1040900001212220FFF7D4FF28212520FFF7D0FFA0
:1040A00008213120FFF7CCFF0F212620FFF7C8FFA2
:1040B0000F212020FFF7C4FF02210248FCF78DFDED
:1040C00010BD0000000C01402C00002070B505461A
:1040D000642602211948FCF780FD08E03000A6F1B3
:1040E0000101CEB203D1FFF7ADFCC0B270BD01211A
:1040F0001248FCF767FD0028F0D102210F48FCF7B9
:104100006AFD0720FFF782FF044621462720FFF7BC
:1041100097FF04F0400070B1082229466120FFF7A4
:1041200051FFFF21E220FFF78BFF02210348FCF73C
:1041300054FD0120DAE70020D8E70000000C014020
:104140002DE9F04105460E46174610210C48FCF7B4
:1041500042FD29460B4800F017F88046002405E090
:10416000315D084800F010F8601CC4B2BC42F7DBB7
:1041700010210348FCF731FD4046BDE8F081000006
:10418000000801400030014070B505460E46642429
:1041900007E0601EC4B224B9002000F021F8C0B2CC
:1041A00070BD02212846FCF7B7FD0028F1D031464A
:1041B0002846FCF7BDFD642407E0601EC4B224B9A4
:1041C000012000F00DF8C0B2EAE701212846FCF713
:1041D000A3FD0028F1D02846FCF7A7FDC0B2DFE719
:1041E00010B50446214602A0FDF7E4F8002010BDFA
:1041F00053504920B5C8B4FDB3ACCAB12120657293
:10420000726F72436F6465203D2025640A000000D0
:104210002DE9F04106460F46FCF777FB04000D46FA
:1042200018BF0120284320F00040C0F17F6000F15A
:10423000E040C00F0ED0301C18BF0120384320F0E2
:104240000040C0F17F6000F1E040C00F04BF0120DA
:10425000FDF704FC20462946BDE8F08108B50121A0
:104260000820FCF7D3FC03208DF8020010208DF805
:1042700003000001ADF8000069460448FCF717FC94
:104280004FF480710148FCF7A6FC08BD000C01400A
:1042900010B50A4800680A49B0FBF1F42046FCF763
:1042A000DDFD08B100BFFEE74FF0E020006940F0FF
:1042B00001004FF0E021086110BD0000180000204F
:1042C00040420F0010B5FFF72FFCFFF7D3FB10BDE6
:1042D00010B5FEF7C3FAFEF7A1FA10BD70B504469B
:1042E000002508E034F81500642802DD01201B4990
:1042F0000870681CC5B2042DF4DB19480078B8B109
:1043000016480078A0B121884FF08040FCF76BFF81
:1043100061884FF08040FCF768FFA1884FF0804033
:10432000FCF765FFE1884FF08040FCF762FF13E087
:1043300000214FF08040FCF756FF00214FF08040F5
:10434000FCF753FF00214FF08040FCF750FF0021A5
:104350004FF08040FCF74DFF70BD0000370000209B
:1043600036000020000000004C5555555555A53F1E
:104370007751C1166CC156BF9015CB19A001FA3EFA
:10438000AD529C804F7E92BEC4B1B4BD9EEE213E24
:10439000D43888BEE9FAA8BD00004054FB21F93F9B
:1043A0003163621A61B4D03D0000601A61B4D03D3F
:1043B0007370032E8A19A33B0000002E8A19A33BB9
:1043C000C14920259A837B390000000000000000CD
:1043D0006E83F9A22915444ED15727FCC0DD34F570
:1043E000999562DB4190433CAB6351FE61C5BBDEF6
:1043F0003A6E24B7E0D24D42EA2E49061C92D1090A
:104400001CEB1DFE3EA729B1F53582E88444BB2E86
:1044100026709CE9417E5FB439D69139F4395383D3
:104420008B5F849C3B28F9BDFF97F81F0F9805DE32
:104430008B112FEF1F6D0A5ACF7E366DB709CB2730
:10444000663F464F2DEA5F9EC7BA27757BF1E5EBC5
:10445000F739073DEA92528AB15FFB6B085D8D1F09
:10446000A6F810111111813FD561C119A0012ABF11
:104470007DFEB157E31DC73EEB9C2B8AE6E55ABE95
:104480007CD5CF5A3AD9E53DA84400080000002069
:10449000880000003C1A0008304500088800002011
:1044A000000400004C1A0008000000000102030490
:1044B00001020304060708090204060800000000C0
:1044C00000A24A04000000000000000001020304F2
:1044D000060708093443101001344310100100008E
:1044E0000000000000000000000000000000803F0D
:1044F000E803E803E803E803E803E803E803E80364
:1045000000000000000000000000000000000000AB
:10451000000000000000000000000000000000009B
:10452000000000000000803F0000000000000000CC
:04000005080000ED02
:00000001FF
