:020000040800F2
:100000004026002001010008170C00080F0C000812
:10001000130C0008D90A000855170008000000005A
:10002000000000000000000000000000491100086E
:10003000DD0A0008000000006F010008351200080A
:100040001B0100081B0100081B0100081B01000820
:100050001B0100081B0100081B0100081B01000810
:100060001B0100081B0100081B0100081B01000800
:100070001B0100081B0100081B0100081B010008F0
:100080001B0100081B0100081B0100081B010008E0
:100090001B0100081B0100081B0100081B010008D0
:1000A0001B0100081B0100081B0100081B010008C0
:1000B0001B0100081B0100081B0100081B010008B0
:1000C0001B0100081B0100081B0100081B010008A0
:1000D0001B0100081B0100081B0100081B01000890
:1000E0001B0100081B0100081B010008DFF80CD0F1
:1000F00000F0B2FC004800477D3B0008402600208D
:100100000648804706480047FEE7FEE7FEE7FEE7B1
:10011000FEE7FEE7FEE7FEE7FEE7FEE75D1200080A
:10012000ED000008EFF3108072B6704780F310887E
:1001300070471F484FF0FF010170002080F30988CD
:100140001C48016881F308881B48012101701B4885
:100150004FF08051016062B6FEE718484FF08051C1
:100160000160704715484FF080510160704772B6CA
:10017000EFF3098028B1203880E8F00F10490968B2
:10018000086000B50F4880475DF804EB0E480F4942
:100190000A7802700A480E490A680260106890E8FE
:1001A000F00F203080F309884EF0040E62B67047DD
:1001B00022ED00E02C0000205A00002004ED00E0B9
:1001C00060000020010D00084F00002050000020BA
:1001D00068000020F0B480EA0102D40F4200B2EBC4
:1001E000410F02D20246084611464A0042D0C30DD2
:1001F000DDB2C1F3C752AD1A202D35DAC1F31601B5
:1002000041F4000204B15242C5F1200602FA06F19F
:100210002A411044B3EBD05F23D0C4B1012DA0EB31
:10022000C35009DCF0BC4FF0004202EAC352DBB21B
:1002300000F5000000F03DBB400000F1807000EBD5
:10024000C350A0F1807040EAD170490009E049082C
:1002500041EAC071A0EBC35000F50000400800EB7C
:10026000C350F0BC00F01CBB6142012202EB410113
:10027000001BF6E7F0BC704781F00041AAE780F070
:100280000040A7E780EA010210B502F000434000F9
:1002900022D04A001FD0010E01EB1261C0F35600BC
:1002A000C2F3560240F4000042F40002A0FB022018
:1002B00000047F39140400D0401C50EA124001D4DD
:1002C0004000491EC2B20C0604EBD010401C40088E
:1002D000802A02D003E0002010BD20F00100002998
:1002E00000DA0020184310BD30B480EA010202F0A9
:1002F000004530F0004221F0004013D090B1C30D12
:10030000D40DC2F31601C0F31600E41A41F4000143
:1003100040F400027D34914201D3641C00E04900A6
:10032000002C02DA30BC002070474FF4000000239C
:10033000914201D3891A034340084FEA4101F7D1A2
:1003400051B1914202D14FF0004105E002D24FF08D
:10035000010101E06FF0010103EBC450284430BCFF
:1003600000F09EBA2DE9FE4F804681EA0300C00FDF
:100370000C46009021F0004123F00045B8EB02004C
:10038000A94105D24046214690461C460B460246EE
:1003900023F00040104347D0270DC7F30A00C3F3F2
:1003A0000A510290401A019040286BDAC3F31300FF
:1003B00040F4801B0098924620B10023D2EB030A40
:1003C00063EB0B0B01985946C0F14002504600F018
:1003D00036FA06460D4650465946019A00F04EFA46
:1003E00010EB08006141002487EA115284EAE773A8
:1003F0001A4340D0009A62B3019A012A4FEA075289
:1004000015DC001B61EB02014FF0004202EA0752CB
:10041000CDE90042001C41F5801132462B4600F028
:1004200085FA03B0BDE8F08F40462146F9E7001B8E
:1004300061EB0201001C41F5801300185B4120189C
:10044000A2F5001747EB030140EAD570B6196D41DC
:1004500011E06D084FEA360645EAC0754FEA0752CB
:10046000001B61EB0201001C41F5801149084FEAB5
:1004700030000019514132462B4603B0BDE8F04F21
:1004800000F045BA0098012240000023D0EB0202A0
:1004900063EBE073009821464FEAE074B8EB00008C
:1004A00061EB0401E9E783F000435BE781F0004181
:1004B00058E72DE9FE4F81EA030404F0004421F0DF
:1004C000004100944FF0000B23F0004350EA010478
:1004D0005ED052EA03045BD0C3F30A54C1F30A5559
:1004E0002C44A4F2F3340194A0FB0254C1F3130191
:1004F00041F48011C3F3130343F4801301FB02445E
:1005000000FB034E840A970A44EA815447EA835762
:10051000A4FB076802958D0A05FB07854FEA932C1B
:1005200004FB0C542705029D4FEA065847EA16378C
:10053000B5EB08056EEB070C870E920E47EA8117A4
:1005400042EA8312A7FB0201B6EB0B0164EB000445
:100550002B0D43EA0C335E1844EB1C50DA4651462F
:10056000E7FB0201C5F313044FEA0B3343EA1453CC
:100570004FEA0432019C43EA0603A4F10C040294FE
:10058000009CCDE900B400F0D1F903B0BDE8F08FD4
:1005900000200146F9E72DE9F04D81EA030404F05B
:1005A000004B21F0004514464FF0000A23F00041B3
:1005B00050EA050220D054EA01021DD0C5F30A57C3
:1005C0000246C5F31303C1F31300C1F30A5640F406
:1005D000801543F48013A7EB0608101BD64608F2DB
:1005E000FD3873EB050002D308F1010801E0921811
:1005F0005B41B8F1000F03DA00200146BDE8F08D41
:1006000000204FF48011064684460EE0171B73EB62
:10061000050705D3121B63EB050306434CEA010CE7
:1006200049084FEA300092185B4150EA0107EDD1CA
:1006300052EA030012D082EA040083EA050108436B
:1006400005D0101BAB4106D20122002306E0002298
:100650004FF0004302E06FF0010253101AEB060066
:100660004CEB085110EB0A0041EB0B01BDE8F04DDB
:1006700000F04DB9C10F80EAE0700844CA07962324
:10068000002100F016B996230022114600F011B99E
:100690000EB5C10F80EAE0700844CA07002140F29D
:1006A00033438DE80E000A460B4600F03FF903B0D5
:1006B00000BD00F0004220F00040C10DC0F3160064
:1006C00040F400007F2901DA00207047962903DCFE
:1006D000C1F19601C84001E096398840002AF4D063
:1006E0004042704720F00040C10DC0F3160040F4B6
:1006F00000007F2901DA00207047962903DCC1F150
:100700009601C8407047963988407047C1F30A5235
:1007100010B5C1F3130140F2FF3341F480119A4246
:1007200001DA002010BD40F233439A42A2F2334274
:1007300003DC524200F092F810BD904010BD00F072
:10074000004230F000400AD0C10D01F56071C0F3E5
:10075000160042EA0151C2084007114370470020C9
:100760000146704701F0004330B421F0004150EAE7
:10077000010206D00A0DA2F56072C1F31301002A2E
:1007800002DC30BC00207047440F44EAC104C100C1
:10079000E01830BC00EBC25000F082B8002801DB4A
:1007A000C0F10040002901DBC1F1004181427047E6
:1007B00030B50B46014600202022012409E021FA31
:1007C00002F59D4205D303FA02F5491B04FA02F52E
:1007D0002844151EA2F10102F1DC30BD2DE9F05FC5
:1007E0000546002092469B468846064681464024A0
:1007F0001BE0284641464746224600F02FF8534664
:100800005A46C01A914110D311461846224600F0AC
:1008100016F82D1A67EB01084F46224601200021E9
:1008200000F00DF817EB00094E41201EA4F1010461
:10083000DFDC484631462A464346BDE8F09F202A81
:1008400004DB203A00FA02F1002070479140C2F127
:10085000200320FA03F3194390407047202A04DB59
:10086000203A21FA02F00021704721FA02F3D04029
:10087000C2F120029140084319467047202A06DB46
:10088000CB17203A41FA02F043EAE07306E041FA5E
:1008900002F3D040C2F1200291400843194670474C
:1008A0000029A8BF7047401C490008BF20F0010084
:1008B000704710B4B0FA80FC00FA0CF050EA010462
:1008C00004BF10BC704749B1CCF1200421FA04F4F4
:1008D00011FA0CF118BF012121430843A3EB0C01CD
:1008E000CB1D4FEA00614FEA102042BF002010BC30
:1008F000704700EBC35010440029A4BF10BC7047E0
:10090000401C490008BF20F0010010BC704710B522
:10091000141E73F1000408DA401C41F10001921822
:100920005B411A4301D120F0010010BD2DE9F04DCB
:1009300092469B4611B1B1FA81F202E0B0FA80F220
:1009400020329046FFF77BFF04460F4640EA0A003C
:1009500041EA0B0153465A46084313D0114653EA65
:10096000010019D0C8F140025046FFF777FF054655
:100970000E46504659464246FFF761FF084305D0F0
:10098000012004E020463946BDE8F08D00200543F3
:1009900046EAE0762C4337430A986305E40AA0EB65
:1009A00008000022FD0A44EA47540A3002D500201C
:1009B0000146E9E7010510196941DDE9084500191B
:1009C0006941BDE8F04DA2E770B521F00043034353
:1009D0000CD0C1F30A550024D5EB040564EB0403E5
:1009E000D617AD1AB34102DB0020014670BD2018B6
:1009F00041EB025170BDC1F30A52C1F3130140F241
:100A0000FF3341F480119A4202DA00200146704718
:100A100040F233439A42A2F2334202DC5242FFF7E1
:100A20001DBFFFF70CBF000030B5041E71F10004BC
:100A300004DB4FF00044404264EB0101141E73F1EB
:100A4000000405DB1C464FF00043524263EB0403F5
:100A5000994208BF904230BD064C074D06E0E06861
:100A600040F0010394E8070098471034AC42F6D3F5
:100A7000FFF740FB504E0008704E00080EB540F2E4
:100A8000334102910021CDE900110A460B46FFF7E0
:100A90004DFF03B000BD70B5C1F30A5201F000452F
:100AA0000024C1F3130140F2FF3341F480119A4254
:100AB00001DA002070BD40F233439A42A2F2334281
:100AC00003DC5242FFF7CAFE00E090402C43F1D015
:100AD000404270BD7047704700BFFEE770472DE988
:100AE000F0410246002500260020002300240027B4
:100AF00091F803C00CF00F0591F803C00CF0100C36
:100B0000BCF1000F03D091F802C04CEA050591F842
:100B100000C0BCF1000F31D0146800202BE04FF072
:100B2000010C0CFA00F3B1F800C00CEA03069E4277
:100B300020D183004FF00F0C0CFA03F7BC4305FAE9
:100B400003FC4CEA040491F803C0BCF1280F06D161
:100B50004FF0010C0CFA00FCC2F814C00AE091F846
:100B600003C0BCF1480F05D14FF0010C0CFA00FC9A
:100B7000C2F810C0401C0828D1D31460B1F800C0DE
:100B8000BCF1FF0F34DD546800202EE000F1080CAA
:100B90004FF0010808FA0CF3B1F800C00CEA0306A4
:100BA0009E4221D183004FF00F0C0CFA03F7BC4397
:100BB00005FA03FC4CEA040491F803C0BCF1280FC9
:100BC00005D100F1080C08FA0CF8C2F8148091F86D
:100BD00003C0BCF1480F07D100F1080C4FF0010829
:100BE00008FA0CF8C2F81080401C0828CED35460D4
:100BF000BDE8F0810246002093680B400BB1012054
:100C000000E000207047416170470161704700BFFC
:100C1000FEE700BFFEE7704710B500241A480078D1
:100C2000012830D1FFF77EFA04461848007820B139
:100C300016480078401E1549087014480078F8B925
:100C400013480078E0B900F0A7F912481249097872
:100C500050F82100114908600F48007810490978C0
:100C600088420DD00D480068C06A401C0B490968D5
:100C7000C8620C480068401C0A490860FFF772FA15
:100C80002046FFF753FA10BD5A0000204D00002007
:100C90004E00002074150020500000206800002045
:100CA0004F0000203400002070B504460025207855
:100CB000032801D0012070BDFFF734FA0546A07A61
:100CC00060B1002301221946204600F0B1F8284601
:100CD000FFF72CFA00F026F90020ECE720894FF608
:100CE000FF71884207D22089401C20812846FFF7E7
:100CF0001DFA0020DFE72846FFF718FA3320DAE76D
:100D000010B5FFF7E7FE10BD70B5002600F072F8D1
:100D1000FFF708FA064631480068401C2F49086072
:100D20003046FFF703FA2E480078012853D12D48AA
:100D3000007820B1012804D0022809D103E0012560
:100D40000BE0002509E0012501202649087004E098
:100D5000012500202349087000BF00BF05B970BD00
:100D60002148046833E0FFF7DDF90646206A50B3F6
:100D7000206A401E2062206A28BB94F8240000F0FC
:100D8000370040B114F8240F00F0C8002070012093
:100D90006070243C02E0002084F8250094F82400D0
:100DA00000F0080078B92834A07810490978084381
:100DB0000E49087020780E49085C6178084314F8E1
:100DC00028190B4A505464683046FFF7AFF994F87D
:100DD00026003F28C7D100BFC1E7000080000020E7
:100DE0005A000020700000206C00002051000020FC
:100DF0005200002010B5FFF76EFE07480088401C27
:100E00000549088008460088642803DB0020088024
:100E100000F004F810BD00003000002010B50348B9
:100E20000068FFF741FF0446204610BD90000020F7
:100E30002DE9F04F05460F4690469946A87A1C4981
:100E40000E5C05F10B00805D11F800B00BEBC600E5
:100E500000F0FF0A174850F82A4000201434E060E0
:100E60002760207C20EA0800207484F81190207C00
:100E7000143C00F0080068B994F82A000E4909787B
:100E800008430D4908700D48805D94F82910084307
:100E90000A4988552946204600F012F8206920B1F9
:100EA0002046216900F021F8E5605046BDE8F08F4A
:100EB000304C000874150020510000205200002022
:100EC00010B590F8282001F10B039B5C90F82940A5
:100ED000A34301F10B04A35423469B5C23B98B7AF3
:100EE00090F82A40A3438B7210BDF0B5024612F869
:100EF000284F95785678283A0B4618680FE000F18D
:100F00000B073F5DB74300F10B0C0CF8047067460C
:100F10003F5D17B9877AAF4387721B1D1868002899
:100F2000EDD1F0BD10B50024FFF7FCF804461348DE
:100F30000078F8B912480078E0B900F02DF81148AF
:100F40001149097850F82100104908600E480078CE
:100F50000F49097888420DD00C480068C06A401CCF
:100F60000A490968C8620B480068401C09490860C2
:100F7000FFF7F3F82046FFF7D9F810BD4D00002029
:100F80004E00002074150020500000206800002052
:100F90004F000020340000200649074A1278885C80
:100FA0000649095C034A515C01EBC001044A117017
:100FB00070470000304C0008510000205200002013
:100FC0005000002029B1064AD2690243044BDA617D
:100FD00004E0034AD2698243014BDA6170470000A2
:100FE0000010024029B1064A92690243044B9A61FB
:100FF00004E0034A92698243014B9A617047000002
:101000000010024030B500210022002400232D4DA5
:101010006D6805F00C0121B1042905D0082923D100
:1010200005E0294D056022E0274D05601FE0254DB4
:101030006D6805F47012234D6D6805F48034022547
:1010400005EB92421CB9214D554305600BE01D4D47
:101050006D6805F400351DB11C4D5543056002E077
:10106000194D5543056002E0174D056000BF00BFF4
:10107000144D6D6805F0F0010909154D6B5C0568AC
:10108000DD4045600F4D6D6805F4E061090A104DC3
:101090006B5C4568DD4085600A4D6D6805F4605104
:1010A000C90A0B4D6B5C4568DD40C560054D6D6838
:1010B00005F44041890B074D6B5CC568B5FBF3F542
:1010C000056130BD0010024000127A0000093D00A9
:1010D000000000201000002021B1028842F04002F0
:1010E000028004E002884FF6BF731A400280704706
:1010F0000246002013890B400BB1012000E00020C4
:1011000070470146888970478181704710B5002279
:10111000028802F441520B884C8823438C88234375
:10112000CC8823430C8923434C8923438C89234354
:10113000CC8923431A430280838B4FF2FF742340F0
:1011400083830B8A038210BD704710B500F002F84C
:1011500010BD00000CB500200190009033480068DD
:1011600040F480303149086000BF3048006800F426
:10117000003000900198401C0190009818B9019827
:10118000B0F5A06FF1D12948006800F4003010B12B
:101190000120009001E0002000900098012843D138
:1011A0002348006840F010002149086008460068A4
:1011B00020F0030008600846006840F00200086064
:1011C0001A4840681949486008464068486008461F
:1011D000406840F4806048600846406820F47C1015
:1011E00048600846406840F4E810486008460068D7
:1011F00040F08070086000BF0C48006800F000708C
:101200000028F9D00948406820F0030007494860E9
:101210000846406840F00200486000BF034840684C
:1012200000F00C000828F9D10CBD000000100240AD
:101230000020024010B5FEF775FF0446064800780E
:10124000401C054908702046FEF770FFFFF75CFD63
:10125000FFF7E2FC10BD00004D00002010B5134860
:10126000006840F0010011490860084640681049D4
:1012700008400E494860084600680E4908400B497E
:1012800008600846006820F480200860084640682E
:1012900020F4FE0048604FF41F008860FFF755FF00
:1012A0004FF000600449086010BD000000100240CB
:1012B0000000FFF8FFFFF6FE08ED00E021B1028814
:1012C00042F00102028004E002884FF6FE731A40E9
:1012D0000280704770B5002400220023058C4FF671
:1012E000FE7635400584028C8388048B4FF68F751B
:1012F0002C40B51E2C400D882C43751E2A400D89AC
:101300002A434D882A43144DA8420BD0134DA842BE
:1013100008D0134DA84205D0124DA84202D0124D5C
:10132000A84213D14FF6F7752A404D892A434FF64C
:10133000FB752A408D882A434FF6FF652B404FF6F8
:10134000FF552B408D892B43CD892B43838004830C
:10135000CD888586028470BD002C01400034014098
:101360000040014000440140004801400A4600217D
:10137000018B4FF6F773194011430183704700004A
:1013800070B5002400220023058C4FF6EF7635401F
:101390000584028C8388048B48F6FF752C404FF639
:1013A000FF452C400D884FF6FF7606EA05252C43B5
:1013B0004FF6DF752A400D8906EA05152A434D8848
:1013C00006EA05152A43154DA84202D0144DA8423D
:1013D0001DD14FF67F752A404D894FF6FF7606EAFC
:1013E00005152A434FF6BF752A408D8806EA051574
:1013F0002A434FF6FF352B404FF2FF752B408D8966
:1014000006EA85052B43CD8906EA85052B438380B3
:101410000483CD880587028470BD0000002C014044
:10142000003401400A460021018B4FF2FF7319403E
:101430004FF6FF7303EA022319430183704700004C
:1014400070B5002400220023058C4FF6FF6635405E
:101450000584028C8388848B4FF68F752C404FF661
:10146000FC752C400D882C434FF6FF552A400D8902
:101470004FF6FF7606EA05252A434D8806EA05253C
:101480002A43154DA84202D0144DA8421DD14FF257
:10149000FF752A404D894FF6FF7606EA05252A4357
:1014A0004FF6FF352A408D8806EA05252A434EF679
:1014B000FF752B404DF6FF752B408D8906EA05150B
:1014C0002B43CD8906EA05152B4383808483CD8881
:1014D0008587028470BD0000002C0140003401406B
:1014E0000A460021818B4FF6F7731940114381831F
:1014F0007047000070B5002200230024058C4EF6D2
:10150000FF7635400584038C8488828B48F6FF750E
:101510002A404FF6FF452A400D884FF6FF7606EA2F
:1015200005252A434DF6FF752B400D8906EA053542
:101530002B434D8806EA05352B430B4DA84202D0BC
:101540000A4DA84208D14BF6FF752C408D894FF605
:10155000FF7606EA85152C4384808283CD88A0F827
:101560004050038470BD0000002C01400034014055
:101570000A460021818B4FF2FF7319404FF6FF732B
:1015800003EA0223194381837047818670470187EC
:10159000704781877047A0F840107047002202888A
:1015A0001D4B98420ED01D4B98420BD0B0F1804F8E
:1015B00008D01B4B984205D01A4B984202D01A4BC8
:1015C000984204D14FF68F731A404B881A43174B39
:1015D000984207D0164B984204D04FF6FF431A406A
:1015E000CB881A4302808B8883850B8803850A4B3E
:1015F00098420BD0094B984208D00E4B984205D028
:101600000D4B984202D00D4B984201D10B7A0386C4
:101610000123838270470000002C01400034014008
:101620000004004000080040000C00400010004092
:1016300000140040004001400044014000480140C7
:1016400021B1828942F40052828104E082894DF600
:10165000FF731A408281704702460020B1F5007F77
:1016600000D100BF13880B400BB1012000E0002027
:10167000704700002DE9F04786B005460E4600246D
:10168000A24600BFA1460027B08900B100BF2F4687
:101690002C8A4CF6FF700440F08804432C82AC89FD
:1016A0004EF6F3100440B08831890843718908432D
:1016B0000443AC81AC8A4FF6FF400440B089044338
:1016C000AC8201A8FFF79EFC1F48874202D1DDF8DB
:1016D00010A001E0DDF80CA0A88900F4004040B1A2
:1016E0000AEBCA0000EB0A1031684900B0FBF1F8C0
:1016F00007E00AEBCA0000EB0A1031688900B0FB72
:10170000F1F86420B8FBF0F004012009642101FB2A
:101710001089A88900F4004040B1322000EBC900D4
:10172000B0FBF1F000F00700044308E0322000EBCA
:1017300009106421B0FBF1F000F00F0004432C818C
:1017400006B0BDE8F087000000380140C1F3080290
:101750008280704700BFFEE70FB4054B10B503A9A8
:10176000044A029800F004FC10BC5DF814FB000071
:10177000A1300008B4000020490050EAC12018BF81
:1017800004204A0D18BF40F0010040F2FF72B2EB96
:10179000515F08BF40F00200012808BF05207047D4
:1017A0002DE9F74F144694B00021C4E902111599B0
:1017B000079121F00045C9498D4206DC1599C4E91D
:1017C000000117B00020BDE8F08FC549DFF814A371
:1017D000A9423CDD0799C44E0029C44FC44A15995B
:1017E000534619DDFEF75FFE554506D0C14AC24B90
:1017F000FEF759FEC4E900010AE04FF0D352BE4B98
:10180000FEF751FE32463B46FEF74DFEC4E90001AD
:1018100017B00120BDE8F08FFEF7A4FD554506D0B6
:10182000B44AB54BFEF79EFDC4E900010AE04FF053
:10183000D352B14BFEF796FD32463B46FEF792FD82
:10184000C4E9000117B04FF0FF30BDE8F08FAB499D
:10185000A942159978DB21F0004183468846A84AC1
:10186000A84BFEF726FE0022A74BFEF77BFDFFF7F5
:1018700012F90990FEF70CFF06460F469C4A5346A4
:10188000FEF717FE43465A46FEF710FE80468A468C
:10189000984A994B30463946FEF70BFE2A0D012532
:1018A0000B9242465346FEF701FE032DC4E90001A8
:1018B00039D00B98C1F30A51401A05EB4511113983
:1018C000814230DA9148C346784400EB0510CDF8E8
:1018D0000CA00C90D0E9002330463946FEF7E9FD14
:1018E00002460B460491069058460399FEF7DBFD2D
:1018F00080468A4602460B4658460399FEF7D3FDBA
:10190000049B069AFEF7CFFD83460C980391394657
:10191000D0E902233046FEF7CCFD5A46039BFEF782
:10192000C2FD6D1CBDE707980028A2BF099817B03B
:10193000BDE8F08F616881F000416160099817B0DF
:101940004042BDE8F08FFFE784461598C1F31301CC
:10195000C0F30A50A0F2F5304FEA601800F01F06FD
:10196000C6F12000139000200690079041F4801EDD
:1019700005206D4676B1664A08EB00017A4452F8BC
:10198000213002EB8101B3404A68139922FA01F138
:10199000194305E05F4908EB0002794451F8221031
:1019A000A1FB0E27A1FB0C131A449A4234BF01235A
:1019B000002303EB070A05EB8003D3E901B70F44CB
:1019C0008F4234BF0121002193448B4411B19345D0
:1019D00002D903E0934501D2012100E00021C3E9CF
:1019E00001B7514445F82010011EA0F10100C1DCEF
:1019F0000298059F00F10050800F12900298DDE9D7
:101A000003568000FEF744FE834628460D91FFF7FB
:101A100035F86FF01D02FEF7D7FFCDE90E01304615
:101A2000FFF72CF86FF03D02FEF7CEFF80468A46A6
:101A30003846FFF723F86FF05D02FEF7C5FF074653
:101A4000424653461191FEF78DFCDDE90E23FEF769
:101A500089FC5A460D9BFEF785FC00250E465A462A
:101A600028460D9BFEF71FFDDDE90E23FEF71BFD4B
:101A700042465346FEF717FD3A46119BFEF716FD08
:101A8000DFF898A0244A5346FEF713FD0746884620
:101A9000234A244B31462846FEF70BFD3A4643467F
:101AA000FEF760FC074688464FF0A8425346314691
:101AB0002846FEF7FEFC3A464346FEF753FC159ACD
:101AC00012F0004F04D0129A81F00041524212925B
:101AD000C4E90001129817B0BDE8F08FFB21E93F7F
:101AE0007CD90240FB21F93F7370032E8A19A33B76
:101AF000000040543163621A61B4D03DFB2139418A
:101B000083C8C96D305FE43F0000E03F94340000BB
:101B100010340000F2330000182D4454FB21F93D2D
:101B20003326A611460B113C2DE9FF4D21F000484C
:101B300007460C46B8F1795F08DAFEF7ACFF0028DB
:101B400001BF0020324904B0BDE8F08D3A4623467B
:101B500010461946FEF7ADFC054602462D480E46D6
:101B60000B460621784400F05DF82A463346FEF71E
:101B7000A0FCDDE9022382468B4638462146FEF76B
:101B800098FC04460F4652465B4628463146FEF70F
:101B900090FC22463B46FEF786FC07468A464FF0FD
:101BA000FF3228463146FEF70FFF1B4A90450ADAFE
:101BB0003A465346FEF777FC04B00022BDE8F04DEC
:101BC000134BFEF773BC154A4245A8BFA8F5001594
:101BD0004FF00004B8BF124D22462B46FEF763FCBF
:101BE0000646884622462B4600200949FEF75BFC44
:101BF00004460D463A46534630464146FEF753FCEE
:101C000004B022462B46BDE8F04DFEF74FBC000065
:101C10000000F03FC83100003333D33F0000E93FFC
:101C20000000D23F2DE9F0414F1E00EBC7010446F2
:101C3000D1E9000115461E4637F006020DD02A46AE
:101C40003346FEF736FC7F1E04EBC703D3E90023BF
:101C5000FEF788FB37F00602F1D1022F25D0042FC2
:101C600013D0062F18BFBDE8F0812A463346FEF791
:101C700020FCD4E90A23FEF775FB2A463346FEF71B
:101C800018FCD4E90823FEF76DFB2A463346FEF71D
:101C900010FCD4E90623FEF765FB2A463346FEF71F
:101CA00008FCD4E90423FEF75DFB2A463346FEF721
:101CB00000FCD4E90223FEF755FB2A463346FEF723
:101CC000F8FBD4E90023BDE8F041FEF74BBB000070
:101CD0002DE9FF4D054621F0004084B00C46B0F1DF
:101CE000795F0BDA2846FFF747FD042808BF00F0AC
:101CF0006FF8284608B02146BDE8F08D2A460B460D
:101D00001046FEF7D6FB06460F462A462346FEF748
:101D1000D0FB804626488A4632463B460521784419
:101D2000FFF780FF83461098029160B3214A224B4F
:101D300040465146FEF7BDFBCDE900015A464046FC
:101D40005146029BFEF7B5FB82468846DDE9060157
:101D50004FF0FF32FEF738FE52464346FEF7A3FB34
:101D600032463B46FEF7A5FBDDE90623FEF79BFB6B
:101D7000DDE90023FEF797FB08B02A462346BDE8BD
:101D8000F04DFEF793BB0B465A4630463946FEF7F8
:101D900090FB084A084BFEF7E5FA42465346FEF729
:101DA00088FB08B02A462346BDE8F04DFEF7DABAB4
:101DB00006310000495555555555C5BF0122FEF75E
:101DC00003BE0022134610461146FEF7E4BB000096
:101DD000024A00201107FEF7F7BD000001FDFFFFDA
:101DE00002E008C8121F08C1002AFAD170477047E4
:101DF000002001E001C1121F002AFBD17047000042
:101E00000149086070470000B80000202DE9FF5F1D
:101E1000DDE90220010DDDF838B0024318D044F6A8
:101E20001050A1F2FF3141430D140F98012820D02A
:101E3000A5EB0B00401C5FEA000A4FF00004474E80
:101E4000DFF81C91A046504616D5CAF1000728E0DD
:101E50000F98012443A2012808D0002100980F9B6D
:101E6000C0E90021C0E90243BDE8FF9F6FEA0B0112
:101E7000F4E7CBF10000DEE7074612E0F80707D0F1
:101E80002246334640464946FEF713FB80468946C4
:101E90002246334610461946FEF70BFB04460E4613
:101EA0007F10002FEAD1DDE90201BAF1000F4246AE
:101EB0004B4602DAFEF7FDFA01E0FEF76CFB044642
:101EC0000E460022284BFEF7AFFD03D84FF0FF303F
:101ED000014607E00022254B20463146FEF742FA34
:101EE000FEF789FD102409E0002C0ADB0A220023FA
:101EF000FEF774FC019B30321A55641E50EA010251
:101F0000F2D1641C019AC4F1110314440F9A012AFE
:101F100003D0012208430DD10AE0084304D0002079
:101F20004FF0110B0F9080E7A3EB0B056D1E0DE03A
:101F30005B4504DD4FF0000205F1010504E003DA22
:101F40004FF00002A5F10105002AECD000980F998E
:101F5000C0E90231C0E9004586E7000000002440E6
:101F60000000F03F300000000000F0430000E03FC0
:101F70002DE9FF4F95B09B468946064600250FE2A6
:101F8000252877D100242746F84A0121059400E04E
:101F9000044316F8013F203B01FA03F01042F7D149
:101FA00030782A2811D06FF02F033078A0F130025A
:101FB000092A16D8059A44F0020402EB820203EBC8
:101FC00042021044761C0590EFE759F8042B059265
:101FD000002A03DA504244F40054059044F002040D
:101FE000761C30782E2816D116F8010F44F0040420
:101FF0002A280DD06FF02F023078A0F13003092B82
:1020000009D807EB870302EB4303C718761CF3E7F5
:1020100059F8047B761C30786C280FD006DC4C28ED
:1020200017D068280DD06A2814D104E0742810D085
:102030007A280FD10DE044F400140AE044F480142F
:1020400001E044F440147278824202D104F5801415
:10205000761C761C307866280BD013DC582877D095
:1020600009DC002875D04528F6D04628F4D047284A
:102070001AD19DE118E0632835D0642879D065280D
:1020800012D195E1702873D008DC6728F1D0692857
:102090006FD06E280DD06F2806D1B5E073282CD0F4
:1020A000752875D0782874D05A46179990476D1CBA
:1020B00075E1C4F30250022809D003280DD0D9F8E5
:1020C000001004280DD00D6009F1040967E1D9F86A
:1020D0000010EA17C1E90052F6E7D9F800100D80A8
:1020E000F2E70D70F0E719F8041B8DF800100020DE
:1020F0008DF80100EA46012003E059F804AB4FF0E7
:10210000FF3061074FF0000102D40DE008F101013A
:102110008846B9420FDA8045F8DB1AF80810002922
:10212000F4D108E008F1010188468142FADB1AF88F
:1021300008100029F6D105985B46A0EB0807214658
:102140003846179A00F094FA284400EB080507E097
:102150004DE029E10DE01AF8010B5A461799904716
:10216000B8F10108F7D25B4621463846179A13E1C9
:1021700042E00A220092C4F302524FF0000A022AFF
:1021800008D059F804CB032A4FEAEC710AD00DE0CD
:1021900029E02AE009F1070121F00702F2E802C173
:1021A000914609E00FFA8CFC4FEAEC71042A03D146
:1021B0004FFA8CFC4FEAEC71002907DA0A4600213D
:1021C000DCF1000C61EB02012D2202E0220504D5B6
:1021D0002B228DF80420012203E0E20701D0202207
:1021E000F7E7904659E00A2102E010220DE01021A5
:1021F0004FF0000A00910BE010224FF0000A44F06B
:1022000004040827009203E008224FF0000A00921D
:10221000C4F30252022A05D059F804CB0021032A44
:1022200008D009E009F1070121F00702F2E802C134
:10223000914605E01FFA8CFC042A01D10CF0FF0C3A
:102240004FF00008220728D5702806D0009B83F0A5
:10225000100353EA0A0305D00EE040228DF8042053
:10226000012208E05CEA010206D030228DF8042049
:102270008DF8050002229046009B83F0080353EA84
:102280000A030AD15CEA010201D1620705D53022B6
:102290008DF804204FF001087F1E582804D034A088
:1022A00003900EA802900DE036A0F9E75346604671
:1022B000009AFEF793FA84460398825C0298401EC7
:1022C000029002705CEA0100F0D1029806A9081A97
:1022D00000F1200A600702D524F4803400E00127D1
:1022E000574502DDA7EB0A0000E0002000EB0A01E1
:1022F000009005984144401A0590E00306D45B46DF
:102300002146179A059800F0B3F90544002706E026
:1023100001A85A46C05D179990476D1C7F1C474520
:10232000F6DBE0030CD55B462146179A059800F0D2
:102330009FF9054404E030205A46179990476D1CD8
:102340000099481E00900029F5DC08E002980299E7
:102350005A460078491C0291179990476D1CBAF1B2
:102360000001AAF1010AF1DC65E100000928010081
:1023700030313233343536373839616263646566FB
:1023800000000000303132333435363738394142BD
:10239000434445460000000000F058F90544761C0F
:1023A000307800287FF4ECAD19B02846BDE8F08FF6
:1023B000620700D4062709F1070222F0070CFCE8A7
:1023C0000223E14603F000485FEA080C02D00FF256
:1023D000702C0DE05FEA045C02D50FF2682C07E078
:1023E0005FEAC47C02D00FF2602C01E0AFF2700C07
:1023F0004FF0FF3823F00043CDF850C065280CD0D3
:1024000006DC452809D046281DD047283DD13DE0AF
:10241000662818D067287ED138E00021112F01DB13
:10242000112000E0781CCDE9000106A90EA8FFF7F5
:10243000EDFCDDE90F010E9A03910021009207F1F6
:10244000010A04914DE04FF000400097CDE90110E2
:1024500006A90EA8FFF7DAFCDDE90F0203920E9B36
:1024600011990022DDF80CA00093049211B9791C97
:1024700000EB010AB7EB0A0004D4C0F1FF3007F10A
:10248000010A0490AAEB0700019044E0012F00DA52
:1024900001270021112F01DD112000E03846CDE990
:1024A000000106A90EA8FFF7B1FCDDE90F010E9AA5
:1024B0000391002104910092BA4621070CD403999C
:1024C000514500DA8A46BAF1010F05DD009AAAF1FA
:1024D0000101515C302908D0B84202DA10F1040F32
:1024E00006DA0121CDE9011015E0AAF10101E9E7C1
:1024F000002805DC049901440491AAEB000102E0E4
:10250000411C514500DD8A460499401A401C019047
:102510004FF000400290200704D40198504501DBA1
:10252000CDF8048000208DF84F0002980DF14F0780
:10253000B0F1004F25D02B200E9002984FF00208EA
:1025400000280CDA404202902D200E9007E00A216C
:102550000298FEF72DF93031029007F8011DB8F10D
:102560000001A8F10108F2DC02980028EFD1791EE1
:102570000E980870307800F0200040F0450007F811
:10258000020D12A8C01B00F107081498007800B1D2
:10259000012000EB0A01019801EBE071059841442C
:1025A000401A401E0590E00306D45B462146179A68
:1025B000059800F05DF805441498007818B15A4663
:1025C000179990476D1CE00324D55B462146179A66
:1025D000059800F04DF805441CE00498002807DB3E
:1025E000DDE90301884203DD0098405C179901E0B2
:1025F000179930205A469047049805F10105401C70
:1026000004900198401E019004D12E205A4617993B
:1026100090476D1CBAF10001AAF1010ADDDC05E06A
:1026200017F8010B5A46179990476D1CB8F1000135
:10263000A8F10108F4DC5B462146179A0598ABE641
:102640002D0000002B000000200000002DE9F041CB
:10265000044600251E461746880404D405E0394682
:102660002020B0476D1C641EF9D52846BDE8F081D6
:102670002DE9F041044600251E469046C80301D5C9
:10268000302700E02027880404D505E0414638467D
:10269000B0476D1C641EF9D52846BDE8F08110B521
:1026A000044600212046FEF779F802D284F000406B
:1026B00010BD2046FCE700002DE9F34F85B08946A8
:1026C00049460598FDF710FE04904846FFF7E7FFDE
:1026D00005460598FFF7E3FF06462946FEF75EF834
:1026E0003AD237480499FDF7CDFD01900499FDF7E2
:1026F000C9FD80464FF07E51FDF76CFD0746FEF7A1
:102700001EF805460E460498FEF719F807464FF0E6
:1027100066322C4BFDF7CDFE2A463346CDE9020149
:10272000FDF739FF8246FEF71DF8044600214846B2
:10273000FEF734F83FD200210598FEF72FF805D2B6
:1027400021492046FDF798FD044634E01E49204605
:10275000FDF740FD04462EE004990846FDF792FD82
:1027600083461749FDF736FD8246FDF7E8FFCDE9C0
:1027700000010498FDF7E3FF82464FF06632114BEB
:10278000FDF797FE0746DDE90023FDF704FF054648
:1027900000220E4BFDF78AFECDE90201FDF7E2FFB4
:1027A000044600210598FDF7F9FF04D206492046AA
:1027B000FDF762FD0446204607B0BDE8F08F00003B
:1027C000295C8F3E66A64C40000034430080564092
:1027D0000FB42DE9F04F9BB0DDE92AA484481A908C
:1027E000DFF810B2844819908448189044F62060AD
:1027F0001290249880F00046814801683046FDF729
:10280000E9FC05465946FDF73DFD16902499DAF896
:102810000000FDF731FD064658461999FDF764FDA5
:1028200007463146FDF72EFD05461899FDF72AFDAE
:102830001590DDE91510FDF7CDFC054671480168DE
:102840002846FDF7C7FC13A941F8290013AA52F83E
:1028500029002799FDF710FD179017991A98FDF791
:1028600011FD0546FDF725FF00B22080259880F078
:102870000046634841683046FDF7ACFC05465946C2
:10288000FDF700FD1690DAF8040080F000473846A6
:102890002599FDF7F1FC064658461999FDF724FDE8
:1028A00080463146FDF7EEFC05461899FDF7EAFC37
:1028B0001590DDE91510FDF78DFC0546514841687E
:1028C0002846FDF787FC13A941F8290024AA1169BD
:1028D00013AA52F82900FDF7CFFC179017991A9800
:1028E000FDF7D0FC0546FDF7E4FE00B260804FF036
:1028F00000091DE034F9190044F62061884203DD27
:10290000084624F819000FE034F919003E498842BE
:1029100004DA4BF2E01024F8190005E013A850F88F
:102920002900384941F8290009F1010000F0FF09A8
:10293000B9F1020FDEDB24AA5169DAF80800FDF7CD
:102940009BFC179017991A98FDF79CFC0546FDF71C
:10295000B0FE00B2A080DAF80C00FDF7AAFE00B2CB
:10296000E080DAF80C00FDF7EAFE05460E46DAF8DC
:102970000800FDF7E4FE07468846DAF80400FDF794
:10298000DEFECDE91001DAF80000FDF7D8FECDE952
:102990000E011EA0CDE90A560C901DA0CDE90678C7
:1029A00008901BA00490DDE91001CDE9020118A0F8
:1029B000009018A0DDE90E23FEF7CEFE13A2B4F9B5
:1029C000060013A3B4F90410CDE90113CDE9030205
:1029D0000FA00090B4F90230B4F900100CA219A0B5
:1029E000FEF7BAFE1BB0BDE8F00F5DF814FB000067
:1029F0000000A041B81EA1419CC4A03E0AD7A33C40
:102A0000A4000020AC000020E0B1FFFF200A00007D
:102A100020200000526566657220205369676E6150
:102A20006C20282D2D2D2D293A20252E3266257338
:102A3000252E32662573252E32662573252E3266A5
:102A4000257300004F7574707574205369676E614B
:102A50006C20282D2D2D2D293A20256425732564E1
:102A60002573256425732564257300002DE9F04F37
:102A700093B006460D46142700243E48039028468E
:102A800001F0BEFE13E005F11C0151F8240003998A
:102A9000FDF7F8FB10A941F8240005F11C0050F8DF
:102AA000241006F10C0040F82410601CC4B2032C62
:102AB000E9DB07A910A800F029F904AA2E4907A804
:102AC00001F08AF805F1100001F056FC00241EE028
:102AD000781CFDF7CFFD82463846FDF7D4FD8346CE
:102AE00004A850F824105846FDF7CCFB814605F1A8
:102AF000100050F824104846FDF76CFB8046514604
:102B0000FDF7F2FB1C4941F82400601CC4B2032C01
:102B1000DEDB194A91689068FDF7B4FB164A029013
:102B200011681068FDF7AEFB01900299FDF752FBAA
:102B3000834600F08DFA824651464FF07E50FDF7F5
:102B4000D3FB81460C4948684946FFF7B5FD8046EE
:102B50000A49FDF7C9FB3060074A91681068FFF722
:102B6000ABFD80460549FDF7BFFB706013B0BDE8C3
:102B7000F08F00000AD7A33C9800002000002041FD
:102B800000B5244B21F0004287B09A42DCBF0022FE
:102B9000134629DD204B9A4208D140B94FF001007D
:102BA000FFF72EF9FFF70DF907B000BD03DBFFF7C4
:102BB00005F907B000BD02AAFEF7F2FD10F003010F
:102BC00004BF0DF1080C9CE80F000DD00120012975
:102BD0000ED0022914D00DF1080C00909CE80F00D3
:102BE000FFF776F807B000BDFEF79EFF07B000BD07
:102BF0000DF1080C00909CE80F00FFF769F805E064
:102C00000DF1080C9CE80F00FEF78EFF07B081F075
:102C1000004100BDFB21E93F0000F07F10B502A09C
:102C2000FEF79AFD10BD000044656275672D75734F
:102C30006172743120697320776F726B696E670AF5
:102C4000000000001FB501218803FEF7CBF94FF407
:102C5000E13000900020ADF80C000C20ADF80A0027
:102C60000020ADF80800ADF80600ADF80400694694
:102C70000348FEF7FFFC01210148FEF7E1FC1FBD00
:102C80000038014008B501210420FEF7ABF903200C
:102C90008DF8020018208DF803004FF40070ADF895
:102CA000000069460748FDF71AFF4FF48060ADF851
:102CB000000004208DF8030069460248FDF70FFF6D
:102CC00008BD00000008014010B501F08FFFFFF7BC
:102CD000A5FF10BD014601EBC1024FF0E0235A6190
:102CE00001221A6100229A6100BF4FF0E0221069B0
:102CF00000F001021AB100F48032002AF5D000225F
:102D00004FF0E0231A619A61704700002DE9F04FFF
:102D10008DB081460C46D9F80000FDF710FD07463E
:102D2000C94ACA4BFDF7C5FB0546FDF71BFD0C90D4
:102D3000D9F80400FDF703FD0746C34AC34BFDF76E
:102D4000B8FB0546FDF70EFD0B90D9F80800FDF71E
:102D5000F6FC0746BC4ABD4BFDF7ABFB0546FDF74D
:102D600001FD0A900A98FDF7EAFC0546FFF708FF07
:102D7000074688460B98FDF7E2FC0546FFF700FF83
:102D80003A464346CDE90801FDF793FB8246FDF73D
:102D9000E9FC20600A98FDF7D2FC054601F08AFDA7
:102DA000074688460B98FDF7CAFC0546FFF7E8FE84
:102DB00082463A464346FDF77CFBCDE90801FDF724
:102DC000D1FC60600B98FDF7BAFC074601F072FD7C
:102DD00081F000410546FDF7C5FCA0600A98FDF7AB
:102DE000AEFC054601F066FD074688460C98FDF7E7
:102DF000A6FC0546FFF7C4FE82463A464346FDF769
:102E000058FBCDE906010A98FDF799FC0546FFF746
:102E1000B7FECDE902010B98FDF791FC054601F0E4
:102E200049FD074688460C98FDF789FC054601F0E8
:102E300041FD82463A464346FDF73BFBCDE90001A2
:102E4000DDE90223FDF735FBCDE90401DDE90623C9
:102E5000FDF729FBCDE90801FDF784FCE0600A9845
:102E6000FDF76DFC0546FFF78BFE074688460C987C
:102E7000FDF765FC0546FFF783FE82463A4643466A
:102E8000FDF717FBCDE906010A98FDF758FC05464A
:102E900001F010FDCDE902010B98FDF750FC05464D
:102EA00001F008FD074688460C98FDF748FC0546EA
:102EB00001F000FD82463A464346FDF7FAFACDE9B5
:102EC0000001DDE90223FDF7F4FACDE90401DDE9B3
:102ED0000623FDF747FACDE90801FDF743FC206121
:102EE0000B98FDF72CFC0546FFF74AFECDE90801DB
:102EF0000C98FDF724FC054601F0DCFC8246DDE978
:102F00000823FDF7D6FA0746FDF72CFC60610A9806
:102F1000FDF715FC054601F0CDFC074688460C98E8
:102F2000FDF70DFC054601F0C5FC82463A464346D6
:102F3000FDF7BFFACDE906010A98FDF700FC05464A
:102F4000FFF71EFECDE902010B98FDF7F8FB0546E1
:102F500001F0B0FC074688460C98FDF7F0FB0546EB
:102F6000FFF70EFE82463A464346FDF7A2FACDE948
:102F70000001DDE90223FDF79CFACDE90401DDE95A
:102F80000623FDF7EFF9CDE90801FDF7EBFBA061A2
:102F90000A98FDF7D4FB0546FFF7F2FD0746884681
:102FA0000C98FDF7CCFB054601F084FC82463A46BE
:102FB0004346FDF77EFACDE906010A98FDF7BFFB0F
:102FC000054601F077FCCDE902010B98FDF7B7FB50
:102FD000054601F06FFC074688460C98FDF7AFFBED
:102FE0000546FFF7CDFD82463A464346FDF761FAB6
:102FF000CDE90001DDE90223FDF75BFACDE904012B
:10300000DDE90623FDF74FFACDE90801FDF7AAFB3C
:10301000E0610B98FDF793FB0546FFF7B1FDCDE9A5
:1030200008010C98FDF78BFB0546FFF7A9FD074645
:10303000DDE90823FDF73DFA8246FDF793FB2062A8
:103040000DB0BDE8F08F0000EC51B81E85EB913F4C
:103050002DE9F05F04464FF07F594FF07C51204638
:10306000FDF710F9824625462E460C48A0EB660671
:10307000354629465046FDF705F983462946FDF7B2
:1030800001F980464946FDF7FAF807462946FDF75B
:10309000F9F805462846BDE8F09F0000DF59375F84
:1030A00070B504460D46E1B20548FEF74FFB00BF80
:1030B00080210348FEF7D0FA0028F9D0204670BDE1
:1030C000003801402DE9F05F05460E4600244FF020
:1030D0007F5705F1100000F053F905F11C0000F0D6
:1030E000E3F905F12C0000F075FA00F013FB8046BF
:1030F000FDF7C0FAA863284601F06CF920E0305DC6
:10310000FDF7C1FA804605F1100050F82410404642
:10311000FDF7B5F805F1100141F82400F11C085D38
:10312000FDF7B1FA804605F11C0050F82410404626
:10313000FDF7A5F805F11C0141F82400601EC4B29A
:10314000032CDCDB30E01A4931F91400FDF792FA68
:1031500083463946FDF7C8F88146154931F9140010
:10316000FDF788FA82464946FDF786F88046FDF766
:10317000A0FA00B20E4921F8140005F1100151F82F
:1031800024003946FDF7B0F88046094931F91400AA
:10319000FDF770FA81464146FDF76EF805F1100122
:1031A00041F82400601EC4B2032CCCDBBDE8F09FC4
:1031B0002600002070B50446A0881E2803DD0020EC
:1031C0002149088070BDE58840F2B27085421BDD60
:1031D0001D48B0F900000A2806DA1B480088401C88
:1031E00000B2194908802CE0174800880A2828D125
:1031F0000020154908804FF480711448FDF705FD43
:103200000120134908601CE01E2D1ADA0E48B0F99F
:1032100000000A2806DA0C480088401C00B20A495F
:1032200008800EE0084800880A280AD100200649D4
:1032300008804FF480710548FDF7E5FC0020044943
:10324000086000BFBEE7000024000020000C014021
:103250002000002008B5002000900122694675205A
:1032600000F0ECFB9DF80000682801D1012008BDAA
:103270000020FCE710B520216A2000F02EFC082178
:10328000242000F02AFC1321342000F026FC012128
:10329000672000F022FC1E21252000F01EFC0021EA
:1032A000262000F01AFC0421632000F016FC812186
:1032B000272000F012FC1E21252000F00EFC012129
:1032C000262000F00AFCE021632000F006FC8121AA
:1032D000272000F002FC1E21252000F0FEFB022129
:1032E000262000F0FAFB0021632000F0F6FB81218C
:1032F000272000F0F2FB10BD0020002100BF08E0F5
:10330000002101E04A1C91B2B1F57A7FFADB421C40
:1033100090B2B0F57A7FF3DB704710B520216A20B8
:1033200000F0DBFB0821242000F0D7FB9E212520A4
:1033300000F0D3FB0321262000F0CFFB86212720BD
:1033400000F0CBFB10BD10B500F0F4FDFFF7D4FF8B
:1033500000216B2000F0C1FB0721192000F0BDFB0C
:1033600006211A2000F0B9FB00211C2000F0B5FB5B
:1033700018211B2000F0B1FBFFF76CFF10BD00000F
:103380002DE9F0478EB0824606220AA93B2000F0C4
:1033900055FB9DF829009DF8281040EA012000B255
:1033A000ADF830009DF82B009DF82A1040EA01206E
:1033B00000B2ADF832009DF82D009DF82C1040EAC7
:1033C000012000B2ADF83400BDF93000FDF752F92C
:1033D00005464FF08041FCF755FF04464FF08E4103
:1033E000FCF782FFCAF80000BDF93200FDF742F990
:1033F00005464FF08041FCF745FF04464FF08E41F3
:10340000FCF772FFCAF80400BDF93400FDF732F989
:1034100005464FF08041FCF735FF04464FF08E41E2
:10342000FCF762FFCAF80800DAF80800FDF787F930
:1034300004460D46DAF80400FDF781F906460F460A
:10344000DAF80000FDF77BF9804609A0CDE90645D2
:10345000089009A0CDE90267049007A042460B46F8
:10346000009006A0FEF778F90EB0BDE8F0870000E6
:103470002020200A00000000202020004D5055365A
:1034800030353020416363656C2028206720202977
:103490003A20252E32662573252E32662573252E79
:1034A00032662573000000002DE9F0478EB0824699
:1034B00006220AA9432000F0C1FA9DF829009DF8D0
:1034C000281040EA012000B2ADF830009DF82B0032
:1034D0009DF82A1040EA012000B2ADF832009DF8B4
:1034E0002D009DF82C1040EA012000B2ADF8340008
:1034F000BDF93000FDF7BEF805462549FCF7C2FED0
:1035000004464FF08E41FCF7EFFECAF80000BDF90B
:103510003200FDF7AFF805461D49FCF7B3FE04463F
:103520004FF08E41FCF7E0FECAF80400BDF934000C
:10353000FDF7A0F805461649FCF7A4FE04464FF037
:103540008E41FCF7D1FECAF80800DAF80800FDF752
:10355000F6F804460D46DAF80400FDF7F0F80646E2
:103560000F46DAF80000FDF7EAF8804609A0CDE939
:103570000645089009A0CDE90267049009A04246DB
:103580000B46009008A0FEF7E7F80EB0BDE8F08704
:103590000000FA442020202020200A0020202020A3
:1035A00000000000202020004D50553630353020DE
:1035B0004779726F20202864707320293A20252EC5
:1035C00032662573252E32662573252E32662573C5
:1035D000000000002DE9F0478EB0824606220AA9BD
:1035E000492000F02BFA9DF829009DF8281040EAA8
:1035F000012000B2ADF830009DF82B009DF82A1094
:1036000040EA012000B2ADF832009DF82D009DF88F
:103610002C1040EA012000B2ADF83400BDF93000B2
:10362000FDF728F88046FDF78AF806464FF0663227
:10363000274BFCF73EFF0446FDF794F8CAF800005C
:10364000BDF93200FDF716F88046FDF778F806461A
:103650004FF066321E4BFCF72CFF0446FDF782F854
:10366000CAF80400BDF93400FDF704F88046FDF700
:1036700066F806464FF06632154BFCF71AFF044613
:10368000FDF770F8CAF80800DAF80800FDF757F8F7
:1036900004460D46DAF80400FDF751F806460F46D9
:1036A000DAF80000FDF74BF880460AA0CDE90645A0
:1036B00008900AA0CDE9026704900AA042460B4692
:1036C000009009A0FEF748F80EB0BDE8F0870000B2
:1036D000666611402020202020200A002020202083
:1036E00000000000202020004D505536303530209D
:1036F0004D61672020202864707320293A20252EF0
:1037000032662573252E32662573252E3266257383
:10371000000000002DE9F04F89B000F0DEF804A9A8
:10372000A22000F007F90DF11201A42000F002F927
:1037300005A9A62000F0FEF80DF11601A82000F062
:10374000F9F806A9AA2000F0F5F80DF11A01AC204D
:1037500000F0F0F803A9482000F0CEF802A95820A4
:1037600000F0CAF8BDF818000299A1EB0024BDF8DA
:103770001A000022E317A0FB041702FB047200FBEF
:103780000320420242EAD1504FF4FA6140180890F7
:103790000898FCF76FFF37490190FCF7A5FD8346B9
:1037A000FCF7CDFF07463A460B4633A0FDF7D4FFA2
:1037B000BDF812100020000440EA11400A04BDF8D0
:1037C000161000274FEAE47CA1FB043807FB0487AE
:1037D00001FB0C77D90941EA4761551840EBE71620
:1037E000BDF810104FF000004FEAC03040EA5140E1
:1037F0004FEAC132BDF814104FF000074FEAE47CE5
:10380000A1FB043807FB048701FB0C774FEA132167
:1038100041EA076112EB010940EB272A4FF0000152
:103820004A460398A0FB023C01FB09C100FB0A11B8
:103830004FEA535040EAC1204FEA61520146491B0A
:1038400062EB0600420442EAD13007900798FCF789
:1038500011FF11490190FCF747FD8346FCF76FFF0C
:1038600007463A460B460DA0FDF776FF079809B0CC
:10387000BDE8F08F0000C8424D533536313120206D
:1038800054656D7020202843657320293A20252E29
:1038900032662020200A0000000020414D533536BA
:1038A00031312020507265737320286D6261722956
:1038B0003A20252E326620200A0000000021002236
:1038C00000BF07E0002201E0531C9AB28242FBDBFA
:1038D0004B1C99B28142F5DB704710B500F042FCF9
:1038E0004FF47A70FFF7EAFF1E2000F066F84FF4FD
:1038F0007A70FFF7E3FF10BD38B505460C46284641
:1039000000F05BF84FF49670FFF7D8FF002000F04E
:1039100054F80321684600F025F89DF800000004E3
:103920009DF8011040EA01209DF802100843206034
:1039300038BD000038B505460C4609A00068009067
:10394000284600F03AF80221684600F00BF89DF88E
:1039500001009DF8001040EA0120208038BD0000E1
:103960000101000070B504460D464FF4005600BF3B
:1039700000F0A0FCEF2000F067FC05E01EB9042079
:1039800000F044F870BD761E00F0D0FC0028F5D1A0
:103990000FE0012D06D1002000F028FC207000F07F
:1039A000A7FC04E0012000F021FC2070641C681ECC
:1039B000C5B2002DEDD10120E4E770B505464FF406
:1039C000005400F077FCEE2000F03EFC05E01CB94E
:1039D000012000F01BF870BD641E00F0A7FC002859
:1039E000F5D14FF40054284600F02EFC05E01CB938
:1039F000022000F00BF8EEE7641E00F097FC0028B0
:103A0000F5D100F075FC0120E5E7000010B5044693
:103A1000214602A0FDF7A0FE002010BD4D53353613
:103A2000313120B5C8B4FDB3ACCAB1A3A16572727F
:103A30006F72436F6465203D25640A002DE9F041F3
:103A400007460D4616464FF4805400F017FBD02071
:103A500000F0E4FA06E024B9022000F075F8BDE8B1
:103A6000F081641E00F03EFB0028F4D14FF4805436
:103A7000384600F0D3FA05E01CB9032000F064F8E2
:103A8000EDE7641E00F02EFB0028F5D14FF48054C2
:103A900000F0F4FAD12000F0C1FA05E01CB90520CD
:103AA00000F052F8DBE7641E00F01CFB0028F5D1A3
:103AB0000FE0012E06D1002000F086FA287000F0F9
:103AC000F7FA04E0012000F07FFA28706D1C701EE8
:103AD000C6B2002EEDD10120C1E770B506460D46F5
:103AE0004FF4805400F0CAFAD02000F097FA05E0B5
:103AF0001CB9012000F028F870BD641E00F0F2FA35
:103B00000028F5D14FF48054304600F087FA05E0E4
:103B10001CB9022000F018F8EEE7641E00F0E2FA8B
:103B20000028F5D1284600F079FA05E01CB90320F9
:103B300000F00AF8E0E7641E00F0D4FA0028F5D19E
:103B400000F0B6FA0120D7E710B50446214602A0DE
:103B5000FDF702FE002010BD4D50553630353020A7
:103B6000B5C8B4FDB3ACCAB1A3A16572726F72439C
:103B70006F6465203D25640A00000000A2B00020AB
:103B80000F90109000F049FE13A911A800F0E4FD79
:103B900021E011A913A8FFF795FA13A909A8FEF7C8
:103BA00065FF05A913A800F04DFE0FA805A9CDE9F2
:103BB0000210DDE90D01CDE9000109A80FC8FEF7EB
:103BC00007FE13A90FA800F053F813A8FFF7F2FAA5
:103BD00015A801F011F8DCE72DE9F04704460D4681
:103BE0001646A968A068FCF74DFB804669686068C6
:103BF000FCF748FB814629682068FCF743FB8246B6
:103C00004946FCF7E7FA07464146FCF7E3FA30601D
:103C1000A9686069FCF736FB804669682069FCF793
:103C200031FB81462968E068FCF72CFB8246494657
:103C3000FCF7D0FA07464146FCF7CCFA7060A96859
:103C4000206AFCF71FFB80466968E069FCF71AFBF5
:103C500081462968A069FCF715FB82464946FCF7B6
:103C6000B9FA07464146FCF7B5FAB060BDE8F087FF
:103C70002DE9F0478CB0044689464FF0000AB4F9AC
:103C80000400FCF705FD054600228D4BFCF711FCF6
:103C9000CDE90801B4F90200FCF7FAFC0546002260
:103CA000884BFCF706FCCDE90401B4F90000FCF7F1
:103CB000EFFC0022824BCDE90001FCF7FAFB054640
:103CC0000E46B4F90600FCF7E3FC07462A463346E5
:103CD000FCF748FBCDE90201DDE90423FCF742FBD8
:103CE000CDE90601DDE90823FCF73CFBCDE90A013B
:103CF000FCF70CFDA9F80800B4F90400FCF7C8FCB7
:103D0000054600226F4BFCF7D4FBCDE90801B4F95E
:103D10000200FCF7BDFC054600226A4BFCF7C9FB1C
:103D2000CDE90401B4F90000FCF7B2FC0022654BB8
:103D3000CDE90001FCF7BDFB05460E46B4F90600CF
:103D4000FCF7A6FC07462A463346FCF70BFBCDE9F9
:103D50000201DDE90423FCF705FBCDE90601DDE9FD
:103D60000823FCF7FFFACDE90A01FCF7CFFCA9F81C
:103D70000A00B4F90400FCF78BFC05460022504B06
:103D8000FCF797FBCDE90801B4F90200FCF780FCD1
:103D9000054600224A4BFCF78CFBCDE90401B4F93F
:103DA0000000FCF775FC0022464BCDE90001FCF752
:103DB00080FBCDE90201B4F90600FCF769FC054679
:103DC000DDE90223FCF7CEFA0746DDE90423FCF720
:103DD000C9FACDE90601DDE90823FCF7C3FACDE90C
:103DE0000A01FCF793FCA9F80C00B4F90400FCF7F5
:103DF0004FFC05460022334BFCF75BFBCDE9080185
:103E0000B4F90200FCF744FC054600222C4BFCF7F9
:103E100050FBCDE90401B4F90000FCF739FC05467C
:103E20000022274BFCF745FB07468846B4F90600FD
:103E3000FCF72EFC3A464346CDE90001FCF792FA26
:103E4000CDE90201DDE90423FCF78CFACDE9060196
:103E5000DDE90823FCF786FACDE90A01FCF756FCF8
:103E6000A9F80E00B9F8081017A0FDF775FCB9F80D
:103E70000A1018A0FDF770FCB9F80C1018A0FDF797
:103E80006BFCB9F80E1019A0FDF766FC00BF10E03E
:103E900009F1080030F81A00B0F5FA6F05DD4FF4AB
:103EA000FA6109F1080020F81A100AF1010000F087
:103EB000FF0ABAF1040FEBDB0CB0BDE8F08700009D
:103EC0000000E0BF0000E03FD2BBBAC5A3BA256442
:103ED0000A000000B6FEBAC5A3BA25640A000000B5
:103EE000C8FDBAC5A3BA25640A000000CBC4BAC590
:103EF000A3BA25640A00000010B540210C48FCF765
:103F000082FE80210A48FCF780FE0120FEF7E2FED7
:103F100080210748FCF777FE0120FEF7DBFE4021F9
:103F20000348FCF772FE0120FEF7D4FE10BD00002E
:103F3000000C014008B501210820FDF753F82020AE
:103F4000ADF8000001208DF8020048208DF8030034
:103F500069460D48FCF7C3FD14208DF8030080204E
:103F6000ADF8000069460848FCF7B9FD4020ADF8FF
:103F7000000014208DF8030069460348FCF7AFFDEC
:103F800000F096F808BD0000000C014010B580213B
:103F90000C48FCF738FE40210A48FCF736FE0120A9
:103FA000FEF798FE80210748FCF72FFE0120FEF760
:103FB00091FE80210348FCF726FE0120FEF78AFED1
:103FC00010BD0000000C014070B50546002400261D
:103FD00018E06006040E80210F48FCF716FE012051
:103FE000FEF778FE40210C48FCF704FE08B1601C87
:103FF000C4B280210848FCF706FE0120FEF76AFEE5
:10400000701CC6B2082EE4DB15B9FFF7BFFF01E054
:10401000FFF772FF204670BD000C014070B50446EA
:10402000002526E004F0800020B140211248FCF772
:10403000ECFD03E040211048FCF7E5FD0120FEF710
:1040400049FE80210C48FCF7E0FD0120FEF742FE0E
:1040500080210948FCF7D7FD072D03D140210648F0
:10406000FCF7D3FD6006040E0120FEF733FE681C4A
:10407000C5B2082DD6DB70BD000C014010B5402143
:104080000A48FCF7C2FD80210848FCF7BEFD042069
:10409000FEF720FE40210548FCF7B5FD0420FEF7A1
:1040A00019FE80210148FCF7AEFD10BD000C014057
:1040B00010B580210A48FCF7A6FD40210848FCF70E
:1040C000A2FD0420FEF706FE80210548FCF79DFDB9
:1040D00040210348FCF799FD0420FEF7FBFD10BDCD
:1040E000000C014010B540210E48FCF78EFD012068
:1040F000FEF7F0FD80210B48FCF787FD0120FEF75D
:10410000E9FD40210748FCF775FD08B1012400E0F6
:10411000002480210348FCF776FD0120FEF7DAFD3C
:10412000204610BD000C014010B54FF480610C48D2
:10413000FCF769FD4FF400610948FCF764FD0220BB
:10414000FEF7C8FD4FF480610548FCF75EFD0220D4
:10415000FEF7C0FD4FF480610148FCF754FD10BD2F
:10416000000C014008B501210820FCF73BFF482066
:104170008DF8030001208DF802004002ADF8000028
:1041800069460848FCF7ABFC14208DF803004FF497
:104190004060ADF8000069460248FCF7A0FC00F062
:1041A000A7F808BD000C014010B54FF480610E481F
:1041B000FCF729FD4FF400610B48FCF726FD0120B8
:1041C000FEF788FD4FF480610748FCF71EFD0120D3
:1041D000FEF780FD4FF480610348FCF714FD0120D9
:1041E000FEF778FD10BD0000000C014070B50546DB
:1041F000002400261BE06006040E4FF48061114885
:10420000FCF703FD0220FEF765FD4FF400610D4849
:10421000FCF7F0FC08B1601CC4B24FF4806109489F
:10422000FCF7F1FC0120FEF755FD701CC6B2082E0C
:10423000E1DB15B9FFF7B8FF01E0FFF775FF204696
:1042400070BD0000000C014070B5044600252BE055
:1042500004F0800028B14FF400611548FCF7D5FC4C
:1042600004E04FF400611248FCF7CDFC0120FEF79A
:1042700031FD4FF480610E48FCF7C7FC0120FEF7CA
:1042800029FD4FF480610A48FCF7BDFC072D04D1DD
:104290004FF400610648FCF7B8FC6006040E0120EC
:1042A000FEF718FD681CC5B2082DD1DB70BD0000FB
:1042B000000C014010B54FF400610C48FCF7A5FC60
:1042C0004FF480610948FCF7A0FC0420FEF702FDD2
:1042D0004FF400610548FCF796FC0420FEF7FAFC59
:1042E0004FF480610148FCF78EFC10BD000C0140CA
:1042F00010B54FF480610C48FCF785FC4FF4006169
:104300000948FCF780FC0420FEF7E4FC4FF48061D0
:104310000548FCF77AFC4FF400610348FCF775FC94
:104320000420FEF7D7FC10BD000C014010B54FF47F
:1043300000611048FCF769FC0120FEF7CBFC4FF44C
:1043400080610C48FCF761FC0120FEF7C3FC4FF4D0
:1043500000610848FCF74EFC08B1012400E000248D
:104360004FF480610348FCF74EFC0120FEF7B2FCDD
:10437000204610BD000C01402DE9F0410546002605
:1043800000240CE055F8241055F82400FBF77AFFC0
:1043900080463146FBF71EFF0646601CC4B2032C64
:1043A000F0DB3046FEF754FE0746002408E055F8DF
:1043B00024003946FBF766FF45F82400601CC4B2B0
:1043C000032CF4DBBDE8F08110B500F08FF900F0AC
:1043D00061F910BD2DE9FC410446684600F048FB38
:1043E00000287DD09DF800109DF8012041EA0220B0
:1043F000FCF740F980464FF08B41FBF775FF07460D
:104400004349FBF73FFF06464149FBF7E3FE0546FC
:10441000FCF768F920809DF802109DF8032041EA1E
:104420000220FCF727F980464FF08B41FBF75CFF39
:1044300007463749FBF726FF06463549FBF7CAFE14
:104440000546FCF74FF960809DF804109DF80520A3
:1044500041EA0220FCF70EF980464FF08B41FBF752
:1044600043FF07462A49FBF70DFF06462849FBF79D
:10447000B1FE0546FCF736F9A0809DF806109DF8C0
:10448000072041EA0220FCF7F5F880464FF08B4107
:10449000FBF72AFF07461E49FBF7F4FE06461C49B8
:1044A000FBF798FE0546FCF71DF9E0802088A0F593
:1044B0007A704FF6FF7101EA400020806088A0F515
:1044C0007A7001EA40006080A088A0F57A7001EA65
:1044D0004000A080E088A0F57A7001EA400000E08A
:1044E00014E0E08021880BA20BA0FDF735F961886C
:1044F00008A20EA0FDF730F9A18806A210A0FDF7D2
:104500002BF9E18803A213A0FDF726F9BDE8FC8191
:1045100000007A440A0000005241D3D2CAD6B8B192
:10452000D2EDA3BA25642573000000004C45D7F3F3
:10453000CAD6C9FDBDB5A3BA256425730000000025
:104540005254D3D2CAD6D3CDC3C5A3BA25642573DA
:10455000000000004C52D7F3CAD6B7BDCFF2A3BAC1
:104560002564257300000000014600207047F0B567
:1045700087B0002400250026002701210846FCF70B
:1045800021FD0020ADF81600ADF8120040F65F10D6
:10459000ADF814004720ADF8100000208DF8180089
:1045A00004A94FF08040FCF7F9FF6020ADF800004F
:1045B0000120ADF802000020ADF80800ADF806407B
:1045C00069464FF08040FCF785FEADF8065069461D
:1045D0004FF08040FCF7D4FEADF8066069464FF01E
:1045E0008040FCF72DFFADF8067069464FF0804023
:1045F000FCF780FF0821C806FCF7B8FE0821C806B2
:10460000FCF710FF0821C806FCF76AFF0821C8065E
:10461000FCF7AEFF01218807FCF750FE07B0F0BDA4
:1046200008B501210420FCF7DDFC18208DF80300FB
:1046300003208DF802000120ADF8000069461448FF
:10464000FCF74DFA0220ADF8000069461048FCF76F
:1046500046FA0420ADF8000069460D48FCF73FFA21
:104660000820ADF8000069460948FCF738FA012136
:104670000748FCF7C8FA02210548FCF7C4FA0421F0
:104680000348FCF7C0FA08210148FCF7BCFA08BD52
:104690000008014000B585B001210803FCF7A2FC29
:1046A0001020ADF80C000020ADF80800ADF80600B1
:1046B0000720ADF810000020ADF80400ADF80000B0
:1046C000ADF80E004FF48270ADF802004FF40070A8
:1046D000ADF80A0069460448FCF718FD01210248BC
:1046E000FCF7FAFC05B000BD0030014008B501211F
:1046F0000420FCF777FC01210846FCF773FC182026
:104700008DF8030001208DF80200E020ADF80000D4
:1047100069460F48FCF7E3F910208DF80300ADF867
:10472000000069460A48FCF7DAF90220ADF80000FB
:1047300069460848FCF7D3F948208DF803000120AA
:10474000ADF8000069460348FCF7C9F908BD000050
:1047500000080140000C01402DE9FF4705460E46C8
:10476000002002900390009001904FF40077002405
:1047700042E0002028550021E81C01552EE006F1FA
:104780001000FEF7FDFD06F11C00FEF78DFE02A9EC
:1047900031F81400FBF777FF814606F1100050F85E
:1047A00024104846FBF716FD8046FBF79BFF02A945
:1047B00021F814003DF81400FBF765FF814606F16F
:1047C0001C0050F824104846FBF704FD8046FBF718
:1047D00089FF80B22DF81400781E87B2002FCED149
:1047E00002A830F81400401228553DF81400411278
:1047F000E81C0155601CC4B2032CBADBBDE8FF877E
:10480000C169026AC2610162026982F000414269C3
:1048100082F0004202614161704710B5FEF754FA20
:1048200000F0C4F9FEF78FFDFEF724FDFEF775FDDD
:10483000FFF753F800F08EF800F0EEF800F0D0F932
:1048400010BD00002DE9F04704460D461426304601
:10485000FBF710FF81463107FBF714FD8046144932
:10486000FBF742FD07462188A1F57A70FBF702FFAE
:1048700080463946FBF706FD28606188A1F57A700D
:10488000FBF7F8FE80463946FBF7FCFC6860E188E0
:10489000A1F57A70FBF7EEFE80463946FBF7F2FC95
:1048A000A860A088FBF7EFFEE860BDE8F087000095
:1048B0000000FA4400B5254B21F0004287B09A422F
:1048C00003DC0022134600922BE0214B9A4208D1D0
:1048D00040B94FF00100FDF793FAFDF772FA07B007
:1048E00000BD03DBFDF76AFA07B000BD02AAFCF7C2
:1048F00057FF10F003014FF001000DD0012914D033
:1049000002291AD00DF1080C9CE80F00FDF70CF9F4
:1049100007B081F0004100BD0DF1080C00909CE84B
:104920000F00FDF7D5F907B000BD0DF1080C9CE8AC
:104930000F00FDF7F9F807B000BD0DF1080C00906D
:104940009CE80F00FDF7C4F9E2E70000FB21E93F16
:104950000000F07F10B5FFF737FD10210148FCF78C
:1049600054F910BD000801402DE9F04105460E46FE
:10497000174610210C48FCF746F929460B4800F071
:10498000D1F88046002406E00021084800F0CAF86B
:104990003055601CC4B2BC42F6DB10210248FCF763
:1049A00034F94046BDE8F081000801400030014084
:1049B00070B5044610210948FCF725F9214608483E
:1049C00000F0B0F80021064800F0ACF805461021D0
:1049D0000248FCF71AF9284670BD000000080140A3
:1049E0000030014070B504460D4610210848FCF720
:1049F0000AF92146074800F095F806462946054879
:104A000000F090F810210248FCF7FFF8304670BD26
:104A1000000801400030014010B502211248FCF7A7
:104A2000F2F8052211492A2000F058F8012121202E
:104A3000FFF7D8FF01212220FFF7D4FF28212520EE
:104A4000FFF7D0FF08213120FFF7CCFF0F212620F0
:104A5000FFF7C8FF0F212020FFF7C4FF0221024803
:104A6000FCF7D3F810BD0000000C0140140000203A
:104A700070B50546642602211748FCF7C6F808E021
:104A80003000A6F10101CEB203D1FFF76DFDC0B237
:104A900070BD01211048FCF7ADF80028F0D10221CB
:104AA0000D48FCF7B0F80720FFF782FF04462146C7
:104AB0002720FFF797FF04F0400050B10822294655
:104AC0006120FFF751FFFF21E220FFF78BFF01205C
:104AD000DEE70020DCE70000000C01402DE9F0419A
:104AE00005460E46174610210C48FCF78CF829465F
:104AF0000B4800F017F88046002405E0315D0848B7
:104B000000F010F8601CC4B2BC42F7DB102103486F
:104B1000FCF77BF84046BDE8F0810000000801404A
:104B20000030014070B505460E46642407E0601E63
:104B3000C4B224B9002000F021F8C0B270BD022137
:104B40002846FCF7D5FA0028F1D031462846FCF774
:104B5000DBFA642407E0601EC4B224B9012000F02F
:104B60000DF8C0B2EAE701212846FCF7C1FA002897
:104B7000F1D02846FCF7C5FAC0B2DFE710B504460D
:104B8000214602A0FCF7E8FD002010BD535049204B
:104B9000B5C8B4FDB3ACCAB121206572726F72435F
:104BA0006F6465203D2025640A00000008B50121DE
:104BB0000820FCF717FA03208DF8020010208DF86A
:104BC00003000001ADF8000069460448FBF787FFC9
:104BD0004FF480710148FCF716F808BD000C014045
:104BE00010B5FFF71DFDFFF7C2FC10BD10B5FEF7B5
:104BF00049F8FEF727F810BD10B504460B480068C9
:104C000098B121884FF08040FCF7BFFC61884FF0DD
:104C10008040FCF7BCFCA1884FF08040FCF7B9FC59
:104C2000E1884FF08040FCF7B6FC10BD200000206A
:104C30000000010002000100030001000200010069
:104C40000400010002000100030001000200010055
:104C50000500010002000100030001000200010044
:104C60000400010002000100030001000200010035
:104C70000600010002000100030001000200010023
:104C80000400010002000100030001000200010015
:104C90000500010002000100030001000200010004
:104CA00004000100020001000300010002000100F5
:104CB00007000100020001000300010002000100E2
:104CC00004000100020001000300010002000100D5
:104CD00005000100020001000300010002000100C4
:104CE00004000100020001000300010002000100B5
:104CF00006000100020001000300010002000100A3
:104D00000400010002000100030001000200010094
:104D10000500010002000100030001000200010083
:104D20000400010002000100030001000200010074
:104D30004C5555555555A53F7751C1166CC156BFB9
:104D40009015CB19A001FA3EAD529C804F7E92BEC9
:104D5000C4B1B4BD9EEE213ED43888BEE9FAA8BDE8
:104D600000004054FB21F93F3163621A61B4D03D29
:104D70000000601A61B4D03D7370032E8A19A33B02
:104D80000000002E8A19A33BC14920259A837B3954
:104D900000000000000000006E83F9A22915444EB7
:104DA000D15727FCC0DD34F5999562DB4190433C37
:104DB000AB6351FE61C5BBDE3A6E24B7E0D24D4213
:104DC000EA2E49061C92D1091CEB1DFE3EA729B113
:104DD000F53582E88444BB2E26709CE9417E5FB4A1
:104DE00039D69139F43953838B5F849C3B28F9BDC4
:104DF000FF97F81F0F9805DE8B112FEF1F6D0A5AD2
:104E0000CF7E366DB709CB27663F464F2DEA5F9EB2
:104E1000C7BA27757BF1E5EBF739073DEA92528A6D
:104E2000B15FFB6B085D8D1FA6F810111111813F5A
:104E3000D561C119A0012ABF7DFEB157E31DC73E50
:104E4000EB9C2B8AE6E55ABE7CD5CF5A3AD9E53D94
:104E5000704E000800000020BC000000E01D0008AB
:104E60002C4F0008BC00002084250000F01D000825
:104E70000000000001020304010203040607080900
:104E800002040608344310100134431010010000DE
:104E90000000000000000000000000000000000012
:104EA0000000000000000000000000000000000002
:104EB00000000000000000000000000000000000F2
:104EC00000000000000000000000000000000000E2
:104ED00000000000000000000000000000000000D2
:104EE00000000000000000000000000000000000C2
:104EF00000000000000000000000000000000000B2
:104F000000000000000000000000000000000000A1
:104F10000000803F000000000000000000000000D2
:0C4F200000000000000000000000000085
:04000005080000ED02
:00000001FF
