:020000040800F2
:1000000010260020010100080F0B0008070B000854
:100010000B0B0008D1090008591600080000000069
:100020000000000000000000000000006510000853
:10003000D5090008000000006F01000851110008F8
:100040001B0100081B0100081B0100081B01000820
:100050001B0100081B0100081B0100081B01000810
:100060001B0100081B0100081B0100081B01000800
:100070001B0100081B0100081B0100081B010008F0
:100080001B0100081B0100081B0100081B010008E0
:100090001B0100081B0100081B0100081B010008D0
:1000A0001B0100081B0100081B0100081B010008C0
:1000B0001B0100081B0100081B0100081B010008B0
:1000C0001B0100081B0100081B0100081B010008A0
:1000D0001B0100081B0100081B0100081B01000890
:1000E0001B0100081B0100081B010008DFF80CD0F1
:1000F00000F04AFC00480047112A000810260020A2
:100100000648804706480047FEE7FEE7FEE7FEE7B1
:10011000FEE7FEE7FEE7FEE7FEE7FEE76111000807
:10012000ED000008EFF3108072B6704780F310887E
:1001300070471F484FF0FF010170002080F30988CD
:100140001C48016881F308881B48012101701B4885
:100150004FF08051016062B6FEE718484FF08051C1
:100160000160704715484FF080510160704772B6CA
:10017000EFF3098028B1203880E8F00F10490968B2
:10018000086000B50F4880475DF804EB0E480F4942
:100190000A7802700A480E490A680260106890E8FE
:1001A000F00F203080F309884EF0040E62B67047DD
:1001B00022ED00E0200000204E00002004ED00E0D1
:1001C000540000201D0C00084300002044000020C3
:1001D0005C000020F0B480EA0102D40F4200B2EBD0
:1001E000410F02D20246084611464A0042D0C30DD2
:1001F000DDB2C1F3C752AD1A202D35DAC1F31601B5
:1002000041F4000204B15242C5F1200602FA06F19F
:100210002A411044B3EBD05F23D0C4B1012DA0EB31
:10022000C35009DCF0BC4FF0004202EAC352DBB21B
:1002300000F5000000F0ECBA400000F1807000EB27
:10024000C350A0F1807040EAD170490009E049082C
:1002500041EAC071A0EBC35000F50000400800EB7C
:10026000C350F0BC00F0CBBA6142012202EB410165
:10027000001BF6E7F0BC704781F00041AAE780F070
:100280000040A7E780EA010210B502F000434000F9
:1002900022D04A001FD0010E01EB1261C0F35600BC
:1002A000C2F3560240F4000042F40002A0FB022018
:1002B00000047F39140400D0401C50EA124001D4DD
:1002C0004000491EC2B20C0604EBD010401C40088E
:1002D000802A02D003E0002010BD20F00100002998
:1002E00000DA0020184310BD30B480EA010202F0A9
:1002F000004530F0004221F0004013D090B1C30D12
:10030000D40DC2F31601C0F31600E41A41F4000143
:1003100040F400027D34914201D3641C00E04900A6
:10032000002C02DA30BC002070474FF4000000239C
:10033000914201D3891A034340084FEA4101F7D1A2
:1003400051B1914202D14FF0004105E002D24FF08D
:10035000010101E06FF0010103EBC450284430BCFF
:1003600000F04DBA2DE9FE4F804681EA0300C00F30
:100370000C46009021F0004123F00045B8EB02004C
:10038000A94105D24046214690461C460B460246EE
:1003900023F00040104347D0270DC7F30A00C3F3F2
:1003A0000A510290401A019040286BDAC3F31300FF
:1003B00040F4801B0098924620B10023D2EB030A40
:1003C00063EB0B0B01985946C0F14002504600F018
:1003D000F5F906460D4650465946019A00F0FDF9DA
:1003E00010EB08006141002487EA115284EAE773A8
:1003F0001A4340D0009A62B3019A012A4FEA075289
:1004000015DC001B61EB02014FF0004202EA0752CB
:10041000CDE90042001C41F5801132462B4600F028
:1004200034FA03B0BDE8F08F40462146F9E7001BDF
:1004300061EB0201001C41F5801300185B4120189C
:10044000A2F5001747EB030140EAD570B6196D41DC
:1004500011E06D084FEA360645EAC0754FEA0752CB
:10046000001B61EB0201001C41F5801149084FEAB5
:1004700030000019514132462B4603B0BDE8F04F21
:1004800000F0F4B90098012240000023D0EB0202F2
:1004900063EBE073009821464FEAE074B8EB00008C
:1004A00061EB0401E9E783F000435BE781F0004181
:1004B00058E72DE9FE4F81EA030404F0004421F0DF
:1004C000004100944FF0000B23F0004350EA010478
:1004D0005ED052EA03045BD0C3F30A54C1F30A5559
:1004E0002C44A4F2F3340194A0FB0254C1F3130191
:1004F00041F48011C3F3130343F4801301FB02445E
:1005000000FB034E840A970A44EA815447EA835762
:10051000A4FB076802958D0A05FB07854FEA932C1B
:1005200004FB0C542705029D4FEA065847EA16378C
:10053000B5EB08056EEB070C870E920E47EA8117A4
:1005400042EA8312A7FB0201B6EB0B0164EB000445
:100550002B0D43EA0C335E1844EB1C50DA4651462F
:10056000E7FB0201C5F313044FEA0B3343EA1453CC
:100570004FEA0432019C43EA0603A4F10C040294FE
:10058000009CCDE900B400F080F903B0BDE8F08F25
:1005900000200146F9E72DE9F04D81EA030404F05B
:1005A000004B21F0004514464FF0000A23F00041B3
:1005B00050EA050220D054EA01021DD0C5F30A57C3
:1005C0000246C5F31303C1F31300C1F30A5640F406
:1005D000801543F48013A7EB0608101BD64608F2DB
:1005E000FD3873EB050002D308F1010801E0921811
:1005F0005B41B8F1000F03DA00200146BDE8F08D41
:1006000000204FF48011064684460EE0171B73EB62
:10061000050705D3121B63EB050306434CEA010CE7
:1006200049084FEA300092185B4150EA0107EDD1CA
:1006300052EA030012D082EA040083EA050108436B
:1006400005D0101BAB4106D20122002306E0002298
:100650004FF0004302E06FF0010253101AEB060066
:100660004CEB085110EB0A0041EB0B01BDE8F04DDB
:1006700000F0FCB8C10F80EAE0700844CA07962376
:10068000002100F0C5B80EB5C10F80EAE070084443
:10069000CA07002140F233438DE80E000A460B469C
:1006A00000F0F3F803B000BD20F00040C10DC0F32E
:1006B000160040F400007F2901DA002070479629D7
:1006C00003DCC1F19601C8407047963988407047F5
:1006D00000F0004230F000400AD0C10D01F5607119
:1006E000C0F3160042EA0151C208400711437047A7
:1006F00000200146704701F0004330B421F0004172
:1007000050EA010206D00A0DA2F56072C1F313018E
:10071000002A02DC30BC00207047440F44EAC104C8
:10072000C100E01830BC00EBC25000F068B830B532
:100730000B46014600202022012409E021FA02F59F
:100740009D4205D303FA02F5491B04FA02F5284439
:10075000151EA2F10102F1DC30BD2DE9F05F054666
:10076000002092469B4688460646814640241BE070
:10077000284641464746224600F018F953465A4655
:10078000C01A914110D311461846224600F016F8BF
:100790002D1A67EB01084F4622460120002100F088
:1007A0000DF817EB00094E41201EA4F10104DFDC17
:1007B000484631462A464346BDE8F09F202A04DBDE
:1007C000203A00FA02F1002070479140C2F1200364
:1007D00020FA03F3194390407047202A06DBCB1719
:1007E000203A41FA02F043EAE07306E041FA02F3EC
:1007F000D040C2F1200291400843194670470029B9
:10080000A8BF7047401C490008BF20F00100704796
:1008100010B4B0FA80FC00FA0CF050EA010404BFF6
:1008200010BC704749B1CCF1200421FA04F411FA4C
:100830000CF118BF012121430843A3EB0C01CB1D90
:100840004FEA00614FEA102042BF002010BC704701
:1008500000EBC35010440029A4BF10BC7047401CDB
:10086000490008BF20F0010010BC704710B5141EED
:1008700073F1000408DA401C41F1000192185B4159
:100880001A4301D120F0010010BD2DE9F04D924630
:100890009B4611B1B1FA81F202E0B0FA80F2203247
:1008A0009046FFF78BFF04460F4640EA0A0041EAF4
:1008B0000B0153465A46084313D0114653EA010030
:1008C00019D0C8F14002504600F070F805460E46B7
:1008D000504659464246FFF771FF084305D00120B4
:1008E00004E020463946BDE8F08D0020054346EA85
:1008F000E0762C4337430A986305E40AA0EB08002E
:100900000022FD0A44EA47540A3002D5002001467D
:10091000E9E7010510196941DDE908450019694158
:10092000BDE8F04DA2E7C1F30A52C1F3130140F252
:10093000FF3341F480119A4202DA002001467047E9
:1009400040F233439A42A2F2334202DC524200F0B8
:100950002DB8FFF733BF000030B5041E71F100045D
:1009600004DB4FF00044404264EB0101141E73F1BC
:10097000000405DB1C464FF00043524263EB0403C6
:10098000994208BF904230BD064C074D06E0E06832
:1009900040F0010394E8070098471034AC42F6D3C6
:1009A000FFF7A8FB5437000874370008202A04DB3F
:1009B000203A21FA02F00021704721FA02F3D040D8
:1009C000C2F12002914008431946704770477047B2
:1009D00000BFFEE770472DE9F041024600250026E2
:1009E000002000230024002791F803C00CF00F051D
:1009F00091F803C00CF0100CBCF1000F03D091F87B
:100A000002C04CEA050591F800C0BCF1000F31D0DE
:100A1000146800202BE04FF0010C0CFA00F3B1F841
:100A200000C00CEA03069E4220D183004FF00F0C59
:100A30000CFA03F7BC4305FA03FC4CEA040491F8F2
:100A400003C0BCF1280F06D14FF0010C0CFA00FCDA
:100A5000C2F814C00AE091F803C0BCF1480F05D1F8
:100A60004FF0010C0CFA00FCC2F810C0401C082822
:100A7000D1D31460B1F800C0BCF1FF0F34DD54686D
:100A800000202EE000F1080C4FF0010808FA0CF3EA
:100A9000B1F800C00CEA03069E4221D183004FF05A
:100AA0000F0C0CFA03F7BC4305FA03FC4CEA0404F0
:100AB00091F803C0BCF1280F05D100F1080C08FA29
:100AC0000CF8C2F8148091F803C0BCF1480F07D1AC
:100AD00000F1080C4FF0010808FA0CF8C2F8108079
:100AE000401C0828CED35460BDE8F08102460020A7
:100AF00093680B400BB1012000E00020704741617A
:100B000070470161704700BFFEE700BFFEE7704716
:100B100006480078012808D105480078FF2804D24B
:100B200003480078401C0249087070474E000020BE
:100B30004100002010B500241A480078012830D167
:100B4000FFF7F0FA04461848007820B116480078FC
:100B5000401E1549087014480078F8B91348007809
:100B6000E0B900F0A7F912481249097850F82100BD
:100B7000114908600F4800781049097888420DD063
:100B80000D480068C06A401C0B490968C8620C48DF
:100B90000068401C0A490860FFF7E4FA2046FFF7A6
:100BA000C5FA10BD4E000020410000204200002088
:100BB00048150020440000205C0000204300002075
:100BC0002800002070B5044600252078032801D0B5
:100BD000012070BDFFF7A6FA0546A07A60B1002398
:100BE00001221946204600F0B1F82846FFF79EFA88
:100BF00000F026F90020ECE720894FF6FF718842CB
:100C000007D22089401C20812846FFF78FFA002058
:100C1000DFE72846FFF78AFA3320DAE710B5FFF757
:100C2000D5FE10BD70B5002600F072F8FFF77AFA15
:100C3000064631480068401C2F4908603046FFF7DF
:100C400075FA2E480078012853D12D48007820B13C
:100C5000012804D0022809D103E001250BE000257A
:100C600009E0012501202649087004E00125002043
:100C70002349087000BF00BF05B970BD2148046852
:100C800033E0FFF74FFA0646206A50B3206A401E51
:100C90002062206A28BB94F8240000F0370040B19D
:100CA00014F8240F00F0C800207001206070243C6C
:100CB00002E0002084F8250094F8240000F00800E9
:100CC00078B92834A0781049097808430E4908708B
:100CD00020780E49085C6178084314F828190B4AFB
:100CE000505464683046FFF721FA94F826003F28F4
:100CF000C7D100BFC1E70000740000204E000020F3
:100D00006400002060000020450000204600002014
:100D100010B5FFF75CFE07480088401C05490880B5
:100D200008460088642803DB0020088000F004F8EF
:100D300010BD00002400002010B503480068FFF734
:100D400041FF0446204610BD840000202DE9F04FED
:100D500005460F4690469946A87A1C490E5C05F157
:100D60000B00805D11F800B00BEBC60000F0FF0A2D
:100D7000174850F82A4000201434E0602760207C97
:100D800020EA0800207484F81190207C143C00F0C4
:100D9000080068B994F82A000E49097808430D49FB
:100DA00008700D48805D94F8291008430A49885559
:100DB0002946204600F012F8206920B1204621691A
:100DC00000F021F8E5605046BDE8F08F523600088B
:100DD00048150020450000204600002010B590F87E
:100DE000282001F10B039B5C90F82940A34301F1FB
:100DF0000B04A35423469B5C23B98B7A90F82A40BA
:100E0000A3438B7210BDF0B5024612F8284F9578B7
:100E10005678283A0B4618680FE000F10B073F5D43
:100E2000B74300F10B0C0CF8047067463F5D17B92F
:100E3000877AAF4387721B1D18680028EDD1F0BD7B
:100E400010B50024FFF76EF9044613480078F8B98E
:100E500012480078E0B900F02DF8114811490978DE
:100E600050F82100104908600E4800780F490978B1
:100E700088420DD00C480068C06A401C0A490968C5
:100E8000C8620B480068401C09490860FFF765F913
:100E90002046FFF74BF910BD410000204200002022
:100EA00048150020440000205C0000204300002082
:100EB000280000200649074A1278885C0649095C28
:100EC000034A515C01EBC001044A117070470000F5
:100ED0005236000845000020460000204400002053
:100EE00029B1064AD2690243044BDA6104E0034A9D
:100EF000D2698243014BDA61704700000010024062
:100F000029B1064A92690243044B9A6104E0034AFC
:100F100092698243014B9A617047000000100240C1
:100F200030B500210022002400232D4D6D6805F00E
:100F30000C0121B1042905D0082923D105E0294D50
:100F4000056022E0274D05601FE0254D6D6805F422
:100F50007012234D6D6805F48034022505EB924232
:100F60001CB9214D554305600BE01D4D6D6805F41E
:100F700000351DB11C4D5543056002E0194D554328
:100F8000056002E0174D056000BF00BF144D6D689D
:100F900005F0F0010909154D6B5C0568DD40456001
:100FA0000F4D6D6805F4E061090A104D6B5C4568F2
:100FB000DD4085600A4D6D6805F46051C90A0B4D2E
:100FC0006B5C4568DD40C560054D6D6805F44041CA
:100FD000890B074D6B5CC568B5FBF3F5056130BD4A
:100FE0000010024000127A0000093D0000000020BD
:100FF0001000002021B1028842F04002028004E08B
:1010000002884FF6BF731A400280704702460020E4
:1010100013890B400BB1012000E00020704701460E
:10102000888970478181704710B50022028802F4D8
:1010300041520B884C8823438C882343CC8823431C
:101040000C8923434C8923438C892343CC89234334
:101050001A430280838B4FF2FF74234083830B8AF1
:10106000038210BD704710B500F002F810BD0000FB
:101070000CB50020019000903348006840F48030A7
:101080003149086000BF3048006800F4003000902B
:101090000198401C0190009818B90198B0F5A06F14
:1010A000F1D12948006800F4003010B1012000900F
:1010B00001E0002000900098012843D123480068F7
:1010C00040F01000214908600846006820F0030045
:1010D00008600846006840F0020008601A4840684E
:1010E000194948600846406848600846406840F42E
:1010F000806048600846406820F47C1048600846DC
:10110000406840F4E81048600846006840F080708D
:10111000086000BF0C48006800F000700028F9D09B
:101120000948406820F003000749486008464068C5
:1011300040F00200486000BF0348406800F00C0027
:101140000828F9D10CBD0000001002400020024028
:1011500010B5FFF7DDFCFFF765FDFFF7EBFC10BDF9
:1011600010B51348006840F00100114908600846B6
:101170004068104908400E494860084600680E491A
:1011800008400B4908600846006820F48020086089
:101190000846406820F4FE0048604FF41F00886055
:1011A000FFF761FF4FF000600449086010BD0000C8
:1011B000001002400000FFF8FFFFF6FE08ED00E01F
:1011C00021B1028842F00102028004E002884FF659
:1011D000FE731A400280704770B50024002200237D
:1011E000058C4FF6FE7635400584028C8388048B8F
:1011F0004FF68F752C40B51E2C400D882C43751E64
:101200002A400D892A434D882A43144DA8420BD009
:10121000134DA84208D0134DA84205D0124DA84244
:1012200002D0124DA84213D14FF6F7752A404D89CE
:101230002A434FF6FB752A408D882A434FF6FF65F7
:101240002B404FF6FF552B408D892B43CD892B43E7
:1012500083800483CD888586028470BD002C014084
:10126000003401400040014000440140004801407A
:101270000A460021018B4FF6F77319401143018391
:101280007047000070B5002400220023058C4FF643
:10129000EF7635400584028C8388048B48F6FF7511
:1012A0002C404FF6FF452C400D884FF6FF7606EA9E
:1012B00005252C434FF6DF752A400D8906EA0515F2
:1012C0002A434D8806EA05152A43154DA84202D047
:1012D000144DA8421DD14FF67F752A404D894FF617
:1012E000FF7606EA05152A434FF6BF752A408D881A
:1012F00006EA05152A434FF6FF352B404FF2FF75DE
:101300002B408D8906EA85052B43CD8906EA8505A4
:101310002B4383800483CD880587028470BD000041
:10132000002C0140003401400A460021018B4FF29D
:10133000FF7319404FF6FF7303EA02231943018339
:101340007047000070B5002400220023058C4FF682
:10135000FF6635400584028C8388848B4FF68F7539
:101360002C404FF6FC752C400D882C434FF6FF5552
:101370002A400D894FF6FF7606EA05252A434D8857
:1013800006EA05252A43154DA84202D0144DA8426D
:101390001DD14FF2FF752A404D894FF6FF7606EAC0
:1013A00005252A434FF6FF352A408D8806EA052594
:1013B0002A434EF6FF752B404DF6FF752B408D8965
:1013C00006EA05152B43CD8906EA05152B438380D4
:1013D0008483CD888587028470BD0000002C014085
:1013E000003401400A460021818B4FF6F773194003
:1013F000114381837047000070B500220023002450
:10140000058C4EF6FF7635400584038C8488828BEC
:1014100048F6FF752A404FF6FF452A400D884FF6E3
:10142000FF7606EA05252A434DF6FF752B400D8908
:1014300006EA05352B434D8806EA05352B430B4D4F
:10144000A84202D00A4DA84208D14BF6FF752C40A5
:101450008D894FF6FF7606EA85152C4384808283BA
:10146000CD88A0F84050038470BD0000002C0140DE
:10147000003401400A460021818B4FF2FF7319406E
:101480004FF6FF7303EA0223194381837047818675
:1014900070470187704781877047A0F840107047F8
:1014A000002202881D4B98420ED01D4B98420BD053
:1014B000B0F1804F08D01B4B984205D01A4B984290
:1014C00002D01A4B984204D14FF68F731A404B88C2
:1014D0001A43174B984207D0164B984204D04FF648
:1014E000FF431A40CB881A4302808B8883850B8880
:1014F00003850A4B98420BD0094B984208D00E4BFB
:10150000984205D00D4B984202D00D4B984201D124
:101510000B7A03860123838270470000002C014070
:10152000003401400004004000080040000C00406E
:101530000010004000140040004001400044014001
:101540000048014021B1828942F40052828104E0C6
:1015500082894DF6FF731A4082817047024600204F
:10156000B1F5007F00D100BF13880B400BB1012003
:1015700000E00020704700002DE9F04786B00546E6
:101580000E460024A24600BFA1460027B08900B144
:1015900000BF2F462C8A4CF6FF700440F0880443AD
:1015A0002C82AC894EF6F3100440B0883189084390
:1015B000718908430443AC81AC8A4FF6FF40044074
:1015C000B0890443AC8201A8FFF7AAFC1F488742F8
:1015D00002D1DDF810A001E0DDF80CA0A88900F42C
:1015E000004040B10AEBCA0000EB0A103168490024
:1015F000B0FBF1F807E00AEBCA0000EB0A10316813
:101600008900B0FBF1F86420B8FBF0F00401200978
:10161000642101FB1089A88900F4004040B1322008
:1016200000EBC900B0FBF1F000F00700044308E054
:10163000322000EB09106421B0FBF1F000F00F0044
:1016400004432C8106B0BDE8F0870000003801405B
:10165000C1F308028280704700BFFEE70FB4054B5C
:1016600010B503A9044A029800F0CAF810BC5DF84E
:1016700014FB0000212000088C00002002E008C8B4
:10168000121F08C1002AFAD170477047002001E0FC
:1016900001C1121F002AFBD1704700002DE9FF5F36
:1016A000DDE90220010DDDF838B0024318D044F620
:1016B0001050A1F2FF3141430D140F98012820D0A2
:1016C000A5EB0B00401C5FEA000A4FF00004474EF8
:1016D000DFF81C91A046504616D5CAF1000728E055
:1016E0000F98012443A2012808D0002100980F9BE5
:1016F000C0E90021C0E90243BDE8FF9F6FEA0B018A
:10170000F4E7CBF10000DEE7074612E0F80707D068
:101710002246334640464946FEF7CBFE8046894680
:101720002246334610461946FEF7C3FE04460E46CF
:101730007F10002FEAD1DDE90201BAF1000F424625
:101740004B4602DAFEF7B5FE01E0FEF724FF044641
:101750000E460022284BFFF7FFF803D84FF0FF306A
:10176000014607E00022254B20463146FEF7FAFDF0
:10177000FFF7D9F8102409E0002C0ADB0A22002325
:10178000FEF7EBFF019B30321A55641E50EA01024E
:10179000F2D1641C019AC4F1110314440F9A012A76
:1017A00003D0012208430DD10AE0084304D00020F1
:1017B0004FF0110B0F9080E7A3EB0B056D1E0DE0B2
:1017C0005B4504DD4FF0000205F1010504E003DA9A
:1017D0004FF00002A5F10105002AECD000980F9906
:1017E000C0E90231C0E9004586E70000000024405E
:1017F0000000F03F300000000000F0430000E03F38
:101800002DE9FF4F95B09B468946064600250FE21D
:10181000252877D100242746F84A0121059400E0C5
:10182000044316F8013F203B01FA03F01042F7D1C0
:1018300030782A2811D06FF02F033078A0F13002D1
:10184000092A16D8059A44F0020402EB820203EB3F
:1018500042021044761C0590EFE759F8042B0592DC
:10186000002A03DA504244F40054059044F0020484
:10187000761C30782E2816D116F8010F44F0040497
:101880002A280DD06FF02F023078A0F13003092BF9
:1018900009D807EB870302EB4303C718761CF3E76D
:1018A00059F8047B761C30786C280FD006DC4C2865
:1018B00017D068280DD06A2814D104E0742810D0FD
:1018C0007A280FD10DE044F400140AE044F48014A7
:1018D00001E044F440147278824202D104F580148D
:1018E000761C761C307866280BD013DC582877D00D
:1018F00009DC002875D04528F6D04628F4D04728C2
:101900001AD19DE118E0632835D0642879D0652884
:1019100012D195E1702873D008DC6728F1D06928CE
:101920006FD06E280DD06F2806D1B5E073282CD06B
:10193000752875D0782874D05A46179990476D1C31
:1019400075E1C4F30250022809D003280DD0D9F85C
:10195000001004280DD00D6009F1040967E1D9F8E1
:101960000010EA17C1E90052F6E7D9F800100D801F
:10197000F2E70D70F0E719F8041B8DF80010002055
:101980008DF80100EA46012003E059F804AB4FF05E
:10199000FF3061074FF0000102D40DE008F10101B2
:1019A0008846B9420FDA8045F8DB1AF8081000299A
:1019B000F4D108E008F1010188468142FADB1AF807
:1019C00008100029F6D105985B46A0EB08072146D0
:1019D0003846179A00F094FA284400EB080507E00F
:1019E0004DE029E10DE01AF8010B5A46179990478E
:1019F000B8F10108F7D25B4621463846179A13E141
:101A000042E00A220092C4F302524FF0000A022A76
:101A100008D059F804CB032A4FEAEC710AD00DE044
:101A200029E02AE009F1070121F00702F2E802C1EA
:101A3000914609E00FFA8CFC4FEAEC71042A03D1BD
:101A40004FFA8CFC4FEAEC71002907DA0A460021B4
:101A5000DCF1000C61EB02012D2202E0220504D52D
:101A60002B228DF80420012203E0E20701D020227E
:101A7000F7E7904659E00A2102E010220DE010211C
:101A80004FF0000A00910BE010224FF0000A44F0E2
:101A900004040827009203E008224FF0000A009295
:101AA000C4F30252022A05D059F804CB0021032ABC
:101AB00008D009E009F1070121F00702F2E802C1AC
:101AC000914605E01FFA8CFC042A01D10CF0FF0CB2
:101AD0004FF00008220728D5702806D0009B83F01D
:101AE000100353EA0A0305D00EE040228DF80420CB
:101AF000012208E05CEA010206D030228DF80420C1
:101B00008DF8050002229046009B83F0080353EAFB
:101B10000A030AD15CEA010201D1620705D530222D
:101B20008DF804204FF001087F1E582804D034A0FF
:101B300003900EA802900DE036A0F9E753466046E8
:101B4000009AFEF70AFE84460398825C0298401EC3
:101B5000029002705CEA0100F0D1029806A9081A0E
:101B600000F1200A600702D524F4803400E0012748
:101B7000574502DDA7EB0A0000E0002000EB0A0158
:101B8000009005984144401A0590E00306D45B4656
:101B90002146179A059800F0B3F90544002706E09E
:101BA00001A85A46C05D179990476D1C7F1C474598
:101BB000F6DBE0030CD55B462146179A059800F04A
:101BC0009FF9054404E030205A46179990476D1C50
:101BD0000099481E00900029F5DC08E0029802995F
:101BE0005A460078491C0291179990476D1CBAF12A
:101BF0000001AAF1010AF1DC65E1000009280100F9
:101C00003031323334353637383961626364656672
:101C10000000000030313233343536373839414234
:101C2000434445460000000000F058F90544761C86
:101C3000307800287FF4ECAD19B02846BDE8F08F6D
:101C4000620700D4062709F1070222F0070CFCE81E
:101C50000223E14603F000485FEA080C02D00FF2CD
:101C6000702C0DE05FEA045C02D50FF2682C07E0EF
:101C70005FEAC47C02D00FF2602C01E0AFF2700C7E
:101C80004FF0FF3823F00043CDF850C065280CD04A
:101C900006DC452809D046281DD047283DD13DE027
:101CA000662818D067287ED138E00021112F01DB8B
:101CB000112000E0781CCDE9000106A90EA8FFF76D
:101CC000EDFCDDE90F010E9A03910021009207F16E
:101CD000010A04914DE04FF000400097CDE901105A
:101CE00006A90EA8FFF7DAFCDDE90F0203920E9BAE
:101CF00011990022DDF80CA00093049211B9791C0F
:101D000000EB010AB7EB0A0004D4C0F1FF3007F181
:101D1000010A0490AAEB0700019044E0012F00DAC9
:101D200001270021112F01DD112000E03846CDE907
:101D3000000106A90EA8FFF7B1FCDDE90F010E9A1C
:101D40000391002104910092BA4621070CD4039913
:101D5000514500DA8A46BAF1010F05DD009AAAF171
:101D60000101515C302908D0B84202DA10F1040FA9
:101D700006DA0121CDE9011015E0AAF10101E9E738
:101D8000002805DC049901440491AAEB000102E05B
:101D9000411C514500DD8A460499401A401C0190BF
:101DA0004FF000400290200704D40198504501DB19
:101DB000CDF8048000208DF84F0002980DF14F07F8
:101DC000B0F1004F25D02B200E9002984FF0020862
:101DD00000280CDA404202902D200E9007E00A21E4
:101DE0000298FEF7A4FC3031029007F8011DB8F10B
:101DF0000001A8F10108F2DC02980028EFD1791E59
:101E00000E980870307800F0200040F0450007F888
:101E1000020D12A8C01B00F107081498007800B149
:101E2000012000EB0A01019801EBE07105984144A3
:101E3000401A401E0590E00306D45B462146179ADF
:101E4000059800F05DF805441498007818B15A46DA
:101E5000179990476D1CE00324D55B462146179ADD
:101E6000059800F04DF805441CE00498002807DBB5
:101E7000DDE90301884203DD0098405C179901E029
:101E8000179930205A469047049805F10105401CE7
:101E900004900198401E019004D12E205A461799B3
:101EA00090476D1CBAF10001AAF1010ADDDC05E0E2
:101EB00017F8010B5A46179990476D1CB8F10001AD
:101EC000A8F10108F4DC5B462146179A0598ABE6B9
:101ED0002D0000002B000000200000002DE9F04143
:101EE000044600251E461746880404D405E03946FA
:101EF0002020B0476D1C641EF9D52846BDE8F0814E
:101F00002DE9F041044600251E469046C80301D540
:101F1000302700E02027880404D505E041463846F4
:101F2000B0476D1C641EF9D52846BDE8F08100005D
:101F300010B502A0FFF792FB10BD0000446562756A
:101F4000672D75736172743120697320776F726BBE
:101F5000696E670A000000001FB501218803FEF7C3
:101F6000CFFF4FF4E13000900020ADF80C000C20C2
:101F7000ADF80A000020ADF80800ADF80600ADF895
:101F8000040069460348FFF7F7FA01210148FFF70B
:101F9000D9FA1FBD0038014008B501210420FEF721
:101FA000AFFF03208DF8020018208DF803004FF4D6
:101FB0000070ADF8000069460748FEF70CFD4FF4CD
:101FC0008060ADF8000004208DF8030069460248E7
:101FD000FEF701FD08BD00000008014010B501F04A
:101FE0001BFBFFF7A5FF10BD014601EBC1024FF03F
:101FF000E0235A6101221A6100229A6100BF4FF06A
:10200000E022106900F001021AB100F48032002AC7
:10201000F5D000224FF0E0231A619A61704700006A
:1020200070B504460D46E1B20548FFF711FB00BF4D
:1020300080210348FFF792FA0028F9D0204670BDAE
:102040000038014070B5044600F01BF8A8B104F157
:10205000100000F0ABF804F11C0000F03FF904F1AF
:10206000280000F079FA04F12C0000F0D3F900F018
:102070009DFA0546FEF7FEFAA063204600F062FFD7
:1020800070BD08B50020009001226946752000F05F
:102090001FFC9DF80000682801D1012008BD002028
:1020A000FCE710B520216A2000F061FC0821242003
:1020B00000F05DFC1321342000F059FC0121672061
:1020C00000F055FC1E21252000F051FC00212620A7
:1020D00000F04DFC0421632000F049FC8121272001
:1020E00000F045FC1E21252000F041FC01212620A6
:1020F00000F03DFCC021632000F039FC8121272045
:1021000000F035FC1E21252000F031FC02212620A4
:1021100000F02DFC0021632000F029FC8121272004
:1021200000F025FC10BD0020002100BF08E00021C8
:1021300001E04A1C91B2B1F57A7FFADB421C90B201
:10214000B0F57A7FF3DB704710B520216A2000F0EC
:102150000EFC0821242000F00AFC9E21252000F01E
:1021600006FC0321262000F002FC8621272000F037
:10217000FEFB10BD10B500F0BDFCFFF7D4FF002141
:102180006B2000F0F4FB0721192000F0F0FB062182
:102190001A2000F0ECFB00211C2000F0E8FB1821C5
:1021A0001B2000F0E4FBFFF76CFF10BD2DE9F047AA
:1021B0008EB0824606220AA93B2000F089FB9DF8DA
:1021C00029009DF8281040EA012000B2ADF8300047
:1021D0009DF82B009DF82A1040EA012000B2ADF8CE
:1021E00032009DF82D009DF82C1040EA012000B22D
:1021F000ADF83400BDF93000FEF73CFA05464FF06B
:102200008041FEF73FF804464FF08E41FEF76CF830
:10221000CAF80000BDF93200FEF72CFA05464FF06F
:102220008041FEF72FF804464FF08E41FEF75CF830
:10223000CAF80400BDF93400FEF71CFA05464FF059
:102240008041FEF71FF804464FF08E41FEF74CF830
:10225000CAF80800DAF80800FEF73AFA04460D4614
:10226000DAF80400FEF734FA06460F46DAF8000002
:10227000FEF72EFA804609A0CDE90645089008A091
:10228000CDE90267049009A042460B4600900AA0DF
:10229000FFF7E4F90EB0BDE8F087000020670A0000
:1022A0002067206163637A3A200000002067206184
:1022B0006363793A200000004D50553630353020A8
:1022C000616363783A20252E32662573252E3266A7
:1022D0002573252E32662573000000002DE9F04796
:1022E0008EB0824606220AA9432000F0F1FA9DF83A
:1022F00029009DF8281040EA012000B2ADF8300016
:102300009DF82B009DF82A1040EA012000B2ADF89C
:1023100032009DF82D009DF82C1040EA012000B2FB
:10232000ADF83400BDF93000FEF7A4F905462549A3
:10233000FDF7A8FF04464FF08E41FDF7D5FFCAF820
:102340000000BDF93200FEF795F905461D49FDF77D
:1023500099FF04464FF08E41FDF7C6FFCAF804000E
:10236000BDF93400FEF786F905461649FDF78AFFE8
:1023700004464FF08E41FDF7B7FFCAF80800DAF8BF
:102380000800FEF7A5F904460D46DAF80400FEF74A
:102390009FF906460F46DAF80000FEF799F98046E5
:1023A00009A0CDE90645089009A0CDE9026704908F
:1023B0000BA042460B4600900DA0FFF74FF90EB060
:1023C000BDE8F0870000FA446470730A0000000062
:1023D00020647073206779726F7A3A2000000000E1
:1023E00020647073206779726F793A2000000000D2
:1023F0004D505536303530206779726F783A202548
:102400002E32662573252E32662573252E326625DB
:10241000730000002DE9F0478EB0824606220AA91B
:10242000492000F055FA9DF829009DF8281040EA4F
:10243000012000B2ADF830009DF82B009DF82A1065
:1024400040EA012000B2ADF832009DF82D009DF861
:102450002C1040EA012000B2ADF83400BDF9300084
:10246000FEF708F98046FEF733F906464FF066326C
:10247000274BFEF71EF80446FEF73DF9CAF80000A8
:10248000BDF93200FEF7F6F88046FEF721F9064660
:102490004FF066321E4BFEF70CF80446FEF72BF9A0
:1024A000CAF80400BDF93400FEF7E4F88046FEF7F0
:1024B0000FF906464FF06632154BFDF7FAFF04465A
:1024C000FEF719F9CAF80800DAF80800FEF700F973
:1024D00004460D46DAF80400FEF7FAF806460F4601
:1024E000DAF80000FEF7F4F880460AA0CDE90645C8
:1024F00008900AA0CDE9026704900BA042460B4663
:1025000000900CA0FFF7AAF80EB0BDE8F08700001D
:10251000666611406465670A000000002064656714
:10252000206D61677A3A200020646567206D6167DD
:10253000793A20004D505536303530206D6167783E
:102540003A20252E32662573252E32662573252ED8
:1025500032662573000000002DE9F84F8246022202
:102560006946412000F0B4F99DF801009DF8001083
:1025700040EA01200FFA80FB5846FEF784F88046B7
:102580000022074BFEF707F80646064A064BFDF702
:10259000E9FE0446FEF7AFF8CAF80000BDE8F88F80
:1025A00000407540A4703D0AD74342402DE9F04FEA
:1025B00089B000F0DAF800F0C7F800287ED006A94C
:1025C000A22000F0FFF80DF11A01A42000F0FAF8A3
:1025D00007A9A62000F0F6F80DF11E01A82000F0D2
:1025E000F1F808A9AA2000F0EDF80DF12201AC20C5
:1025F00000F0E8F805A9482000F0C6F804A9582022
:1026000000F0C2F8BDF820000499A1EB0024BDF849
:1026100022000022E117A0FB043C02FB04C200FBE5
:102620000120410241EAD3504FF4FA6110EB010955
:102630004846FEF71FF839490190FDF755FE8346DD
:10264000FEF746F802460B46CDE9020134A0FFF73B
:1026500005F8BDF81A100020000440EA11400A04F1
:10266000BDF81E1000234FEAE47CA1FB04BE03FB6F
:1026700004E301FB0C334FEADB1141EA43615518D7
:1026800040EBE316BDF818104FF000004FEAC030E1
:1026900040EA51404FEAC132BDF81C104FF0000330
:1026A0004FEAE47CA1FB04BE03FB04E301FB0C3313
:1026B0004FEA1B2141EA0361571800E02CE040EB90
:1026C00023284FF000010598A0FB072301FB0731E9
:1026D00000FB08114FEA525040EAC1204FEA615214
:1026E0000146491B62EB0600420442EAD13A5046D9
:1026F000FDF7C0FF0F490190FDF7F6FD8346FDF79A
:10270000E7FF02460B46CDE902010BA0FEF7A6FF4C
:10271000504609B0BDE8F08F0020FAE70000C8423B
:102720006D7335363131CEC2B6C8A3BA252E3266A6
:10273000430A000000002041D1B9C1A6A3BA252E4A
:1027400032666D6261720A0001207047002100222A
:1027500000BF07E0002201E0531C9AB28242FBDB7B
:102760004B1C99B28142F5DB704710B500F0DAFAE4
:102770004FF47A70FFF7EAFF1E2000F068F84FF47C
:102780007A70FFF7E3FF10BD38B505460C462846C2
:1027900000F05DF84FF49670FFF7D8FF002000F0CE
:1027A00056F80321684600F025F89DF80000000463
:1027B0009DF8011040EA01209DF8021008432060B6
:1027C00038BD000038B505460C4609A000680090E9
:1027D000284600F03CF80221684600F00BF89DF80E
:1027E00001009DF8001040EA0120208038BD000063
:1027F0000101000070B504460D464FF4005600BFBD
:1028000000BF00BF00F036FBEF2000F0FDFA05E04E
:102810001EB9042000F044F870BD761E00F066FB7F
:102820000028F5D10FE0012D06D1002000F0BEFAFE
:10283000207000F03DFB04E0012000F0B7FA2070AA
:10284000641C681EC5B2002DEDD10120E4E770B50F
:1028500005464FF4005400F00DFBEE2000F0D4FAD2
:1028600005E01CB9012000F01BF870BD641E00F0EB
:102870003DFB0028F5D14FF40054284600F0C4FA7F
:1028800005E01CB9022000F00BF8EEE7641E00F032
:102890002DFB0028F5D100F00BFB0120E5E700003F
:1028A00010B50446214602A0FEF7D8FE002010BD58
:1028B0004D533536313120B5C8B4FDB3ACCAB1A3E0
:1028C000A16572726F72436F6465203D25640A00D2
:1028D0002DE9F04107460D4616464FF4805400F0AE
:1028E000ADF9D02000F07AF906E024B9022000F01A
:1028F00075F8BDE8F081641E00F0D4F90028F4D129
:102900004FF48054384600F069F905E01CB9032003
:1029100000F064F8EDE7641E00F0C4F90028F5D17A
:102920004FF4805400F08AF9D12000F057F905E007
:102930001CB9052000F052F8DBE7641E00F0B2F984
:102940000028F5D10FE0012E06D1002000F01CF97F
:10295000287000F08DF904E0012000F015F92870CE
:102960006D1C701EC6B2002EEDD10120C1E770B5FE
:1029700006460D464FF4805400F060F9D02000F078
:102980002DF905E01CB9012000F028F870BD641E87
:1029900000F088F90028F5D14FF48054304600F05B
:1029A0001DF905E01CB9022000F018F8EEE7641EDE
:1029B00000F078F90028F5D1284600F00FF905E07D
:1029C0001CB9032000F00AF8E0E7641E00F06AF981
:1029D0000028F5D100F04CF90120D7E710B50446E6
:1029E000214602A0FEF73AFE002010BD4D5055369C
:1029F00030353020B5C8B4FDB3ACCAB1A3A16572FF
:102A0000726F72436F6465203D25640A0000000008
:102A100092B04FF4FA64254600200190029000F035
:102A20009BFC13E003A8FFF70DFB03A901A800F02E
:102A30000FF806E001E0681E85B2002DFBD1601E94
:102A400084B2002CF6D105A800F0ECFDEAE7000006
:102A500070B505460C46A0882081A0886081A088BA
:102A6000A081A088E081218907A0FEF7F7FD618998
:102A700008A0FEF7F3FDA18909A0FEF7EFFDE189AB
:102A80000AA0FEF7EBFD70BDD2BBBAC5A3BA2564A0
:102A90000A000000B6FEBAC5A3BA25640A00000009
:102AA000C8FDBAC5A3BA25640A000000CBC4BAC5E4
:102AB000A3BA25640A00000010B540210C48FEF7B7
:102AC0001EF880210A48FEF71CF80120FFF78CFA57
:102AD00080210748FEF713F80120FFF785FA40210F
:102AE0000348FEF70EF80120FFF77EFA10BD000044
:102AF000000C014008B501210820FEF701FA202052
:102B0000ADF8000001208DF8020048208DF8030088
:102B100069460D48FDF75FFF14208DF80300802003
:102B2000ADF8000069460848FDF755FF4020ADF8B4
:102B3000000014208DF8030069460348FDF74BFFA1
:102B400000F096F808BD0000000C014010B580218F
:102B50000C48FDF7D4FF40210A48FDF7D2FF0120C1
:102B6000FFF742FA80210748FDF7CBFF0120FFF76E
:102B70003BFA80210348FDF7C2FF0120FFF734FA3A
:102B800010BD0000000C014070B505460024002671
:102B900018E06006040E80210F48FDF7B2FF012007
:102BA000FFF722FA40210C48FDF7A0FF08B1601C96
:102BB000C4B280210848FDF7A2FF0120FFF714FAF4
:102BC000701CC6B2082EE4DB15B9FFF7BFFF01E0A9
:102BD000FFF772FF204670BD000C014070B504463F
:102BE000002526E004F0800020B140211248FDF7C6
:102BF00088FF03E040211048FDF781FF0120FFF727
:102C0000F3F980210C48FDF77CFF0120FFF7ECF978
:102C100080210948FDF773FF072D03D140210648A5
:102C2000FDF76FFF6006040E0120FFF7DDF9681C59
:102C3000C5B2082DD6DB70BD000C014010B5402197
:102C40000A48FDF75EFF80210848FDF75AFF04207F
:102C5000FFF7CAF940210548FDF751FF0420FFF7AF
:102C6000C3F980210148FDF74AFF10BD000C014067
:102C700010B580210A48FDF742FF40210848FDF7C2
:102C80003EFF0420FFF7B0F980210548FDF739FF2A
:102C900040210348FDF735FF0420FFF7A5F910BDDB
:102CA000000C014010B540210E48FDF72AFF01201D
:102CB000FFF79AF980210B48FDF723FF0120FFF76A
:102CC00093F940210748FDF711FF08B1012400E006
:102CD000002480210348FDF712FF0120FFF784F94B
:102CE000204610BD000C014010B54FF480610C4827
:102CF000FDF705FF4FF400610948FDF700FF0220D2
:102D0000FFF772F94FF480610548FDF7FAFE0220E3
:102D1000FFF76AF94FF480610148FDF7F0FE10BD3E
:102D2000000C014008B501210820FEF7E9F8482011
:102D30008DF8030001208DF802004002ADF800007C
:102D400069460848FDF747FE14208DF803004FF44C
:102D50004060ADF8000069460248FDF73CFE00F017
:102D6000A7F808BD000C014010B54FF480610E4873
:102D7000FDF7C5FE4FF400610B48FDF7C2FE0120D0
:102D8000FFF732F94FF480610748FDF7BAFE0120E2
:102D9000FFF72AF94FF480610348FDF7B0FE0120E8
:102DA000FFF722F910BD0000000C014070B5054688
:102DB000002400261BE06006040E4FF480611148D9
:102DC000FDF79FFE0220FFF70FF94FF400610D4859
:102DD000FDF78CFE08B1601CC4B24FF48061094855
:102DE000FDF78DFE0120FFF7FFF8701CC6B2082E1C
:102DF000E1DB15B9FFF7B8FF01E0FFF775FF2046EB
:102E000070BD0000000C014070B5044600252BE0A9
:102E100004F0800028B14FF400611548FDF771FE01
:102E200004E04FF400611248FDF769FE0120FFF74E
:102E3000DBF84FF480610E48FDF763FE0120FFF7D9
:102E4000D3F84FF480610A48FDF759FE072D04D1ED
:102E50004FF400610648FDF754FE6006040E0120A1
:102E6000FFF7C2F8681CC5B2082DD1DB70BD0000A9
:102E7000000C014010B54FF400610C48FDF741FE15
:102E80004FF480610948FDF73CFE0420FFF7ACF8E1
:102E90004FF400610548FDF732FE0420FFF7A4F867
:102EA0004FF480610148FDF72AFE10BD000C01407F
:102EB00010B54FF480610C48FDF721FE4FF400611E
:102EC0000948FDF71CFE0420FFF78EF84FF48061DF
:102ED0000548FDF716FE4FF400610348FDF711FEAB
:102EE0000420FFF781F810BD000C014010B54FF42D
:102EF00000611048FDF705FE0120FFF775F84FF45B
:102F000080610C48FDF7FDFD0120FFF76DF84FF4DF
:102F100000610848FDF7EAFD08B1012400E0002443
:102F20004FF480610348FDF7EAFD0120FFF75CF8EC
:102F3000204610BD000C014010B500F0D7F900F09C
:102F4000A9F910BD2DE9FC410446684600F0A6FA37
:102F500000287DD04FF480714F48FDF7D2FD9DF8D9
:102F600000109DF8012041EA0220FDF783FB804616
:102F70004FF08B41FDF7B8F907464849FDF782F954
:102F800006464649FDF726F90546FDF78DFB2080EC
:102F90009DF802109DF8032041EA0220FDF76AFB2C
:102FA00080464FF08B41FDF79FF907463B49FDF7FF
:102FB00069F906463949FDF70DF90546FDF774FB39
:102FC00060809DF804109DF8052041EA0220FDF77D
:102FD00051FB80464FF08B41FDF786F907462F499C
:102FE000FDF750F906462D49FDF7F4F80546FDF7C3
:102FF0005BFBA0809DF806109DF8072041EA0220A7
:10300000FDF738FB80464FF08B41FDF76DF9074621
:103010002249FDF737F906462049FDF7DBF805465A
:10302000FDF742FBE0802088A0F57A704FF6FF7133
:1030300001EA400020806088A0F57A7001EA400033
:103040006080A088A0F57A7001EA4000A08000E0CE
:103050001DE0E088A0F57A7001EA4000E08010A051
:10306000FEF7FCFA218817A217A0FEF7F7FA61888D
:1030700014A21AA0FEF7F2FAA18812A21CA0FEF771
:10308000EDFAE1880FA21FA0FEF7E8FA02E022A005
:10309000FEF7E4FABDE8FC81000C014000007A4430
:1030A0000D0A20B4D3BBFAB6CBBDD3CAD5B5BDD2B9
:1030B000A3BFD8C6F7B8CBC1BFCAFDBEDDA3BA0A4D
:1030C000000000000A0000005241D3D2CAD6B8B1B5
:1030D000D2EDA3BA25642573000000004C45D7F358
:1030E000CAD6C9FDBDB5A3BA25642573000000008A
:1030F0005254D3D2CAD6D3CDC3C5A3BA256425733F
:10310000000000004C52D7F3CAD6B7BDCFF2A3BA25
:103110002564257300000000CAFDBEDDBDD3CAD5FD
:10312000CAA7B0DCA3ACC7EBBCECB2E9CFDFC2B737
:10313000C1ACBDD32E2E2E0A0000000010B50446EF
:10314000214602A0FEF78AFA002010BD6E726620AA
:10315000B5C8B4FDB3ACCAB1A3A16572726F7243B6
:103160006F6465203D25640A00000000F0B587B05B
:10317000002400250026002701210846FDF7B0FEA7
:103180000020ADF81600ADF8120040F65F10ADF863
:1031900014004720ADF8100000208DF8180004A995
:1031A0004FF08040FEF77CF96020ADF80000012070
:1031B000ADF802000020ADF80800ADF80640694601
:1031C0004FF08040FEF708F8ADF8065069464FF022
:1031D0008040FEF757F8ADF8066069464FF0804032
:1031E000FEF7B0F8ADF8067069464FF08040FEF784
:1031F00003F90821C806FEF73BF80821C806FEF7C8
:1032000093F80821C806FEF7EDF80821C806FEF776
:1032100031F901218807FDF7D3FF07B0F0BD0000A9
:1032200008B501210420FDF76BFE18208DF803007E
:1032300003208DF802000120ADF800006946144813
:10324000FDF7C9FB0220ADF8000069461048FDF704
:10325000C2FB0420ADF8000069460D48FDF7BBFB3A
:103260000820ADF8000069460948FDF7B4FB0121CC
:103270000748FDF744FC02210548FDF740FC042106
:103280000348FDF73CFC08210148FDF738FC08BD68
:103290000008014000B585B001210803FDF730FEAC
:1032A0001020ADF80C000020ADF80800ADF80600C5
:1032B0000720ADF810000020ADF80400ADF80000C4
:1032C000ADF80E004FF48270ADF802004FF40070BC
:1032D000ADF80A0069460448FDF7A6FE0121024840
:1032E000FDF788FE05B000BD0030014008B50121A2
:1032F0000420FDF705FE01210846FDF701FE182018
:103300008DF8030001208DF80200E020ADF80000E8
:1033100069460F48FDF75FFB10208DF80300ADF8FC
:10332000000069460A48FDF756FB0220ADF8000090
:1033300069460848FDF74FFB48208DF8030001203F
:10334000ADF8000069460348FDF745FB08BD0000E5
:1033500000080140000C014010B5FEF73FFE00F0F0
:103360003BF9FEF707FFFEF79CFEFEF7EDFEFFF7C9
:10337000FCF900F005F800F065F800F047F910BD21
:1033800010B5FFF7D9FD10210148FDF7BAFB10BDBC
:10339000000801402DE9F04105460E461746102170
:1033A0000C48FDF7ACFB29460B4800F0D1F88046ED
:1033B000002406E00021084800F0CAF83055601CDF
:1033C000C4B2BC42F6DB10210248FDF79AFB40462E
:1033D000BDE8F081000801400030014070B50446AE
:1033E00010210948FDF78BFB2146084800F0B0F892
:1033F0000021064800F0ACF8054610210248FDF710
:1034000080FB284670BD00000008014000300140EC
:1034100070B504460D4610210848FDF770FB2146A3
:10342000074800F095F806462946054800F090F850
:1034300010210248FDF765FB304670BD00080140D1
:103440000030014010B502211248FDF758FB05225B
:1034500011492A2000F058F801212120FFF7D8FF58
:1034600001212220FFF7D4FF28212520FFF7D0FFDC
:1034700008213120FFF7CCFF0F212620FFF7C8FFDE
:103480000F212020FFF7C4FF02210248FDF739FB7E
:1034900010BD0000000C01401400002070B505466E
:1034A000642602211748FDF72CFB08E03000A6F146
:1034B0000101CEB203D1FFF741FEC0B270BD0121C0
:1034C0001048FDF713FB0028F0D102210D48FDF74D
:1034D00016FB0720FFF782FF044621462720FFF74F
:1034E00097FF04F0400050B1082229466120FFF701
:1034F00051FFFF21E220FFF78BFF0120DEE70020D4
:10350000DCE70000000C01402DE9F04105460E46C5
:10351000174610210C48FDF7F2FA29460B4800F037
:1035200017F88046002405E0315D084800F010F8E7
:10353000601CC4B2BC42F7DB10210348FDF7E1FA7E
:103540004046BDE8F0810000000801400030014025
:1035500070B505460E46642407E0601EC4B224B967
:10356000002000F021F8C0B270BD02212846FDF70E
:103570004DFD0028F1D031462846FDF753FD642467
:1035800007E0601EC4B224B9012000F00DF8C0B2FB
:10359000EAE701212846FDF739FD0028F1D0284649
:1035A000FDF73DFDC0B2DFE710B50446214602A09D
:1035B000FEF754F8002010BD53504920B5C8B4FDA3
:1035C000B3ACCAB121206572726F72436F6465201B
:1035D0003D2025640A00000008B501210820FDF700
:1035E0008FFC03208DF8020010208DF803000001ED
:1035F000ADF8000069460448FDF7EDF94FF480711D
:103600000148FDF77EFA08BD000C014010B5FFF738
:1036100007FEFFF7ABFD10BD10B5FEF7BDFCFEF7D2
:103620009BFC10BD10B5044621884FF08040FDF78B
:103630002EFF61884FF08040FDF72BFFA1884FF0EF
:103640008040FDF728FFE1884FF08040FDF725FF1F
:1036500010BD000001000200010003000100020093
:10366000010004000100020001000300010002004B
:10367000010005000100020001000300010002003A
:10368000010004000100020001000300010002002B
:103690000100060001000200010003000100020019
:1036A000010004000100020001000300010002000B
:1036B00001000500010002000100030001000200FA
:1036C00001000400010002000100030001000200EB
:1036D00001000700010002000100030001000200D8
:1036E00001000400010002000100030001000200CB
:1036F00001000500010002000100030001000200BA
:1037000001000400010002000100030001000200AA
:103710000100060001000200010003000100020098
:10372000010004000100020001000300010002008A
:103730000100050001000200010003000100020079
:10374000010004000100020001000300010002006A
:103750000100000074370008000000209000000005
:103760007C16000804380008900000208025000026
:103770008C1600080000000001020304010203048B
:1037800006070809020406083443101001344310E8
:103790001001000000000000000000000000000018
:1037A0000000000000000000000000000000000019
:1037B0000000000000000000000000000000000009
:1037C00000000000000000000000000000000000F9
:1037D00000000000000000000000000000000000E9
:1037E00000000000000000000000000000000000D9
:1037F00000000000000000000000000000000000C9
:0438000000000000C4
:04000005080000ED02
:00000001FF
