:020000040800F2
:1000000070040020010100083B0C0008330C0008BC
:10001000370C0008FD0A0008051400080000000065
:10002000000000000000000000000000C50D0008F6
:10003000010B0008000000003D0C0008050F00083F
:100040001B0100081B0100081B0100081B01000820
:100050001B0100081B0100081B0100081B01000810
:100060001B0100081B0100081B0100081B01000800
:100070001B0100081B0100081B0100081B010008F0
:100080001B0100081B0100081B0100081B010008E0
:100090001B0100081B0100081B0100081B010008D0
:1000A0001B0100081B0100081B0100081B010008C0
:1000B0001B0100081B0100081B0100081B010008B0
:1000C0001B0100081B0100081B0100081B010008A0
:1000D0001B0100081B0100081B0100081B01000890
:1000E0001B0100081B0100081B010008DFF80CD0F1
:1000F00000F0C6FC00480047593700087004002093
:100100000648804706480047FEE7FEE7FEE7FEE7B1
:10011000FEE7FEE7FEE7FEE7FEE7FEE70D0F00085D
:10012000ED00000840EA01039B0703D009E008C97D
:10013000121F08C0042AFAD203E011F8013B00F8AC
:10014000013B521EF9D27047F0B480EA0102D40F8D
:100150004200B2EB410F02D20246084611464A0065
:1001600042D0C30DDDB2C1F3C752AD1A202D35DA2E
:10017000C1F3160141F4000204B15242C5F1200658
:1001800002FA06F12A411044B3EBD05F23D0C4B188
:10019000012DA0EBC35009DCF0BC4FF0004202EA95
:1001A000C352DBB200F5000000F047BB400000F195
:1001B000807000EBC350A0F1807040EAD17049001C
:1001C00009E0490841EAC071A0EBC35000F5000006
:1001D000400800EBC350F0BC00F026BB6142012296
:1001E00002EB4101001BF6E7F0BC704781F00041D3
:1001F000AAE780F00040A7E780EA010210B502F00C
:100200000043400022D04A001FD0010E01EB1261D2
:10021000C0F35600C2F3560240F4000042F400025C
:10022000A0FB022000047F39140400D0401C50EAD7
:10023000124001D44000491EC2B20C0604EBD0109B
:10024000401C4008802A02D003E0002010BD20F0AE
:100250000100002900DA0020184310BD30B480EA04
:10026000010202F0004530F0004221F0004013D0BE
:1002700090B1C30DD40DC2F31601C0F31600E41AF9
:1002800041F4000140F400027D34914201D3641C2A
:1002900000E04900002C02DA30BC002070474FF427
:1002A00000000023914201D3891A034340084FEA1A
:1002B0004101F7D151B1914202D14FF0004105E027
:1002C00002D24FF0010101E06FF0010103EBC450D5
:1002D000284430BC00F0A8BA2DE9FE4F804681EAE0
:1002E0000300C00F0C46009021F0004123F00045B0
:1002F000B8EB0200A94105D24046214690461C4673
:100300000B46024623F00040104347D0270DC7F3A9
:100310000A00C3F30A510290401A019040286BDA98
:10032000C3F3130040F4801B0098924620B10023D1
:10033000D2EB030A63EB0B0B01985946C0F1400264
:10034000504600F040FA06460D4650465946019A7E
:1003500000F058FA10EB08006141002487EA1152BE
:1003600084EAE7731A4340D0009A62B3019A012AE3
:100370004FEA075215DC001B61EB02014FF000420F
:1003800002EA0752CDE90042001C41F580113246D5
:100390002B4600F08FFA03B0BDE8F08F40462146AF
:1003A000F9E7001B61EB0201001C41F58013001806
:1003B0005B412018A2F5001747EB030140EAD57016
:1003C000B6196D4111E06D084FEA360645EAC07571
:1003D0004FEA0752001B61EB0201001C41F580113E
:1003E00049084FEA30000019514132462B4603B00C
:1003F000BDE8F04F00F04FBA009801224000002302
:10040000D0EB020263EBE073009821464FEAE07400
:10041000B8EB000061EB0401E9E783F000435BE720
:1004200081F0004158E72DE9FE4F81EA030404F012
:10043000004421F0004100944FF0000B23F00043F2
:1004400050EA01045ED052EA03045BD0C3F30A54BD
:10045000C1F30A552C44A4F2F3340194A0FB0254D6
:10046000C1F3130141F48011C3F3130343F4801368
:1004700001FB024400FB034E840A970A44EA8154BC
:1004800047EA8357A4FB076802958D0A05FB078599
:100490004FEA932C04FB0C542705029D4FEA0658A3
:1004A00047EA1637B5EB08056EEB070C870E920E80
:1004B00047EA811742EA8312A7FB0201B6EB0B0160
:1004C00064EB00042B0D43EA0C335E1844EB1C5024
:1004D000DA465146E7FB0201C5F313044FEA0B333A
:1004E00043EA14534FEA0432019C43EA0603A4F1A1
:1004F0000C040294009CCDE900B400F0DBF903B0D9
:10050000BDE8F08F00200146F9E72DE9F04D81EAC2
:10051000030404F0004B21F0004514464FF0000A9C
:1005200023F0004150EA050220D054EA01021DD018
:10053000C5F30A570246C5F31303C1F31300C1F311
:100540000A5640F4801543F48013A7EB0608101BED
:10055000D64608F2FD3873EB050002D308F1010816
:1005600001E092185B41B8F1000F03DA0020014668
:10057000BDE8F08D00204FF48011064684460EE061
:10058000171B73EB050705D3121B63EB050306432B
:100590004CEA010C49084FEA300092185B4150EADE
:1005A0000107EDD152EA030012D082EA040083EA87
:1005B0000501084305D0101BAB4106D201220023E0
:1005C00006E000224FF0004302E06FF001025310FA
:1005D0001AEB06004CEB085110EB0A0041EB0B0143
:1005E000BDE8F04D00F057B9C10F80EAE070084453
:1005F000CA079623002100F020B996230022114655
:1006000000F01BB90EB5C10F80EAE0700844CA07BC
:10061000002140F233438DE80E000A460B4600F0FD
:1006200049F903B000BD00F0004220F00040C10DC8
:10063000C0F3160040F400007F2901DA0020704763
:10064000962903DCC1F19601C84001E09639884043
:10065000002AF4D04042704720F00040C10DC0F3A2
:10066000160040F400007F2901DA00207047962927
:1006700003DCC1F19601C840704796398840704745
:10068000C1F30A5210B5C1F3130140F2FF3341F434
:1006900080119A4201DA002010BD40F233439A42A1
:1006A000A2F2334203DC524200F09CF810BD9040AD
:1006B00010BD00F0004230F000400AD0C10D01F53D
:1006C0006071C0F3160042EA0151C20840071143AD
:1006D000704700200146704701F0004330B421F01C
:1006E000004150EA010206D00A0DA2F56072C1F382
:1006F0001301002A02DC30BC00207047440F44EA9A
:10070000C104C100E01830BC00EBC25000F08CB84E
:10071000002801DBC0F10040002901DBC1F10041EC
:1007200081427047002801DBC0F10040002901DB55
:10073000C1F100418842704730B50B4601460020A8
:100740002022012409E021FA02F59D4205D303FA93
:1007500002F5491B04FA02F52844151EA2F1010214
:10076000F1DC30BD2DE9F05F0546002092469B4646
:1007700088460646814640241BE0284641464746B7
:10078000224600F02FF853465A46C01A914110D322
:1007900011461846224600F016F82D1A67EB01089C
:1007A0004F4622460120002100F00DF817EB00090A
:1007B0004E41201EA4F10104DFDC484631462A46A2
:1007C0004346BDE8F09F202A04DB203A00FA02F1FC
:1007D000002070479140C2F1200320FA03F319432F
:1007E00090407047202A04DB203A21FA02F00021D1
:1007F000704721FA02F3D040C2F120029140084331
:1008000019467047202A06DBCB17203A41FA02F03E
:1008100043EAE07306E041FA02F3D040C2F120025D
:1008200091400843194670470029A8BF7047401CF3
:10083000490008BF20F00100704710B4B0FA80FCF6
:1008400000FA0CF050EA010404BF10BC704749B133
:10085000CCF1200421FA04F411FA0CF118BF0121A3
:1008600021430843A3EB0C01CB1D4FEA00614FEA83
:10087000102042BF002010BC704700EBC350104452
:100880000029A4BF10BC7047401C490008BF20F0DD
:10089000010010BC704710B5141E73F1000408DA93
:1008A000401C41F1000192185B411A4301D120F034
:1008B000010010BD2DE9F04D92469B4611B1B1FAF1
:1008C00081F202E0B0FA80F220329046FFF77BFF1F
:1008D00004460F4640EA0A0041EA0B0153465A46D5
:1008E000084313D0114653EA010019D0C8F1400261
:1008F0005046FFF777FF05460E465046594642469A
:10090000FFF761FF084305D0012004E02046394687
:10091000BDE8F08D0020054346EAE0762C433743DE
:100920000A986305E40AA0EB08000022FD0A44EAE5
:1009300047540A3002D500200146E9E701051019A5
:100940006941DDE9084500196941BDE8F04DA2E7BC
:1009500070B521F0004303430CD0C1F30A550024C5
:10096000D5EB040564EB0403D617AD1AB34102DBE3
:100970000020014670BD201841EB025170BD2DE9E9
:10098000F04D00231A461B1A8A4103DB0020014662
:10099000BDE8F08DC1F30A52C1F3130141F4801593
:1009A0004FF0000BD10702D100186D41521E0027F5
:1009B000044640F2FF11384601EB620A3E4680468B
:1009C000024600204FF48011FFF70CFFC21971415D
:1009D000BB1846EB0100B4EB030C75EB000C04D321
:1009E000E41A65EB000517460E46241908F10100CC
:1009F0006D4180463428E3DDF91946EB0600091BFA
:100A0000A84103D24FF0FF32134601E00022134603
:100A10001BEB070046EB0A51BDE8F04DFFF73BBF6B
:100A2000C1F30A52C1F3130140F2FF3341F48011C4
:100A30009A4202DA00200146704740F233439A425C
:100A4000A2F2334202DC5242FFF7CCBEFFF7BBBE3C
:100A500030B5041E71F1000404DB4FF00044404245
:100A600064EB0101141E73F1000405DB1C464FF01A
:100A70000043524263EB0403994208BF904230BDE9
:100A8000064C074D06E0E06840F0010394E80700DB
:100A900098471034AC42F6D3FFF72CFB604C0008AB
:100AA000804C00080EB540F2334102910021CDE99F
:100AB00000110A460B46FFF7FDFE03B000BD70B5FE
:100AC000C1F30A5201F000450024C1F3130140F2C2
:100AD000FF3341F480119A4201DA002070BD40F2E8
:100AE00033439A42A2F2334203DC5242FFF77AFECA
:100AF00000E090402C43F1D0404270BD00BFFEE7C3
:100B000070472DE9F0410246002500260020002311
:100B10000024002791F803C00CF00F0591F803C0E2
:100B20000CF0100CBCF1000F03D091F802C04CEA9D
:100B3000050591F800C0BCF1000F31D01468002009
:100B40002BE04FF0010C0CFA00F3B1F800C00CEAF6
:100B500003069E4220D183004FF00F0C0CFA03F7DE
:100B6000BC4305FA03FC4CEA040491F803C0BCF151
:100B7000280F06D14FF0010C0CFA00FCC2F814C08B
:100B80000AE091F803C0BCF1480F05D14FF0010C09
:100B90000CFA00FCC2F810C0401C0828D1D3146025
:100BA000B1F800C0BCF1FF0F34DD546800202EE026
:100BB00000F1080C4FF0010808FA0CF3B1F800C07E
:100BC0000CEA03069E4221D183004FF00F0C0CFA71
:100BD00003F7BC4305FA03FC4CEA040491F803C094
:100BE000BCF1280F05D100F1080C08FA0CF8C2F886
:100BF000148091F803C0BCF1480F07D100F1080C34
:100C00004FF0010808FA0CF8C2F81080401C0828C0
:100C1000CED35460BDE8F0810246002093680B40BB
:100C20000BB1012000E00020704741617047016175
:100C3000704700BFFEE700BFFEE770477047000047
:100C400029B1064AD2690243044BDA6104E0034A3F
:100C5000D2698243014BDA61704700000010024004
:100C600029B1064A92690243044B9A6104E0034A9F
:100C700092698243014B9A61704700000010024064
:100C800030B500210022002400232D4D6D6805F0B1
:100C90000C0121B1042905D0082923D105E0294DF3
:100CA000056022E0274D05601FE0254D6D6805F4C5
:100CB0007012234D6D6805F48034022505EB9242D5
:100CC0001CB9214D554305600BE01D4D6D6805F4C1
:100CD00000351DB11C4D5543056002E0194D5543CB
:100CE000056002E0174D056000BF00BF144D6D6840
:100CF00005F0F0010909154D6B5C0568DD404560A4
:100D00000F4D6D6805F4E061090A104D6B5C456894
:100D1000DD4085600A4D6D6805F46051C90A0B4DD0
:100D20006B5C4568DD40C560054D6D6805F440416C
:100D3000890B074D6B5CC568B5FBF3F5056130BDEC
:100D40000010024000127A0000093D00000000205F
:100D50001000002021B1028842F04002028004E02D
:100D600002884FF6BF731A40028070470246002087
:100D700013890B400BB1012000E0002070470146B1
:100D8000888970478181704710B50022028802F47B
:100D900041520B884C8823438C882343CC882343BF
:100DA0000C8923434C8923438C892343CC892343D7
:100DB0001A430280838B4FF2FF74234083830B8A94
:100DC000038210BD704710B500F002F810BD00009E
:100DD0000CB50020019000903348006840F480304A
:100DE0003149086000BF3048006800F400300090CE
:100DF0000198401C0190009818B90198B0F5A06FB7
:100E0000F1D12948006800F4003010B101200090B1
:100E100001E0002000900098012843D12348006899
:100E200040F01000214908600846006820F00300E7
:100E300008600846006840F0020008601A484068F0
:100E4000194948600846406848600846406840F4D0
:100E5000806048600846406820F47C10486008467E
:100E6000406840F4E81048600846006840F0807030
:100E7000086000BF0C48006800F000700028F9D03E
:100E80000948406820F00300074948600846406868
:100E900040F00200486000BF0348406800F00C00CA
:100EA0000828F9D10CBD00000010024000200240CB
:100EB00030B50146B1F1807F01D3012030BD21F072
:100EC0007F40401E4FF0E022506150170022002862
:100ED00007DA13071D0E094B00F00F04241F1D55E0
:100EE00003E013071C0E064B1C5400BF00204FF0FC
:100EF000E0229061072010610020DFE718ED00E09C
:100F000000E400E010B501F03BFD10BD10B5134842
:100F1000006840F001001149086008464068104927
:100F200008400E494860084600680E4908400B49D1
:100F300008600846006820F4802008600846406881
:100F400020F4FE0048604FF41F008860FFF73BFF6D
:100F50004FF000600449086010BD0000001002401E
:100F60000000FFF8FFFFF6FE08ED00E021B1028867
:100F700042F00102028004E002884FF6FE731A403C
:100F80000280704770B5002400220023058C4FF6C4
:100F9000FE7635400584028C8388048B4FF68F756E
:100FA0002C40B51E2C400D882C43751E2A400D89FF
:100FB0002A434D882A43144DA8420BD0134DA84212
:100FC00008D0134DA84205D0124DA84202D0124DB0
:100FD000A84213D14FF6F7752A404D892A434FF6A0
:100FE000FB752A408D882A434FF6FF652B404FF64C
:100FF000FF552B408D892B43CD892B438380048360
:10100000CD888586028470BD002C014000340140EB
:101010000040014000440140004801400A460021D0
:10102000018B4FF6F773194011430183704700009D
:1010300070B5002400220023058C4FF6EF76354072
:101040000584028C8388048B48F6FF752C404FF68C
:10105000FF452C400D884FF6FF7606EA05252C4308
:101060004FF6DF752A400D8906EA05152A434D889B
:1010700006EA05152A43154DA84202D0144DA84290
:101080001DD14FF67F752A404D894FF6FF7606EA4F
:1010900005152A434FF6BF752A408D8806EA0515C7
:1010A0002A434FF6FF352B404FF2FF752B408D89B9
:1010B00006EA85052B43CD8906EA85052B43838007
:1010C0000483CD880587028470BD0000002C014098
:1010D000003401400A460021018B4FF2FF73194092
:1010E0004FF6FF7303EA02231943018370470000A0
:1010F00070B5002400220023058C4FF6FF663540B2
:101100000584028C8388848B4FF68F752C404FF6B4
:10111000FC752C400D882C434FF6FF552A400D8955
:101120004FF6FF7606EA05252A434D8806EA05258F
:101130002A43154DA84202D0144DA8421DD14FF2AA
:10114000FF752A404D894FF6FF7606EA05252A43AA
:101150004FF6FF352A408D8806EA05252A434EF6CC
:10116000FF752B404DF6FF752B408D8906EA05155E
:101170002B43CD8906EA05152B4383808483CD88D4
:101180008587028470BD0000002C014000340140BE
:101190000A460021818B4FF6F77319401143818372
:1011A0007047000070B5002200230024058C4EF625
:1011B000FF7635400584038C8488828B48F6FF7562
:1011C0002A404FF6FF452A400D884FF6FF7606EA83
:1011D00005252A434DF6FF752B400D8906EA053596
:1011E0002B434D8806EA05352B430B4DA84202D010
:1011F0000A4DA84208D14BF6FF752C408D894FF659
:10120000FF7606EA85152C4384808283CD88A0F87A
:101210004050038470BD0000002C014000340140A8
:101220000A460021818B4FF2FF7319404FF6FF737E
:1012300003EA02231943818370478186704701873F
:10124000704781877047A0F84010704700220288DD
:101250001D4B98420ED01D4B98420BD0B0F1804FE1
:1012600008D01B4B984205D01A4B984202D01A4B1B
:10127000984204D14FF68F731A404B881A43174B8C
:10128000984207D0164B984204D04FF6FF431A40BD
:10129000CB881A4302808B8883850B8803850A4B91
:1012A00098420BD0094B984208D00E4B984205D07B
:1012B0000D4B984202D00D4B984201D10B7A038618
:1012C0000123838270470000002C0140003401405C
:1012D0000004004000080040000C004000100040E6
:1012E000001400400040014000440140004801401B
:1012F00021B1828942F40052828104E082894DF654
:10130000FF731A408281704702460020B1F5007FCA
:1013100000D100BF13880B400BB1012000E000207A
:10132000704700002DE9F04786B005460E460024C0
:10133000A24600BFA1460027B08900B100BF2F46DA
:101340002C8A4CF6FF700440F08804432C82AC8950
:101350004EF6F3100440B088318908437189084380
:101360000443AC81AC8A4FF6FF400440B08904438B
:10137000AC8201A8FFF784FC1F48874202D1DDF848
:1013800010A001E0DDF80CA0A88900F4004040B1F5
:101390000AEBCA0000EB0A1031684900B0FBF1F813
:1013A00007E00AEBCA0000EB0A1031688900B0FBC5
:1013B000F1F86420B8FBF0F004012009642101FB7E
:1013C0001089A88900F4004040B1322000EBC90028
:1013D000B0FBF1F000F00700044308E0322000EB1E
:1013E00009106421B0FBF1F000F00F0004432C81E0
:1013F00006B0BDE8F087000000380140C1F30802E4
:101400008280704700BFFEE70FB4054B10B503A9FB
:10141000044A029800F004FC10BC5DF814FB0000C4
:10142000452E000868000020490050EAC12018BF7E
:1014300004204A0D18BF40F0010040F2FF72B2EBE9
:10144000515F08BF40F00200012808BF0520704727
:101450002DE9F74F144694B00021C4E90211159903
:10146000079121F00045C9498D4206DC1599C4E970
:10147000000117B00020BDE8F08FC549DFF814A3C4
:10148000A9423CDD0799C44E0029C44FC44A1599AE
:10149000534619DDFEF7C1FF554506D0C14AC24B80
:1014A000FEF7BBFFC4E900010AE04FF0D352BE4B88
:1014B000FEF7B3FF32463B46FEF7AFFFC4E900013B
:1014C00017B00120BDE8F08FFEF706FF554506D0A6
:1014D000B44AB54BFEF700FFC4E900010AE04FF043
:1014E000D352B14BFEF7F8FE32463B46FEF7F4FE10
:1014F000C4E9000117B04FF0FF30BDE8F08FAB49F1
:10150000A942159978DB21F0004183468846A84A14
:10151000A84BFEF788FF0022A74BFEF7DDFEFFF782
:10152000CEFA0990FFF76EF806460F469C4A5346DE
:10153000FEF779FF43465A46FEF772FF80468A4619
:10154000984A994B30463946FEF76DFF2A0D012522
:101550000B9242465346FEF763FF032DC4E9000198
:1015600039D00B98C1F30A51401A05EB45111139D6
:10157000814230DA9148C346784400EB0510CDF83B
:101580000CA00C90D0E9002330463946FEF74BFF03
:1015900002460B460491069058460399FEF73DFF1C
:1015A00080468A4602460B4658460399FEF735FFA9
:1015B000049B069AFEF731FF83460C980391394647
:1015C000D0E902233046FEF72EFF5A46039BFEF772
:1015D00024FF6D1CBDE707980028A2BF099817B02B
:1015E000BDE8F08F616881F000416160099817B033
:1015F0004042BDE8F08FFFE784461598C1F3130120
:10160000C0F30A50A0F2F5304FEA601800F01F0650
:10161000C6F12000139000200690079041F4801E30
:1016200005206D4676B1664A08EB00017A4452F80F
:10163000213002EB8101B3404A68139922FA01F18B
:10164000194305E05F4908EB0002794451F8221084
:10165000A1FB0E27A1FB0C131A449A4234BF0123AD
:10166000002303EB070A05EB8003D3E901B70F441E
:101670008F4234BF0121002193448B4411B1934523
:1016800002D903E0934501D2012100E00021C3E922
:1016900001B7514445F82010011EA0F10100C1DC42
:1016A0000298059F00F10050800F12900298DDE92A
:1016B00003568000FEF7A6FF834628460D91FFF7EC
:1016C000F1F96FF01D02FFF743F9CDE90E01304645
:1016D000FFF7E8F96FF03D02FFF73AF980468A46D6
:1016E0003846FFF7DFF96FF05D02FFF731F9074683
:1016F000424653461191FEF7EFFDDDE90E23FEF75A
:10170000EBFD5A460D9BFEF7E7FD00250E465A46B7
:1017100028460D9BFEF781FEDDE90E23FEF77DFED8
:1017200042465346FEF779FE3A46119BFEF778FE95
:10173000DFF898A0244A5346FEF775FE0746884610
:10174000234A244B31462846FEF76DFE3A4643466F
:10175000FEF7C2FD074688464FF0A8425346314681
:101760002846FEF760FE3A464346FEF7B5FD159A59
:1017700012F0004F04D0129A81F0004152421292AE
:10178000C4E90001129817B0BDE8F08FFB21E93FD2
:101790007CD90240FB21F93F7370032E8A19A33BC9
:1017A000000040543163621A61B4D03DFB213941DD
:1017B00083C8C96D305FE43F0000E03FF4350000AE
:1017C0007035000052350000182D4454FB21F93DBE
:1017D0003326A611460B113C2DE9FF4D21F00048A0
:1017E00007460C46B8F1795F08DAFFF768F9002878
:1017F00001BF0020324904B0BDE8F08D3A462346CF
:1018000010461946FEF70FFE054602462D480E46C5
:101810000B460621784400F05DF82A463346FEF771
:1018200002FEDDE9022382468B4638462146FEF75A
:10183000FAFD04460F4652465B4628463146FEF7FF
:10184000F2FD22463B46FEF7E8FD07468A464FF08A
:10185000FF3228463146FFF77BF81B4A90450ADAEB
:101860003A465346FEF7D9FD04B00022BDE8F04DDC
:10187000134BFEF7D5BD154A4245A8BFA8F5001584
:101880004FF00004B8BF124D22462B46FEF7C5FDAF
:101890000646884622462B4600200949FEF7BDFD34
:1018A00004460D463A46534630464146FEF7B5FDDE
:1018B00004B022462B46BDE8F04DFEF7B1BD000056
:1018C0000000F03F283300003333D33F0000E93FEE
:1018D0000000D23F2DE9F0414F1E00EBC701044646
:1018E000D1E9000115461E4637F006020DD02A4602
:1018F0003346FEF798FD7F1E04EBC703D3E90023B0
:10190000FEF7EAFC37F00602F1D1022F25D0042FB2
:1019100013D0062F18BFBDE8F0812A463346FEF7E4
:1019200082FDD4E90A23FEF7D7FC2A463346FEF7A8
:101930007AFDD4E90823FEF7CFFC2A463346FEF7AA
:1019400072FDD4E90623FEF7C7FC2A463346FEF7AC
:101950006AFDD4E90423FEF7BFFC2A463346FEF7AE
:1019600062FDD4E90223FEF7B7FC2A463346FEF7B0
:101970005AFDD4E90023BDE8F041FEF7ADBC0000FC
:101980002DE9FF4D054621F0004084B00C46B0F132
:10199000795F0BDA2846FFF747FD042808BF00F0FF
:1019A0006FF8284608B02146BDE8F08D2A460B4660
:1019B0001046FEF738FD06460F462A462346FEF738
:1019C00032FD804626488A4632463B460521784409
:1019D000FFF780FF83461098029160B3214A224BA3
:1019E00040465146FEF71FFDCDE900015A464046EC
:1019F0005146029BFEF717FD82468846DDE9060147
:101A00004FF0FF32FEF7A4FF52464346FEF705FDB6
:101A100032463B46FEF707FDDDE90623FEF7FDFCF7
:101A2000DDE90023FEF7F9FC08B02A462346BDE8AD
:101A3000F04DFEF7F5BC0B465A4630463946FEF7E8
:101A4000F2FC084A084BFEF747FC42465346FEF7B5
:101A5000EAFC08B02A462346BDE8F04DFEF73CBC40
:101A600066320000495555555555C5BF0122FEF750
:101A70006FBF0022134610461146FEF746BD000018
:101A8000024A00201107FEF763BF000001FDFFFFBF
:101A900002E008C8121F08C1002AFAD17047704737
:101AA000002001E001C1121F002AFBD17047000095
:101AB00001490860704700006C0000202DE9FF5FBD
:101AC000DDE90220010DDDF838B0024318D044F6FC
:101AD0001050A1F2FF3141430D140F98012820D07E
:101AE000A5EB0B00401C5FEA000A4FF00004474ED4
:101AF000DFF81C91A046504616D5CAF1000728E031
:101B00000F98012443A2012808D0002100980F9BC0
:101B1000C0E90021C0E90243BDE8FF9F6FEA0B0165
:101B2000F4E7CBF10000DEE7074612E0F80707D044
:101B30002246334640464946FEF775FC80468946B4
:101B40002246334610461946FEF76DFC04460E4603
:101B50007F10002FEAD1DDE90201BAF1000F424601
:101B60004B4602DAFEF75FFC01E0FEF7CEFC0446CE
:101B70000E460022284BFEF76BFF03D84FF0FF30D4
:101B8000014607E00022254B20463146FEF7A4FB24
:101B9000FEF746FF102409E0002C0ADB0A2200238E
:101BA000FEF7E0FD019B30321A55641E50EA010237
:101BB000F2D1641C019AC4F1110314440F9A012A52
:101BC00003D0012208430DD10AE0084304D00020CD
:101BD0004FF0110B0F9080E7A3EB0B056D1E0DE08E
:101BE0005B4504DD4FF0000205F1010504E003DA76
:101BF0004FF00002A5F10105002AECD000980F99E2
:101C0000C0E90231C0E9004586E700000000244039
:101C10000000F03F300000000000F0430000E03F13
:101C20002DE9FF4F95B09B468946064600250FE2F9
:101C3000252877D100242746F84A0121059400E0A1
:101C4000044316F8013F203B01FA03F01042F7D19C
:101C500030782A2811D06FF02F033078A0F13002AD
:101C6000092A16D8059A44F0020402EB820203EB1B
:101C700042021044761C0590EFE759F8042B0592B8
:101C8000002A03DA504244F40054059044F0020460
:101C9000761C30782E2816D116F8010F44F0040473
:101CA0002A280DD06FF02F023078A0F13003092BD5
:101CB00009D807EB870302EB4303C718761CF3E749
:101CC00059F8047B761C30786C280FD006DC4C2841
:101CD00017D068280DD06A2814D104E0742810D0D9
:101CE0007A280FD10DE044F400140AE044F4801483
:101CF00001E044F440147278824202D104F5801469
:101D0000761C761C307866280BD013DC582877D0E8
:101D100009DC002875D04528F6D04628F4D047289D
:101D20001AD19DE118E0632835D0642879D0652860
:101D300012D195E1702873D008DC6728F1D06928AA
:101D40006FD06E280DD06F2806D1B5E073282CD047
:101D5000752875D0782874D05A46179990476D1C0D
:101D600075E1C4F30250022809D003280DD0D9F838
:101D7000001004280DD00D6009F1040967E1D9F8BD
:101D80000010EA17C1E90052F6E7D9F800100D80FB
:101D9000F2E70D70F0E719F8041B8DF80010002031
:101DA0008DF80100EA46012003E059F804AB4FF03A
:101DB000FF3061074FF0000102D40DE008F101018E
:101DC0008846B9420FDA8045F8DB1AF80810002976
:101DD000F4D108E008F1010188468142FADB1AF8E3
:101DE00008100029F6D105985B46A0EB08072146AC
:101DF0003846179A00F094FA284400EB080507E0EB
:101E00004DE029E10DE01AF8010B5A461799904769
:101E1000B8F10108F7D25B4621463846179A13E11C
:101E200042E00A220092C4F302524FF0000A022A52
:101E300008D059F804CB032A4FEAEC710AD00DE020
:101E400029E02AE009F1070121F00702F2E802C1C6
:101E5000914609E00FFA8CFC4FEAEC71042A03D199
:101E60004FFA8CFC4FEAEC71002907DA0A46002190
:101E7000DCF1000C61EB02012D2202E0220504D509
:101E80002B228DF80420012203E0E20701D020225A
:101E9000F7E7904659E00A2102E010220DE01021F8
:101EA0004FF0000A00910BE010224FF0000A44F0BE
:101EB00004040827009203E008224FF0000A009271
:101EC000C4F30252022A05D059F804CB0021032A98
:101ED00008D009E009F1070121F00702F2E802C188
:101EE000914605E01FFA8CFC042A01D10CF0FF0C8E
:101EF0004FF00008220728D5702806D0009B83F0F9
:101F0000100353EA0A0305D00EE040228DF80420A6
:101F1000012208E05CEA010206D030228DF804209C
:101F20008DF8050002229046009B83F0080353EAD7
:101F30000A030AD15CEA010201D1620705D5302209
:101F40008DF804204FF001087F1E582804D034A0DB
:101F500003900EA802900DE036A0F9E753466046C4
:101F6000009AFEF7FFFB84460398825C0298401EAD
:101F7000029002705CEA0100F0D1029806A9081AEA
:101F800000F1200A600702D524F4803400E0012724
:101F9000574502DDA7EB0A0000E0002000EB0A0134
:101FA000009005984144401A0590E00306D45B4632
:101FB0002146179A059800F0B3F90544002706E07A
:101FC00001A85A46C05D179990476D1C7F1C474574
:101FD000F6DBE0030CD55B462146179A059800F026
:101FE0009FF9054404E030205A46179990476D1C2C
:101FF0000099481E00900029F5DC08E0029802993B
:102000005A460078491C0291179990476D1CBAF105
:102010000001AAF1010AF1DC65E1000009280100D4
:10202000303132333435363738396162636465664E
:102030000000000030313233343536373839414210
:10204000434445460000000000F058F90544761C62
:10205000307800287FF4ECAD19B02846BDE8F08F49
:10206000620700D4062709F1070222F0070CFCE8FA
:102070000223E14603F000485FEA080C02D00FF2A9
:10208000702C0DE05FEA045C02D50FF2682C07E0CB
:102090005FEAC47C02D00FF2602C01E0AFF2700C5A
:1020A0004FF0FF3823F00043CDF850C065280CD026
:1020B00006DC452809D046281DD047283DD13DE003
:1020C000662818D067287ED138E00021112F01DB67
:1020D000112000E0781CCDE9000106A90EA8FFF749
:1020E000EDFCDDE90F010E9A03910021009207F14A
:1020F000010A04914DE04FF000400097CDE9011036
:1021000006A90EA8FFF7DAFCDDE90F0203920E9B89
:1021100011990022DDF80CA00093049211B9791CEA
:1021200000EB010AB7EB0A0004D4C0F1FF3007F15D
:10213000010A0490AAEB0700019044E0012F00DAA5
:1021400001270021112F01DD112000E03846CDE9E3
:10215000000106A90EA8FFF7B1FCDDE90F010E9AF8
:102160000391002104910092BA4621070CD40399EF
:10217000514500DA8A46BAF1010F05DD009AAAF14D
:102180000101515C302908D0B84202DA10F1040F85
:1021900006DA0121CDE9011015E0AAF10101E9E714
:1021A000002805DC049901440491AAEB000102E037
:1021B000411C514500DD8A460499401A401C01909B
:1021C0004FF000400290200704D40198504501DBF5
:1021D000CDF8048000208DF84F0002980DF14F07D4
:1021E000B0F1004F25D02B200E9002984FF002083E
:1021F00000280CDA404202902D200E9007E00A21C0
:102200000298FEF799FA3031029007F8011DB8F1F3
:102210000001A8F10108F2DC02980028EFD1791E34
:102220000E980870307800F0200040F0450007F864
:10223000020D12A8C01B00F107081498007800B125
:10224000012000EB0A01019801EBE071059841447F
:10225000401A401E0590E00306D45B462146179ABB
:10226000059800F05DF805441498007818B15A46B6
:10227000179990476D1CE00324D55B462146179AB9
:10228000059800F04DF805441CE00498002807DB91
:10229000DDE90301884203DD0098405C179901E005
:1022A000179930205A469047049805F10105401CC3
:1022B00004900198401E019004D12E205A4617998F
:1022C00090476D1CBAF10001AAF1010ADDDC05E0BE
:1022D00017F8010B5A46179990476D1CB8F1000189
:1022E000A8F10108F4DC5B462146179A0598ABE695
:1022F0002D0000002B000000200000002DE9F0411F
:10230000044600251E461746880404D405E03946D5
:102310002020B0476D1C641EF9D52846BDE8F08129
:102320002DE9F041044600251E469046C80301D51C
:10233000302700E02027880404D505E041463846D0
:10234000B0476D1C641EF9D52846BDE8F08110B574
:10235000044600212046FEF7DBF902D284F000405B
:1023600010BD2046FCE700002DE9F34F85B08946FB
:1023700049460598FDF772FF04904846FFF7E7FFCE
:1023800005460598FFF7E3FF06462946FEF7C0F924
:102390003AD237480499FDF72FFF01900499FDF7D1
:1023A0002BFF80464FF07E51FDF7CEFE0746FEF72D
:1023B00080F905460E460498FEF77BF907464FF074
:1023C00066322C4BFEF72FF82A463346CDE9020140
:1023D000FEF79BF88246FEF77FF904460021484647
:1023E000FEF796F93FD200210598FEF791F905D244
:1023F00021492046FDF7FAFE044634E01E492046F6
:10240000FDF7A2FE04462EE004990846FDF7F4FE0F
:1024100083461749FDF798FE8246FEF74AF9CDE953
:1024200000010498FEF745F982464FF06632114BE1
:10243000FDF7F9FF0746DDE90023FEF766F80546DC
:1024400000220E4BFDF7ECFFCDE90201FEF744F947
:10245000044600210598FEF75BF904D206492046A0
:10246000FDF7C4FE0446204607B0BDE8F08F00002B
:10247000295C8F3E66A64C400000344300805640E5
:102480000FB42DE9F04F9BB0DDE92A6567481A903B
:10249000DFF89C91674819906748189042F21070D5
:1024A0001490002467E024A850F8240080F000482D
:1024B000624850F824104046FDF746FE074649465C
:1024C000FDF79AFE824624AA52F8241056F82400FA
:1024D000FDF78CFE804648461999FDF7BFFE414640
:1024E0001390FDF789FE07461899FDF785FE834690
:1024F00059465046FDF728FE0746514850F824102B
:102500003846FDF721FE15A941F8240027AA52F804
:10251000241015AA52F82400FDF768FE17901799A9
:102520001A98FDF769FE0746FEF77DF800B225F818
:10253000140024A850F82400404941F8240035F93B
:10254000140042F21071884203DD084625F8140099
:102550000FE035F914003B49884204DA4DF6F000EB
:1025600025F8140005E015A850F82400344941F876
:102570002400601CC4B2022C95DB24AA5169B06807
:10258000FDF734FE179017991A98FDF735FE0746A8
:10259000FEF749F800B2A880F068FEF744F800B2F0
:1025A000E880F068FEF785F807468846B068FEF7D1
:1025B00080F8CDE912017068FEF77BF8CDE91001D3
:1025C0003068FEF776F8CDE90E011FA0CDE90A7854
:1025D0000C901EA00890DDE91201CDE906011DA0B6
:1025E0000490DDE91001CDE902011AA000901BA0C2
:1025F000DDE90E23FEF708FF24A2B5F9060029A3A2
:10260000B5F90410CDE90113CDE9030225A000902E
:10261000B5F90230B5F9001022A226A0FEF7F4FEAB
:102620001BB0BDE8F00F5DF814FB00000000A041F6
:10263000713D624129CB103E0AD7A33C4C000020DB
:1026400054000020F0D8FFFF0A00000020202020C6
:102650002020000020202020000000005265666538
:102660007220205369676E616C20282D2D2D2D2935
:102670003A20252E32662573252E32662573252EA7
:1026800032662573252E3266257300002020202017
:10269000202020202020202020202020202020203A
:1026A0000A000000202020202020202020202020A0
:1026B000202020004F7574707574205369676E6117
:1026C0006C20282D2D2D2D293A2025642573256475
:1026D0002573256425732564257300002DE9F04FCB
:1026E0009DB005460E46DFF8789100245D480C90B9
:1026F000304601F073FF2C2206F110016846FDF709
:1027000011FD96E80F0001F03FFD13E006F11C01FA
:1027100051F824000C99FDF76FFD19A941F8240028
:1027200006F11C0050F8241005F10C0040F82410AC
:10273000601CC4B2032CE9DB10A919A800F0B8F999
:102740000DAA494910A801F04BF806F1100001F05C
:1027500015FC00241CE049464FF07E50FDF7F4FCC8
:1027600080460DA850F824104846FDF745FD8246E6
:1027700006F1100050F824105046FDF7E5FC07461E
:102780004146FDF76BFD384941F82400601CC4B296
:10279000032CE0DB344A91689068FDF72DFD324A46
:1027A000099011681068FDF727FD08900999FDF759
:1027B000CBFC0A90FDF77DFF824602F027F9074621
:1027C000FDF78AFF28490B9048680B99FFF7CCFD6D
:1027D0002860254A91681068FFF7C6FD6860A86800
:1027E000FDF767FF074688466868FDF762FFCDE999
:1027F0000A012868FDF75DFF82460B461BA0CDE964
:10280000067808901CA00490DDE90A01CDE90201D8
:102810001BA0524600901DA0FEF7F6FD6869FDF76B
:1028200048FF074688462869FDF743FFCDE90A01BE
:10283000E868FDF73EFF82460B460CA0CDE906781E
:1028400008900DA00490DDE90A01CDE902010CA079
:102850005246009018A0FEF7D7FD1DB0BDE8F08FDE
:10286000CDCC4C3E0AD7A33E5C0000202020202087
:1028700020202020200A00002020202020200000EE
:1028800020202020202020202000000045756C659D
:1028900072202020416E676C6520286465672029BE
:1028A0003A20252E32662573252E32662573252E75
:1028B0003266257300000000416E676C65202020A1
:1028C0005261746520202864707320293A20252ED7
:1028D00032662573252E32662573252E32662573C2
:1028E0000000000000B5244B21F0004287B09A425E
:1028F000DCBF0022134629DD204B9A4208D140B9A3
:102900004FF00100FFF7D4F8FFF7B3F807B000BDB0
:1029100003DBFFF7ABF807B000BD02AAFEF798FD96
:1029200010F0030104BF0DF1080C9CE80F000DD05E
:10293000012001290ED0022914D00DF1080C0090BD
:102940009CE80F00FFF71CF807B000BDFEF744FF3E
:1029500007B000BD0DF1080C00909CE80F00FFF7D8
:102960000FF805E00DF1080C9CE80F00FEF734FFAE
:1029700007B081F0004100BDFB21E93F0000F07F7E
:1029800002480068401C0149086070474800002068
:1029900010B502A0FEF738FD10BD00004465627559
:1029A000672D75736172743120697320776F726B54
:1029B000696E670A000000001FB501218803FEF759
:1029C0004FF94FF4E13000900020ADF80C000C20DE
:1029D000ADF80A000020ADF80800ADF80600ADF82B
:1029E000040069460348FEF79DFC01210148FEF7FB
:1029F0007FFC1FBD0038014008B501210420FEF70F
:102A00002FF903208DF8020018208DF803004FF4F1
:102A10000070ADF8000069460748FEF772F84FF401
:102A20008060ADF8000004208DF80300694602487C
:102A3000FEF767F808BD00000008014010B502F07D
:102A400045F8FFF7A5FF10BD01B502E00098401E54
:102A5000009000980028F9D108BD0021002200BF95
:102A600007E0002201E0531C9AB28242FBDB4B1CC0
:102A700099B28142F5DB7047014601EBC1024FF08C
:102A8000E0235A6101221A6100229A6100BF4FF0CF
:102A9000E022106900F001021AB100F48032002A2D
:102AA000F5D000224FF0E0231A619A6170470000D0
:102AB0002DE9F04F8DB081460C46D9F80000FDF7A6
:102AC000F8FD0746C94ACA4BFDF7ADFC0546FDF7C0
:102AD00003FE0C90D9F80400FDF7EBFD0746C34A4E
:102AE000C34BFDF7A0FC0546FDF7F6FD0B90D9F8AA
:102AF0000800FDF7DEFD0746BC4ABD4BFDF793FC21
:102B00000546FDF7E9FD0A900A98FDF7D2FD054656
:102B1000FFF7E8FE074688460B98FDF7CAFD054615
:102B2000FFF7E0FE3A464346CDE90801FDF77BFC9E
:102B30008246FDF7D1FD20600A98FDF7BAFD0546F3
:102B400001F0A6FD074688460B98FDF7B2FD054645
:102B5000FFF7C8FE82463A464346FDF764FCCDE9DE
:102B60000801FDF7B9FD60600B98FDF7A2FD07466F
:102B700001F08EFD81F000410546FDF7ADFDA0603E
:102B80000A98FDF796FD054601F082FD0746884646
:102B90000C98FDF78EFD0546FFF7A4FE82463A46E7
:102BA0004346FDF740FCCDE906010A98FDF781FD9B
:102BB0000546FFF797FECDE902010B98FDF779FD79
:102BC000054601F065FD074688460C98FDF771FD46
:102BD000054601F05DFD82463A464346FDF723FC7B
:102BE000CDE90001DDE90223FDF71DFCCDE904017B
:102BF000DDE90623FDF711FCCDE90801FDF76CFDC9
:102C0000E0600A98FDF755FD0546FFF76BFE0746A5
:102C100088460C98FDF74DFD0546FFF763FE82469A
:102C20003A464346FDF7FFFBCDE906010A98FDF75A
:102C300040FD054601F02CFDCDE902010B98FDF7A2
:102C400038FD054601F024FD074688460C98FDF73F
:102C500030FD054601F01CFD82463A464346FDF72D
:102C6000E2FBCDE90001DDE90223FDF7DCFBCDE964
:102C70000401DDE90623FDF72FFBCDE90801FDF78F
:102C80002BFD20610B98FDF714FD0546FFF72AFE8A
:102C9000CDE908010C98FDF70CFD054601F0F8FCA4
:102CA0008246DDE90823FDF7BEFB0746FDF714FD6C
:102CB00060610A98FDF7FDFC054601F0E9FC074656
:102CC00088460C98FDF7F5FC054601F0E1FC8246CC
:102CD0003A464346FDF7A7FBCDE906010A98FDF702
:102CE000E8FC0546FFF7FEFDCDE902010B98FDF774
:102CF000E0FC054601F0CCFC074688460C98FDF741
:102D0000D8FC0546FFF7EEFD82463A464346FDF7FE
:102D10008AFBCDE90001DDE90223FDF784FBCDE963
:102D20000401DDE90623FDF7D7FACDE90801FDF737
:102D3000D3FCA0610A98FDF7BCFC0546FFF7D2FD65
:102D4000074688460C98FDF7B4FC054601F0A0FC48
:102D500082463A464346FDF766FBCDE906010A98EE
:102D6000FDF7A7FC054601F093FCCDE902010B98A5
:102D7000FDF79FFC054601F08BFC074688460C9842
:102D8000FDF797FC0546FFF7ADFD82463A46434600
:102D9000FDF749FBCDE90001DDE90223FDF743FB27
:102DA000CDE90401DDE90623FDF737FBCDE9080194
:102DB000FDF792FCE0610B98FDF77BFC0546FFF701
:102DC00091FDCDE908010C98FDF773FC0546FFF76E
:102DD00089FD0746DDE90823FDF725FB8246FDF75F
:102DE0007BFC20620DB0BDE8F08F0000EC51B81EF6
:102DF00085EB913F2DE9F05F04464FF07F594FF08E
:102E00007C512046FDF7F8F9824625462E460C48AF
:102E1000A0EB6606354629465046FDF7EDF9834698
:102E20002946FDF7E9F980464946FDF7E2F90746EC
:102E30002946FDF7E1F905462846BDE8F09F000068
:102E4000DF59375F70B504460D46E1B20548FEF71D
:102E5000D5FA00BF80210348FEF756FA0028F9D0C2
:102E6000204670BD003801402DE9F04705460E466A
:102E700000244FF07F5705F1100000F090F905F1A4
:102E80001C0000F0DDF905F12C0000F029FA00F03B
:102E900081FA8046FDF7A8FBA863284601F09CF85C
:102EA00000BF1BE056F8241005F1100252F8240070
:102EB000FDF79CF905F1100141F8240006F10C0220
:102EC00052F8241005F11C0252F82400FDF78EF987
:102ED00005F11C0141F82400601CC4B2032CE1DBA5
:102EE000002429E0384951F824003946FDF7B6F9A5
:102EF0008046354850F824104046FDF77AF93249AB
:102F000041F8240005F1100151F824003946FDF77D
:102F1000A5F980462C4850F824104046FDF714F9D6
:102F2000294941F82400084650F8241005F1100002
:102F300040F82410601CC4B2032CD3DB00243FE013
:102F400006F1180151F824002049FDF7EBFB07D3E7
:102F500006F1180151F824001D49FDF7D9FB06D2EE
:102F6000022C04D04FF47A7025F8140026E006F104
:102F7000180151F824001549FDF7D4FB07D306F1D9
:102F8000180151F824001249FDF7C2FB05D2022CAA
:102F900003D1002025F8140010E035F81400FDF7E7
:102FA0002CFB814606F1180050F824104846FDF726
:102FB0001DF98046FDF750FB25F81400601CC4B2D3
:102FC000042CBDDBBDE8F0873C0000200000484237
:102FD000000048C270B50446A0881E2803DD00200A
:102FE0002149088070BDE58840F2B27085421BDD42
:102FF0001D48B0F900000A2806DA1B480088401C6A
:1030000000B2194908802CE0174800880A2828D106
:103010000020154908804FF480711448FDF707FE21
:103020000120134908601CE01E2D1ADA0E48B0F981
:1030300000000A2806DA0C480088401C00B20A4941
:1030400008800EE0084800880A280AD100200649B6
:1030500008804FF480710548FDF7E7FD0020044922
:10306000086000BFBEE7000038000020000C0140EF
:103070003400002008B50020009001226946752028
:1030800000F0BCFA9DF80000682801D1012008BDBD
:103090000020FCE710B520216A2000F005FB082184
:1030A000242000F001FB1321342000F0FDFA01215F
:1030B000672000F0F9FA1E21252000F0F5FA002122
:1030C000262000F0F1FA0421632000F0EDFA8121BE
:1030D000272000F0E9FA1E21252000F0E5FA012161
:1030E000262000F0E1FAE021632000F0DDFA8121E2
:1030F000272000F0D9FA1E21252000F0D5FA022160
:10310000262000F0D1FA0021632000F0CDFA8121C1
:10311000272000F0C9FA10BD0020002100BF08E000
:10312000002101E04A1C91B2B1F57A7FFADB421C22
:1031300090B2B0F57A7FF3DB704710B520216A209A
:1031400000F0B2FA0821242000F0AEFA9E212520DA
:1031500000F0AAFA0321262000F0A6FA86212720F3
:1031600000F0A2FA10BD10B500F0E6FCFFF7D4FFA6
:1031700000216B2000F098FA0721192000F094FA42
:1031800006211A2000F090FA00211C2000F08CFA91
:1031900018211B2000F088FAFFF76CFF10BD7FB5E7
:1031A0000446062269463B2000F028FA9DF80100FB
:1031B0009DF8001040EA012000B2ADF808009DF82B
:1031C00003009DF8021040EA012000B2ADF80A00A9
:1031D0009DF805009DF8041040EA012000B2ADF80A
:1031E0000C00BDF90800FDF7FFF906464FF08041DD
:1031F000FDF702F805464FF08E41FDF72FF82060ED
:10320000BDF90A00FDF7F0F906464FF08041FCF7E2
:10321000F3FF05464FF08E41FDF720F86060BDF9E1
:103220000C00FDF7E1F906464FF08041FCF7E4FFA2
:1032300005464FF08E41FDF711F8A0607FBD0000FC
:103240007FB5044606226946432000F0D7F99DF871
:1032500001009DF8001040EA012000B2ADF808001E
:103260009DF803009DF8021040EA012000B2ADF87D
:103270000A009DF805009DF8041040EA012000B204
:10328000ADF80C00BDF90800FDF7AEF9064613498C
:10329000FCF7B2FF05464FF08E41FCF7DFFF2060E0
:1032A000BDF90A00FDF7A0F906460C49FCF7A4FF9A
:1032B00005464FF08E41FCF7D1FF6060BDF90C0070
:1032C000FDF792F906460549FCF796FF05464FF0D3
:1032D0008E41FCF7C3FFA0607FBD00000000FA44F0
:1032E0002DE9FF47044606226946492000F086F989
:1032F0009DF801009DF8001040EA012000B2ADF8F1
:1033000008009DF803009DF8021040EA012000B279
:10331000ADF80A009DF805009DF8041040EA012070
:1033200000B2ADF80C00BDF90800FDF75DF981466B
:10333000FDF7BFF907464FF06632154BFDF773F8FE
:103340000546FDF7C9F92060BDF90A00FDF74CF903
:103350008146FDF7AEF907464FF066320C4BFDF79C
:1033600062F80546FDF7B8F96060BDF90C00FDF79D
:103370003BF98146FDF79DF907464FF06632044B55
:10338000FDF751F80546FDF7A7F9A060BDE8FF87F6
:10339000666611402DE9F04F85B000F08CF802A967
:1033A000A22000F0B5F80DF10A01A42000F0B0F859
:1033B00003A9A62000F0ACF80DF10E01A82000F042
:1033C000A7F804A9AA2000F0A3F80DF11201AC207F
:1033D00000F09EF801A9482000F07CF869465820CA
:1033E00000F078F8BDF810000099A1EB0024BDF8BA
:1033F00012000022E117A0FB043C02FB04C200FB08
:103400000120410241EAD3504FF4FA614018BDF85F
:103410000A104FF000004FEA004040EA11404FEA26
:103420000142BDF80E104FF000034FEAE47AA1FB11
:1034300004CB03FB04B301FB0A334FEADC1141EA7E
:103440004361551840EBE316BDF808104FF000003B
:103450004FEAC03040EA51404FEAC132BDF80C108B
:103460004FF000034FEAE47CA1FB04AB03FB04B381
:1034700001FB0C334FEA1A2141EA0361571840EB74
:1034800023284FF000013B460198A0FB032A01FBD3
:1034900007A100FB08114FEA525040EAC1224FEA4F
:1034A0006150511B60EB0600420442EAD1394846A4
:1034B00005B0BDE8F08F10B500F056FC4FF47A70FF
:1034C000FFF7CBFA1E2000F06BF84FF47A70FFF78D
:1034D000C4FA10BD38B505460C46284600F060F821
:1034E0004FF49670FFF7B9FA002000F059F8032165
:1034F000684600F025F89DF8000000049DF80110D2
:1035000040EA01209DF802100843206038BD000009
:1035100038B505460C4609A000680090284600F022
:103520003FF80221684600F00BF89DF801009DF875
:10353000001040EA0120208038BD00000101000099
:1035400070B504460D464FF4005600BF00F0B4FCC1
:10355000EF2000F07BFC06E026B901210EA000F070
:10356000E1F870BD761E00F0E3FC0028F4D10FE016
:10357000012D06D1002000F03BFC207000F0BAFCC9
:1035800004E0012000F034FC2070641C681EC5B209
:10359000002DEDD10120E4E74D53353631310000E7
:1035A00070B505464FF4005400F086FCEE2000F0A4
:1035B0004DFC06E024B901210EA000F0B3F870BD67
:1035C000641E00F0B5FC0028F4D14FF400542846E6
:1035D00000F03CFC06E024B9022106A000F0A2F8AD
:1035E000EDE7641E00F0A4FC0028F4D100F082FC9A
:1035F0000120E4E74D533536313100002DE9F0412B
:1036000007460D4616464FF4005400F039FBD02013
:1036100000F006FB07E02CB9012121A000F082F8A0
:10362000BDE8F081641E00F05FFB0028F3D14FF489
:103630000054384600F0F4FA06E024B9022118A03C
:1036400000F070F8ECE7641E00F04EFB0028F4D1A7
:103650004FF4005400F014FBD12000F0E1FA06E032
:1036600024B903210EA000F05DF8D9E7641E00F034
:103670003BFB0028F4D10FE0012E06D1002000F022
:10368000A5FA287000F016FB04E0012000F09EFA75
:1036900028706D1C701EC6B2002EEDD10120BFE750
:1036A0004D5055363035300070B506460D464FF456
:1036B000005400F0E5FAD02000F0B2FA06E024B998
:1036C000012116A000F02EF870BD641E00F00CFB66
:1036D0000028F4D14FF40054304600F0A1FA06E07F
:1036E00024B902210DA000F01DF8EDE7641E00F0E2
:1036F000FBFA0028F4D1284600F092FA06E024B93B
:10370000032106A000F00EF8DEE7641E00F0ECFADC
:103710000028F4D100F0CEFA0120D5E74D505536FF
:103720003035300070B504460D462A46214602A0C9
:10373000FDF76AFE002070BD257320493243B5C8ED
:10374000B4FDB3ACCAB1A3A16572726F725F636F4F
:103750006465203D25640A00AAB000200F901090F7
:1037600001F094F94FF0E020006940F001004FF0C3
:10377000E021086142F21070FFF766F94FF0E02097
:10378000006920F001004FF0E021086100F033FFF4
:103790001BA911A800F06CFE21E011A91BA8FFF7DE
:1037A00063FB1BA909A8FEF799FF05A91BA800F058
:1037B00037FF0FA805A9CDE90210DDE90D01CDE91C
:1037C000000109A80FC8FEF75BFE1BA90FA800F0B7
:1037D00053F81BA8FFF7FEFB1DA801F07DF9DCE7FD
:1037E0002DE9F04704460D461646A968A068FCF787
:1037F00003FD804669686068FCF7FEFC8146296825
:103800002068FCF7F9FC82464946FCF79DFC074618
:103810004146FCF799FC3060A9686069FCF7ECFC54
:10382000804669682069FCF7E7FC81462968E06802
:10383000FCF7E2FC82464946FCF786FC0746414617
:10384000FCF782FC7060A968206AFCF7D5FC804612
:103850006968E069FCF7D0FC81462968A069FCF73B
:10386000CBFC82464946FCF76FFC07464146FCF715
:103870006BFCB060BDE8F0872DE9F0478CB00446E2
:103880000D460026B4F90600FCF7BCFE81468A46C8
:10389000B4F90400FCF7B6FE0746854A854BFCF7F1
:1038A000C2FDCDE90601B4F90200FCF7ABFE074604
:1038B0007F4A814BFCF7B7FDCDE90201B4F9000066
:1038C000FCF7A0FE07467A4A7A4BFCF7ACFDCDE93F
:1038D0000001DDE90223FCF7FFFCCDE90401DDE98D
:1038E0000623FCF7F9FC4A465346CDE90801FCF7EC
:1038F000F3FCCDE90A01FCF7C3FE2881B4F9060008
:10390000FCF780FE81468A46B4F90400FCF77AFE93
:103910000746674A684BFCF786FDCDE90601B4F916
:103920000200FCF76FFE0746614A634BFCF77BFD24
:10393000CDE90201B4F90000FCF764FE07465C4AD9
:103940005D4BFCF770FDCDE90001DDE90223FCF7DA
:10395000C3FCCDE90401DDE90623FCF7BDFC4A46C2
:103960005346CDE90801FCF7B7FCCDE90A01FCF7A5
:1039700087FE6881B4F90600FCF744FECDE9080132
:10398000B4F90400FCF73EFE0746494A494BFCF7F0
:103990004AFDCDE90401B4F90200FCF733FE074605
:1039A000434A444BFCF73FFD81468A46B4F9000088
:1039B000FCF728FE07463E4A3F4BFCF734FD4A46DB
:1039C0005346CDE90001FCF787FCCDE90201DDE9B2
:1039D0000423FCF781FCCDE90601DDE90823FCF7AF
:1039E0007BFCCDE90A01FCF74BFEA881B4F9060087
:1039F000FCF708FECDE90801B4F90400FCF702FE6B
:103A000007462B4A2C4BFCF70EFDCDE90401B4F917
:103A10000200FCF7F7FD0746254A264BFCF703FD9D
:103A2000CDE90001B4F90000FCF7ECFD0746204A9F
:103A3000204BFCF7F8FC8146DDE90023FCF74CFC49
:103A4000CDE90201DDE90423FCF746FCCDE90601DE
:103A5000DDE90823FCF740FCCDE90A01FCF710FE84
:103A6000E88100BF0EE005F1080030F81600B0F55F
:103A7000FA6F05DD4FF4FA6105F1080020F8161021
:103A8000701CC6B2042EEEDB29890CA0FDF7BCFC2D
:103A900069890EA0FDF7B8FCA98910A0FDF7B4FC58
:103AA000E98912A0FDF7B0FC0CB0BDE8F08700007A
:103AB0007B14AE47E17A94BFE17A943F317374206E
:103AC0003A2025642020200A00000000326E642085
:103AD0003A2025642020200A000000003372642070
:103AE0003A2025642020200A000000003474682059
:103AF0003A2025642020200A0000000010B5402153
:103B00000C48FDF792F880210A48FDF790F8012053
:103B1000FEF7B2FF80210748FDF787F80120FEF786
:103B2000ABFF40210348FDF782F80120FEF7A4FF18
:103B300010BD0000000C014008B501210820FDF770
:103B40008FF82020ADF8000001208DF802004820F9
:103B50008DF8030069460D48FCF7D3FF14208DF85B
:103B600003008020ADF8000069460848FCF7C9FF53
:103B70004020ADF8000014208DF80300694603488A
:103B8000FCF7BFFF00F096F808BD0000000C0140F4
:103B900010B580210C48FDF748F840210A48FDF790
:103BA00046F80120FEF768FF80210748FDF73FF83F
:103BB0000120FEF761FF80210348FDF736F8012060
:103BC000FEF75AFF10BD0000000C014070B505461D
:103BD0000024002618E06006040E80210F48FDF73F
:103BE00026F80120FEF748FF40210C48FDF714F8A5
:103BF00008B1601CC4B280210848FDF716F8012006
:103C0000FEF73AFF701CC6B2082EE4DB15B9FFF7C9
:103C1000BFFF01E0FFF772FF204670BD000C0140BE
:103C200070B50446002526E004F0800020B1402154
:103C30001248FCF7FCFF03E040211048FCF7F5FFB9
:103C40000120FEF719FF80210C48FCF7F0FF01204E
:103C5000FEF712FF80210948FCF7E7FF072D03D18B
:103C600040210648FCF7E3FF6006040E0120FEF742
:103C700003FF681CC5B2082DD6DB70BD000C0140E7
:103C800010B540210A48FCF7D2FF80210848FCF714
:103C9000CEFF0420FEF7F0FE40210548FCF7C5FFEB
:103CA0000420FEF7E9FE80210148FCF7BEFF10BDAD
:103CB000000C014010B580210A48FCF7B6FF4021F6
:103CC0000848FCF7B2FF0420FEF7D6FE8021054825
:103CD000FCF7ADFF40210348FCF7A9FF0420FEF7E5
:103CE000CBFE10BD000C014010B540210E48FCF782
:103CF0009EFF0120FEF7C0FE80210B48FCF797FFD6
:103D00000120FEF7B9FE40210748FCF785FF08B106
:103D1000012400E0002480210348FCF786FF0120F5
:103D2000FEF7AAFE204610BD000C014010B54FF46E
:103D300080610C48FCF779FF4FF400610948FCF7FB
:103D400074FF0220FEF798FE4FF480610548FCF7EF
:103D50006EFF0220FEF790FE4FF480610148FCF7F1
:103D600064FF10BD000C014008B501210820FCF7DC
:103D700077FF48208DF8030001208DF802004002F3
:103D8000ADF8000069460848FCF7BBFE14208DF82A
:103D900003004FF44060ADF8000069460248FCF7AC
:103DA000B0FE00F0A7F808BD000C014010B54FF4BC
:103DB00080610E48FCF739FF4FF400610B48FCF7B7
:103DC00036FF0120FEF758FE4FF480610748FCF7EC
:103DD0002EFF0120FEF750FE4FF480610348FCF7F0
:103DE00024FF0120FEF748FE10BD0000000C01403A
:103DF00070B50546002400261BE06006040E4FF453
:103E000080611148FCF713FF0220FEF735FE4FF4E6
:103E100000610D48FCF700FF08B1601CC4B24FF40C
:103E200080610948FCF701FF0120FEF725FE701CA8
:103E3000C6B2082EE1DB15B9FFF7B8FF01E0FFF7C6
:103E400075FF204670BD0000000C014070B50446AF
:103E500000252BE004F0800028B14FF400611548E4
:103E6000FCF7E5FE04E04FF400611248FCF7DDFECC
:103E70000120FEF701FE4FF480610E48FCF7D7FEEB
:103E80000120FEF7F9FD4FF480610A48FCF7CDFEF2
:103E9000072D04D14FF400610648FCF7C8FE600608
:103EA000040E0120FEF7E8FD681CC5B2082DD1DB29
:103EB00070BD0000000C014010B54FF400610C48CB
:103EC000FCF7B5FE4FF480610948FCF7B0FE042012
:103ED000FEF7D2FD4FF400610548FCF7A6FE042072
:103EE000FEF7CAFD4FF480610148FCF79EFE10BD4D
:103EF000000C014010B54FF480610C48FCF795FEB2
:103F00004FF400610948FCF790FE0420FEF7B4FD71
:103F10004FF480610548FCF78AFE4FF400610348C6
:103F2000FCF785FE0420FEF7A7FD10BD000C014044
:103F300010B54FF400611048FCF779FE0120FEF740
:103F40009BFD4FF480610C48FCF771FE0120FEF7E9
:103F500093FD4FF400610848FCF75EFE08B10124B0
:103F600000E000244FF480610348FCF75EFE01206E
:103F7000FEF782FD204610BD000C01402DE9F04106
:103F80000546002600240CE055F8241055F82400BE
:103F9000FCF732F980463146FCF7D6F80646601C3D
:103FA000C4B2032CF0DB3046FEF724FF07460024A2
:103FB00008E055F824003946FCF71EF945F82400BE
:103FC000601CC4B2032CF4DBBDE8F08110B500F036
:103FD00019FA00F0EBF910BD2DE9FC4104466846E2
:103FE00000F076FC9DF800109DF8012041EA0220C7
:103FF000FCF7FAFA80464FF08B41FCF72FF90746A1
:104000004249FCF7F9F806464049FCF79DF8054699
:10401000FCF722FB20809DF802109DF8032041EA66
:104020000220FCF7E1FA80464FF08B41FCF716F9CD
:1040300007463649FCF7E0F806463449FCF784F8B1
:104040000546FCF709FB60809DF804109DF80520EB
:1040500041EA0220FCF7C8FA80464FF08B41FCF79A
:10406000FDF807462949FCF7C7F806462749FCF73B
:104070006BF80546FCF7F0FAA0809DF806109DF855
:10408000072041EA0220FCF7AFFA80464FF08B414F
:10409000FCF7E4F807461D49FCF7AEF806461B4955
:1040A000FCF752F80546FCF7D7FAE0802088A0F527
:1040B0007A704FF6FF7101EA400020806088A0F519
:1040C0007A7001EA40006080A088A0F57A7001EA69
:1040D0004000A080E088A0F57A7001EA4000E0800E
:1040E00021880BA20CA0FDF78FF9618808A20EA011
:1040F000FDF78AF9A18806A20FA0FDF785F9E188EE
:1041000003A211A0FDF780F9BDE8FC8100007A440C
:104110002020200A00000000522D2D61696C3A20F9
:1041200025642573000000004C2D2D656C653A2038
:104130002564257300000000522D2D7468723A200A
:1041400025642573000000004C2D2D7275643A2003
:10415000256425730000000010B50446214602A026
:10416000FDF752F9002010BD6E726620B5C8B4FD8F
:10417000B3ACCAB1A3A16572726F72436F6465205C
:104180003D25640A000000000FB42DE9F04389B01A
:104190001698FCF78EFA04460D461598FCF789FA36
:1041A00006460F461498FCF784FA804618A0CDE91D
:1041B0000645089018A0CDE90267049016A0424673
:1041C0000B46009015A0FDF71FF91998FCF771FA3E
:1041D00004460D461898FCF76CFA06460F461798E9
:1041E000FCF767FA804618A0CDE90645089018A0AC
:1041F000CDE90267049008A042460B46009016A045
:10420000FDF702F909B0BDE8F0035DF814FB00000A
:104210002020200A00000000202020004D505536AC
:1042200030353020416363656C20282067202029C9
:104230003A20252E32662573252E32662573252ECB
:1042400032662573000000002020202020200A0074
:1042500020202020000000004D5055363035302001
:104260004779726F20202864707320293A20252E08
:1042700032662573252E32662573252E3266257308
:1042800000000000F0B587B00024002500260027BC
:1042900001210846FCF7D4FC0020ADF81600ADF86B
:1042A000120040F65F10ADF814004720ADF8100082
:1042B00000208DF8180004A94FF08040FCF7C6FFDD
:1042C0006020ADF800000120ADF802000020ADF83C
:1042D0000800ADF8064069464FF08040FCF752FEFA
:1042E000ADF8065069464FF08040FCF7A1FEADF8EE
:1042F000066069464FF08040FCF7FAFEADF80670A4
:1043000069464FF08040FCF74DFF0821C806FCF7D6
:1043100085FE0821C806FCF7DDFE0821C806FCF76B
:1043200037FF0821C806FCF77BFF01218807FCF74F
:104330001DFE07B0F0BD000008B501210420FCF708
:104340008FFC18208DF8030003208DF80200012057
:10435000ADF8000069461448FCF7D3FB0220ADF825
:10436000000069461048FCF7CCFB0420ADF80000C3
:1043700069460D48FCF7C5FB0820ADF8000069460A
:104380000948FCF7BEFB01210748FCF74EFC02215F
:104390000548FCF74AFC04210348FCF746FC0821C9
:1043A0000148FCF742FC08BD0008014000B585B09B
:1043B00001210803FCF754FC1020ADF80C0000208C
:1043C000ADF80800ADF806000720ADF81000002099
:1043D000ADF80400ADF80000ADF80E004FF48270A7
:1043E000ADF802004FF40070ADF80A0069460448C9
:1043F000FCF7CAFC01210248FCF7ACFC05B000BD8B
:104400000030014008B501210420FCF729FC0121FE
:104410000846FCF725FC18208DF8030001208DF8D4
:104420000200E020ADF8000069460F48FCF769FB88
:1044300010208DF80300ADF8000069460A48FCF72B
:1044400060FB0220ADF8000069460848FCF759FB04
:1044500048208DF803000120ADF8000069460348AC
:10446000FCF74FFB08BD000000080140000C0140B4
:104470002DE9F0418AB006460D46002007900890CD
:10448000099004900590069000900190029003908E
:1044900000245EE0002046F82400002106F10C0014
:1044A00040F82410002736E005F11000FEF777FEF3
:1044B00005F11C00FEF7C4FE022C0CDA05F1100217
:1044C00052F8241007AA52F82400FBF73DFE07A972
:1044D00041F8240011E005F1100151F824004FF0DB
:1044E0007E51FBF783FE804607A850F82410404613
:1044F000FBF72AFE07A941F8240005F11C0252F837
:10450000241004AA52F82400FBF71EFE04A941F867
:104510002400781CC7B2C82FC6DB3846FCF76DF8FC
:10452000804607A951F824004146FBF797FE46F85C
:1045300024003846FCF761F8804604A951F82400AD
:104540004146FBF78BFE06F10C0141F82400601C8C
:10455000C4B2032C9EDB00243BE0002106F11800CE
:1045600040F82410002723E005F10800FFF734FD90
:1045700005F1080030F8140040F24C41884217DA87
:1045800005F1080030F81400B0F5617F10DD05F189
:10459000080131F81410A1F57A70FCF725F880466F
:1045A0005DF82410FBF7D0FD4DF82400781CC7B24D
:1045B000322FD9DB3846FCF720F880465DF824001E
:1045C0004146FBF74BFE06F1180141F82400601C40
:1045D000C4B2042CC1DB0AB0BDE8F081C169026A33
:1045E000C2610162026982F00041426982F00042C8
:1045F00002614161704710B5FEF720FA00F02CFA15
:10460000FEF7B1FDFEF746FDFEF797FDFEF753FFFF
:1046100000F0BEF800F030F900F052FA10BD0000D2
:104620002DE9F04704460D4628263046FBF7DCFF0F
:104630008146F106FBF7E0FD80461449FBF70EFECC
:1046400007462188A1F57A70FBF7CEFF80463946F0
:10465000FBF7D2FD28606188C1F57A70FBF7C4FFD3
:1046600080463946FBF7C8FD6860E188A1F57A709D
:10467000FBF7BAFF80463946FBF7BEFDA860A0886D
:10468000FBF7BBFFE860BDE8F08700000000FA44DC
:1046900000B5254B21F0004287B09A4203DC00228E
:1046A000134600922BE0214B9A4208D140B94FF0BB
:1046B0000100FDF7FDF9FDF7DCF907B000BD03DBF4
:1046C000FDF7D4F907B000BD02AAFCF7C1FE10F057
:1046D00003014FF001000DD0012914D002291AD096
:1046E0000DF1080C9CE80F00FDF776F807B081F09B
:1046F000004100BD0DF1080C00909CE80F00FDF793
:104700003FF907B000BD0DF1080C9CE80F00FDF764
:1047100063F807B000BD0DF1080C00909CE80F0095
:10472000FDF72EF9E2E70000FB21E93F0000F07FF2
:104730001FB514A103C9CDE9020102211348FCF7FA
:1047400074FA052202A9302000F0F8F80522694623
:10475000102000F039F802210C48FCF768FA002418
:1047600006E01DF80400A52800D003E0601CC4B2D8
:10477000052CF6DB00BF052C02D1012004B010BDD2
:104780000020FBE7A5A5A5A5A5000000000C0140A1
:1047900010B5FFF71BFC10210548FCF748FAFFF79E
:1047A000C7FF0446214603A0FCF72EFE10BD000003
:1047B00000080140436865636B696E67206E72662E
:1047C0002E2E2E2025640A002DE9F04105460E46C6
:1047D000174610210C48FCF728FA29460B4800F030
:1047E000D1F88046002406E00021084800F0CAF80D
:1047F0003055601CC4B2BC42F6DB10210248FCF705
:1048000016FA4046BDE8F081000801400030014042
:1048100070B5044610210948FCF707FA21460848FC
:1048200000F0B0F80021064800F0ACF80546102171
:104830000248FCF7FCF9284670BD00000008014062
:104840000030014070B504460D4610210848FCF7C1
:10485000ECF92146074800F095F806462946054838
:1048600000F090F810210248FCF7E1F9304670BDE5
:10487000000801400030014010B502211248FCF749
:10488000D4F9052211492A2000F058F801212120ED
:10489000FFF7D8FF01212220FFF7D4FF2821252090
:1048A000FFF7D0FF08213120FFF7CCFF0F21262092
:1048B000FFF7C8FF0F212020FFF7C4FF02210248A5
:1048C000FCF7B5F910BD0000000C014028000020E5
:1048D00070B50546642602211748FCF7A8F908E0E0
:1048E0003000A6F10101CEB203D1FFF735FCC0B212
:1048F00070BD01211048FCF78FF90028F0D102218A
:104900000D48FCF792F90720FFF782FF0446214685
:104910002720FFF797FF04F0400050B108222946F6
:104920006120FFF751FFFF21E220FFF78BFF0120FD
:10493000DEE70020DCE70000000C01402DE9F0413B
:1049400005460E46174610210C48FCF76EF929461D
:104950000B4800F017F88046002405E0315D084858
:1049600000F010F8601CC4B2BC42F7DB1021034811
:10497000FCF75DF94046BDE8F08100000008014009
:104980000030014070B505460E46642407E0601E05
:10499000C4B224B9002000F021F8C0B270BD0221D9
:1049A0002846FCF7E3F90028F1D031462846FCF709
:1049B000E9F9642407E0601EC4B224B9012000F0C4
:1049C0000DF8C0B2EAE701212846FCF7CFF900282C
:1049D000F1D02846FCF7D3F9C0B2DFE710B50446A2
:1049E000214602A0FCF710FD002010BD53504920C5
:1049F000B5C8B4FDB3ACCAB121206572726F724301
:104A00006F6465203D2025640A0000002DE9F04117
:104A100006460F46FBF7B3FF04000D4618BF012002
:104A2000284320F00040C0F17F6000F1E040C00F5B
:104A30000ED0301C18BF0120384320F00040C0F1D8
:104A40007F6000F1E040C00F04BF0120FDF730F8A7
:104A500020462946BDE8F08108B501210820FCF771
:104A6000FFF803208DF8020010208DF803000001EC
:104A7000ADF8000069460448FCF743F84FF4807134
:104A80000148FCF7D2F808BD000C014010B50A48F7
:104A900000680A49B0FBF1F42046FCF709FA08B1B6
:104AA00000BFFEE74FF0E020006920F001004FF06A
:104AB000E021086110BD00001400002040420F00FA
:104AC00010B5FFF739FCFFF7DDFB10BD10B5FDF7A2
:104AD00093FFFDF771FF10BD10B50446164800683E
:104AE000A0B121884FF08040FCF7A7FB61884FF010
:104AF0008040FCF7A4FBA1884FF08040FCF7A1FBAD
:104B0000E1884FF08040FCF79EFB13E000214FF05E
:104B10008040FCF792FB00214FF08040FCF78FFBB8
:104B200000214FF08040FCF78CFB00214FF08040CB
:104B3000FCF789FB10BD00003400002000000000DD
:104B40004C5555555555A53F7751C1166CC156BFAB
:104B50009015CB19A001FA3EAD529C804F7E92BEBB
:104B6000C4B1B4BD9EEE213ED43888BEE9FAA8BDDA
:104B700000004054FB21F93F3163621A61B4D03D1B
:104B80000000601A61B4D03D7370032E8A19A33BF4
:104B90000000002E8A19A33BC14920259A837B3946
:104BA00000000000000000006E83F9A22915444EA9
:104BB000D15727FCC0DD34F5999562DB4190433C29
:104BC000AB6351FE61C5BBDE3A6E24B7E0D24D4205
:104BD000EA2E49061C92D1091CEB1DFE3EA729B105
:104BE000F53582E88444BB2E26709CE9417E5FB493
:104BF00039D69139F43953838B5F849C3B28F9BDB6
:104C0000FF97F81F0F9805DE8B112FEF1F6D0A5AC3
:104C1000CF7E366DB709CB27663F464F2DEA5F9EA4
:104C2000C7BA27757BF1E5EBF739073DEA92528A5F
:104C3000B15FFB6B085D8D1FA6F810111111813F4C
:104C4000D561C119A0012ABF7DFEB157E31DC73E42
:104C5000EB9C2B8AE6E55ABE7CD5CF5A3AD9E53D86
:104C6000804C00080000002070000000901A00082E
:104C7000F04C00087000002000040000A01A00089A
:104C800000000000010203040102030406070809F2
:104C90000204060800A24A04000000000000000010
:104CA00001020304060708093443101001344310BD
:104CB00010010000000000000000000000000000E3
:104CC000000000000000803F000000000000000025
:104CD00000000000000000000000000000000000D4
:104CE000000000000000803F000000000000000005
:04000005080000ED02
:00000001FF
