:020000040800F2
:100000008004002001010008930B00088B0B0008FE
:100010008F0B0008550A00080913000800000000B3
:100020000000000000000000000000001D0D00089E
:10003000590A000800000000950B0008090E00088E
:100040001B0100081B0100081B0100081B01000820
:100050001B0100081B0100081B0100081B01000810
:100060001B0100081B0100081B0100081B01000800
:100070001B0100081B0100081B0100081B010008F0
:100080001B0100081B0100081B0100081B010008E0
:100090001B0100081B0100081B0100081B010008D0
:1000A0001B0100081B0100081B0100081B010008C0
:1000B0001B0100081B0100081B0100081B010008B0
:1000C0001B0100081B0100081B0100081B010008A0
:1000D0001B0100081B0100081B0100081B01000890
:1000E0001B0100081B0100081B010008DFF80CD0F1
:1000F00000F08EFC004800474D28000880040020D6
:100100000648804706480047FEE7FEE7FEE7FEE7B1
:10011000FEE7FEE7FEE7FEE7FEE7FEE7110E00085A
:10012000ED000008F0B480EA0102D40F4200B2EB07
:10013000410F02D20246084611464A0042D0C30D82
:10014000DDB2C1F3C752AD1A202D35DAC1F3160165
:1001500041F4000204B15242C5F1200602FA06F150
:100160002A411044B3EBD05F23D0C4B1012DA0EBE2
:10017000C35009DCF0BC4FF0004202EAC352DBB2CC
:1001800000F5000000F04FBB400000F1807000EB74
:10019000C350A0F1807040EAD170490009E04908DD
:1001A00041EAC071A0EBC35000F50000400800EB2D
:1001B000C350F0BC00F02EBB6142012202EB4101B2
:1001C000001BF6E7F0BC704781F00041AAE780F021
:1001D0000040A7E780EA010210B502F000434000AA
:1001E00022D04A001FD0010E01EB1261C0F356006D
:1001F000C2F3560240F4000042F40002A0FB0220C9
:1002000000047F39140400D0401C50EA124001D48D
:100210004000491EC2B20C0604EBD010401C40083E
:10022000802A02D003E0002010BD20F00100002948
:1002300000DA0020184310BD30B480EA010202F059
:10024000004530F0004221F0004013D090B1C30DC2
:10025000D40DC2F31601C0F31600E41A41F40001F4
:1002600040F400027D34914201D3641C00E0490057
:10027000002C02DA30BC002070474FF4000000234D
:10028000914201D3891A034340084FEA4101F7D153
:1002900051B1914202D14FF0004105E002D24FF03E
:1002A000010101E06FF0010103EBC450284430BCB0
:1002B00000F0B0BA2DE9FE4F804681EA0300C00F7E
:1002C0000C46009021F0004123F00045B8EB0200FD
:1002D000A94105D24046214690461C460B4602469F
:1002E00023F00040104347D0270DC7F30A00C3F3A3
:1002F0000A510290401A019040286BDAC3F31300B0
:1003000040F4801B0098924620B10023D2EB030AF0
:1003100063EB0B0B01985946C0F14002504600F0C8
:1003200058FA06460D4650465946019A00F060FAC2
:1003300010EB08006141002487EA115284EAE77358
:100340001A4340D0009A62B3019A012A4FEA075239
:1003500015DC001B61EB02014FF0004202EA07527C
:10036000CDE90042001C41F5801132462B4600F0D9
:1003700097FA03B0BDE8F08F40462146F9E7001B2D
:1003800061EB0201001C41F5801300185B4120184D
:10039000A2F5001747EB030140EAD570B6196D418D
:1003A00011E06D084FEA360645EAC0754FEA07527C
:1003B000001B61EB0201001C41F5801149084FEA66
:1003C00030000019514132462B4603B0BDE8F04FD2
:1003D00000F057BA0098012240000023D0EB02023F
:1003E00063EBE073009821464FEAE074B8EB00003D
:1003F00061EB0401E9E783F000435BE781F0004132
:1004000058E72DE9FE4F81EA030404F0004421F08F
:10041000004100944FF0000B23F0004350EA010428
:100420005ED052EA03045BD0C3F30A54C1F30A5509
:100430002C44A4F2F3340194A0FB0254C1F3130141
:1004400041F48011C3F3130343F4801301FB02440E
:1004500000FB034E840A970A44EA815447EA835713
:10046000A4FB076802958D0A05FB07854FEA932CCC
:1004700004FB0C542705029D4FEA065847EA16373D
:10048000B5EB08056EEB070C870E920E47EA811755
:1004900042EA8312A7FB0201B6EB0B0164EB0004F6
:1004A0002B0D43EA0C335E1844EB1C50DA465146E0
:1004B000E7FB0201C5F313044FEA0B3343EA14537D
:1004C0004FEA0432019C43EA0603A4F10C040294AF
:1004D000009CCDE900B400F0E3F903B0BDE8F08F73
:1004E00000200146F9E72DE9F04D81EA030404F00C
:1004F000004B21F0004514464FF0000A23F0004164
:1005000050EA050220D054EA01021DD0C5F30A5773
:100510000246C5F31303C1F31300C1F30A5640F4B6
:10052000801543F48013A7EB0608101BD64608F28B
:10053000FD3873EB050002D308F1010801E09218C1
:100540005B41B8F1000F03DA00200146BDE8F08DF1
:1005500000204FF48011064684460EE0171B73EB13
:10056000050705D3121B63EB050306434CEA010C98
:1005700049084FEA300092185B4150EA0107EDD17B
:1005800052EA030012D082EA040083EA050108431C
:1005900005D0101BAB4106D20122002306E0002249
:1005A0004FF0004302E06FF0010253101AEB060017
:1005B0004CEB085110EB0A0041EB0B01BDE8F04D8C
:1005C00000F05FB9C10F80EAE0700844CA079623C3
:1005D000002100F028B996230022114600F023B92B
:1005E0000EB5C10F80EAE0700844CA07002140F24E
:1005F00033438DE80E000A460B4600F051F903B074
:1006000000BD00F0004220F00040C10DC0F3160014
:1006100040F400007F2901DA00207047962903DCAE
:10062000C1F19601C84001E096398840002AF4D013
:100630004042704720F00040C10DC0F3160040F466
:1006400000007F2901DA00207047962903DCC1F100
:100650009601C840704796398840704700F00042C4
:1006600030F000400AD0C10D01F56071C0F31600F2
:1006700042EA0151C2084007114370470020014679
:100680007047000030B5041E71F1000404DB4FF028
:100690000044404264EB0101141E73F1000405DBC9
:1006A0001C464FF00043524263EB04038B4208BFE9
:1006B000824230BD30B5041E71F1000404DB4FF0FE
:1006C0000044404264EB0101141E73F1000405DB99
:1006D0001C464FF00043524263EB0403994208BFAB
:1006E000904230BD01F0004330B421F0004150EAA7
:1006F000010206D00A0DA2F56072C1F31301002AAF
:1007000002DC30BC00207047440F44EAC104C10041
:10071000E01830BC00EBC25000F07CB8002801DBD0
:10072000C0F10040002901DBC1F100418142704766
:10073000002801DBC0F10040002901DBC1F10041CC
:100740008842704730B50B46014600202022012424
:1007500009E021FA02F59D4205D303FA02F5491B8F
:1007600004FA02F52844151EA2F10102F1DC30BDA5
:100770002DE9F05F0546002092469B4688460646D6
:10078000814640241BE0284641464746224600F069
:1007900051F953465A46C01A914110D31146184692
:1007A000224600F016F82D1A67EB01084F46224644
:1007B0000120002100F00DF817EB00094E41201E2A
:1007C000A4F10104DFDC484631462A464346BDE831
:1007D000F09F202A04DB203A00FA02F10020704743
:1007E0009140C2F1200320FA03F31943904070476F
:1007F000202A06DBCB17203A41FA02F043EAE073E5
:1008000006E041FA02F3D040C2F1200291400843D1
:10081000194670470029A8BF7047401C490008BF0F
:1008200020F00100704710B4B0FA80FC00FA0CF020
:1008300050EA010404BF10BC704749B1CCF1200458
:1008400021FA04F411FA0CF118BF012121430843E5
:10085000A3EB0C01CB1D4FEA00614FEA102042BF11
:10086000002010BC704700EBC35010440029A4BF07
:1008700010BC7047401C490008BF20F0010010BCAC
:10088000704710B5141E73F1000408DA401C41F1E2
:10089000000192185B411A4301D120F0010010BD04
:1008A0002DE9F04D92469B4611B1B1FA81F202E07A
:1008B000B0FA80F220329046FFF78BFF04460F46D5
:1008C00040EA0A0041EA0B0153465A46084313D056
:1008D000114653EA010019D0C8F14002504600F019
:1008E000A9F805460E46504659464246FFF771FFA5
:1008F000084305D0012004E020463946BDE8F08DCC
:100900000020054346EAE0762C4337430A98630506
:10091000E40AA0EB08000022FD0A44EA47540A302A
:1009200002D500200146E9E7010510196941DDE91A
:10093000084500196941BDE8F04DA2E72DE9F04DE9
:1009400000231A461B1A8A4103DB00200146BDE83A
:10095000F08DC1F30A52C1F3130141F480154FF039
:10096000000BD10702D100186D41521E002704462A
:1009700040F2FF11384601EB620A3E4680460246CD
:1009800000204FF4801100F055F8C2197141BB18D6
:1009900046EB0100B4EB030C75EB000C04D3E41A36
:1009A00065EB000517460E46241908F101006D415C
:1009B00080463428E3DDF91946EB0600091BA841FF
:1009C00003D24FF0FF32134601E0002213461BEB27
:1009D000070046EB0A51BDE8F04DFFF752BFC1F3E7
:1009E0000A52C1F3130140F2FF3341F480119A42DD
:1009F00002DA00200146704740F233439A42A2F2E5
:100A0000334202DC524200F015B8FFF7E2BE0000AC
:100A1000064C074D06E0E06840F0010394E807004B
:100A200098471034AC42F6D3FFF764FB1039000846
:100A300030390008202A04DB203A21FA02F0002194
:100A4000704721FA02F3D040C2F1200291400843DE
:100A50001946704700BFFEE770472DE9F041024696
:100A600000250026002000230024002791F803C061
:100A70000CF00F0591F803C00CF0100CBCF1000F46
:100A800003D091F802C04CEA050591F800C0BCF112
:100A9000000F31D0146800202BE04FF0010C0CFA4D
:100AA00000F3B1F800C00CEA03069E4220D1830097
:100AB0004FF00F0C0CFA03F7BC4305FA03FC4CEAA9
:100AC000040491F803C0BCF1280F06D14FF0010CCB
:100AD0000CFA00FCC2F814C00AE091F803C0BCF1A3
:100AE000480F05D14FF0010C0CFA00FCC2F810C001
:100AF000401C0828D1D31460B1F800C0BCF1FF0F2E
:100B000034DD546800202EE000F1080C4FF001089D
:100B100008FA0CF3B1F800C00CEA03069E4221D19A
:100B200083004FF00F0C0CFA03F7BC4305FA03FCEB
:100B30004CEA040491F803C0BCF1280F05D100F180
:100B4000080C08FA0CF8C2F8148091F803C0BCF144
:100B5000480F07D100F1080C4FF0010808FA0CF813
:100B6000C2F81080401C0828CED35460BDE8F08144
:100B70000246002093680B400BB1012000E00020EA
:100B80007047416170470161704700BFFEE700BFD9
:100B9000FEE770477047000029B1064AD269024358
:100BA000044BDA6104E0034AD2698243014BDA6103
:100BB000704700000010024029B1064A92690243C2
:100BC000044B9A6104E0034A92698243014B9A61A3
:100BD000704700000010024030B5002100220024C0
:100BE00000232D4D6D6805F00C0121B1042905D0BD
:100BF000082923D105E0294D056022E0274D056035
:100C00001FE0254D6D6805F47012234D6D6805F4E5
:100C10008034022505EB92421CB9214D55430560F5
:100C20000BE01D4D6D6805F400351DB11C4D55439D
:100C3000056002E0194D5543056002E0174D05605F
:100C400000BF00BF144D6D6805F0F0010909154D96
:100C50006B5C0568DD4045600F4D6D6805F4E06133
:100C6000090A104D6B5C4568DD4085600A4D6D6872
:100C700005F46051C90A0B4D6B5C4568DD40C560E9
:100C8000054D6D6805F44041890B074D6B5CC568E7
:100C9000B5FBF3F5056130BD0010024000127A008B
:100CA00000093D00000000201000002021B1028852
:100CB00042F04002028004E002884FF6BF731A40FF
:100CC000028070470246002013890B400BB10120BF
:100CD00000E0002070470146888970478181704795
:100CE00010B50022028802F441520B884C8823433D
:100CF0008C882343CC8823430C8923434C8923438A
:100D00008C892343CC8923431A430280838B4FF27F
:100D1000FF74234083830B8A038210BD704710B594
:100D200000F002F810BD00000CB50020019000900A
:100D30003348006840F480303149086000BF3048D3
:100D4000006800F4003000900198401C0190009869
:100D500018B90198B0F5A06FF1D12948006800F4E6
:100D6000003010B10120009001E0002000900098B8
:100D7000012843D12348006840F010002149086051
:100D80000846006820F0030008600846006840F04C
:100D9000020008601A4840681949486008464068DF
:100DA00048600846406840F48060486008464068F3
:100DB00020F47C1048600846406840F4E810486021
:100DC0000846006840F08070086000BF0C4800686A
:100DD00000F000700028F9D00948406820F00300B6
:100DE000074948600846406840F00200486000BF7C
:100DF0000348406800F00C000828F9D10CBD000041
:100E0000001002400020024010B501F093F910BD1F
:100E100010B51348006840F0010011490860084609
:100E20004068104908400E494860084600680E496D
:100E300008400B4908600846006820F480200860DC
:100E40000846406820F4FE0048604FF41F008860A8
:100E5000FFF765FF4FF000600449086010BD000017
:100E6000001002400000FFF8FFFFF6FE08ED00E072
:100E700021B1028842F00102028004E002884FF6AC
:100E8000FE731A400280704770B5002400220023D0
:100E9000058C4FF6FE7635400584028C8388048BE2
:100EA0004FF68F752C40B51E2C400D882C43751EB7
:100EB0002A400D892A434D882A43144DA8420BD05D
:100EC000134DA84208D0134DA84205D0124DA84298
:100ED00002D0124DA84213D14FF6F7752A404D8922
:100EE0002A434FF6FB752A408D882A434FF6FF654B
:100EF0002B404FF6FF552B408D892B43CD892B433B
:100F000083800483CD888586028470BD002C0140D7
:100F100000340140004001400044014000480140CD
:100F20000A460021018B4FF6F773194011430183E4
:100F30007047000070B5002400220023058C4FF696
:100F4000EF7635400584028C8388048B48F6FF7564
:100F50002C404FF6FF452C400D884FF6FF7606EAF1
:100F600005252C434FF6DF752A400D8906EA051545
:100F70002A434D8806EA05152A43154DA84202D09A
:100F8000144DA8421DD14FF67F752A404D894FF66A
:100F9000FF7606EA05152A434FF6BF752A408D886D
:100FA00006EA05152A434FF6FF352B404FF2FF7531
:100FB0002B408D8906EA85052B43CD8906EA8505F8
:100FC0002B4383800483CD880587028470BD000095
:100FD000002C0140003401400A460021018B4FF2F1
:100FE000FF7319404FF6FF7303EA0223194301838D
:100FF0007047000070B5002400220023058C4FF6D6
:10100000FF6635400584028C8388848B4FF68F758C
:101010002C404FF6FC752C400D882C434FF6FF55A5
:101020002A400D894FF6FF7606EA05252A434D88AA
:1010300006EA05252A43154DA84202D0144DA842C0
:101040001DD14FF2FF752A404D894FF6FF7606EA13
:1010500005252A434FF6FF352A408D8806EA0525E7
:101060002A434EF6FF752B404DF6FF752B408D89B8
:1010700006EA05152B43CD8906EA05152B43838027
:101080008483CD888587028470BD0000002C0140D8
:10109000003401400A460021818B4FF6F773194056
:1010A000114381837047000070B5002200230024A3
:1010B000058C4EF6FF7635400584038C8488828B40
:1010C00048F6FF752A404FF6FF452A400D884FF637
:1010D000FF7606EA05252A434DF6FF752B400D895C
:1010E00006EA05352B434D8806EA05352B430B4DA3
:1010F000A84202D00A4DA84208D14BF6FF752C40F9
:101100008D894FF6FF7606EA85152C43848082830D
:10111000CD88A0F84050038470BD0000002C014031
:10112000003401400A460021818B4FF2FF731940C1
:101130004FF6FF7303EA02231943818370478186C8
:1011400070470187704781877047A0F8401070474B
:10115000002202881D4B98420ED01D4B98420BD0A6
:10116000B0F1804F08D01B4B984205D01A4B9842E3
:1011700002D01A4B984204D14FF68F731A404B8815
:101180001A43174B984207D0164B984204D04FF69B
:10119000FF431A40CB881A4302808B8883850B88D3
:1011A00003850A4B98420BD0094B984208D00E4B4E
:1011B000984205D00D4B984202D00D4B984201D178
:1011C0000B7A03860123838270470000002C0140C4
:1011D000003401400004004000080040000C0040C2
:1011E0000010004000140040004001400044014055
:1011F0000048014021B1828942F40052828104E01A
:1012000082894DF6FF731A408281704702460020A2
:10121000B1F5007F00D100BF13880B400BB1012056
:1012200000E00020704700002DE9F04786B0054639
:101230000E460024A24600BFA1460027B08900B197
:1012400000BF2F462C8A4CF6FF700440F088044300
:101250002C82AC894EF6F3100440B08831890843E3
:10126000718908430443AC81AC8A4FF6FF400440C7
:10127000B0890443AC8201A8FFF7AEFC1F48874247
:1012800002D1DDF810A001E0DDF80CA0A88900F47F
:10129000004040B10AEBCA0000EB0A103168490077
:1012A000B0FBF1F807E00AEBCA0000EB0A10316866
:1012B0008900B0FBF1F86420B8FBF0F004012009CC
:1012C000642101FB1089A88900F4004040B132205C
:1012D00000EBC900B0FBF1F000F00700044308E0A8
:1012E000322000EB09106421B0FBF1F000F00F0098
:1012F00004432C8106B0BDE8F087000000380140AF
:10130000C1F308028280704700BFFEE70FB4054BAF
:1013100010B503A9044A029800F0D0F810BC5DF89B
:1013200014FB0000912200085000002002E008C8D1
:10133000121F08C1002AFAD170477047002001E04F
:1013400001C1121F002AFBD170470000014908604B
:1013500070470000540000202DE9FF5FDDE9022006
:10136000010DDDF838B0024318D044F61050A1F258
:10137000FF3141430D140F98012820D0A5EB0B003D
:10138000401C5FEA000A4FF00004474EDFF81C9152
:10139000A046504616D5CAF1000728E00F98012450
:1013A00043A2012808D0002100980F9BC0E900212A
:1013B000C0E90243BDE8FF9F6FEA0B01F4E7CBF100
:1013C0000000DEE7074612E0F80707D02246334662
:1013D00040464946FFF715F880468946224633467F
:1013E00010461946FFF70DF804460E467F10002FF1
:1013F000EAD1DDE90201BAF1000F42464B4602DABA
:10140000FEF7FFFF01E0FFF76EF804460E460022EC
:10141000284BFFF74FF903D84FF0FF30014607E0A4
:101420000022254B20463146FEF744FFFFF7D7FA4E
:10143000102409E0002C0ADB0A220023FFF798F9A8
:10144000019B30321A55641E50EA0102F2D1641C2D
:10145000019AC4F1110314440F9A012A03D0012206
:1014600008430DD10AE0084304D000204FF0110BCF
:101470000F9080E7A3EB0B056D1E0DE05B4504DDCF
:101480004FF0000205F1010504E003DA4FF000021D
:10149000A5F10105002AECD000980F99C0E90231AE
:1014A000C0E9004586E70000000024400000F03F4E
:1014B000300000000000F0430000E03F2DE9FF4F46
:1014C00095B09B468946064600250FE2252877D130
:1014D00000242746F84A0121059400E0044316F849
:1014E000013F203B01FA03F01042F7D130782A285F
:1014F00011D06FF02F033078A0F13002092A16D8EE
:10150000059A44F0020402EB820203EB420210440B
:10151000761C0590EFE759F8042B0592002A03DAB0
:10152000504244F40054059044F00204761C307894
:101530002E2816D116F8010F44F004042A280DD0E5
:101540006FF02F023078A0F13003092B09D807EB98
:10155000870302EB4303C718761CF3E759F8047BB3
:10156000761C30786C280FD006DC4C2817D0682801
:101570000DD06A2814D104E0742810D07A280FD135
:101580000DE044F400140AE044F4801401E044F453
:1015900040147278824202D104F58014761C761CC5
:1015A000307866280BD013DC582877D009DC002867
:1015B00075D04528F6D04628F4D047281AD19DE1A9
:1015C00018E0632835D0642879D0652812D195E1D8
:1015D000702873D008DC6728F1D069286FD06E2896
:1015E0000DD06F2806D1B5E073282CD0752875D0A2
:1015F000782874D05A46179990476D1C75E1C4F34A
:101600000250022809D003280DD0D9F80010042870
:101610000DD00D6009F1040967E1D9F80010EA174F
:10162000C1E90052F6E7D9F800100D80F2E70D701D
:10163000F0E719F8041B8DF8001000208DF8010068
:10164000EA46012003E059F804AB4FF0FF30610790
:101650004FF0000102D40DE008F101018846B942C3
:101660000FDA8045F8DB1AF808100029F4D108E0F9
:1016700008F1010188468142FADB1AF808100029B6
:10168000F6D105985B46A0EB080721463846179A25
:1016900000F094FA284400EB080507E04DE029E14A
:1016A0000DE01AF8010B5A4617999047B8F1010856
:1016B000F7D25B4621463846179A13E142E00A22E8
:1016C0000092C4F302524FF0000A022A08D059F8DF
:1016D00004CB032A4FEAEC710AD00DE029E02AE09E
:1016E00009F1070121F00702F2E802C1914609E081
:1016F0000FFA8CFC4FEAEC71042A03D14FFA8CFCF0
:101700004FEAEC71002907DA0A460021DCF1000CEF
:1017100061EB02012D2202E0220504D52B228DF877
:101720000420012203E0E20701D02022F7E79046DF
:1017300059E00A2102E010220DE010214FF0000ACA
:1017400000910BE010224FF0000A44F00404082737
:10175000009203E008224FF0000A0092C4F3025204
:10176000022A05D059F804CB0021032A08D009E049
:1017700009F1070121F00702F2E802C1914605E0F4
:101780001FFA8CFC042A01D10CF0FF0C4FF000086A
:10179000220728D5702806D0009B83F0100353EA57
:1017A0000A0305D00EE040228DF80420012208E053
:1017B0005CEA010206D030228DF804208DF8050085
:1017C00002229046009B83F0080353EA0A030AD1E1
:1017D0005CEA010201D1620705D530228DF80420B0
:1017E0004FF001087F1E582804D034A003900EA8A3
:1017F00002900DE036A0F9E753466046009AFEF7E6
:10180000B7FF84460398825C0298401E02900270E3
:101810005CEA0100F0D1029806A9081A00F1200A3A
:10182000600702D524F4803400E00127574502DD2B
:10183000A7EB0A0000E0002000EB0A0100900598E9
:101840004144401A0590E00306D45B462146179AAE
:10185000059800F0B3F90544002706E001A85A46B0
:10186000C05D179990476D1C7F1C4745F6DBE00370
:101870000CD55B462146179A059800F09FF9054460
:1018800004E030205A46179990476D1C0099481E75
:1018900000900029F5DC08E0029802995A46007889
:1018A000491C0291179990476D1CBAF10001AAF1E9
:1018B000010AF1DC65E10000092801003031323312
:1018C000343536373839616263646566000000007C
:1018D0003031323334353637383941424344454666
:1018E0000000000000F058F90544761C307800280C
:1018F0007FF4ECAD19B02846BDE8F08F620700D444
:10190000062709F1070222F0070CFCE80223E14652
:1019100003F000485FEA080C02D00FF2702C0DE0D3
:101920005FEA045C02D50FF2682C07E05FEAC47C32
:1019300002D00FF2602C01E0AFF2700C4FF0FF38D4
:1019400023F00043CDF850C065280CD006DC4528B4
:1019500009D046281DD047283DD13DE0662818D043
:1019600067287ED138E00021112F01DB112000E033
:10197000781CCDE9000106A90EA8FFF7EDFCDDE912
:101980000F010E9A03910021009207F1010A0491C0
:101990004DE04FF000400097CDE9011006A90EA8D8
:1019A000FFF7DAFCDDE90F0203920E9B119900228A
:1019B000DDF80CA00093049211B9791C00EB010A28
:1019C000B7EB0A0004D4C0F1FF3007F1010A04901C
:1019D000AAEB0700019044E0012F00DA0127002163
:1019E000112F01DD112000E03846CDE9000106A9E4
:1019F0000EA8FFF7B1FCDDE90F010E9A039100215B
:101A000004910092BA4621070CD40399514500DA9B
:101A10008A46BAF1010F05DD009AAAF10101515C75
:101A2000302908D0B84202DA10F1040F06DA012199
:101A3000CDE9011015E0AAF10101E9E7002805DC74
:101A4000049901440491AAEB000102E0411C5145B4
:101A500000DD8A460499401A401C01904FF0004076
:101A60000290200704D40198504501DBCDF8048092
:101A700000208DF84F0002980DF14F07B0F1004F94
:101A800025D02B200E9002984FF0020800280CDA87
:101A9000404202902D200E9007E00A210298FEF7A6
:101AA00051FE3031029007F8011DB8F10001A8F194
:101AB0000108F2DC02980028EFD1791E0E98087018
:101AC000307800F0200040F0450007F8020D12A821
:101AD000C01B00F107081498007800B1012000EB4A
:101AE0000A01019801EBE07105984144401A401E3B
:101AF0000590E00306D45B462146179A059800F04E
:101B00005DF805441498007818B15A461799904723
:101B10006D1CE00324D55B462146179A059800F01A
:101B20004DF805441CE00498002807DBDDE90301BB
:101B3000884203DD0098405C179901E01799302036
:101B40005A469047049805F10105401C04900198FD
:101B5000401E019004D12E205A46179990476D1CC3
:101B6000BAF10001AAF1010ADDDC05E017F8010B6A
:101B70005A46179990476D1CB8F10001A8F1010869
:101B8000F4DC5B462146179A0598ABE62D00000071
:101B90002B000000200000002DE9F0410446002544
:101BA0001E461746880404D405E039462020B04775
:101BB0006D1C641EF9D52846BDE8F0812DE9F04181
:101BC000044600251E469046C80301D5302700E094
:101BD0002027880404D505E041463846B0476D1CEF
:101BE000641EF9D52846BDE8F08110B504460021F1
:101BF0002046FEF793FD02D284F0004010BD20463F
:101C0000FCE700002DE9F34F85B089464946059869
:101C1000FEF712FB04904846FFF7E7FF05460598DC
:101C2000FFF7E3FF06462946FEF778FD3AD237482C
:101C30000499FEF7CFFA01900499FEF7CBFA80469B
:101C40004FF07E51FEF76EFA0746FEF707FD054698
:101C50000E460498FEF702FD07464FF066322C4B05
:101C6000FEF7CFFB2A463346CDE90201FEF73BFCE7
:101C70008246FEF737FD044600214846FEF74EFD3A
:101C80003FD200210598FEF749FD05D221492046A3
:101C9000FEF79AFA044634E01E492046FEF742FA5F
:101CA00004462EE004990846FEF794FA8346174945
:101CB000FEF738FA8246FEF7D1FCCDE90001049820
:101CC000FEF7CCFC82464FF06632114BFEF799FBD3
:101CD0000746DDE90023FEF706FC054600220E4B11
:101CE000FEF78CFBCDE90201FEF7FCFC0446002167
:101CF0000598FEF713FD04D206492046FEF764FA64
:101D00000446204607B0BDE8F08F0000295C8F3EF6
:101D100066A64C4000003443008056400FB42DE9C5
:101D2000F04F87B0DDE9176A169D4FF07E5B4FF0EC
:101D300080400690564805900020049081464FF45C
:101D4000FA70019053480090002494E0022C2ADAA3
:101D500055F824005049FEF7EBFC03D24E4845F8F5
:101D6000240008E055F824004C49FEF7D7FC02D2C5
:101D70004A4845F8240010AA52F8241055F82400C7
:101D8000FEF722FA07460699FEF724FA02A941F85F
:101D9000240013AA52F8241002AA52F82400FEF7D5
:101DA00013FA81460DE055F824104FF08140FEF7FC
:101DB00011FA074613A850F824103846FEF704FA23
:101DC000814649465846FEF705FA04904846009970
:101DD000FEF700FA80460599FEF7FCF90746304801
:101DE00050F824103846FEF79DF92D4941F824009B
:101DF00051F824002B49FEF79BFC04D229482849BE
:101E000041F824000AE0264951F824002649FEF74B
:101E100085FC03D22448224941F82400BAF1640F1A
:101E200003DA00201E4941F8240014B91FA0FFF76F
:101E30006DFA0498FEF712FC07463A460B4622A0BC
:101E4000FFF764FA164951F82400FEF707FC07462D
:101E50003A460B4620A0FFF759FA114850F82410D3
:101E60000498FEF75FF90746FEF7CBFB00B226F8B1
:101E70001400601CC4B2032CFFF668AFE868FEF7DC
:101E8000C0FB00B2F08007B0BDE8F00F5DF814FBB6
:101E9000000070420AD7A33C00004842000048C23C
:101EA000700000200000FA430000FAC32D2D2D2DF4
:101EB0002D2D2D2D2D2D2D2D2D2D2D2D2D2D2D2D52
:101EC0002D2D2D2D2D0A000050207465726D3A25A0
:101ED0002E32660A0000000049207465726D3A25B2
:101EE0002E32660A000000002DE9F04F8BB0064646
:101EF0000D46DFF868910024594807904FF0000A1A
:101F0000284601F056FA17E005F11C0151F82400AB
:101F10000799FEF75FF907465249FEF75BF908A9F2
:101F200041F8240005F11C0050F8241006F10C00C3
:101F300040F82410601CC4B2032CE5DB00240EE042
:101F400005F1100252F8241052F82400FEF742F96D
:101F500007465146FEF7E6F88246601CC4B2032CE1
:101F6000EEDB504600F06CF9069000240CE005F121
:101F7000100151F824000699FEF72CF905F1100123
:101F800041F82400601CC4B2032CF0DB08A93648D9
:101F900001F012F95046FEF761FB4FF06632334B09
:101FA000CDE90401FEF786FB01D2012000E000200C
:101FB0008346FEF715FB07462D4A2E4BFEF762FBC4
:101FC00020D200241CE049464FF07E50FEF7AAF8CC
:101FD0008046254850F824104846FEF7FBF8834613
:101FE00005F1100050F824105846FEF79BF80746FC
:101FF0004146FEF721F91C4941F82400601CC4B297
:10200000032CE0DB184A91689068FEF7E3F8164A63
:10201000029011681068FEF7DDF801900299FEF752
:1020200081F80390FEF71AFBCDE9040101F0DAFB19
:102030000746FEF757FB83460B4948685946FFF7AA
:10204000E1FD3060084A91681068FFF7DBFD80F021
:10205000004070600BB0BDE8F08F00000000484306
:102060000AD7A33C4DF38E3C440000206666E63F51
:10207000CDCCCCCCCCCCF43F2DE9F04705460E4678
:102080000024A046284600F001FF00BF47E006F10B
:10209000180151F824002449FEF74AFB07D306F142
:1020A000180151F824002149FEF738FB06D2022C12
:1020B00004D04FF47A7025F8140026E006F11801D8
:1020C00051F824001849FEF733FB07D306F1180135
:1020D00051F824001549FEF721FB05D2022C03D14B
:1020E000002025F8140010E035F81400FEF773FA0C
:1020F000814606F1180050F824104846FEF764F8AF
:102100000746FEF797FA25F81400094830F814003E
:1021100035F81410401A0FFA80F8601CC4B2042C71
:10212000B5DBBDE8F087000000004842000048C26F
:102130003800002002480068401C014908607047D0
:102140004000002010B502A0FFF7E0F810BD00002D
:1021500044656275672D75736172743120697320EF
:10216000776F726B696E670A000000001FB501216E
:102170008803FEF721FD4FF4E13000900020ADF818
:102180000C000C20ADF80A000020ADF80800ADF8F6
:102190000600ADF8040069460348FFF745F8012141
:1021A0000148FFF727F81FBD0038014008B501219D
:1021B0000420FEF701FD03208DF8020018208DF8A1
:1021C00003004FF40070ADF8000069460748FEF7C1
:1021D00044FC4FF48060ADF8000004208DF803004B
:1021E00069460248FEF739FC08BD000000080140BE
:1021F00010B501F03DFBFFF7A5FF10BD01B502E0F2
:102200000098401E009000980028F9D108BD00B544
:102210000620FFF7F3FF00BD00B50F20FFF7EEFF2C
:1022200000BD0021002200BF07E0002201E0531C96
:102230009AB28242FBDB4B1C99B28142F5DB7047BC
:102240002DE9F05F04464FF07F594FF07C51204656
:10225000FDF7C0FF824625462E460C48A0EB6606D9
:10226000354629465046FDF7B5FF83462946FDF71A
:10227000B1FF80464946FDF7AAFF07462946FDF70C
:10228000A9FF05462846BDE8F09F0000DF59375FEB
:1022900070B504460D46E1B20548FFF731F800BFBE
:1022A00080210348FEF7B2FF0028F9D0204670BD18
:1022B000003801402DE9F04705460E4600244FF056
:1022C0007F5805F1100000F034F905F11C0000F012
:1022D00081F900BF1BE056F8241005F1100252F8F6
:1022E0002400FDF771FF05F1100141F8240006F10B
:1022F0000C0252F8241005F11C0252F82400FDF7DC
:1023000063FF05F11C0141F82400601CC4B2032CDA
:10231000E1DB00241EE005F11C0050F824104FF012
:102320008140FDF757FF81460C4850F8241048467D
:10233000FDF7F8FE07460A49FDF77EFF05F11C018F
:1023400041F82400084650F82400044941F82400CC
:10235000601CC4B2032CDEDBBDE8F0876400002003
:102360000000A04070B50446A0881E2803DD0020B0
:102370002249088070BDE58840F2B27085421CDDBC
:102380001E48B0F90000FA2806DA1C480088401CF4
:1023900000B21A4908802EE01848B0F90000FA2867
:1023A00029D10020154908804FF480711448FEF7A8
:1023B000EAFB0120134908701DE01E2D1BDA0F48AF
:1023C000B0F90000FA2806DA0C480088401C00B278
:1023D0000A4908800FE00948B0F90000FA280AD13C
:1023E0000020064908804FF480710548FEF7C9FBBC
:1023F00000200449087000BFBCE700002000002056
:10240000000C01401E00002008B5002000900122B1
:102410006946752000F06CF99DF80000682801D12C
:10242000012008BD0020FCE710B520216A2000F043
:10243000B5F90821242000F0B1F91321342000F06F
:10244000ADF90121672000F0A9F91E21252000F037
:10245000A5F90021262000F0A1F90421632000F055
:102460009DF98121272000F099F91E21252000F0F7
:1024700095F90121262000F091F9E021632000F078
:102480008DF98121272000F089F91E21252000F0F7
:1024900085F90221262000F081F90021632000F057
:1024A0007DF98121272000F079F910BD002000215D
:1024B00000BF08E0002101E04A1C91B2B1F57A7F2B
:1024C000FADB421C90B2B0F57A7FF3DB704710B5AF
:1024D00020216A2000F062F90821242000F05EF932
:1024E0009E21252000F05AF90321262000F056F9FC
:1024F0008621272000F052F910BD10B500F0FCFA3B
:10250000FFF7D4FF00216B2000F048F907211920C4
:1025100000F044F906211A2000F040F900211C20A7
:1025200000F03CF918211B2000F038F9FFF76CFF90
:1025300010BD7FB50446062269463B2000F0D8F85E
:102540009DF801009DF8001040EA012000B2ADF8AE
:1025500008009DF803009DF8021040EA012000B237
:10256000ADF80A009DF805009DF8041040EA01202E
:1025700000B2ADF80C00BDF90800FEF723F80646DE
:102580004FF08041FDF726FE05464FF08E41FDF7E6
:1025900053FE2060BDF90A00FEF714F806464FF01E
:1025A0008041FDF717FE05464FF08E41FDF744FED2
:1025B0006060BDF90C00FEF705F806464FF080415B
:1025C000FDF708FE05464FF08E41FDF735FEA06091
:1025D0007FBD00007FB5044606226946432000F017
:1025E00087F89DF801009DF8001040EA012000B234
:1025F000ADF808009DF803009DF8021040EA0120A4
:1026000000B2ADF80A009DF805009DF8041040EAFC
:10261000012000B2ADF80C00BDF90800FDF7D2FFB3
:1026200006461349FDF7D6FD05464FF08E41FDF7EE
:1026300003FE2060BDF90A00FDF7C4FF06460C4901
:10264000FDF7C8FD05464FF08E41FDF7F5FD6060D2
:10265000BDF90C00FDF7B6FF06460549FDF7BAFDCA
:1026600005464FF08E41FDF7E7FDA0607FBD0000FD
:102670000000FA4410B500F02BFB4FF47A70FFF71E
:10268000D0FD1E2000F006F84FF47A70FFF7C9FD68
:1026900010BD000070B505464FF4005400F06CFB0F
:1026A000EE2000F037FB06E024B901210EA000F077
:1026B000B3F870BD641E00F097FB0028F4D14FF40E
:1026C0000054284600F026FB06E024B9022106A0AB
:1026D00000F0A2F8EDE7641E00F086FB0028F4D1BC
:1026E00000F066FB0120E4E74D5335363131000040
:1026F0002DE9F04107460D4616464FF4005400F010
:1027000097FAD02000F066FA07E02CB9012121A049
:1027100000F082F8BDE8F081641E00F0B9FA0028EC
:10272000F3D14FF40054384600F054FA06E024B9CF
:10273000022118A000F070F8ECE7641E00F0A8FA7F
:102740000028F4D14FF4005400F072FAD12000F0C8
:1027500041FA06E024B903210EA000F05DF8D9E7A4
:10276000641E00F095FA0028F4D10FE0012E06D186
:10277000002000F007FA287000F072FA04E001204F
:1027800000F000FA28706D1C701EC6B2002EEDD14C
:102790000120BFE74D5055363035300070B5064644
:1027A0000D464FF4005400F043FAD02000F012FA26
:1027B00006E024B9012116A000F02EF870BD641EB9
:1027C00000F066FA0028F4D14FF40054304600F0CF
:1027D00001FA06E024B902210DA000F01DF8EDE792
:1027E000641E00F055FA0028F4D1284600F0F2F9F2
:1027F00006E024B9032106A000F00EF8DEE7641E0F
:1028000000F046FA0028F4D100F02AFA0120D5E7BA
:102810004D5055363035300070B504460D462A46C9
:10282000214602A0FEF772FD002070BD25732049ED
:102830003243B5C8B4FDB3ACCAB1A3A16572726F1F
:10284000725F636F6465203D25640A00AAB00020B2
:102850000F90109000F0BAFD1BA911A800F0EDFC3C
:1028600034E011A91BA8FFF707FC1BA8FFF77AFDAE
:1028700011A91BA8FFF71EFD1BA909A8FFF734FB30
:1028800005A91BA800F0B6FDBDF870000FA905AAA8
:10289000CDE902210490DDE90D01CDE9000109A88F
:1028A0000FC8FFF73BFA1BA90FA800F010F81DA8EE
:1028B00000F0E4FF562407E0572501E0681E85B2CA
:1028C000002DFBDC601E84B2002CF5DCC9E72DE98D
:1028D000F04F85B004460D4600264FF07E57B4F900
:1028E000060078280EDA00BF07E0E08881B205F123
:1028F000080020F81610701CC6B2042EF5DB05B0D7
:10290000BDE8F08FB4F90600FDF75CFE87F0004AE1
:102910000390B4F90400FDF755FE83465146FDF7D8
:1029200059FC8046B4F90200FDF74CFE394601908F
:10293000FDF750FC824687F000400190B4F900009A
:10294000FDF740FE00900199FDF744FC8346514697
:10295000FDF7E8FB81464146FDF736FC02900399FE
:10296000FDF7E0FB0490FDF765FE2881B4F9060051
:10297000FDF728FE0490B4F90400FDF723FE394664
:102980000390FDF727FC8246B4F90200FDF71AFE1A
:1029900039460190FDF71EFC0390B4F90000FDF7E5
:1029A00011FE39460190FDF715FC02900399FDF7E1
:1029B000B9FB83465146FDF707FC81460499FDF7B4
:1029C000B1FB8046FDF736FE6881B4F90600FDF7DD
:1029D000F9FD87F0004A0490B4F90400FDF7F2FD18
:1029E00083465146FDF7F6FB039087F000400190C7
:1029F000B4F90200FDF7E6FD00900199FDF7EAFB4E
:102A00008246B4F90000FDF7DDFD39460190FDF77F
:102A1000E1FB83465146FDF785FB02900399FDF7E4
:102A2000D3FB81460499FDF77DFB8046FDF702FE4E
:102A3000A881B4F90600FDF7C5FD0490B4F90400BF
:102A4000FDF7C0FD82463946FDF7C4FB87F0004B19
:102A50000390B4F90200FDF7B5FD59460090FDF76B
:102A6000B9FB824687F0004BB4F90000FDF7AAFDE0
:102A700059460090FDF7AEFB51460190FDF752FB21
:102A800002900399FDF7A0FB81460499FDF74AFBEC
:102A90008046FDF7CFFDE88100260EE005F1080035
:102AA00030F81600B0F5FA6F05DD4FF4FA6105F164
:102AB000080020F81610701CC6B2042EEEDB00BF12
:102AC0001DE7000010B580210A48FEF75AF84021A2
:102AD0000848FEF758F8FFF79AFB40210548FEF733
:102AE00050F8FFF794FB80210248FEF74CF8FFF7FF
:102AF0008EFB10BD000C014008B501210820FEF737
:102B00005BF82020ADF8000001208DF8020048207D
:102B10008DF8030069460D48FDF79FFF14208DF8DE
:102B200003004020ADF8000069460848FDF795FF16
:102B30008020ADF8000014208DF80300694603489A
:102B4000FDF78BFF00F08CF808BD0000000C014081
:102B500010B540210A48FEF714F880210848FEF716
:102B600012F8FFF754FB40210548FEF70CF8FFF779
:102B70004EFB40210248FEF704F8FFF748FB10BD6A
:102B8000000C014070B505460024002616E06006E2
:102B9000040E40210E48FDF7F6FFFFF738FB8021B9
:102BA0000B48FDF7E5FF08B1601CC4B2402108489E
:102BB000FDF7E7FFFFF72BFB701CC6B2082EE6DB24
:102BC00015B9FFF7C5FF01E0FFF77CFF204670BD98
:102BD000000C014070B50446002523E004F080009D
:102BE00020B180211148FDF7CEFF03E080210F487E
:102BF000FDF7C7FFFFF70BFB40210C48FDF7C3FFB4
:102C0000FFF705FB40210948FDF7BBFF072D03D166
:102C100080210648FDF7B7FF6006040EFFF7F7FABC
:102C2000681CC5B2082DD9DB70BD0000000C014046
:102C300010B580210948FDF7A6FF40210748FDF7A0
:102C4000A2FFFFF7E9FA80210448FDF79AFFFFF79A
:102C5000E3FA40210148FDF794FF10BD000C01404C
:102C600010B540210948FDF78CFF80210748FDF78A
:102C700088FFFFF7D1FA40210448FDF784FF802147
:102C80000248FDF780FFFFF7C7FA10BD000C0140B6
:102C900010B580210D48FDF776FFFFF7B8FA402107
:102CA0000A48FDF770FFFFF7B2FA80210748FDF7E9
:102CB0005FFF08B1012400E0002440210348FDF734
:102CC00060FFFFF7A4FA204610BD0000000C014091
:102CD00008B501210820FDF76FFF48208DF803009B
:102CE00001208DF802004002ADF800006946084856
:102CF000FDF7B3FE14208DF803004FF44060ADF8EB
:102D0000000069460248FDF7A8FE00F051F808BD32
:102D1000000C014070B50446002528E004F0800056
:102D200028B14FF400611348FDF72DFF04E04FF484
:102D300000611048FDF725FFFFF769FA4FF4806145
:102D40000C48FDF720FFFFF762FA4FF48061094855
:102D5000FDF717FF072D04D14FF400610548FDF77B
:102D600012FF6006040EFFF752FA681CC5B2082D68
:102D7000D4DB70BD000C014010B54FF400610B486E
:102D8000FDF701FF4FF480610848FDF7FCFEFFF7F7
:102D900043FA4FF400610548FDF7F3FEFFF73CFAF4
:102DA0004FF480610148FDF7ECFE10BD000C0140BE
:102DB00010B54FF480610B48FDF7E3FE4FF400615E
:102DC0000848FDF7DEFEFFF727FA4FF4806105485B
:102DD000FDF7D9FE4FF400610248FDF7D4FEFFF77E
:102DE0001BFA10BD000C014010B54FF400610F48F4
:102DF000FDF7C9FEFFF70BFA4FF480610B48FDF7B2
:102E0000C2FEFFF704FA4FF400610848FDF7B0FE78
:102E100008B1012400E000244FF480610348FDF76D
:102E2000B0FEFFF7F4F9204610BD0000000C014091
:102E30002DE9F0410546002600240CE055F8241049
:102E400055F82400FDF7C6F980463146FDF76AF9CA
:102E50000646601CC4B2032CF0DB3046FFF7F0F9E5
:102E60000746002408E055F824003946FDF7B2F97A
:102E700045F82400601CC4B2032CF4DBBDE8F081EB
:102E800010B500F063F900F035F910BD2DE9FC41F3
:102E90000446684600F004FC9DF800109DF80120EF
:102EA00041EA0220FDF78EFB80464FF08B41FDF793
:102EB000C3F907463849FDF78DF906463649FDF74F
:102EC00031F90546FDF7B6FB20809DF802109DF80C
:102ED000032041EA0220FDF775FB80464FF08B414D
:102EE000FDF7AAF907462C49FDF774F906462A4969
:102EF000FDF718F90546FDF79DFB60809DF804106D
:102F00009DF8052041EA0220FDF75CFB80464FF06A
:102F10008B41FDF791F907461F49FDF75BF906461E
:102F20001D49FDF7FFF80546FDF784FBA0809DF8DD
:102F300006109DF8072041EA0220FDF743FB80467A
:102F40004FF08B41FDF778F907461349FDF742F939
:102F500006461149FDF7E6F80546FDF76BFBE080F4
:102F60002088A0F57A704FF6FF7101EA40002080BA
:102F70006088A0F57A7001EA40006080A088A0F522
:102F80007A7001EA4000A080E088A0F57A7001EA3A
:102F90004000E080BDE8FC8100007A4410B50446A2
:102FA000214602A0FEF7B2F9002010BD6E72662025
:102FB000B5C8B4FDB3ACCAB1A3A16572726F724358
:102FC0006F6465203D25640A00000000F0B587B0FD
:102FD000002400250026002701210846FDF7DCFD1E
:102FE0000020ADF81600ADF8120040F65F10ADF805
:102FF00014004720ADF8100000208DF8180004A937
:103000004FF08040FEF7A4F86020ADF800000120EA
:10301000ADF802000020ADF80800ADF806406946A2
:103020004FF08040FDF730FFADF8065069464FF095
:103030008040FDF77FFFADF8066069464FF08040A5
:10304000FDF7D8FFADF8067069464FF08040FEF7F7
:103050002BF80821C806FDF763FF0821C806FDF715
:10306000BBFF0821C806FEF715F80821C806FEF7C1
:1030700059F801218807FDF7FBFE07B0F0BD0000FD
:1030800008B501210420FDF797FD18208DF80300F5
:1030900003208DF802000120ADF8000069461448B5
:1030A000FDF7DBFC0220ADF8000069461048FDF793
:1030B000D4FC0420ADF8000069460D48FDF7CDFCB6
:1030C0000820ADF8000069460948FDF7C6FC01215B
:1030D0000748FDF756FD02210548FDF752FD042182
:1030E0000348FDF74EFD08210148FDF74AFD08BDE4
:1030F0000008014000B585B001210803FDF75CFD23
:103100001020ADF80C000020ADF80800ADF8060066
:103110000720ADF810000020ADF80400ADF8000065
:10312000ADF80E004FF48270ADF802004FF400705D
:10313000ADF80A0069460448FDF7D2FD01210248B6
:10314000FDF7B4FD05B000BD0030014008B5012118
:103150000420FDF731FD01210846FDF72DFD182063
:103160008DF8030001208DF80200E020ADF800008A
:1031700069460F48FDF771FC10208DF80300ADF88B
:10318000000069460A48FDF768FC0220ADF800001F
:1031900069460848FDF761FC48208DF803000120CE
:1031A000ADF8000069460348FDF757FC08BD000074
:1031B00000080140000C01402DE9FE4304460D4685
:1031C0006168A868FDF706F80746A1686868FDF71A
:1031D00001F880463946FCF7F7FF0090A16828689F
:1031E000FCF7F8FF07462168A868FCF7F3FF804664
:1031F0003946FCF7E9FF019021686868FCF7EAFFAF
:10320000074661682868FCF7E5FF80463946FCF709
:10321000DBFF0290002609E05DF8261054F8260036
:10322000FCF780FF44F82600701CC6B2032EF3DBC7
:103230002046FFF7FDFDBDE8FE832DE9F0418AB091
:1032400006460D46002007900890099004900590CE
:103250000690009001900290039000245EE0002010
:1032600046F82400002106F10C0040F82410002745
:1032700036E005F11000FFF75CF905F11C00FFF7DF
:10328000A9F9022C0CDA05F1100252F8241007AA51
:1032900052F82400FCF746FF07A941F8240011E08A
:1032A00005F1100151F824004FF07E51FCF78CFF1E
:1032B000804607A850F824104046FCF733FF07A9C2
:1032C00041F8240005F11C0252F8241004AA52F817
:1032D0002400FCF727FF04A941F82400781CC7B29A
:1032E000C82FC6DB3846FDF776F9804607A951F8A6
:1032F00024004146FCF7A0FF46F824003846FDF7BD
:103300006AF9804604A951F824004146FCF794FF6D
:1033100006F10C0141F82400601CC4B2032C9EDBB2
:10332000002106F1180040F82410002729E005F1DB
:103330000800FFF7ABFD002421E005F1080030F89C
:10334000140040F24C41884217DA05F1080030F8C9
:103350001400B0F5617F10DD05F1080131F814109B
:10336000A1F57A70FDF72EF980465DF82410FCF780
:10337000D9FE4DF82400781CC7B2601CC4B2042CDE
:10338000DBDB322FD3DB00240EE03846FDF723F9D8
:1033900080465DF824004146FCF74EFF06F1180117
:1033A00041F82400601CC4B2042CEEDB0AB0BDE876
:1033B000F081C169026AC2610162026982F0004162
:1033C000426982F0004202614161704710B500F02D
:1033D00049FAFEF70DFF00F02BFAFFF78EF8FFF722
:1033E00023F8FFF774F8FFF745F900F0B9F800F09B
:1033F0002BF910BD2DE9F04F87B006460C464FF073
:10340000320B5846FDF7DEF880464FF08041FCF75E
:10341000E1FE07463749FCF70FFF0590364A07CA19
:1034200002AB07C300254DE036F81500A0F57A7011
:103430000FFA80F9B9F1000F03DAC9F100000FFAB1
:1034400080F9B9F57A7F01DD4FF47A79C82099FBCC
:10345000F0F00FFA80FA02A90AF1010031F8100029
:1034600031F81A10401A0AEBCA0101EB0A11A9EB54
:10347000C1014843C82190FBF1F002A931F81A10AC
:1034800047183846FDF79EF844F8250054F8250003
:10349000FDF7E4F80022194BCDE90001FDF723F810
:1034A0000746FDF71FF944F8250036F81500B0F57A
:1034B0007A7F05DA54F8250080F0004044F82500B2
:1034C000681CC5B2022DAFDB606880F00040606010
:1034D000F188A1F57A70FDF775F807460599FCF7B4
:1034E00079FEA060B088FDF776F8E06007B0BDE82F
:1034F000F08F00000000FA44043900080000244066
:103500001FB514A103C9CDE9020102211348FDF73B
:1035100038FB052202A9302000F0FCF8052269469C
:10352000102000F039F802210C48FDF72CFB002494
:1035300006E01DF80400A52800D003E0601CC4B21A
:10354000052CF6DB00BF052C02D1012004B010BD14
:103550000020FBE7A5A5A5A5A5000000000C0140E3
:1035600010B5FFF78DFC10210548FDF70CFBFFF7A8
:10357000C7FF0446214603A0FDF7C8FE10BD0000AA
:1035800000080140436865636B696E67206E726670
:103590002E2E2E2025640A002DE9F04105460E4608
:1035A000174610210C48FDF7ECFA29460B4800F0AD
:1035B000D5F88046002406E00021084800F0CEF847
:1035C0003055601CC4B2BC42F6DB10210248FDF746
:1035D000DAFA4046BDE8F0810008014000300140C1
:1035E00070B5044610210948FDF7CBFA214608487A
:1035F00000F0B4F80021064800F0B0F805461021AC
:103600000248FDF7C0FA284670BD000000080140DE
:103610000030014070B504460D4610210848FDF702
:10362000B0FA2146074800F099F8064629460548B1
:1036300000F094F810210248FDF7A5FA304670BD5D
:10364000000801400030014010B502211248FDF78A
:1036500098FA052211492A2000F05CF80121212066
:10366000FFF7D8FF01212220FFF7D4FF28212520D2
:10367000FFF7D0FF08213120FFF7CCFF0F212620D4
:10368000FFF7C8FF0F212020FFF7C4FF02210248E7
:10369000FDF779FA10BD0000000C01401400002075
:1036A00070B50546642602211948FDF76CFA08E05A
:1036B0003000A6F10101CEB203D1FFF76FFCC0B21A
:1036C00070BD01211248FDF753FA0028F0D1022104
:1036D0000F48FDF756FA0720FFF782FF0446214600
:1036E0002720FFF797FF04F0400070B10822294619
:1036F0006120FFF751FFFF21E220FFF78BFF02213E
:103700000348FDF740FA0120DAE70020D8E700007F
:10371000000C01402DE9F04105460E4617461021E8
:103720000C48FDF72EFA29460B4800F017F88046A2
:10373000002405E0315D084800F010F8601CC4B2B8
:10374000BC42F7DB10210348FDF71DFA4046BDE8F7
:10375000F0810000000801400030014070B50546CE
:103760000E46642407E0601EC4B224B9002000F0B5
:1037700021F8C0B270BD02212846FDF7A3FA002847
:10378000F1D031462846FDF7A9FA642407E0601E0F
:10379000C4B224B9012000F00DF8C0B2EAE701215B
:1037A0002846FDF78FFA0028F1D02846FDF793FA56
:1037B000C0B2DFE710B50446214602A0FDF7A6FD22
:1037C000002010BD53504920B5C8B4FDB3ACCAB1F8
:1037D00021206572726F72436F6465203D202564FD
:1037E0000A0000002DE9F04106460F46FDF7A6F855
:1037F00004000D4618BF0120284320F00040C0F10E
:103800007F6000F1E040C00F0ED0301C18BF0120D7
:10381000384320F00040C0F17F6000F1E040C00F6D
:1038200004BF0120FDF792FD20462946BDE8F08146
:1038300008B501210820FDF7BFF903208DF802002B
:1038400010208DF803000001ADF80000694604481F
:10385000FDF703F94FF480710148FDF792F908BDB7
:10386000000C014010B5FFF70BFCFFF7AFFB10BDDC
:1038700010B5FEF79BFCFEF779FC10BD70B5044651
:10388000002508E034F81500642802DD01201B49FA
:103890000870681CC5B2042DF4DB19480078B8B173
:1038A00016480078A0B121884FF08040FDF747FC12
:1038B00061884FF08040FDF744FCA1884FF08040C4
:1038C000FDF741FCE1884FF08040FDF73EFC13E03E
:1038D00000214FF08040FDF732FC00214FF0804086
:1038E000FDF72FFC00214FF08040FDF72CFC00215C
:1038F0004FF08040FDF729FC70BD00001F00002044
:103900001E000020000022006300B2004301F40109
:103910003039000800000020580000002C13000877
:103920008839000858000020280400003C130008D3
:103930000000000001020304010203040607080955
:103940000204060834431010013443101001000033
:103950000000000000000000000000000000803FA8
:10396000E803E803E803E803E803E803E803E803FF
:103970000000000000000000000000000000803F88
:0839800000000000000000003F
:04000005080000ED02
:00000001FF
