:020000040800F2
:10000000E00700200101000849190008BB0F0008A3
:1000100045190008EB0A00086D32000800000000D6
:10002000000000000000000000000000DD280008C3
:10003000890E0008000000000D260008C9290008EC
:100040001B0100081B0100081B0100081B01000820
:100050001B0100081B0100081B0100081B01000810
:100060001B0100081B0100081B0100081B01000800
:100070001B0100081B0100081B0100081B010008F0
:100080001B0100081B0100081B0100081B010008E0
:100090001B0100081B0100081B0100081B010008D0
:1000A0001B0100081B0100081B0100081B010008C0
:1000B0001B0100081B010008D92A00081B010008C9
:1000C0001B0100081B0100081B0100081B010008A0
:1000D0001B0100081B0100081B0100081B01000890
:1000E0001B0100081B0100081B010008DFF80CD0F1
:1000F00000F068FC004800479D440008E00700202D
:100100000648804706480047FEE7FEE7FEE7FEE7B1
:10011000FEE7FEE7FEE7FEE7FEE7FEE7792A0008D6
:10012000ED00000840EA01039B0703D009E008C97D
:10013000121F08C0042AFAD203E011F8013B00F8AC
:10014000013B521EF9D27047F0B480EA0102D40F8D
:100150004200B2EB410F02D20246084611464A0065
:1001600042D0C30DDDB2C1F3C752AD1A202D35DA2E
:10017000C1F3160141F4000204B15242C5F1200658
:1001800002FA06F12A411044B3EBD05F23D0C4B188
:10019000012DA0EBC35009DCF0BC4FF0004202EA95
:1001A000C352DBB200F5000000F006BB400000F1D6
:1001B000807000EBC350A0F1807040EAD17049001C
:1001C00009E0490841EAC071A0EBC35000F5000006
:1001D000400800EBC350F0BC00F0E5BA61420122D8
:1001E00002EB4101001BF6E7F0BC704781F00041D3
:1001F000AAE780F00040A7E780EA010210B502F00C
:100200000043400022D04A001FD0010E01EB1261D2
:10021000C0F35600C2F3560240F4000042F400025C
:10022000A0FB022000047F39140400D0401C50EAD7
:10023000124001D44000491EC2B20C0604EBD0109B
:10024000401C4008802A02D003E0002010BD20F0AE
:100250000100002900DA0020184310BD30B480EA04
:10026000010202F0004530F0004221F0004013D0BE
:1002700090B1C30DD40DC2F31601C0F31600E41AF9
:1002800041F4000140F400027D34914201D3641C2A
:1002900000E04900002C02DA30BC002070474FF427
:1002A00000000023914201D3891A034340084FEA1A
:1002B0004101F7D151B1914202D14FF0004105E027
:1002C00002D24FF0010101E06FF0010103EBC450D5
:1002D000284430BC00F067BA2DE9FE4F804681EA21
:1002E0000300C00F0C46009021F0004123F00045B0
:1002F000B8EB0200A94105D24046214690461C4673
:100300000B46024623F00040104347D0270DC7F3A9
:100310000A00C3F30A510290401A019040286BDA98
:10032000C3F3130040F4801B0098924620B10023D1
:10033000D2EB030A63EB0B0B01985946C0F1400264
:10034000504600F00FFA06460D4650465946019AAF
:1003500000F017FA10EB08006141002487EA1152FF
:1003600084EAE7731A4340D0009A62B3019A012AE3
:100370004FEA075215DC001B61EB02014FF000420F
:1003800002EA0752CDE90042001C41F580113246D5
:100390002B4600F078FA03B0BDE8F08F40462146C6
:1003A000F9E7001B61EB0201001C41F58013001806
:1003B0005B412018A2F5001747EB030140EAD57016
:1003C000B6196D4111E06D084FEA360645EAC07571
:1003D0004FEA0752001B61EB0201001C41F580113E
:1003E00049084FEA30000019514132462B4603B00C
:1003F000BDE8F04F00F038BA009801224000002319
:10040000D0EB020263EBE073009821464FEAE07400
:10041000B8EB000061EB0401E9E783F000435BE720
:1004200081F0004158E72DE9FE4F81EA030404F012
:10043000004421F0004100944FF0000B23F00043F2
:1004400050EA01045ED052EA03045BD0C3F30A54BD
:10045000C1F30A552C44A4F2F3340194A0FB0254D6
:10046000C1F3130141F48011C3F3130343F4801368
:1004700001FB024400FB034E840A970A44EA8154BC
:1004800047EA8357A4FB076802958D0A05FB078599
:100490004FEA932C04FB0C542705029D4FEA0658A3
:1004A00047EA1637B5EB08056EEB070C870E920E80
:1004B00047EA811742EA8312A7FB0201B6EB0B0160
:1004C00064EB00042B0D43EA0C335E1844EB1C5024
:1004D000DA465146E7FB0201C5F313044FEA0B333A
:1004E00043EA14534FEA0432019C43EA0603A4F1A1
:1004F0000C040294009CCDE900B400F0C4F903B0F0
:10050000BDE8F08F00200146F9E72DE9F04D81EAC2
:10051000030404F0004B21F0004514464FF0000A9C
:1005200023F0004150EA050220D054EA01021DD018
:10053000C5F30A570246C5F31303C1F31300C1F311
:100540000A5640F4801543F48013A7EB0608101BED
:10055000D64608F2FD3873EB050002D308F1010816
:1005600001E092185B41B8F1000F03DA0020014668
:10057000BDE8F08D00204FF48011064684460EE061
:10058000171B73EB050705D3121B63EB050306432B
:100590004CEA010C49084FEA300092185B4150EADE
:1005A0000107EDD152EA030012D082EA040083EA87
:1005B0000501084305D0101BAB4106D201220023E0
:1005C00006E000224FF0004302E06FF001025310FA
:1005D0001AEB06004CEB085110EB0A0041EB0B0143
:1005E000BDE8F04D00F040B9C10F80EAE07008446A
:1005F000CA079623002100F0DFB896230022114697
:1006000000F0DAB80EB5C10F80EAE0700844CA07FE
:10061000002140F233438DE80E000A460B4600F0FD
:1006200032F903B000BD00F0004220F00040C10DDF
:10063000C0F3160040F400007F2901DA0020704763
:10064000962903DCC1F19601C84001E09639884043
:10065000002AF4D04042704720F00040C10DC0F3A2
:10066000160040F400007F2901DA00207047962927
:1006700003DCC1F19601C840704796398840704745
:1006800000F0004230F000400AD0C10D01F5607169
:10069000C0F3160042EA0151C208400711437047F7
:1006A000002001467047000030B5041E71F10004BF
:1006B00004DB4FF00044404264EB0101141E73F16F
:1006C000000405DB1C464FF00043524263EB040379
:1006D0008B4208BF824230BD01F0004330B421F0AC
:1006E000004150EA010206D00A0DA2F56072C1F382
:1006F0001301002A02DC30BC00207047440F44EA9A
:10070000C104C100E01830BC00EBC25000F04BB88F
:10071000002801DBC0F10040002901DBC1F10041EC
:1007200081427047002801DBC0F10040002901DB55
:10073000C1F100418842704730B50B4601460020A8
:100740002022012409E021FA02F59D4205D303FA93
:1007500002F5491B04FA02F52844151EA2F1010214
:10076000F1DC30BD202A04DB203A00FA02F100203F
:1007700070479140C2F1200320FA03F319439040DF
:100780007047202A06DBCB17203A41FA02F043EAF1
:10079000E07306E041FA02F3D040C2F1200291403A
:1007A0000843194670470029A8BF7047401C4900FC
:1007B00008BF20F00100704710B4B0FA80FC00FAC6
:1007C0000CF050EA010404BF10BC704749B1CCF1F1
:1007D000200421FA04F411FA0CF118BF012121437D
:1007E0000843A3EB0C01CB1D4FEA00614FEA102038
:1007F00042BF002010BC704700EBC35010440029DA
:10080000A4BF10BC7047401C490008BF20F0010085
:1008100010BC7047420005D0C0F3C752524291420B
:1008200001DC0020704700EBC150704710B541005B
:100830000CD0C0F3C751962908DC7E2909DC06DB01
:10084000410204D000F0004040F07E5010BD002076
:1008500010BDC1F19604C4F1200100FA01F1E0409D
:10086000FFF7A1FFA04010BD10B5141E73F10004E6
:1008700008DA401C41F1000192185B411A4301D192
:1008800020F0010010BD2DE9F04D92469B4611B1BC
:10089000B1FA81F202E0B0FA80F220329046FFF71E
:1008A00061FF04460F4640EA0A0041EA0B01534645
:1008B0005A46084313D0114653EA010019D0C8F133
:1008C0004002504600F090F805460E465046594604
:1008D0004246FFF747FF084305D0012004E02046C9
:1008E0003946BDE8F08D0020054346EAE0762C430A
:1008F00037430A986305E40AA0EB08000022FD0ACA
:1009000044EA47540A3002D500200146E9E70105D0
:1009100010196941DDE9084500196941BDE8F04D4C
:10092000A2E72DE9F04D00231A461B1A8A4103DB8A
:1009300000200146BDE8F08DC1F30A52C1F3130156
:1009400041F480154FF0000BD10702D100186D4122
:10095000521E0027044640F2FF11384601EB620A9E
:100960003E468046024600204FF4801100F03CF8DD
:10097000C2197141BB1846EB0100B4EB030C75EBD7
:10098000000C04D3E41A65EB000517460E46241943
:1009900008F101006D4180463428E3DDF91946EB8A
:1009A0000600091BA84103D24FF0FF32134601E0B5
:1009B000002213461BEB070046EB0A51BDE8F04D41
:1009C000FFF752BF064C074D06E0E06840F0010318
:1009D00094E8070098471034AC42F6D3FFF78AFB3F
:1009E0001853000838530008202A04DB203A21FA63
:1009F00002F00021704721FA02F3D040C2F1200238
:100A00009140084319467047F0B4002802DCF0BC5E
:100A100000207047C0F3C751C0F3160040F4000037
:100A2000CA0701D14000491E3F2202EB61050022A6
:100A300011464FF4000626FA01F31344D4188442F9
:100A400001D8001B1A464000491C1729F3DD51004C
:100A5000814202D24FF0FF3100E0002102EBC5508D
:100A6000F0BCFFF7A0BE70B521F0004303430CD0EB
:100A7000C1F30A550024D5EB040564EB0403D61733
:100A8000AD1AB34102DB0020014670BD201841EBD6
:100A9000025170BD70B58C1810F8015B15F007039A
:100AA00001D110F8013B2A1106D110F8012B03E007
:100AB00010F8016B01F8016B5B1EF9D12B0705D40F
:100AC0000023521E0DD401F8013BFAE710F8013B58
:100AD000CB1A921C03E013F8015B01F8015B521E74
:100AE000F9D5A142D8D3002070BD00BFFEE70000B9
:100AF00070B50025002403F05BFD0646FFF77DFD81
:100B000004461748006840B115480068FFF775FDB6
:100B100006462146FFF76DFB00E000200546204613
:100B2000FFF79AFD0E4908602846FFF77CFD064650
:100B30000C48D0F8AC200C48334641680B4801F013
:100B4000E5FC2846FFF76FFD06460648D0F8A820CA
:100B5000054833460168064801F0D8FC70BD000026
:100B60008C000020EC020020BC010020CC01002001
:100B70002C0200202DE9F05F4FF00009002403F063
:100B800017FD0546FFF739FD04463448006840B1BB
:100B900032480068FFF731FD05462146FFF729FB83
:100BA00000E0002081462046FFF756FD2B490860F3
:100BB0004846FFF738FD83462949C86EFFF760FDB8
:100BC0000746284A284BFFF72EFC0546FFF784FD11
:100BD000824626485B465246C16A254801F096FC8B
:100BE0004846FFF720FD83461D49886EFFF748FD04
:100BF00007461C4A1C4BFFF716FC0546FFF76CFD29
:100C000082461C485B465246C16A1B4801F07EFC86
:100C10004846FFF708FD83461149086FFFF730FD8E
:100C20000746104A104BFFF7FEFB0546FFF754FD41
:100C3000824612485B4652468168114801F066FCC4
:100C40000B48C06A0F4908600B48C06A0E4908602B
:100C50000B48C06A0D490860BDE8F09F9000002075
:100C6000EC02002012143FC6DCA54C40CC01002051
:100C7000FC0100202C0200205C020020BC010020AE
:100C8000BC0200208400002080000020880000209A
:100C90002DE9F0417249886D7249FFF7DFFA044689
:100CA0007148C068714908606D48D0F89440214689
:100CB0006E480068FFF7D2FA6C4908606C4801681A
:100CC0006A480068FFF792FA07466A4801683846A2
:100CD000FFF73AFA0646684801683046FFF734FAEB
:100CE0000546FFF7A0FC00B26449888060480168AF
:100CF0005E480068FFF728FA07465E4801683846F4
:100D0000FFF774FA06465C4801683046FFF71CFAA4
:100D10000546FFF788FC00B258490880544801682E
:100D200052480068FFF762FA0746524801683846A1
:100D3000FFF75CFA0646504801683046FFF756FA5E
:100D40000546FFF770FC00B24C49C880484801686E
:100D500046480068FFF7F8F90746464801683846F4
:100D6000FFF7F2F90646444801683046FFF73EFABD
:100D70000546FFF758FC00B2404948800846B0F9E4
:100D8000000040F2E731884202DB08463B49088018
:100D90003A48B0F9020040F2E731884202DB0846E7
:100DA000364948803548B0F9040040F2E7318842BE
:100DB00002DB0846314988803048B0F9060040F22D
:100DC000E731884202DB08462C49C8802B48B0F93D
:100DD0000000002802DC0020284908802748B0F9DC
:100DE0000200002802DC0020244948802348B0F992
:100DF0000400002802DC0020204988801F48B0F948
:100E00000600002802DC00201C49C8801C4800782D
:100E100078B11A4800884FF080418886174840888A
:100E200008871648808888871448C0881549088034
:100E300013E000214FF0804002F033F900214FF021
:100E4000804002F030F900214FF0804002F02DF98F
:100E500000214FF0804002F02AF9BDE8F081000047
:100E6000EC0200200AE81C41BC0100207C000020AC
:100E70008400002080000020880000206A000020FC
:100E8000480000204000004070472DE9F041024634
:100E900000250026002000230024002791F803C02D
:100EA0000CF00F0591F803C00CF0100CBCF1000F12
:100EB00003D091F802C04CEA050591F800C0BCF1DE
:100EC000000F31D0146800202BE04FF0010C0CFA19
:100ED00000F3B1F800C00CEA03069E4220D1830063
:100EE0004FF00F0C0CFA03F7BC4305FA03FC4CEA75
:100EF000040491F803C0BCF1280F06D14FF0010C97
:100F00000CFA00FCC2F814C00AE091F803C0BCF16E
:100F1000480F05D14FF0010C0CFA00FCC2F810C0CC
:100F2000401C0828D1D31460B1F800C0BCF1FF0FF9
:100F300034DD546800202EE000F1080C4FF0010869
:100F400008FA0CF3B1F800C00CEA03069E4221D166
:100F500083004FF00F0C0CFA03F7BC4305FA03FCB7
:100F60004CEA040491F803C0BCF1280F05D100F14C
:100F7000080C08FA0CF8C2F8148091F803C0BCF110
:100F8000480F07D100F1080C4FF0010808FA0CF8DF
:100F9000C2F81080401C0828CED35460BDE8F08110
:100FA0000246002093680B400BB1012000E00020B6
:100FB0007047416170470161704700BFFEE7000064
:100FC0002DE9F04F9DB0DFF820B300201A901B9060
:100FD0001C902422C54911A8FFF7A4F800200E9008
:100FE0000F9010900B900C900D90824608900990F5
:100FF0000A9003F0DDFA8146BD48006850B1BC4953
:101000000968A9EB0100FFF7F8FA0546B949FFF7AF
:1010100025F900E000208346B548C0F8009001F0B3
:10102000A1FBB548D0F868A0C06EB34988668AF0C5
:101030000041B148C1660246516C906EFFF7D6F888
:101040000B90AD4A916CD06EFFF7D0F80C90AA4A85
:10105000D16C106FFFF7CAF80D90A748D0F850A0D8
:10106000406D80F00040A44908650846C0F854A0CF
:10107000006D0E900846406D0F900846806D1090F0
:10108000109880F000450F9880F000460E9880F090
:1010900000479A494FF07E520A98CDE9061BCDE9E8
:1010A0000402DDE90801CDE90065CDE902013B4616
:1010B0000BA807C800F0F2FD91480168914800684C
:1010C000FFF742F80646904801683046FFF78EF871
:1010D00005468E4801682846FFF788F811908C482D
:1010E00001688C480068FFF787F806468A4801685F
:1010F0008A480068FFF780F807463146FFF724F872
:1011000005464FF08041FFF777F81290824801685A
:1011100080480068FFF770F806467D4801687F4800
:101120000068FFF769F807463146FFF75FF80546A4
:101130004FF08041FFF760F81390754801687548DB
:101140000068FFF759F8064673480168734800685D
:10115000FFF752F807463146FFF748F805464FF0CB
:101160008041FFF749F814906548016865480068B8
:10117000FFF73CF80646644801683046FEF7E4FF96
:101180000546624801682846FFF730F81590634825
:10119000016860480068FFF72FF806465C48016860
:1011A0005D480068FFF728F807463146FEF7CCFF98
:1011B00005464FF08041FFF71FF81690564801682A
:1011C00054480068FFF718F806465148016853482C
:1011D0000068FFF711F807463146FEF7B5FF0546F0
:1011E0004FF08041FFF708F817904C4801684948D4
:1011F0000068FFF701F80646454801684648006860
:10120000FEF7FAFF07463146FEF7F0FF05464FF0BE
:101210008041FEF7F1FF18903948016839480068AD
:10122000FEF7E4FF0646384801683046FEF7DEFF69
:101230000546364801682846FEF786FF1990199939
:10124000169802F0D5FC1A90139802F06FFA80F00D
:1012500000401B90DDE9111002F0CAFC1C90002434
:1012600008E011A850F824102348743040F82410E6
:10127000601CC4B2092CF4DB1F491A98C1F8B400F1
:101280001B98C1F8B8001C98C1F8BC001A98FFF769
:10129000F7F90746224A234BFFF7C5F80546FFF743
:1012A0001BFA1549C1F8A8001B98FFF7E9F9074692
:1012B0001B4A1C4BFFF7B7F80546FFF70DFA0E491E
:1012C000C1F8AC001C98FFF7DBF90546144A154B32
:1012D000FFF7A9F80746FFF7FFF90749C1F8B00083
:1012E0001DB0BDE8F08F00000AD7233C345200083F
:1012F000A801002000247449EC020020CDCC4C3D14
:101300008C0100207C01002098010020A001002019
:10131000680100205C0100206401002060010020C1
:10132000D9CEF753E3A54C402DE9F0410026002427
:101330000027002503F05EF985B23E480088281A90
:1013400087B23D48007898B901203B49087000BF3A
:101350000CE00020394941F82400394941F82400C3
:101360003849088038494870601CC4B2032CF0DB4F
:101370000A2F5CDB33480088B0F5967F25DA00241D
:1013800019E0314A143252F824102C4A52F8240041
:10139000FEF7DAFE294941F824002B4A203252F8A0
:1013A0002410274A52F82400FEF7CEFE244941F8C3
:1013B0002400601CC4B2032CE3DB22480088401CDC
:1013C000204908801B48058031E000241FE01D48AB
:1013D0000088FFF712F98046184951F82400414669
:1013E000FEF73CFF1849383141F8240015480088C1
:1013F000FFF703F98046124951F824004146FEF7F1
:101400002DFF1149443141F82400601CC4B2032C63
:10141000DDDB0D49086C0D49FEF7E8FE0A4908645A
:101420000020054908700120074948700126304610
:10143000BDE8F081580100205A010020AC030020D3
:10144000B803002056010020EC0200200AE81C41ED
:101450002DE9F047044600250026002125480068B4
:10146000FFF756F902D82046BDE8F0872248016808
:1014700022480068FEF7C0FE8046214801682148E6
:101480000068FEF7B9FE81462146FEF7B2FE074628
:101490004146FEF7ABFE0546284601F02AFF18B983
:1014A000284601F01CFF00B1254617480168134883
:1014B0000068FEF7A1FE80461448016811480068E4
:1014C000FEF79AFE8146124801682846FEF794FE10
:1014D00082464946FEF738FE07464146FEF734FE8F
:1014E0000646084800680549086006480560304619
:1014F000BAE70000940000209C000020B00000200B
:1015000098000020AC000020A8000020A4000020CB
:10151000A00000202DE9F047044600250026002108
:1015200025480068FFF7F4F802D82046BDE8F087A8
:101530002248016822480068FEF75EFE8046214886
:10154000016821480068FEF757FE81462146FEF7F4
:1015500050FE07464146FEF749FE0546284601F083
:10156000C8FE18B9284601F0BAFE00B12546174852
:10157000016813480068FEF73FFE80461448016882
:1015800011480068FEF738FE814612480168284677
:10159000FEF732FE82464946FEF7D6FD0746414633
:1015A000FEF7D2FD0646084800680549086006486F
:1015B00005603046BAE70000B4000020BC000020FF
:1015C000D0000020B8000020CC000020C80000207F
:1015D000C4000020C00000202DE9F047044600258B
:1015E0000026002125480068FFF792F802D820461F
:1015F000BDE8F0872248016822480068FEF7FCFD3C
:1016000080462148016821480068FEF7F5FD8146C3
:101610002146FEF7EEFD07464146FEF7E7FD05468B
:10162000284601F066FE18B9284601F058FE00B1C0
:1016300025461748016813480068FEF7DDFD80461F
:101640001448016811480068FEF7D6FD814612482B
:1016500001682846FEF7D0FD82464946FEF774FD34
:1016600007464146FEF770FD0646084800680549F2
:101670000860064805603046BAE70000D400002044
:10168000DC000020F0000020D8000020EC0000204A
:10169000E8000020E4000020E00000202DE9F047F1
:1016A000044600250026002125480068FFF730F891
:1016B00002D82046BDE8F087224801682248006829
:1016C000FEF79AFD80462148016821480068FEF730
:1016D00093FD81462146FEF78CFD07464146FEF705
:1016E00085FD0546284601F004FE18B9284601F09C
:1016F000F6FD00B125461748016813480068FEF75B
:101700007BFD80461448016811480068FEF774FDAF
:101710008146124801682846FEF76EFD824649461A
:10172000FEF712FD07464146FEF70EFD0646084845
:10173000006805490860064805603046BAE70000C1
:10174000F4000020FC00002010010020F800002020
:101750000C010020080100200401002000010020ED
:101760002DE9F047044600250026002125480068A1
:10177000FEF7CEFF02D82046BDE8F0872248016878
:1017800022480068FEF738FD80462148016821485C
:101790000068FEF731FD81462146FEF72AFD074627
:1017A0004146FEF723FD0546284601F0A2FD18B983
:1017B000284601F094FD00B12546174801681348FA
:1017C0000068FEF719FD804614480168114800685A
:1017D000FEF712FD8146124801682846FEF70CFD0F
:1017E00082464946FEF7B0FC07464146FEF7ACFC90
:1017F0000646084800680549086006480560304606
:10180000BAE70000140100201C0100203001002074
:10181000180100202C0100202801002024010020B4
:10182000200100202DE9F047044600250026002174
:1018300025480068FEF76CFF02D82046BDE8F08717
:101840002248016822480068FEF7D6FC80462148FD
:10185000016821480068FEF7CFFC81462146FEF76B
:10186000C8FC07464146FEF7C1FC0546284601F084
:1018700040FD18B9284601F032FD00B12546174851
:10188000016813480068FEF7B7FC804614480168F9
:1018900011480068FEF7B0FC8146124801682846EE
:1018A000FEF7AAFC82464946FEF74EFC0746414633
:1018B000FEF74AFC064608480068054908600648E5
:1018C00005603046BAE70000340100203C010020EA
:1018D00050010020380100204C0100204801002068
:1018E0004401002040010020002013490861C86025
:1018F0001420486100208861C8610846006840F0F3
:1019000001000860084640680C4908400A494860E0
:10191000084600680A490840074908600846006808
:1019200020F4802008600846406820F4FE004860EB
:101930000020886070470000001002400000FFF89F
:10194000FFFFF6FE00BFFEE77047000070B5002104
:1019500000230F22C47804B3154C246804F4E06417
:10196000C4F5E064210AC1F10403CA40447804FAD2
:1019700003F184781440214309010E4C0678A155E7
:10198000047804F01F050124AC4005786D11AD000A
:1019900005F1E025C5F8004109E0047804F01F05D1
:1019A0000124AC40044D0678761145F8264070BD00
:1019B0000CED00E000E400E080E100E02DE9F04FF4
:1019C0008FB004460D46164699463046FEF758FE3F
:1019D000CDE902012846FEF753FE0746DDE9022362
:1019E00002F046F8CDE90401FEF776FE0E9030468F
:1019F000FEF746FE84F00047CDE902013846FEF7C7
:101A00003FFECDE90001DDE9022302F031F8CDE926
:101A10000401FEF761FE0D900E9802F017FA82465F
:101A20000E9803F035F983460D9802F00FFA0C90EA
:101A30000D9803F02DF90B9051461998FEF7DCFB39
:101A400005900B99FEF7D8FB074659461898FEF704
:101A5000D3FB03900B99FEF7CFFB059048460C99FA
:101A6000FEF7CAFB04900599FEF76EFB80463946E7
:101A7000FEF76AFB0A9059461998FEF7BDFB074628
:101A800051461898FEF7B8FB80463946FEF7AEFB84
:101A90000990099880F0004738460A9902F0A8F8A2
:101AA00008904FF07C510E98FEF7A6FB074602F017
:101AB000CDF982464FF07C510E98FEF79DFB07460C
:101AC00003F0E6F883464FF07C510D98FEF794FB47
:101AD000074602F0BBF90C904FF07C510D98FEF7D1
:101AE0008BFB074603F0D4F80B904FF07C5108981D
:101AF000FEF782FB074602F0A9F907904FF07C51F0
:101B00000898FEF779FB074603F0C2F8069058469E
:101B10000B99FEF771FB05900699FEF76DFB0746E2
:101B200050460C99FEF768FB05900799FEF764FB99
:101B300080463946FEF708FB4A49086050460B9933
:101B4000FEF75AFB05900699FEF756FB07465846E6
:101B50000C99FEF751FB05900799FEF74DFB804667
:101B60003946FEF743FB4049086058460C99FEF79A
:101B700043FB05900699FEF73FFB074650460B993D
:101B8000FEF73AFB05900799FEF736FB804639468B
:101B9000FEF7DAFA3549086058460B99FEF72CFB38
:101BA00005900799FEF728FB074650460C99FEF76B
:101BB00023FB05900699FEF71FFB80463946FEF78A
:101BC00015FB2B490860274801680068FEF714FBE5
:101BD000284908602448016822480068FEF70CFB89
:101BE00025490860214801681E480068FEF704FB8B
:101BF000224908601E4801681A480068FEF7FCFA8E
:101C00001F490860184801680068FEF7F5FA1D4989
:101C100008601648016814480068FEF7EDFA1A4992
:101C200008601348016810480068FEF7E5FA174994
:101C300008600E4801680068FEF7DEFA1449086083
:101C40000B48016809480068FEF7D6FA1149086098
:101C5000074801680068FEF7CFFA0F4908600FB027
:101C6000BDE8F08F5C0100206001002064010020CD
:101C7000680100207C0100208001002084010020F8
:101C8000880100208C010020900100209401002098
:101C9000980100209C010020A00100200FB595B004
:101CA0000020129011901090FE48007858B9DDE99C
:101CB0001D01CDE900011AA90EC91898FFF77EFE93
:101CC0000120F849087000211C98FEF721FD09D178
:101CD00000211D98FEF71CFD04D100211E98FEF77F
:101CE00017FD7DD01E990846FEF786FA06901D99CD
:101CF0000846FEF781FA04901C990846FEF77CFA24
:101D000003900499FEF720FA05900699FEF71CFA55
:101D1000079002F095FB139013991C98FEF76CFA4C
:101D20001C9013991D98FEF767FA1D9013991E9841
:101D3000FEF762FA1E90DC480168DC480068FEF796
:101D400003FA04901E99FEF757FA0690D8480168E6
:101D5000D8480068FEF74AFA02901D99FEF74CFA3F
:101D60000490D54801684FF07C50FEF73FFA01908F
:101D7000D24801680198FEF739FA02901C99FEF7E3
:101D80003BFA03900499FEF7DFF905900699FEF7F8
:101D9000DBF94FF080410790FEF72EFA0F90C8480C
:101DA0000168C8480068FEF721FA04901E99FEF702
:101DB00023FA0690C44801684FF07C50FEF716FAEB
:101DC0000190BE4801680198FEF710FA02901D9933
:101DD000FEF712FA0490B6480168B648006800E0C1
:101DE00000E1FEF7B1F902901C99FEF705FA0390A5
:101DF0000499FEF7A9F905900699FEF7A5F94FF0A9
:101E000080410790FEF7F8F90E90AF4801684FF057
:101E10007C50FEF7EBF90390A74801680398FEF7A2
:101E2000E5F905904FF080401E99FEF7E5F9049022
:101E30000599FEF7E1F90790A1480168A1480068FB
:101E4000FEF782F903904FF080401D99FEF7D4F918
:101E500002900399FEF7D0F90590934801689348E2
:101E60000068FEF7C3F903904FF080401C99FEF71D
:101E7000C3F902900399FEF7BFF904900599FEF7A4
:101E800063F906900799FEF75FF90D900E990846E1
:101E9000FEF7B2F902900F990846FEF7ADF90190EE
:101EA0000299FEF751F90390FEF7EAFBCDE9040130
:101EB00003F024F9CDE90601FEF70EFC0C900D9815
:101EC0000B907948016879480068FEF78FF9059012
:101ED0000B99FEF791F90790774801684FF07C5015
:101EE000FEF784F90490754801680498FEF77EF9BE
:101EF00005900C99FEF780F906900799FEF724F9F2
:101F00000A90704801686E480068FEF71DF9059058
:101F10000B99FEF771F907906548016865480068FC
:101F2000FEF764F905900C99FEF766F9069007999B
:101F3000FEF70AF90990644801684FF07C50FEF7FB
:101F400055F904905C4801680498FEF74FF9059034
:101F50000B99FEF751F90790544801685248006800
:101F6000FEF7F2F805900C99FEF746F906900799EE
:101F7000FEF7EAF8089009991E98FEF73DF90690D9
:101F800008991D98FEF738F905900699FEF72EF985
:101F900007901299FEF7D8F8129008991C98FEF74E
:101FA0002BF906900A991E98FEF726F905900699D6
:101FB000FEF71CF907901199FEF7C6F811900A99DF
:101FC0001D98FEF719F9069009991C98FEF714F967
:101FD00005900699FEF70AF907901099FEF7B4F8F4
:101FE000109000BF00211898FEF792FB09D1002144
:101FF0001A98FEF78DFB04D100211B98FEF788FB91
:102000004FD01B990846FEF7F7F80B901A9908462F
:10201000FEF7F2F8099018990846FEF7EDF80890D7
:102020000999FEF791F80A900B99FEF78DF80C903C
:1020300002F006FA139013991898FEF7DDF818903D
:1020400013991A98FEF7D8F81A9013991B98FEF76F
:10205000D3F81B901448016814480068FEF7C6F8CE
:102060000F901848016816480068FEF76DF80E904A
:102070004FF07C5115480068FEF7B8F80C900F48F7
:1020800001680C98FEF760F80D900E991B98FEF70A
:10209000B3F80B900D991A98FEF7AEF80A900B99C9
:1020A00016E041E0A40100208401002094010020FA
:1020B000880100209001002098010020A00100204C
:1020C000800100209C0100208C0100207C01002068
:1020D000FEF78CF80C901299FEF736F812900D99D5
:1020E0001898FEF789F80B900F991B98FEF784F863
:1020F0000A900B99FEF77AF80C901199FEF724F8E4
:1021000011900F991A98FEF777F80B900E9918987E
:10211000FEF772F80A900B99FEF768F80C90109988
:10212000FEF712F8109000BF00211298FEF7F0FAA7
:102130007DD000211198FEF7EBFA78D0002110989D
:10214000FEF7E6FA73D000212098FEF7EBFA4ED2A4
:1021500012992098FEF750F80E902199FEF74CF84E
:102160000F90D748006801460E900F98FDF7ECFFDE
:10217000D349086011992098FEF73EF80E902199F6
:10218000FEF73AF80F90CE48406801460E900F983F
:10219000FDF7DAFFCA49486010992098FEF72CF83D
:1021A0000E902199FEF728F80F90C54880680146E7
:1021B0000E900F98FDF7C8FFC14988600846006877
:1021C00001460F901598FDF7BFFF1590BC48406879
:1021D00001460F901698FDF7B7FF1690B848806833
:1021E00001460F901798FDF7AFFF179004E000200D
:1021F000B34908604860886012991F98FDF7FCFF9A
:102200000F901599FDF7A0FF159011991F98FDF7F4
:10221000F3FF0F901699FDF797FF169010991F98EE
:10222000FDF7EAFF0F901799FDF78EFF1790A5486D
:1022300017990068FDF7E0FF0E90A3481699006813
:10224000FDF7DAFF0C90A148006880F000400A908A
:102250001599FDF7D1FF0B900C99FDF7C7FF0D9075
:102260000E99FDF7C3FF4FF07C510F90FDF7C4FFAF
:1022700097490860934816990068FDF7BDFF0E90D6
:10228000914817990068FDF7B7FF0C9091480168D5
:102290001598FDF7B1FF0B900C99FDF755FF0D90C8
:1022A0000E99FDF7A3FF4FF07C510F90FDF7A4FFAF
:1022B00089490860834801681598FDF79DFF0E90D5
:1022C000824817990068FDF797FF0C90814816998E
:1022D0000068FDF791FF0B900C99FDF787FF0D90BB
:1022E0000E99FDF731FF4FF07C510F90FDF784FF01
:1022F0007A490860744801681598FDF77DFF0E90D3
:10230000724816990068FDF777FF0C90714817998D
:102310000068FDF771FF0B900C99FDF715FF0D900C
:102320000E99FDF763FF4FF07C510F90FDF764FFAE
:102330006B490860664801682198FDF75DFF0F90C2
:10234000644801680F98FDF7FFFE62490860624823
:1023500001682198FDF750FF0F905C4801680F98C5
:10236000FDF7F2FE594908605C4801682198FDF7C5
:1023700043FF0F90544801680F98FDF7E5FE52495E
:102380000860574801682198FDF736FF0F904D48C7
:1023900001680F98FDF7D8FE4A49086008460168B1
:1023A0000068FDF729FF0E90474801680068FDF7B7
:1023B00023FF0C90454801680068FDF71DFF0A9057
:1023C000444801680068FDF717FF09900A99FDF776
:1023D000BBFE0B900C99FDF7B7FE0D900E99FDF723
:1023E000B3FE0F9002F02CF813903A48139900684E
:1023F000FDF702FF37490860344813990068FDF77C
:10240000FBFE32490860304813990068FDF7F4FE7E
:102410002D4908602B4813990068FDF7EDFE294906
:1024200008602C4801680068FDF7E6FE2D49086049
:102430002648016827480068FDF7DEFE2A49086043
:102440002148016823480068FDF7D6FE2749086047
:102450001C4801681F480068FDF7CEFE244908604B
:102460001A4801680068FDF7C7FE2249086016484F
:10247000016816480068FDF7BFFE1F490860114853
:10248000016812480068FDF7B7FE1C4908600E4855
:1024900001680068FDF7B0FE194908600948016845
:1024A00009480068FDF7A8FE16490860054801685C
:1024B0000068FDF7A1FE1449086019B000BD0000D6
:1024C000C403002068010020640100206001002096
:1024D0006C0100205C0100207001002074010020CC
:1024E000780100207C010020800100208401002070
:1024F000880100208C010020900100209401002020
:10250000980100209C010020A00100202DE9FC5F23
:1025100004460E4691469A4600255046FEF772F84C
:102520000022374BCDE90001FDF7EFFF0746FEF72C
:10253000D3F8834649463046FDF758FE2061D4E97A
:102540000401FDF753FE07465946FDF787FEA062DA
:10255000A16AA068FDF750FE0190216A6068FDF74E
:102560004BFE804621692068FDF746FE41460090FB
:10257000FDF7EAFD07460199FDF7E6FDE0622069F7
:10258000606120480078002836D01F480068FEF7B8
:1025900077F807468846E06AFEF772F821F00041B6
:1025A0003A464346CDE90001FEF77EF826D2594669
:1025B0002069FDF721FE0746216AFDF7C5FD0546A6
:1025C000606A80F0004729463846FEF7A1F815D228
:1025D0002846616AFEF79CF810D2606A80F00047D6
:1025E0003846E16AFEF794F808D2616AE06AFEF7BD
:1025F0008FF803D2256201E000202062BDE8FC9F35
:1026000080842E41480000207C000020704700009C
:1026100029B1064AD2690243044BDA6104E0034A55
:10262000D2698243014BDA6170470000001002401A
:1026300029B1064A12690243044B1A6104E0034AB5
:1026400012698243014B1A6170470000001002407A
:1026500029B1064A92690243044B9A6104E0034A95
:1026600092698243014B9A6170470000001002405A
:1026700029B1064AD2680243044BDA6004E0034AF7
:10268000D2688243014BDA607047000000100240BC
:1026900030B500210022002400232D4D6D6805F087
:1026A0000C0121B1042905D0082923D105E0294DC9
:1026B000056022E0274D05601FE0254D6D6805F49B
:1026C0007012234D6D6805F48034022505EB9242AB
:1026D0001CB9214D554305600BE01D4D6D6805F497
:1026E00000351DB11C4D5543056002E0194D5543A1
:1026F000056002E0174D056000BF00BF144D6D6816
:1027000005F0F0010909154D6B5C0568DD40456079
:102710000F4D6D6805F4E061090A104D6B5C45686A
:10272000DD4085600A4D6D6805F46051C90A0B4DA6
:102730006B5C4568DD40C560054D6D6805F4404142
:10274000890B074D6B5CC568B5FBF3F5056130BDC2
:102750000010024000127A0000093D000000002035
:10276000100000202DE9F84F3A4801F07AFD394871
:10277000801D01F096FD4FF0000A32E0354931F935
:102780001A00FDF731FF05464FF06251FDF734FDA9
:1027900004463149FDF730FD2E49123141F82A0037
:1027A0000C3931F91A00FDF71FFF2C490090FDF795
:1027B00023FD8346FDF764FF0646294A294BFDF7B2
:1027C00032FE04460022284BFDF79FFE8046FDF7AF
:1027D00083FF20491E3141F82A000AF1010000F070
:1027E000FF0ABAF1030FC9DB1A4A921E916B5069B6
:1027F000FDF7FCFC0446FEF72BFE1649891E086512
:102800000A46D16B9069FDF7F1FC0446FEF782FEA3
:102810001049891E48650A46116CD069FDF7E6FC2F
:102820000446FEF7D9FE0B49891E8865086AFEF743
:1028300035FF0849891E8866486AFEF791FF0549F9
:10284000891EC866886AFEF7EDFF0249891E08677F
:10285000BDE8F88FEE0200200AE81C4100007A3D36
:1028600097D17E5AFB2109400080664021B1028841
:1028700042F04002028004E002884FF6BF731A4023
:10288000028070470246002013890B400BB10120E3
:1028900000E00020704701468889704781817047B9
:1028A00010B50022028802F441520B884C88234361
:1028B0008C882343CC8823430C8923434C892343AE
:1028C0008C892343CC8923431A430280838B4FF2A4
:1028D000FF74234083830B8A038210BD704710B5B9
:1028E00000F002F810BD00000CB50020019000902F
:1028F0003348006840F480303149086000BF3048F8
:10290000006800F4003000900198401C019000988D
:1029100018B90198B0F5A06FF1D12948006800F40A
:10292000003010B10120009001E0002000900098DC
:10293000012843D12348006840F010002149086075
:102940000846006820F0030008600846006840F070
:10295000020008601A484068194948600846406803
:1029600048600846406840F4806048600846406817
:1029700020F47C1048600846406840F4E810486045
:102980000846006840F08070086000BF0C4800688E
:1029900000F000700028F9D00948406820F00300DA
:1029A000074948600846406840F00200486000BFA0
:1029B0000348406800F00C000828F9D10CBD000065
:1029C000001002400020024002480068401C0149FB
:1029D000086070473000002000B502460023FEF773
:1029E00083FF2248006840F480302049086000BF1F
:1029F0001E480068400C0028FAD04FF480601B4944
:102A00004860901EC2B20846406840EA8240486072
:102A10000846406840F4803048601548006840F03F
:102A20003200134908601148006840F080700F4977
:102A3000086000BF0D480068400E0028FAD00B481F
:102A4000406840F002000949486005E007484068D6
:102A5000C0F3870303F00303022BF7D1901CC006D9
:102A6000000E044908700846007800BD00100240BE
:102A7000002002403400002010B51348006840F0E8
:102A800001001149086008464068104908400E4995
:102A90004860084600680E4908400B49086008462F
:102AA000006820F4802008600846406820F4FE009A
:102AB00048604FF41F008860FFF711FF4FF000607F
:102AC0000449086010BD0000001002400000FFF83B
:102AD000FFFFF6FE08ED00E010B50121294800F0E7
:102AE0006BF900284DD028480088401C26490880F2
:102AF00026480088401C2549088025480088401C3D
:102B00002349088023480088401C80B2214908805E
:102B100000EBC00101EB00104FF47A71B1EB400FF4
:102B200005DC00201B49088001201B4908701B4858
:102B30000088401C80B21949088000EB80004FF4E7
:102B40007A71B1EB800F05DC002014490880012068
:102B50001349087013480088401C80B2114908804E
:102B600000EB80004FF47A71B1EB400F05DC0020E0
:102B70000C49088001200C4908700121014800F02F
:102B800018F810BD000800404C0000205A0000203A
:102B9000600000205C000020520000206200002045
:102BA000550000206400002056000020CA43028225
:102BB0007047CA430282704721B1028842F0010285
:102BC000028004E002884FF6FE731A4002807047CC
:102BD00010B504466848844208D10121C014FFF7AB
:102BE00047FD0021E014FFF743FDC4E0B4F1804F3E
:102BF00008D101210846FFF71BFD00210120FFF746
:102C000017FDB8E05D48844208D101210220FFF79A
:102C10000FFD00210220FFF70BFDACE05848844275
:102C200008D101210420FFF703FD00210420FFF754
:102C3000FFFCA0E05348844208D101210820FFF79F
:102C4000F7FC00210820FFF7F3FC94E04E48844293
:102C500008D101211020FFF7EBFC00211020FFF725
:102C6000E7FC88E04948844208D101212020FFF791
:102C7000DFFC00212020FFF7DBFC7CE0444884429D
:102C800008D101214014FFF7F3FC00216014FFF785
:102C9000EFFC70E03F48844209D10121C804FFF7EE
:102CA000E7FC00214FF40020FFF7E2FC63E03A4824
:102CB000844209D101210805FFF7DAFC00214FF415
:102CC0008010FFF7D5FC56E03448844209D1012139
:102CD0004805FFF7CDFC00214FF40010FFF7C8FCBA
:102CE00049E02F48844208D101214020FFF7A0FC91
:102CF00000214020FFF79CFC3DE02A48844208D197
:102D000001218020FFF794FC00218020FFF790FC38
:102D100031E02548844208D101218015FFF788FC65
:102D20000021A015FFF784FC25E02048844209D14A
:102D300001210804FFF79CFC00214FF48030FFF7CD
:102D400097FC18E01A48844209D101214804FFF792
:102D50008FFC00214FF40030FFF78AFC0BE0154890
:102D6000844208D101218804FFF782FC00214FF43E
:102D70008020FFF77DFC10BD002C014000040040C6
:102D800000080040000C004000100040001400400B
:102D900000340140004C014000500140005401400B
:102DA00000180040001C004000200040004001408E
:102DB000004401400048014030B502460020002395
:102DC0000024158A05EA0103958905EA010413B177
:102DD0000CB1012000E0002030BD1AB183890B4303
:102DE000838102E083898B438381704770B500241F
:102DF00000220023058C4FF6FE7635400584028CB8
:102E00008388048B4FF68F752C40B51E2C400D889F
:102E10002C43751E2A400D892A434D882A43144DA0
:102E2000A8420BD0134DA84208D0134DA84205D09C
:102E3000124DA84202D0124DA84213D14FF6F77599
:102E40002A404D892A434FF6FB752A408D882A4334
:102E50004FF6FF652B404FF6FF552B408D892B43D6
:102E6000CD892B4383800483CD888586028470BD01
:102E7000002C01400034014000400140004401406A
:102E8000004801400A460021018B4FF6F7731940B4
:102E9000114301837047000070B500240022002315
:102EA000058C4FF6EF7635400584028C8388048BC1
:102EB00048F6FF752C404FF6FF452C400D884FF625
:102EC000FF7606EA05252C434FF6DF752A400D896B
:102ED00006EA05152A434D8806EA05152A43154DCD
:102EE000A84202D0144DA8421DD14FF67F752A404A
:102EF0004D894FF6FF7606EA05152A434FF6BF7552
:102F00002A408D8806EA05152A434FF6FF352B40E7
:102F10004FF2FF752B408D8906EA85052B43CD893D
:102F200006EA85052B4383800483CD8805870284C8
:102F300070BD0000002C0140003401400A46002111
:102F4000018B4FF2FF7319404FF6FF7303EA022320
:102F5000194301837047000070B50024002200234C
:102F6000058C4FF6FF6635400584028C8388848B80
:102F70004FF68F752C404FF6FC752C400D882C4376
:102F80004FF6FF552A400D894FF6FF7606EA0525D4
:102F90002A434D8806EA05252A43154DA84202D04A
:102FA000144DA8421DD14FF2FF752A404D894FF6AE
:102FB000FF7606EA05252A434FF6FF352A408D881D
:102FC00006EA05252A434EF6FF752B404DF6FF75A0
:102FD0002B408D8906EA05152B43CD8906EA051598
:102FE0002B4383808483CD888587028470BD000055
:102FF000002C0140003401400A460021818B4FF62D
:10300000F7731940114381837047000070B50022A7
:1030100000230024058C4EF6FF7635400584038C92
:103020008488828B48F6FF752A404FF6FF452A4078
:103030000D884FF6FF7606EA05252A434DF6FF7503
:103040002B400D8906EA05352B434D8806EA0535E8
:103050002B430B4DA84202D00A4DA84208D14BF693
:10306000FF752C408D894FF6FF7606EA85152C43B7
:1030700084808283CD88A0F84050038470BD000016
:10308000002C0140003401400A460021818B4FF2A0
:10309000FF7319404FF6FF7303EA0223194381833C
:1030A0007047818670470187704781877047A0F815
:1030B00040107047002202881D4B98420ED01D4BD5
:1030C00098420BD0B0F1804F08D01B4B984205D0EE
:1030D0001A4B984202D01A4B984204D14FF68F7384
:1030E0001A404B881A43174B984207D0164B984208
:1030F00004D04FF6FF431A40CB881A4302808B88D6
:1031000083850B8803850A4B98420BD0094B984264
:1031100008D00E4B984205D00D4B984202D00D4B73
:10312000984201D10B7A0386012383827047000005
:10313000002C014000340140000400400008004021
:10314000000C00400010004000140040004001400E
:10315000004401400048014021B1828942F40052FC
:10316000828104E082894DF6FF731A4082817047A4
:1031700002460020B1F5007F00D100BF13880B404C
:103180000BB1012000E00020704700002DE9F0475E
:1031900086B005460E460024A24600BFA146002781
:1031A000B08900B100BF2F462C8A4CF6FF70044056
:1031B000F08804432C82AC894EF6F3100440B088AA
:1031C00031890843718908430443AC81AC8A4FF6C6
:1031D000FF400440B0890443AC8201A8FFF758FACD
:1031E0001F48874202D1DDF810A001E0DDF80CA0F5
:1031F000A88900F4004040B10AEBCA0000EB0A10B5
:1032000031684900B0FBF1F807E00AEBCA0000EBB7
:103210000A1031688900B0FBF1F86420B8FBF0F0C7
:1032200004012009642101FB1089A88900F40040F1
:1032300040B1322000EBC900B0FBF1F000F0070014
:10324000044308E0322000EB09106421B0FBF1F0E8
:1032500000F00F0004432C8106B0BDE8F0870000A9
:1032600000380140C1F308028280704700BFFEE7CA
:103270000FB4054B10B503A9044A029800F07AF97F
:1032800010BC5DF814FB0000F9400008B4010020F8
:10329000490050EAC12018BF04204A0D18BF40F071
:1032A000010040F2FF72B2EB515F08BF40F0020034
:1032B000012808BF052070474100080218BF0420FC
:1032C0000A0E18BF40F001004FF07F4232EA0101C0
:1032D00008BF40F00200012808BF052070470146E2
:1032E0004FF07F40B0EB410F01D10120704700202B
:1032F000FCE7014621F00040C0F1FF40C00F7047DD
:103300002DE9F0414F1E00EBC7010446D1E9000151
:1033100015461E4637F006020DD02A463346FDF705
:1033200082F87F1E04EBC703D3E90023FCF7D4FF28
:1033300037F00602F1D1022F25D0042F13D0062F2B
:1033400018BFBDE8F0812A463346FDF76CF8D4E992
:103350000A23FCF7C1FF2A463346FDF764F8D4E997
:103360000823FCF7B9FF2A463346FDF75CF8D4E999
:103370000623FCF7B1FF2A463346FDF754F8D4E99B
:103380000423FCF7A9FF2A463346FDF74CF8D4E99D
:103390000223FCF7A1FF2A463346FDF744F8D4E99F
:1033A0000023BDE8F041FCF797BF0122FDF75BBBAE
:1033B000FCF792BF024A00201107FDF754BB000042
:1033C00001FDFFFF0121FDF725BAFCF7BDBE00217D
:1033D0000846FCF743BF6FF05E010807FDF71ABA15
:1033E0002DE9F04D0D4614464FF07F41B1EB440FEF
:1033F0009EBF4FF0FF312960BDE8F08D4FF00040D7
:1034000040EA0421C4F3C750783810F01F024A4B39
:103410004FEA601CC2F120067B44C4F3C750A0F100
:1034200078004FEA601003EB800053F82C3008BF9F
:10343000D0E901C612D0D0F804C093402CFA06F7A8
:103440003B4387680CFA02FC27FA06F8C06807FAC3
:1034500002F2F0404CEA080C42EA0006A3FB0132FB
:10346000ACFB01C0A6FB016101EB0C068E4234BF30
:103470004FF0010C4FF0000CC1186144BCF1000F7B
:1034800002D0814202D903E0814201D2012000E052
:103490000020104400F120024FEA92188006CA0C66
:1034A00040EA42304F03C5F80080FDF79DF88246A0
:1034B0003846FDF7A2F86FF01201FDF7ABF90746A9
:1034C0003046FDF79AF86FF02501FDF7A3F9834622
:1034D00039465046FCF738FE5946FCF735FE00F5F4
:1034E00000666FF30B0651463046FCF77FFE394607
:1034F000FCF77CFE5946FCF77CFE1049FCF77CFE8D
:1035000007460F493046FCF777FE3946FCF71CFEAC
:1035100007460C493046FCF76FFE3946FCF714FEAF
:1035200014F0004F08BFBDE8F08DC8F1805180F065
:1035300000402960BDE8F08DDC1E0000DB0FC92FC4
:1035400022AAFD290000C92F02E008C8121F08C1E5
:10355000002AFAD170477047002001E001C1121F14
:10356000002AFBD170470000014908607047000045
:10357000B80100202DE9FF4F8BB09A460F46054653
:10358000002606E025280BD052460D9990476D1C69
:10359000761C28780028F5D10FB03046BDE8F08FB2
:1035A0000024A0460122604900E0044315F8013FD1
:1035B000203B02FA03F00842F7D128782E2817D1D1
:1035C00015F8010F44F004042A280ED06FF02F02E2
:1035D0002878A0F1300109290AD808EB880102EB0C
:1035E000410100EB01086D1CF2E757F8048B6D1CDC
:1035F000287869283ED006DC0028CDD063280BD07F
:10360000642804D136E0732810D075284BD0524678
:103610000D999047761C85E017F8040B8DF8000093
:1036200000208DF80100E946012003E057F8049BD3
:103630004FF0FF3061074FF0000401D40AE0641C32
:1036400044450DDA8442FADB19F804100029F6D15A
:1036500006E0641C8442FCDB19F804100029F8D150
:10366000264404E019F8010B52460D999047641E58
:10367000F8D257E001CF4FF00A0B002802DA40429F
:103680002D2102E0210504D52B218DF824100121E4
:1036900003E0E10705D02021F7E70DF120090891AB
:1036A0000CE00021F9E701CF4FF00A0BF9E759468A
:1036B000FDF742F801F1300209F8012D0028F6D19A
:1036C000ADEB090000F1200B600701D44FF00108B9
:1036D000D84502DDA8EB0B0000E000208046002466
:1036E00006E009A85246005D0D999047641C761CBF
:1036F00008988442F5DB04E0302052460D9990474B
:10370000761CB8F10001A8F10108F5DC05E019F814
:10371000010B52460D999047761CBBF10001ABF1AD
:10372000010BF4DC6D1C34E7092801002DE9F041A0
:1037300004464FF00E4000EB4400B0F1506F2046BD
:1037400055D84FF0FC41B1EB440F1CD224F000409F
:103750004FF07E51FCF74DFD4FF0FF31FDF75AF869
:10376000054601F0F1FC14F0004F1DBF2F4F304E05
:1037700080F000402F4F08BF2F4E4FF04041FCF724
:103780003BFD044605E000273E460146FCF734FDBC
:1037900005462A492846FCF72FFD2949FCF7D4FCA9
:1037A0002946FCF729FD2749FCF7CEFC2946FCF702
:1037B00023FD2549FCF7C8FC2946FCF71DFD2349DC
:1037C000FCF7C2FC804629462046FCF715FD414621
:1037D000FCF712FD054631462046FCF7B5FC2946AC
:1037E000FCF7B2FC3946BDE8F041FCF7ADBC4FF048
:1037F000E441B1EB440F08D9FFF75EFD042808BF90
:10380000FFF7E9FD2046BDE8F0814FF07F41B1EBC5
:10381000440F03D2BDE8F041FFF7D4BD0120FFF70C
:10382000A3FEBDE8F041FFF7D2BD00000000C9BF14
:1038300022AAFDB90000C93F22AAFD3924FE1C3D81
:10384000C78AD83C1E67383D1B93993DAFAA2A3ED4
:103850002DE9F84F04460D4621F0004000917349D0
:10386000814211DC7249884201DC06D12CB120462C
:103870002946BDE8F84FFFF798BD6E48002DCCBF34
:103880006D496E49BDE8F88F6D49814211DD6D4982
:103890008142D8BF4FF0FF366DDD20462946FFF745
:1038A000F7FC042808BFFFF785FD20462946BDE840
:1038B000F88F6549654F25F00045814233DD644945
:1038C000814219DD002632464FF0804320462946CA
:1038D000FCF702FD80468A46012220462946FDF774
:1038E000C2F800223B46FCF798FD42465346FCF7DF
:1038F0000CFE04460D463EE001260022BA463B4639
:1039000020462946FCF7E8FC80460F460022534635
:1039100020462946FCF781FD42463B46FCF7F5FD73
:1039200004460D4627E04B4981421BDDDFF828A104
:1039300002260022534620462946FCF774FD002249
:103940003B46FCF7C9FC80460F4600225346204602
:103950002946FCF762FD42463B46FCF7D6FD04468D
:103960000D4608E0032622462B4600203B49FCF783
:10397000CCFD04460D4622462B4610461946FCF760
:1039800052FD8B46824602460B46FCF74CFD07462D
:103990000246334888460B4606217844FFF7B0FCC0
:1039A00052465B46FCF73FFD82462E488B463A4620
:1039B000434605217844FFF7A3FC3A464346FCF70B
:1039C00032FD02460B46002E504659460CDAFCF7F3
:1039D00083FC22462B46FCF726FD01B022462B46EF
:1039E000BDE8F04FFCF71CBDFCF776FC22462B46E9
:1039F000FCF719FD1C4A7A4402EBC603D3E9002305
:103A0000FCF70BFD22462B46FCF707FD174A7A44CC
:103A100002EBC603D3E90023FCF702FD009A002A5B
:103A2000B8BF81F00041BDE8F88F000000001044ED
:103A30000000F07F182D4454FB21F93FFB21F9BF12
:103A40000000DC3F0000203E0000F33F0000F03F9C
:103A50000000E63F008003400000F83F0000F0BF98
:103A600022190000E01800007E180000461800002F
:103A70002DE9F04D9446CCF1000423F000464CEAC9
:103A80000404524F46EAD4749A46884621F0004214
:103A9000BC4206D8454240EA050442EAD474BC421E
:103AA00004D9BDE8F04D6246FFF782BCAAF140554B
:103AB000A5F17F6555EA0C040BD0022404EAAA7430
:103AC000434DDFF810E144EAD87452EA000B04D009
:103AD0000CE0BDE8F04DFFF7BBBE002C14BF012C7D
:103AE000BDE8F08D022C30D0032C32D056EA0C0BFE
:103AF0000AD0BE4220D1BA4209D126F0804622F037
:103B000080423346114617E000291ADB25E0DFF832
:103B1000C8B0FB44002C04BFDBE90001BDE8F08D18
:103B2000012C02BFDBE9000181F00041BDE8F08D0E
:103B3000022C0AD0032C0CD0BA4212D1B8F1000FDB
:103B40000BDA23482549BDE8F08D28462449BDE815
:103B5000F08D28467146BDE8F08D1D482149BDE82D
:103B6000F08D921B12153C2AC4BF19481D490EDC6A
:103B7000BAF1000FBEBF12F13C0F0020014606DB78
:103B80006246FCF7C2FC21F00041FFF761FE002C09
:103B900008BFBDE8F08D012C04BF81F00041BDE8F5
:103BA000F08D114A114B022C07D0FCF736FC2A4647
:103BB000BDE8F04D0A4BFCF730BCFCF72EFC2A4662
:103BC000BDE8F04D064BFCF72BBC00000000F07F79
:103BD000182D4454FB2109C0DA170000FB21F9BF5E
:103BE000FB210940FB21F93F075C143326A6A13CC9
:103BF0002DE9F0474FF0684202EB40030C460546C2
:103C0000B3F1654F3CBF02EB4102B2F1654F7CD28C
:103C1000C0F3C753C1F3C7529A1A1B2A06DD10F02E
:103C2000004F14BF76487748BDE8F08712F11A0FAD
:103C300017DA11F0004F06D010F0004F0CBF724899
:103C40007248BDE8F08721462846FCF707FB04468A
:103C5000FFF732FB042808BFFFF7BDFB2046BDE895
:103C6000F0874200B2EB410F25D910F0004F19BF89
:103C7000674F684E684F694E224685F000441546EE
:103C80000A4680F0004110460A1A5200B2F1807FC5
:103C900040D248406249DFF88CA110F0004F18D0A4
:103CA0004FF03F483846FCF7A1FA074651463046E8
:103CB000FCF79CFA17E011F0004F04BF00263746CE
:103CC000E2D010F0004F19BF574F584E584F594E81
:103CD000DAE74FF07C583846FCF736FA074651468B
:103CE0003046FCF731FA064641462846FCF784FA8E
:103CF0002146FCF729FA824621464046FCF77CFA29
:103D00002946FCF776FA514600E037E0FCF7A6FAC0
:103D1000044604E021462846FCF7A0FA0446014682
:103D2000FCF76AFA80464449FCF766FA4349FCF717
:103D30000BFA4146FCF760FA4149FCF705FA4146A7
:103D4000FCF75AFA3F49FCF7FFF94146FCF754FAF1
:103D50003D49FCF7F9F9054641462046FCF74CFA87
:103D60002946FCF749FA3146FCF7EEF92146FCF703
:103D7000EBF93946BDE8F047FCF7E6B94FF07F4272
:103D8000B2EB400F28BFB2EB410F03D2BDE8F047C2
:103D9000FFF71BBB40EA01035B0008BF44F0FF4193
:103DA0000AD0B2EB400F08BFB2EB410F06D125F0AD
:103DB000804024F0804105460C4629E7B2EB400FD5
:103DC00012BF5FEA410245F0FF4004F000413FF4BA
:103DD0001FAF4A0092EA40033FF51AAF002AACBF7A
:103DE0004FF09F464FF03E563146FCF705FA054628
:103DF00031462046FCF700FA04462846214607E7EC
:103E0000DB0FC9BFDB0FC93FDB0F4940DB0F49C0E8
:103E10000000C9BF22AAFDB90000C93F22AAFD398E
:103E20000060ED3EC30ACE37000049C022AA7DBA29
:103E30000000494022AA7D3A2DAD65BD8FB8D53D21
:103E40000FB511BE61C84C3EA8AAAABE2DE9F84321
:103E5000044602464F486946B0EB420F09D94FF07D
:103E6000E640B0EB420F94BF00204FF0FF300090CF
:103E700030E0494B22F00040834271D94749204647
:103E8000FCF7BAF9FCF7D2FC8046FCF7CCFB00F05B
:103E90000300009042494046FCF7AEF9054641490F
:103EA0004046FCF7A9F906463F494046FCF7A4F90D
:103EB00007463E494046FCF79FF92146FCF799F931
:103EC0003946FCF793F93146FCF790F92946FCF79F
:103ED0008DF904462546009C002C45DB294614F04C
:103EE000010F08461CD0FCF787F906463049FCF75D
:103EF00083F93049FCF77DF93146FCF77DF92E490D
:103F0000FCF722F93146FCF777F92946FCF774F9FA
:103F10002946FCF719F914F0020F1CD0BDE8F8830C
:103F2000FCF76AF905462549FCF766F92449FCF7D0
:103F30000BF92946FCF760F92249FCF705F92946F7
:103F4000FCF75AF94FF07E51FCF7FEF814F0020F1F
:103F500008BFBDE8F88380F00040BDE8F883FFE7C4
:103F60001046FFF73DFAB4E76800B0F17F4F3CBF61
:103F70004FF07E50BDE8F88307D14FF00100FFF706
:103F8000F3FABDE8F843FFF722BA2846BDE8F84344
:103F9000FFF718BAB61F927E490E494683F9223FB1
:103FA0001A61342C0020A23300A0FD390000C93F63
:103FB000336D4C39DA82083CA0AA2ABEB93AB2BAAB
:103FC000CA9F2A3DDDFFFFBE2DE9F04105460E46A2
:103FD000144621462846FCF7A5FB0ED22146304662
:103FE000FCF704F9074621462846FCF7FFF880460F
:103FF0003946FCF733F9BDE8F08184F000472946E3
:104000003846FCF78FFB0DD221463046FCF7EEF820
:10401000074621462846FCF797F880463946FCF7C4
:104020001DF9E8E70020E6E710B502A0FFF720F948
:1040300010BD000044656275672D7573617274313F
:1040400020697320776F726B696E670A0000000049
:104050001FB501218803FEF7FBFA4FF4E130009011
:104060000020ADF80C000C20ADF80A000020ADF8DF
:104070000800ADF80600ADF8040069460348FFF7F4
:1040800085F801210148FFF767F81FBD003801409E
:1040900008B501210420FEF7DBFA03208DF80200A9
:1040A00018208DF803004FF40070ADF80000694649
:1040B0000748FCF7EAFE4FF48060ADF800000420EA
:1040C0008DF8030069460248FCF7DFFE08BD0000DA
:1040D0000008014010B501F0A6F8FFF7A5FF10BDDC
:1040E00030B5044600F064FA054600BF00F060FAFF
:1040F000401BA042FAD330BD70B504460D46E1B274
:104100000548FFF7AFF800BF80210348FFF730F8FC
:104110000028F9D0204670BD0038014010B526486F
:10412000B0F904000F2803DD00202449088010BDE9
:104130002148C08884B240F2CA3084421CDD1F4846
:10414000B0F90000962806DA1C480088401C00B22E
:104150001A4908802EE01948B0F90000962829D1A4
:104160000020164908804FF480711548FCF723FFA2
:104170000120144908701DE00F2C1BDA0F48B0F91C
:104180000000962806DA0D480088401C00B20B4952
:1041900008800FE00948B0F9000096280AD10020F5
:1041A000064908804FF480710548FCF702FF0020A3
:1041B0000449087000BFBAE7400000204A00002010
:1041C000000C01404800002008B5002000900122AA
:1041D0006946752000F086F89DF80000682804D133
:1041E00003A0FFF745F8012008BD0020FCE7000010
:1041F0004D50553630353020697320776F726B69BA
:104200006E672E2E2E0A00000020002100BF08E05D
:10421000002101E04A1C91B2B1F57A7FFADB421C21
:1042200090B2B0F57A7FF3DB704710B500F006FA74
:10423000FFF7EAFF00216B2000F0AAF80721192000
:1042400000F0A6F806211A2000F0A2F800211C2098
:1042500000F09EF818211B2000F09AF8FFF7B4FF39
:1042600010BD1CB50446062269463B2000F03AF812
:104270009DF801009DF8001040EA012000B2208066
:104280009DF803009DF8021040EA012000B2608012
:104290009DF805009DF8041040EA012000B2A080BE
:1042A0001CBD1CB5044606226946432000F01AF8DE
:1042B0009DF801009DF8001040EA012000B2208026
:1042C0009DF803009DF8021040EA012000B26080D2
:1042D0009DF805009DF8041040EA012000B2A0807E
:1042E0001CBD00002DE9F04107460D4616464FF46F
:1042F000005400F047FAD02000F014FA07E02CB97F
:10430000012121A000F082F8BDE8F081641E00F0D8
:104310006DFA0028F3D14FF40054384600F002FA49
:1043200006E024B9022118A000F070F8ECE7641E42
:1043300000F05CFA0028F4D14FF4005400F022FAA7
:10434000D12000F0EFF906E024B903210EA000F01F
:104350005DF8D9E7641E00F049FA0028F4D10FE0B7
:10436000012E06D1002000F0B3F9287000F024FAE5
:1043700004E0012000F0ACF928706D1C701EC6B27C
:10438000002EEDD10120BFE74D50553630353000BD
:1043900070B506460D464FF4005400F0F3F9D020F6
:1043A00000F0C0F906E024B9012116A000F02EF8B3
:1043B00070BD641E00F01AFA0028F4D14FF40054C6
:1043C000304600F0AFF906E024B902210DA000F05C
:1043D0001DF8EDE7641E00F009FA0028F4D1284624
:1043E00000F0A0F906E024B9032106A000F00EF8C1
:1043F000DEE7641E00F0FAF90028F4D100F0DCF9E1
:104400000120D5E74D5055363035300070B50446A3
:104410000D462A46214602A0FEF72AFF002070BD65
:10442000257320493243B5C8B4FDB3ACCAB1A3A1CA
:104430006572726F725F636F6465203D25640A0068
:104440002DE9FF4104464FF07F5000904FF07C5122
:104450002046FBF7D1FE02900194019803900E498B
:104460000398A1EB6000039003980190DDE901102F
:10447000FBF7C2FE07460199FBF7BEFE0646009910
:10448000FBF7B7FE05460199FBF7B6FE01900198D0
:1044900004B0BDE8F0810000865A375F0920FEF7BE
:1044A0009BFA3A49B1F1807F00D31DE021F07F40B3
:1044B000401E4FF0E022506150170F22002807DA0B
:1044C00013071D0E324B00F00F04241F1D5503E08F
:1044D00013071C0E2F4B1C5400BF00204FF0E0228E
:1044E00090610720106100BF00F088FE00F08CFE94
:1044F000FFF7F0FD00F03EFEFFF797FE4FF47A71F4
:10450000482000F051FE00F0B7FC00F029FD3CE02F
:10451000214800880A281FDB00201F49088000F07E
:1045200047F81E490968401A1D49086000F040F824
:104530001A490860FCF744FD1A48007840B1FCF7BE
:10454000F3FE28B1002017490870012016490870B1
:10455000FCF710FBFCF79CFB00F070F9FFF7DEFDA9
:104560001248007888B100201049087000F020F847
:104570000A494968401A0A49486000F019F8074991
:10458000486000F0D5FAFCF7B3FAC1E74019010022
:1045900018ED00E000E400E06000002014000020BE
:1045A0002400002054010020EC02002052000020D2
:1045B00000BF0E4801684FF0E02082690B48006898
:1045C0008142F6D10A48006800EB4003C3EBC010FB
:1045D000C2EBC000064B1B68B0FBF3F001EB4103DC
:1045E000C3EBC11300EBC300704700003000002094
:1045F0002C000020014800687047000030000020B7
:1046000010B580210C48FCF7D4FC40210A48FCF787
:10461000D2FC0120FFF764FD40210748FCF7C9FCEC
:104620000120FFF75DFD80210348FCF7C4FC012059
:10463000FFF756FD10BD0000000C014008B5012138
:104640000820FEF705F82020ADF8000001208DF8C5
:10465000020048208DF8030069460D48FCF715FC60
:1046600014208DF803004020ADF80000694608488A
:10467000FCF70BFC8020ADF8000014208DF803003F
:1046800069460348FCF701FC00F096F808BD0000FD
:10469000000C014010B540210C48FCF78AFC802139
:1046A0000A48FCF788FC0120FFF71AFD4021074863
:1046B000FCF781FC0120FFF713FD40210348FCF7C4
:1046C00078FC0120FFF70CFD10BD0000000C01403C
:1046D00070B505460024002618E06006040E40214F
:1046E0000F48FCF768FC0120FFF7FAFC80210C481A
:1046F000FCF756FC08B1601CC4B240210848FCF726
:1047000058FC0120FFF7ECFC701CC6B2082EE4DB5D
:1047100015B9FFF7BFFF01E0FFF772FF204670BD3C
:10472000000C014070B50446002526E004F080002E
:1047300020B180211248FCF73EFC03E080211048A4
:10474000FCF737FC0120FFF7CBFC40210C48FCF7BD
:1047500032FC0120FFF7C4FC40210948FCF729FC8A
:10476000072D03D180210648FCF725FC6006040EC6
:104770000120FFF7B5FC681CC5B2082DD6DB70BD63
:10478000000C014010B580210A48FCF714FC4021C0
:104790000848FCF710FC0420FFF7A2FC8021054824
:1047A000FCF707FC0420FFF79BFC40210148FCF7C5
:1047B00000FC10BD000C014010B540210A48FCF778
:1047C000F8FB80210848FCF7F4FB0420FFF788FC85
:1047D00040210548FCF7EFFB80210348FCF7EBFB89
:1047E0000420FFF77DFC10BD000C014010B58021B6
:1047F0000E48FCF7E0FB0120FFF772FC40210B485C
:10480000FCF7D9FB0120FFF76BFC80210748FCF780
:10481000C7FB08B1012400E0002440210348FCF755
:10482000C8FB0120FFF75CFC204610BD000C0140D6
:1048300010B500F047F900F019F910BD7CB56846D5
:1048400000F0BAFB9DF800109DF8012041EA02201B
:10485000FBF7CAFE06464FF08B41FBF7FFFC05460F
:104860002749FBF7C9FC0446FBF7DDFE00B22549EA
:1048700008809DF802109DF8032041EA0220FBF712
:10488000B3FE06464FF08B41FBF7E8FC05461C499A
:10489000FBF7B2FC0446FBF7C6FE00B2194948809C
:1048A0009DF804109DF8052041EA0220FBF79CFECC
:1048B00006464FF08B41FBF7D1FC05461049FBF74C
:1048C0009BFC0446FBF7AFFE00B20E4988809DF8C2
:1048D00006109DF8072041EA0220FBF785FE0646F8
:1048E0004FF08B41FBF7BAFC05460549FBF784FC0A
:1048F0000446FBF798FE00B20249C8807CBD000068
:1049000000007A444000002010B50446214602A071
:10491000FEF7AEFC002010BD6E726620B5C8B4FD77
:10492000B3ACCAB1A3A16572726F72436F646520A4
:104930003D25640A00000000F0B587B00027002480
:104940000025002601210846FDF762FE4FF0804059
:10495000FEF73EF90020ADF81600ADF8120040F267
:10496000E730ADF814004720ADF8100000208DF8B6
:10497000180004A94FF08040FEF79CFB6020ADF8C2
:1049800000000120ADF802000020ADF80600ADF8EF
:104990000800ADF8067069464FF08040FEF726FA31
:1049A000ADF8064069464FF08040FEF775FAADF865
:1049B000065069464FF08040FEF7CEFAADF806602B
:1049C00069464FF08040FEF721FB0821C806FEF73C
:1049D00059FA0821C806FEF7B1FA0821C806FEF701
:1049E0000BFB0821C806FEF74FFB01218807FEF7E5
:1049F000E3F807B0F0BD000008B501210420FDF781
:104A000027FE18208DF8030002208DF802000120F7
:104A1000ADF8000069461448FCF737FA0220ADF8FB
:104A2000000069461048FCF730FA0420ADF8000099
:104A300069460D48FCF729FA0820ADF800006946E0
:104A40000948FCF722FA01210748FCF7B2FA0221D3
:104A50000548FCF7AEFA04210348FCF7AAFA08213E
:104A60000148FCF7A6FA08BD0008014000B585B072
:104A700001210803FDF7ECFD1020ADF80C0000202B
:104A8000ADF80800ADF806000720ADF810000020D2
:104A9000ADF80400ADF80000ADF80E004FF48270E0
:104AA000ADF802004FF40070ADF80A006946044802
:104AB000FDF7F6FE01210248FDF7D8FE05B000BD66
:104AC0000030014008B501210420FDF7C1FD01219E
:104AD0000846FDF7BDFD18208DF8030001208DF874
:104AE0000200E020ADF8000069460F48FCF7CDF960
:104AF00010208DF80300ADF8000069460A48FCF765
:104B0000C4F90220ADF8000069460848FCF7BDF979
:104B100048208DF803000120ADF8000069460348E5
:104B2000FCF7B3F908BD000000080140000C01408B
:104B30002DE9F0474D48B0F90400002802DA0020C2
:104B40004A4988804948B0F90400B0F57A7F03DD0E
:104B50004FF47A70454988804448B0F9060000282F
:104B600002DA00204149C8804048B0F90600B0F59B
:104B70007A7F03DD4FF47A703C49C8803B48B0F936
:104B80000200002802DA0020384948803748B0F98E
:104B90000200B0F57A7F03DD4FF47A703349488024
:104BA0003248B0F90000002802DA00202F490880BE
:104BB0002E48B0F90000B0F57A7F03DD4FF47A702B
:104BC0002A4908802949B1F90010A1F5FA70FBF7CC
:104BD0000BFD8146264A2749FFF7F6F90446FBF705
:104BE0004FFD07460022244BFBF71DFC0546FBF753
:104BF00073FD224908601D49B1F90210A1F5FA7050
:104C0000FBF7F2FC81461A4A1A49FFF7DDF9044620
:104C1000FBF736FD07460022194BFBF704FC05465F
:104C2000FBF75AFD154948601049B1F90610A1F586
:104C3000FA70FBF7D9FC8146124A0E49FFF7C4F916
:104C40000446FBF71DFD07460F4A104BFBF7EBFB35
:104C50000546FBF741FD094988600449B1F90400A4
:104C6000FBF7C2FC0549C860BDE8F08740000020A2
:104C7000000048420000FA4300004440BC0100200C
:104C8000000044C000008C42D9CEF753E3A54C404D
:104C90002DE9F8430446024652486946B0EB420FFC
:104CA00009D94FF0E640B0EB420F94BF00204FF01F
:104CB000FF30009030E04C4B22F00040834271D92D
:104CC0004A492046FBF798FAFBF7B0FD8046FBF710
:104CD000AAFC00F00300009045494046FBF78CFA1F
:104CE000054644494046FBF787FA06464249404696
:104CF000FBF782FA074641494046FBF77DFA214619
:104D0000FBF777FA3946FBF771FA3146FBF76EFA93
:104D10002946FBF76BFA04462546009C002C45DB30
:104D2000294614F0010F08461ED0FBF765FA054628
:104D30003349FBF761FA3349FBF706FA2946FBF7DB
:104D40005BFA3149FBF700FA2946FBF755FA4FF0B9
:104D50007E51FBF7F9F914F0020F08BFBDE8F883A4
:104D600080F00040BDE8F883FBF746FA0646274985
:104D7000FBF742FA2649FBF73CFA3146FBF73CFACF
:104D80002449FBF7E1F93146FBF736FA2946FBF7F0
:104D900033FA2946FBF7D8F914F0020FE0D1BDE849
:104DA000F883FFE71046FEF71BFBB4E76800B0F19D
:104DB0007F4F09D22846FEF77FFA042808BFFEF786
:104DC0000AFB2846BDE8F88306D10120FEF7CCFB9C
:104DD000BDE8F843FEF7FBBA2846BDE8F843FEF706
:104DE000F1BA0000B61F927E490E494683F9223F70
:104DF0001A61342C0020A23300A0FD390000C93F05
:104E0000B93AB2BACA9F2A3DDDFFFFBE336D4C39B5
:104E1000DA82083CA0AA2ABE1FB514A103C9CDE9B5
:104E2000020102211348FCF7C4F8052202A9302030
:104E300000F0FCF805226946102000F039F8022144
:104E40000C48FCF7B8F8002406E01DF80400A5287B
:104E500000D003E0601CC4B2052CF6DB00BF052CBB
:104E600002D1012004B010BD0020FBE7A5A5A5A537
:104E7000A5000000000C014010B5FFF7D9FC10217F
:104E80000548FCF798F8FFF7C7FF0446214603A042
:104E9000FEF7EEF910BD00000008014043686563AD
:104EA0006B696E67206E72662E2E2E2025640A00B6
:104EB0002DE9F04105460E46174610210C48FCF737
:104EC00078F829460B4800F0D5F88046002406E023
:104ED0000021084800F0CEF83055601CC4B2BC4236
:104EE000F6DB10210248FCF766F84046BDE8F08189
:104EF000000801400030014070B504461021094807
:104F0000FCF757F82146084800F0B4F8002106489D
:104F100000F0B0F8054610210248FCF74CF828468E
:104F200070BD0000000801400030014070B504462B
:104F30000D4610210848FCF73CF82146074800F0D0
:104F400099F806462946054800F094F810210248D1
:104F5000FCF731F8304670BD0008014000300140D8
:104F600010B502211248FCF724F8052211492A2025
:104F700000F05CF801212120FFF7D8FF0121222059
:104F8000FFF7D4FF28212520FFF7D0FF082131208B
:104F9000FFF7CCFF0F212620FFF7C8FF0F212020AD
:104FA000FFF7C4FF02210248FCF705F810BD00001E
:104FB000000C01403500002070B505466426022132
:104FC0001948FBF7F8FF08E03000A6F10101CEB266
:104FD00003D1FFF799FCC0B270BD01211248FBF765
:104FE000DFFF0028F0D102210F48FBF7E2FF072086
:104FF000FFF782FF044621462720FFF797FF04F0C2
:10500000400070B1082229466120FFF751FFFF21BF
:10501000E220FFF78BFF02210348FBF7CCFF0120C2
:10502000DAE70020D8E70000000C01402DE9F0414C
:1050300005460E46174610210C48FBF7BAFF2946D5
:105040000B4800F017F88046002405E0315D084861
:1050500000F010F8601CC4B2BC42F7DB102103481A
:10506000FBF7A9FF4046BDE8F081000000080140C1
:105070000030014070B505460E46642407E0601E0E
:10508000C4B224B9002000F021F8C0B270BD0221E2
:105090002846FDF7F7FB0028F1D031462846FDF7FA
:1050A000FDFB642407E0601EC4B224B9012000F0B7
:1050B0000DF8C0B2EAE701212846FDF7E3FB00281E
:1050C000F1D02846FDF7E7FBC0B2DFE710B5044694
:1050D000214602A0FEF7CCF8002010BD5350492015
:1050E000B5C8B4FDB3ACCAB121206572726F72430A
:1050F0006F6465203D2025640A0000002DE9F04121
:1051000006460F46FBF70DFC04000D4618BF0120B4
:10511000284320F00040C0F17F6000F1E040C00F64
:105120000ED0301C18BF0120384320F00040C0F1E1
:105130007F6000F1E040C00F04BF0120FEF714FAC9
:1051400020462946BDE8F08170B50546FBF75CFCBA
:10515000044620F00040C0F1FF40C00F08D025F009
:105160000040C0F1FF40C00F04BF0120FEF7FCF972
:10517000204670BD08B501210820FDF769FA03201B
:105180008DF8020010208DF803000001ADF800003A
:1051900069460448FBF779FE4FF480710148FBF73C
:1051A00008FF08BD000C01403EB505460C46012134
:1051B0000420FDF72DFA1048FDF70AFDA0B2ADF866
:1051C0000400681E80B2ADF800000020ADF80600B3
:1051D000ADF8020069460848FDF76CFF012106485A
:1051E000FDF7E4FC012211460348FDF7F6FD01211D
:1051F0000148FDF7E1FC3EBD0008004010B5FFF797
:10520000FBFBFFF799FB10BD08B51E208DF80000D1
:1052100001208DF801008DF802008DF8030068462A
:10522000FCF794FB08BD10B5FEF732FFFEF710FF48
:1052300010BD00000000803F0000000000000000E2
:10524000000000000000803F00000000000000009F
:10525000000000000000803F4FBB610567ACDD3FF0
:10526000182D4454FB21E93F9BF681D20B73EF3F8D
:10527000182D4454FB21F93FE2652F227F2B7A3C05
:10528000075C143326A6813CBDCBF07A8807703CBE
:10529000075C143326A6913CC4EB98999999C9BF31
:1052A000711623FEC671BCBF6D9A74AFF2B0B3BF66
:1052B0009AFDDE522DDEADBF2F6C6A2C44B4A2BF26
:1052C0000D5555555555D53FFF8300922449C23F92
:1052D0006E204CC5CD45B73F513DD0A0660DB13FC6
:1052E000EB0D76244B7BA93F11DA22E33AAD903FD8
:1052F0000000000000000000000000006E83F9A222
:105300002915444ED15727FCC0DD34F5999562DB51
:105310004190433CAB6351FE38530008000000202D
:10532000BC010000940A000864530008BC0100207E
:105330002406000058350008412D01020304040032
:105340000918060708090204060882483E3443107B
:10535000100105114BF40102012109202201D303A0
:045360005C803F002E
:04000005080000ED02
:00000001FF
