:020000040800F2
:1000000008260020010100083F05000869030008D8
:100010003B0500084D020008950C00080000000098
:10002000000000000000000000000000250A000899
:1000300051020008000000006F010008110B0008C9
:100040001B0100081B0100081B0100081B01000820
:100050001B0100081B0100081B0100081B01000810
:100060001B0100081B0100081B0100081B01000800
:100070001B0100081B0100081B0100081B010008F0
:100080001B0100081B0100081B0100081B010008E0
:100090001B0100081B0100081B0100081B010008D0
:1000A0001B0100081B0100081B0100081B010008C0
:1000B0001B0100081B0100081B0100081B010008B0
:1000C0001B0100081B0100081B0100081B010008A0
:1000D0001B0100081B0100081B0100081B01000890
:1000E0001B0100081B0100081B010008DFF80CD0F1
:1000F00000F098F80048004759130008082600202F
:100100000648804706480047FEE7FEE7FEE7FEE7B1
:10011000FEE7FEE7FEE7FEE7FEE7FEE7210B00084D
:10012000ED000008EFF3108072B6704780F310887E
:1001300070471F484FF0FF010170002080F30988CD
:100140001C48016881F308881B48012101701B4885
:100150004FF08051016062B6FEE718484FF08051C1
:100160000160704715484FF080510160704772B6CA
:10017000EFF3098028B1203880E8F00F10490968B2
:10018000086000B50F4880475DF804EB0E480F4942
:100190000A7802700A480E490A680260106890E8FE
:1001A000F00F203080F309884EF0040E62B67047DD
:1001B00022ED00E0140000204200002004ED00E0E9
:1001C000480000204D0600083700002038000020BD
:1001D0005000002040EA01039B0703D009E008C952
:1001E000121F08C0042AFAD203E011F8013B00F8FC
:1001F000013B521EF9D2704730B50B460146002034
:100200002022012409E021FA02F59D4205D303FAD8
:1002100002F5491B04FA02F52844151EA2F1010259
:10022000F1DC30BD064C074D06E0E06840F001030C
:1002300094E8070098471034AC42F6D3FFF75AFF12
:1002400030150008501500087047704700BFFEE7E2
:1002500070472DE9F04102460025002600200023CA
:100260000024002791F803C00CF00F0591F803C09B
:100270000CF0100CBCF1000F03D091F802C04CEA56
:10028000050591F800C0BCF1000F31D014680020C2
:100290002BE04FF0010C0CFA00F3B1F800C00CEAAF
:1002A00003069E4220D183004FF00F0C0CFA03F797
:1002B000BC4305FA03FC4CEA040491F803C0BCF10A
:1002C000280F06D14FF0010C0CFA00FCC2F814C044
:1002D0000AE091F803C0BCF1480F05D14FF0010CC2
:1002E0000CFA00FCC2F810C0401C0828D1D31460DE
:1002F000B1F800C0BCF1FF0F34DD546800202EE0DF
:1003000000F1080C4FF0010808FA0CF3B1F800C036
:100310000CEA03069E4221D183004FF00F0C0CFA29
:1003200003F7BC4305FA03FC4CEA040491F803C04C
:10033000BCF1280F05D100F1080C08FA0CF8C2F83E
:10034000148091F803C0BCF1480F07D100F1080CEC
:100350004FF0010808FA0CF8C2F81080401C082879
:10036000CED35460BDE8F08100BFFEE721B1028822
:1003700042F48062028004E002884FF6FF331A40A4
:100380000280704770B5024600240025002300203B
:10039000958A138B1B0445EA030626F07F4404EA82
:1003A00001068E4201D1012000E0002070BD21B184
:1003B000028842F00102028004E002884FF6FE73D8
:1003C0001A400280704721B1028842F48072028094
:1003D00004E002884FF6FF631A400280704721B1A3
:1003E000028842F40072028004E002884FF6FF5354
:1003F0001A40028070470CB502460020002301938A
:10040000009300920B0F019321F07F41019B1BB1E0
:10041000009B1433009303E0090C009B18330093F6
:10042000009B1B680B400BB1012000E000200CBDBD
:100430002DE9F04385B004460D460026B146042759
:10044000DFF8CC80A6884FF6C0700640684600F002
:100450007FFADDF808802F48B8FBF0F01FFA80F92A
:1004600046EA0906A68020884FF6FE7108402080E3
:1004700000262949286888420CD828684000B8FB23
:10048000F0F087B2042F00DA04273E4309F101009F
:10049000208427E0E8884BF6FF71884206D128685F
:1004A00000EB4000B8FBF0F087B209E0286800EBF1
:1004B000C00101EB0010B8FBF0F087B247F48047B1
:1004C000C7F30B0008B947F0010747F400400643A3
:1004D0004FF4967009FB00F04FF47A7190FBF1F045
:1004E000401C2084A683208840F0010020802688BC
:1004F0004FF6F5300640A8886989084306432680F0
:10050000A88929890843208105B0BDE8F08300004F
:1005100000127A0040420F00A08601000146088ABE
:10052000C0B2704712B141F0010102E04FF6FE7314
:100530001940018270470182704700BFFEE7704793
:1005400006480078012808D105480078FF2804D221
:1005500003480078401C02490870704742000020A0
:100560003500002010B500241A480078012830D149
:10057000FFF7D8FD04461848007820B116480078E7
:10058000401E1549087014480078F8B913480078DF
:10059000E0B900F0A7F912481249097850F8210093
:1005A000114908600F4800781049097888420DD039
:1005B0000D480068C06A401C0B490968C8620C48B5
:1005C0000068401C0A490860FFF7CCFD2046FFF791
:1005D000ADFD10BD42000020350000203600002097
:1005E0003C1500203800002050000020370000207B
:1005F0001C00002070B5044600252078032801D097
:10060000012070BDFFF78EFD0546A07A60B1002382
:1006100001221946204600F0B1F82846FFF786FD72
:1006200000F026F90020ECE720894FF6FF718842A0
:1006300007D22089401C20812846FFF777FD002043
:10064000DFE72846FFF772FD3320DAE710B5FFF742
:10065000FBFD10BD70B5002600F072F8FFF762FDDB
:10066000064631480068401C2F4908603046FFF7B5
:100670005DFD2E480078012853D12D48007820B127
:10068000012804D0022809D103E001250BE0002550
:1006900009E0012501202649087004E00125002019
:1006A0002349087000BF00BF05B970BD2148046828
:1006B00033E0FFF737FD0646206A50B3206A401E3C
:1006C0002062206A28BB94F8240000F0370040B173
:1006D00014F8240F00F0C800207001206070243C42
:1006E00002E0002084F8250094F8240000F00800BF
:1006F00078B92834A0781049097808430E49087061
:1007000020780E49085C6178084314F828190B4AD0
:10071000505464683046FFF709FD94F826003F28DE
:10072000C7D100BFC1E700006800002042000020E0
:100730005800002054000020390000203A0000201A
:1007400010B5FFF782FD07480088401C0549088066
:1007500008460088642803DB0020088000F004F8C5
:1007600010BD00001800002010B503480068FFF716
:1007700041FF0446204610BD780000202DE9F04FCF
:1007800005460F4690469946A87A1C490E5C05F12D
:100790000B00805D11F800B00BEBC60000F0FF0A03
:1007A000174850F82A4000201434E0602760207C6D
:1007B00020EA0800207484F81190207C143C00F09A
:1007C000080068B994F82A000E49097808430D49D1
:1007D00008700D48805D94F8291008430A4988552F
:1007E0002946204600F012F8206920B120462169F0
:1007F00000F021F8E5605046BDE8F08F30140008A5
:100800003C150020390000203A00002010B590F877
:10081000282001F10B039B5C90F82940A34301F1D0
:100820000B04A35423469B5C23B98B7A90F82A408F
:10083000A3438B7210BDF0B5024612F8284F95788D
:100840005678283A0B4618680FE000F10B073F5D19
:10085000B74300F10B0C0CF8047067463F5D17B905
:10086000877AAF4387721B1D18680028EDD1F0BD51
:1008700010B50024FFF756FC044613480078F8B979
:1008800012480078E0B900F02DF8114811490978B4
:1008900050F82100104908600E4800780F49097887
:1008A00088420DD00C480068C06A401C0A4909689B
:1008B000C8620B480068401C09490860FFF74DFCFE
:1008C0002046FFF733FC10BD350000203600002025
:1008D0003C15002038000020500000203700002088
:1008E0001C0000200649074A1278885C0649095C0A
:1008F000034A515C01EBC001044A117070470000CB
:1009000030140008390000203A0000203800002090
:1009100029B1064AD2690243044BDA6104E0034A72
:10092000D2698243014BDA61704700000010024037
:1009300029B1064A92690243044B9A6104E0034AD2
:1009400092698243014B9A61704700000010024097
:1009500030B500210022002400232D4D6D6805F0E4
:100960000C0121B1042905D0082923D105E0294D26
:10097000056022E0274D05601FE0254D6D6805F4F8
:100980007012234D6D6805F48034022505EB924208
:100990001CB9214D554305600BE01D4D6D6805F4F4
:1009A00000351DB11C4D5543056002E0194D5543FE
:1009B000056002E0174D056000BF00BF144D6D6873
:1009C00005F0F0010909154D6B5C0568DD404560D7
:1009D0000F4D6D6805F4E061090A104D6B5C4568C8
:1009E000DD4085600A4D6D6805F46051C90A0B4D04
:1009F0006B5C4568DD40C560054D6D6805F44041A0
:100A0000890B074D6B5CC568B5FBF3F5056130BD1F
:100A10000010024000127A0000093D000000002092
:100A200010000020704710B500F002F810BD000063
:100A30000CB50020019000903348006840F48030ED
:100A40003149086000BF3048006800F40030009071
:100A50000198401C0190009818B90198B0F5A06F5A
:100A6000F1D12948006800F4003010B10120009055
:100A700001E0002000900098012843D1234800683D
:100A800040F01000214908600846006820F003008B
:100A900008600846006840F0020008601A48406894
:100AA000194948600846406848600846406840F474
:100AB000806048600846406820F47C104860084622
:100AC000406840F4E81048600846006840F08070D4
:100AD000086000BF0C48006800F000700028F9D0E2
:100AE0000948406820F0030007494860084640680C
:100AF00040F00200486000BF0348406800F00C006E
:100B00000828F9D10CBD000000100240002002406E
:100B100010B5FFF715FDFFF79DFDFFF723FD10BD95
:100B200010B51348006840F00100114908600846FC
:100B30004068104908400E494860084600680E4960
:100B400008400B4908600846006820F480200860CF
:100B50000846406820F4FE0048604FF41F0088609B
:100B6000FFF761FF4FF000600449086010BD00000E
:100B7000001002400000FFF8FFFFF6FE08ED00E065
:100B800021B1828942F40052828104E082894DF6CB
:100B9000FF731A408281704702460020B1F5007F42
:100BA00000D100BF13880B400BB1012000E00020F2
:100BB000704700002DE9F04786B005460E46002438
:100BC000A24600BFA1460027B08900B100BF2F4652
:100BD0002C8A4CF6FF700440F08804432C82AC89C8
:100BE0004EF6F3100440B0883189084371890843F8
:100BF0000443AC81AC8A4FF6FF400440B089044303
:100C0000AC8201A8FFF7A4FE1F48874202D1DDF89D
:100C100010A001E0DDF80CA0A88900F4004040B16C
:100C20000AEBCA0000EB0A1031684900B0FBF1F88A
:100C300007E00AEBCA0000EB0A1031688900B0FB3C
:100C4000F1F86420B8FBF0F004012009642101FBF5
:100C50001089A88900F4004040B1322000EBC9009F
:100C6000B0FBF1F000F00700044308E0322000EB95
:100C700009106421B0FBF1F000F00F0004432C8157
:100C800006B0BDE8F087000000380140C1F308025B
:100C90008280704700BFFEE70FB4054B10B503A973
:100CA000044A029800F018F810BC5DF814FB00002C
:100CB0005D0F00088000002002E008C8121F08C174
:100CC000002AFAD170477047002001E001C1121FCD
:100CD000002AFBD1704700002DE9FF4F8BB09A46E8
:100CE0000F460546002606E025280BD052460D99F2
:100CF00090476D1C761C28780028F5D10FB030463F
:100D0000BDE8F08F0024A0460122604900E00443C2
:100D100015F8013F203B02FA03F00842F7D128788A
:100D20002E2817D115F8010F44F004042A280ED0FC
:100D30006FF02F022878A0F1300109290AD808EBBA
:100D4000880102EB410100EB01086D1CF2E757F846
:100D5000048B6D1C287869283ED006DC0028CDD095
:100D600063280BD0642804D136E0732810D075288E
:100D70004BD052460D999047761C85E017F8040B2E
:100D80008DF8000000208DF80100E946012003E005
:100D900057F8049B4FF0FF3061074FF0000401D477
:100DA0000AE0641C44450DDA8442FADB19F80410A9
:100DB0000029F6D106E0641C8442FCDB19F804101B
:100DC0000029F8D1264404E019F8010B52460D9988
:100DD0009047641EF8D257E001CF4FF00A0B00286D
:100DE00002DA40422D2102E0210504D52B218DF8A5
:100DF0002410012103E0E10705D02021F7E70DF1E0
:100E0000200908910CE00021F9E701CF4FF00A0B0F
:100E1000F9E75946FFF7F0F901F1300209F8012D21
:100E20000028F6D1ADEB090000F1200B600701D4DA
:100E30004FF00108D84502DDA8EB0B0000E00020D0
:100E40008046002406E009A85246005D0D999047AF
:100E5000641C761C08988442F5DB04E0302052467E
:100E60000D999047761CB8F10001A8F10108F5DC56
:100E700005E019F8010B52460D999047761CBBF11D
:100E80000001ABF1010BF4DC6D1C34E70928010013
:100E900000B587B01C2205A16846FFF79BF969469B
:100EA00009A0FFF7F9FE07B000BD000044656275B8
:100EB000672D75736172743120697320776F726B5F
:100EC000696E670A00000000257300001FB501214C
:100ED0008803FFF72DFD4FF4E13000900020ADF8BE
:100EE0000C000C20ADF80A000020ADF80800ADF8A9
:100EF0000600ADF8040069460348FFF75BFE0121D8
:100F00000148FFF73DFE1FBD0038014008B5012133
:100F10000420FFF70DFD03208DF8020018208DF846
:100F200003004FF40070ADF8000069460748FFF772
:100F300090F94FF48060ADF8000004208DF80300B4
:100F400069460248FFF785F908BD00000008014026
:100F500010B500F067FAFFF79BFF10BD70B50446AF
:100F60000D46E1B20548FFF791FE00BF802103481E
:100F7000FFF712FE0028F9D0204670BD003801406E
:100F800008B50020009001226946752000F0CAF8DB
:100F90009DF8001005A0FFF77FFE9DF8000068286F
:100FA00001D1012008BD0020FCE7000076616C75CE
:100FB00065203D2025640A0010B520216A2000F03C
:100FC00055F90821242000F051F91321342000F0B4
:100FD0004DF90121672000F049F91E21252000F07C
:100FE00045F90021262000F041F90421632000F09A
:100FF0003DF98121272000F039F91E21252000F03C
:1010000035F90121262000F031F9C021632000F0DC
:101010002DF98121272000F029F91E21252000F03B
:1010200025F90221262000F021F90021632000F09B
:101030001DF98121272000F019F910BD00200021A1
:1010400000BF08E0002101E04A1C91B2B1F57A7FAF
:10105000FADB421C90B2B0F57A7FF3DB704710B533
:1010600000F08DF9FFF7EAFF00216B2000F0FEF899
:101070000721192000F0FAF830211A2000F0F6F8C4
:1010800001211C2000F0F2F818211B2000F0EEF8DE
:1010900010BD10B520216A2000F0E8F808212420B6
:1010A00000F0E4F89E21252000F0E0F8032126203E
:1010B00000F0DCF88621272000F0D8F810BD0000F1
:1010C0001CB5044606226946492000F02BF89DF81D
:1010D000021010A0FFF7E0FD9DF801009DF8001040
:1010E00040EA012000B220809DF803009DF8021024
:1010F00040EA012000B260809DF805009DF80410D0
:1011000040EA012000B2A080B4F9041003A0FFF768
:10111000C3FD1CBD2D2D2D3A25640A002D2D3A2529
:10112000640A00002DE9F04107460E4615464FF4CB
:10113000805407E02000A4F1010403D100F0F2F88C
:10114000BDE8F0814FF400314548FFF754F900281D
:10115000F0D14FF4805401214148FFF734F905E004
:101160001CB9012000F0DEF8EAE7641E3D493C4866
:10117000FFF708F90028F3D04FF480540022D02163
:101180003748FFF7CFF905E01CB9022000F0CAF894
:10119000D6E7641E34493248FFF7F4F80028F3D04C
:1011A00001212F48FFF703F94FF4805439462C48AA
:1011B000FFF7C1F905E01CB9032000F0B3F8BFE761
:1011C000641E2949891C2648FFF7DCF80028F2D064
:1011D0004FF4805401212248FFF7F5F805E01CB9CF
:1011E000042000F09FF8ABE7641E1E491C48FFF77F
:1011F000C9F80028F3D04FF480540122D0211848B8
:10120000FFF790F905E01CB9052000F08BF897E78F
:10121000641E1449491C1248FFF7B4F80028F2D0A4
:1012200016E0012D07D100210D48FFF79FF801219D
:101230000B48FFF7D4F80B493F310948FFF7A2F8F4
:1012400030B10748FFF76AF93070761C681EC5B2E6
:10125000002DE6D101210248FFF788F801206FE751
:1012600000540040010003008200070070B50546ED
:101270000E464FF4805401212748FFF7A4F805E0FB
:101280001CB9002000F04EF870BD641E23492248AE
:10129000FFF778F80028F3D04FF480540022D021D3
:1012A0001D48FFF73FF905E01CB9012000F03AF8AE
:1012B000EAE7641E1A491848FFF764F80028F3D0DB
:1012C0004FF4805429461448FFF735F905E01CB95E
:1012D000022000F027F8D7E7641E1149891C0E4848
:1012E000FFF750F80028F2D031460B48FFF723F9FA
:1012F00005E01CB9032000F015F8C5E7641E084995
:10130000891C0548FFF73EF80028F2D00121024869
:10131000FFF765F80120B7E7005400400100030023
:101320008200070010B50446214602A0FFF7B4FC76
:10133000002010BD4D50553630353020B5C8B4FDB5
:10134000B3ACCAB1A3A16572726F72436F646520BA
:101350003D25640A000000001CB5002000900190AB
:10136000FFF7F6FDFFF77BFEFFF70AFEFFF724FE0F
:10137000FFF78FFE6846FFF7A3FE00201CBD10B5E7
:1013800000F02AF800F002F810BD00001FB501219E
:101390004805FFF7BDFA0020ADF804004BF6FF70DA
:1013A000ADF806000A20ADF808004FF48060ADF8F3
:1013B0000A000001ADF80C00054800906946054898
:1013C000FFF736F801210348FEF7F1FF1FBD0000CB
:1013D000A08601000054004008B501210820FFF755
:1013E000A7FA2020ADF8000003208DF8020010209D
:1013F0008DF8030069460A48FEF72BFF4020ADF840
:1014000000001C208DF8030069460548FEF721FF07
:101410008020ADF8000069460148FEF71AFF08BDBC
:10142000000C014010B5FFF771FDFFF74FFD10BD37
:1014300000000100020001000300010002000100A1
:10144000040001000200010003000100020001008D
:10145000050001000200010003000100020001007C
:10146000040001000200010003000100020001006D
:10147000060001000200010003000100020001005B
:10148000040001000200010003000100020001004D
:10149000050001000200010003000100020001003C
:1014A000040001000200010003000100020001002D
:1014B000070001000200010003000100020001001A
:1014C000040001000200010003000100020001000D
:1014D00005000100020001000300010002000100FC
:1014E00004000100020001000300010002000100ED
:1014F00006000100020001000300010002000100DB
:1015000004000100020001000300010002000100CC
:1015100005000100020001000300010002000100BB
:1015200004000100020001000300010002000100AC
:10153000501500080000002084000000B80C0008CE
:10154000D41500088400002084250000C80C000881
:101550000000000001020304010203040607080959
:101560000204060800000000000000000000000067
:10157000000000000000000000000000000000006B
:10158000000000000000000000000000000000005B
:10159000000000000000000000000000000000004B
:1015A000000000000000000000000000000000003B
:1015B000000000000000000000000000000000002B
:1015C000000000000000000000000000000000001B
:0415D0000000000017
:04000005080000ED02
:00000001FF
